{
	"Contracts/BToken.sol": {
		"BToken": {
			"abi": [
				{
					"anonymous": false,
					"inputs": [
						{
							"indexed": true,
							"internalType": "address",
							"name": "src",
							"type": "address"
						},
						{
							"indexed": true,
							"internalType": "address",
							"name": "dst",
							"type": "address"
						},
						{
							"indexed": false,
							"internalType": "uint256",
							"name": "amt",
							"type": "uint256"
						}
					],
					"name": "Approval",
					"type": "event"
				},
				{
					"anonymous": false,
					"inputs": [
						{
							"indexed": true,
							"internalType": "address",
							"name": "src",
							"type": "address"
						},
						{
							"indexed": true,
							"internalType": "address",
							"name": "dst",
							"type": "address"
						},
						{
							"indexed": false,
							"internalType": "uint256",
							"name": "amt",
							"type": "uint256"
						}
					],
					"name": "Transfer",
					"type": "event"
				},
				{
					"constant": true,
					"inputs": [],
					"name": "BONE",
					"outputs": [
						{
							"internalType": "uint256",
							"name": "",
							"type": "uint256"
						}
					],
					"payable": false,
					"stateMutability": "view",
					"type": "function"
				},
				{
					"constant": true,
					"inputs": [],
					"name": "BPOW_PRECISION",
					"outputs": [
						{
							"internalType": "uint256",
							"name": "",
							"type": "uint256"
						}
					],
					"payable": false,
					"stateMutability": "view",
					"type": "function"
				},
				{
					"constant": true,
					"inputs": [],
					"name": "EXIT_FEE",
					"outputs": [
						{
							"internalType": "uint256",
							"name": "",
							"type": "uint256"
						}
					],
					"payable": false,
					"stateMutability": "view",
					"type": "function"
				},
				{
					"constant": true,
					"inputs": [],
					"name": "INIT_POOL_SUPPLY",
					"outputs": [
						{
							"internalType": "uint256",
							"name": "",
							"type": "uint256"
						}
					],
					"payable": false,
					"stateMutability": "view",
					"type": "function"
				},
				{
					"constant": true,
					"inputs": [],
					"name": "MAX_BOUND_TOKENS",
					"outputs": [
						{
							"internalType": "uint256",
							"name": "",
							"type": "uint256"
						}
					],
					"payable": false,
					"stateMutability": "view",
					"type": "function"
				},
				{
					"constant": true,
					"inputs": [],
					"name": "MAX_BPOW_BASE",
					"outputs": [
						{
							"internalType": "uint256",
							"name": "",
							"type": "uint256"
						}
					],
					"payable": false,
					"stateMutability": "view",
					"type": "function"
				},
				{
					"constant": true,
					"inputs": [],
					"name": "MAX_FEE",
					"outputs": [
						{
							"internalType": "uint256",
							"name": "",
							"type": "uint256"
						}
					],
					"payable": false,
					"stateMutability": "view",
					"type": "function"
				},
				{
					"constant": true,
					"inputs": [],
					"name": "MAX_IN_RATIO",
					"outputs": [
						{
							"internalType": "uint256",
							"name": "",
							"type": "uint256"
						}
					],
					"payable": false,
					"stateMutability": "view",
					"type": "function"
				},
				{
					"constant": true,
					"inputs": [],
					"name": "MAX_OUT_RATIO",
					"outputs": [
						{
							"internalType": "uint256",
							"name": "",
							"type": "uint256"
						}
					],
					"payable": false,
					"stateMutability": "view",
					"type": "function"
				},
				{
					"constant": true,
					"inputs": [],
					"name": "MAX_TOTAL_WEIGHT",
					"outputs": [
						{
							"internalType": "uint256",
							"name": "",
							"type": "uint256"
						}
					],
					"payable": false,
					"stateMutability": "view",
					"type": "function"
				},
				{
					"constant": true,
					"inputs": [],
					"name": "MAX_WEIGHT",
					"outputs": [
						{
							"internalType": "uint256",
							"name": "",
							"type": "uint256"
						}
					],
					"payable": false,
					"stateMutability": "view",
					"type": "function"
				},
				{
					"constant": true,
					"inputs": [],
					"name": "MIN_BALANCE",
					"outputs": [
						{
							"internalType": "uint256",
							"name": "",
							"type": "uint256"
						}
					],
					"payable": false,
					"stateMutability": "view",
					"type": "function"
				},
				{
					"constant": true,
					"inputs": [],
					"name": "MIN_BOUND_TOKENS",
					"outputs": [
						{
							"internalType": "uint256",
							"name": "",
							"type": "uint256"
						}
					],
					"payable": false,
					"stateMutability": "view",
					"type": "function"
				},
				{
					"constant": true,
					"inputs": [],
					"name": "MIN_BPOW_BASE",
					"outputs": [
						{
							"internalType": "uint256",
							"name": "",
							"type": "uint256"
						}
					],
					"payable": false,
					"stateMutability": "view",
					"type": "function"
				},
				{
					"constant": true,
					"inputs": [],
					"name": "MIN_FEE",
					"outputs": [
						{
							"internalType": "uint256",
							"name": "",
							"type": "uint256"
						}
					],
					"payable": false,
					"stateMutability": "view",
					"type": "function"
				},
				{
					"constant": true,
					"inputs": [],
					"name": "MIN_WEIGHT",
					"outputs": [
						{
							"internalType": "uint256",
							"name": "",
							"type": "uint256"
						}
					],
					"payable": false,
					"stateMutability": "view",
					"type": "function"
				},
				{
					"constant": true,
					"inputs": [
						{
							"internalType": "address",
							"name": "src",
							"type": "address"
						},
						{
							"internalType": "address",
							"name": "dst",
							"type": "address"
						}
					],
					"name": "allowance",
					"outputs": [
						{
							"internalType": "uint256",
							"name": "",
							"type": "uint256"
						}
					],
					"payable": false,
					"stateMutability": "view",
					"type": "function"
				},
				{
					"constant": false,
					"inputs": [
						{
							"internalType": "address",
							"name": "dst",
							"type": "address"
						},
						{
							"internalType": "uint256",
							"name": "amt",
							"type": "uint256"
						}
					],
					"name": "approve",
					"outputs": [
						{
							"internalType": "bool",
							"name": "",
							"type": "bool"
						}
					],
					"payable": false,
					"stateMutability": "nonpayable",
					"type": "function"
				},
				{
					"constant": true,
					"inputs": [
						{
							"internalType": "address",
							"name": "whom",
							"type": "address"
						}
					],
					"name": "balanceOf",
					"outputs": [
						{
							"internalType": "uint256",
							"name": "",
							"type": "uint256"
						}
					],
					"payable": false,
					"stateMutability": "view",
					"type": "function"
				},
				{
					"constant": true,
					"inputs": [],
					"name": "decimals",
					"outputs": [
						{
							"internalType": "uint8",
							"name": "",
							"type": "uint8"
						}
					],
					"payable": false,
					"stateMutability": "view",
					"type": "function"
				},
				{
					"constant": false,
					"inputs": [
						{
							"internalType": "address",
							"name": "dst",
							"type": "address"
						},
						{
							"internalType": "uint256",
							"name": "amt",
							"type": "uint256"
						}
					],
					"name": "decreaseApproval",
					"outputs": [
						{
							"internalType": "bool",
							"name": "",
							"type": "bool"
						}
					],
					"payable": false,
					"stateMutability": "nonpayable",
					"type": "function"
				},
				{
					"constant": true,
					"inputs": [],
					"name": "getColor",
					"outputs": [
						{
							"internalType": "bytes32",
							"name": "",
							"type": "bytes32"
						}
					],
					"payable": false,
					"stateMutability": "view",
					"type": "function"
				},
				{
					"constant": false,
					"inputs": [
						{
							"internalType": "address",
							"name": "dst",
							"type": "address"
						},
						{
							"internalType": "uint256",
							"name": "amt",
							"type": "uint256"
						}
					],
					"name": "increaseApproval",
					"outputs": [
						{
							"internalType": "bool",
							"name": "",
							"type": "bool"
						}
					],
					"payable": false,
					"stateMutability": "nonpayable",
					"type": "function"
				},
				{
					"constant": true,
					"inputs": [],
					"name": "name",
					"outputs": [
						{
							"internalType": "string",
							"name": "",
							"type": "string"
						}
					],
					"payable": false,
					"stateMutability": "view",
					"type": "function"
				},
				{
					"constant": true,
					"inputs": [],
					"name": "symbol",
					"outputs": [
						{
							"internalType": "string",
							"name": "",
							"type": "string"
						}
					],
					"payable": false,
					"stateMutability": "view",
					"type": "function"
				},
				{
					"constant": true,
					"inputs": [],
					"name": "totalSupply",
					"outputs": [
						{
							"internalType": "uint256",
							"name": "",
							"type": "uint256"
						}
					],
					"payable": false,
					"stateMutability": "view",
					"type": "function"
				},
				{
					"constant": false,
					"inputs": [
						{
							"internalType": "address",
							"name": "dst",
							"type": "address"
						},
						{
							"internalType": "uint256",
							"name": "amt",
							"type": "uint256"
						}
					],
					"name": "transfer",
					"outputs": [
						{
							"internalType": "bool",
							"name": "",
							"type": "bool"
						}
					],
					"payable": false,
					"stateMutability": "nonpayable",
					"type": "function"
				},
				{
					"constant": false,
					"inputs": [
						{
							"internalType": "address",
							"name": "src",
							"type": "address"
						},
						{
							"internalType": "address",
							"name": "dst",
							"type": "address"
						},
						{
							"internalType": "uint256",
							"name": "amt",
							"type": "uint256"
						}
					],
					"name": "transferFrom",
					"outputs": [
						{
							"internalType": "bool",
							"name": "",
							"type": "bool"
						}
					],
					"payable": false,
					"stateMutability": "nonpayable",
					"type": "function"
				}
			],
			"devdoc": {
				"methods": {}
			},
			"evm": {
				"assembly": "    /* \"Contracts/BToken.sol\":2749:5033  contract BToken is BTokenBase, IERC20 {\r... */\n  mstore(0x40, 0x80)\n    /* \"Contracts/BToken.sol\":2796:2845  string  private _name     = \"Balancer Pool Token\" */\n  mload(0x40)\n  dup1\n  0x40\n  add\n  0x40\n  mstore\n  dup1\n  0x13\n  dup2\n  mstore\n  0x20\n  add\n  0x42616c616e63657220506f6f6c20546f6b656e00000000000000000000000000\n  dup2\n  mstore\n  pop\n  0x03\n  swap1\n  dup1\n  mload\n  swap1\n  0x20\n  add\n  swap1\n  tag_1\n  swap3\n  swap2\n  swap1\n  tag_2\n  jump\t// in\ntag_1:\n  pop\n    /* \"Contracts/BToken.sol\":2852:2885  string  private _symbol   = \"BPT\" */\n  mload(0x40)\n  dup1\n  0x40\n  add\n  0x40\n  mstore\n  dup1\n  0x03\n  dup2\n  mstore\n  0x20\n  add\n  0x4250540000000000000000000000000000000000000000000000000000000000\n  dup2\n  mstore\n  pop\n  0x04\n  swap1\n  dup1\n  mload\n  swap1\n  0x20\n  add\n  swap1\n  tag_3\n  swap3\n  swap2\n  swap1\n  tag_2\n  jump\t// in\ntag_3:\n  pop\n    /* \"Contracts/BToken.sol\":2920:2922  18 */\n  0x12\n    /* \"Contracts/BToken.sol\":2892:2922  uint8   private _decimals = 18 */\n  0x05\n  exp(0x0100, 0x00)\n  dup2\n  sload\n  dup2\n  0xff\n  mul\n  not\n  and\n  swap1\n  dup4\n  0xff\n  and\n  mul\n  or\n  swap1\n  sstore\n  pop\n    /* \"Contracts/BToken.sol\":2749:5033  contract BToken is BTokenBase, IERC20 {\r... */\n  callvalue\n    /* \"--CODEGEN--\":8:17   */\n  dup1\n    /* \"--CODEGEN--\":5:7   */\n  iszero\n  tag_4\n  jumpi\n    /* \"--CODEGEN--\":30:31   */\n  0x00\n    /* \"--CODEGEN--\":27:28   */\n  dup1\n    /* \"--CODEGEN--\":20:32   */\n  revert\n    /* \"--CODEGEN--\":5:7   */\ntag_4:\n    /* \"Contracts/BToken.sol\":2749:5033  contract BToken is BTokenBase, IERC20 {\r... */\n  pop\n  jump(tag_5)\ntag_2:\n  dup3\n  dup1\n  sload\n  0x01\n  dup2\n  0x01\n  and\n  iszero\n  0x0100\n  mul\n  sub\n  and\n  0x02\n  swap1\n  div\n  swap1\n  0x00\n  mstore\n  keccak256(0x00, 0x20)\n  swap1\n  0x1f\n  add\n  0x20\n  swap1\n  div\n  dup2\n  add\n  swap3\n  dup3\n  0x1f\n  lt\n  tag_7\n  jumpi\n  dup1\n  mload\n  not(0xff)\n  and\n  dup4\n  dup1\n  add\n  or\n  dup6\n  sstore\n  jump(tag_6)\ntag_7:\n  dup3\n  dup1\n  add\n  0x01\n  add\n  dup6\n  sstore\n  dup3\n  iszero\n  tag_6\n  jumpi\n  swap2\n  dup3\n  add\ntag_8:\n  dup3\n  dup2\n  gt\n  iszero\n  tag_9\n  jumpi\n  dup3\n  mload\n  dup3\n  sstore\n  swap2\n  0x20\n  add\n  swap2\n  swap1\n  0x01\n  add\n  swap1\n  jump(tag_8)\ntag_9:\ntag_6:\n  pop\n  swap1\n  pop\n  tag_10\n  swap2\n  swap1\n  tag_11\n  jump\t// in\ntag_10:\n  pop\n  swap1\n  jump\t// out\ntag_11:\n  tag_12\n  swap2\n  swap1\ntag_13:\n  dup1\n  dup3\n  gt\n  iszero\n  tag_14\n  jumpi\n  0x00\n  dup2\n  0x00\n  swap1\n  sstore\n  pop\n  0x01\n  add\n  jump(tag_13)\ntag_14:\n  pop\n  swap1\n  jump\ntag_12:\n  swap1\n  jump\t// out\ntag_5:\n  dataSize(sub_0)\n  dup1\n  dataOffset(sub_0)\n  0x00\n  codecopy\n  0x00\n  return\nstop\n\nsub_0: assembly {\n        /* \"Contracts/BToken.sol\":2749:5033  contract BToken is BTokenBase, IERC20 {\r... */\n      mstore(0x40, 0x80)\n      callvalue\n        /* \"--CODEGEN--\":8:17   */\n      dup1\n        /* \"--CODEGEN--\":5:7   */\n      iszero\n      tag_1\n      jumpi\n        /* \"--CODEGEN--\":30:31   */\n      0x00\n        /* \"--CODEGEN--\":27:28   */\n      dup1\n        /* \"--CODEGEN--\":20:32   */\n      revert\n        /* \"--CODEGEN--\":5:7   */\n    tag_1:\n        /* \"Contracts/BToken.sol\":2749:5033  contract BToken is BTokenBase, IERC20 {\r... */\n      pop\n      jumpi(tag_2, lt(calldatasize, 0x04))\n      shr(0xe0, calldataload(0x00))\n      dup1\n      0x992e2a92\n      gt\n      tag_31\n      jumpi\n      dup1\n      0xbc694ea2\n      gt\n      tag_32\n      jumpi\n      dup1\n      0xd73dd623\n      gt\n      tag_33\n      jumpi\n      dup1\n      0xd73dd623\n      eq\n      tag_27\n      jumpi\n      dup1\n      0xdd62ed3e\n      eq\n      tag_28\n      jumpi\n      dup1\n      0xe4a28a52\n      eq\n      tag_29\n      jumpi\n      dup1\n      0xec093021\n      eq\n      tag_30\n      jumpi\n      jump(tag_2)\n    tag_33:\n      dup1\n      0xbc694ea2\n      eq\n      tag_24\n      jumpi\n      dup1\n      0xc36596a6\n      eq\n      tag_25\n      jumpi\n      dup1\n      0xc6580d12\n      eq\n      tag_26\n      jumpi\n      jump(tag_2)\n    tag_32:\n      dup1\n      0xb0e0d136\n      gt\n      tag_34\n      jumpi\n      dup1\n      0xb0e0d136\n      eq\n      tag_20\n      jumpi\n      dup1\n      0xb7b800a4\n      eq\n      tag_21\n      jumpi\n      dup1\n      0xba019dab\n      eq\n      tag_22\n      jumpi\n      dup1\n      0xbc063e1a\n      eq\n      tag_23\n      jumpi\n      jump(tag_2)\n    tag_34:\n      dup1\n      0x992e2a92\n      eq\n      tag_17\n      jumpi\n      dup1\n      0x9a86139b\n      eq\n      tag_18\n      jumpi\n      dup1\n      0xa9059cbb\n      eq\n      tag_19\n      jumpi\n      jump(tag_2)\n    tag_31:\n      dup1\n      0x313ce567\n      gt\n      tag_35\n      jumpi\n      dup1\n      0x76c7a3c7\n      gt\n      tag_36\n      jumpi\n      dup1\n      0x76c7a3c7\n      eq\n      tag_13\n      jumpi\n      dup1\n      0x867378c5\n      eq\n      tag_14\n      jumpi\n      dup1\n      0x9381cd2b\n      eq\n      tag_15\n      jumpi\n      dup1\n      0x95d89b41\n      eq\n      tag_16\n      jumpi\n      jump(tag_2)\n    tag_36:\n      dup1\n      0x313ce567\n      eq\n      tag_10\n      jumpi\n      dup1\n      0x66188463\n      eq\n      tag_11\n      jumpi\n      dup1\n      0x70a08231\n      eq\n      tag_12\n      jumpi\n      jump(tag_2)\n    tag_35:\n      dup1\n      0x18160ddd\n      gt\n      tag_37\n      jumpi\n      dup1\n      0x18160ddd\n      eq\n      tag_6\n      jumpi\n      dup1\n      0x189d00ca\n      eq\n      tag_7\n      jumpi\n      dup1\n      0x218b5382\n      eq\n      tag_8\n      jumpi\n      dup1\n      0x23b872dd\n      eq\n      tag_9\n      jumpi\n      jump(tag_2)\n    tag_37:\n      dup1\n      0x06fdde03\n      eq\n      tag_3\n      jumpi\n      dup1\n      0x095ea7b3\n      eq\n      tag_4\n      jumpi\n      dup1\n      0x09a3bbe4\n      eq\n      tag_5\n      jumpi\n    tag_2:\n      0x00\n      dup1\n      revert\n        /* \"Contracts/BToken.sol\":2931:3014  function name() public view returns (string memory) {\r... */\n    tag_3:\n      tag_38\n      tag_39\n      jump\t// in\n    tag_38:\n      mload(0x40)\n      dup1\n      dup1\n      0x20\n      add\n      dup3\n      dup2\n      sub\n      dup3\n      mstore\n      dup4\n      dup2\n      dup2\n      mload\n      dup2\n      mstore\n      0x20\n      add\n      swap2\n      pop\n      dup1\n      mload\n      swap1\n      0x20\n      add\n      swap1\n      dup1\n      dup4\n      dup4\n        /* \"--CODEGEN--\":23:24   */\n      0x00\n        /* \"--CODEGEN--\":8:108   */\n    tag_40:\n        /* \"--CODEGEN--\":33:36   */\n      dup4\n        /* \"--CODEGEN--\":30:31   */\n      dup2\n        /* \"--CODEGEN--\":27:37   */\n      lt\n        /* \"--CODEGEN--\":8:108   */\n      iszero\n      tag_42\n      jumpi\n        /* \"--CODEGEN--\":99:100   */\n      dup1\n        /* \"--CODEGEN--\":94:97   */\n      dup3\n        /* \"--CODEGEN--\":90:101   */\n      add\n        /* \"--CODEGEN--\":84:102   */\n      mload\n        /* \"--CODEGEN--\":80:81   */\n      dup2\n        /* \"--CODEGEN--\":75:78   */\n      dup5\n        /* \"--CODEGEN--\":71:82   */\n      add\n        /* \"--CODEGEN--\":64:103   */\n      mstore\n        /* \"--CODEGEN--\":52:54   */\n      0x20\n        /* \"--CODEGEN--\":49:50   */\n      dup2\n        /* \"--CODEGEN--\":45:55   */\n      add\n        /* \"--CODEGEN--\":40:55   */\n      swap1\n      pop\n        /* \"--CODEGEN--\":8:108   */\n      jump(tag_40)\n    tag_42:\n        /* \"--CODEGEN--\":12:26   */\n      pop\n        /* \"Contracts/BToken.sol\":2931:3014  function name() public view returns (string memory) {\r... */\n      pop\n      pop\n      pop\n      swap1\n      pop\n      swap1\n      dup2\n      add\n      swap1\n      0x1f\n      and\n      dup1\n      iszero\n      tag_43\n      jumpi\n      dup1\n      dup3\n      sub\n      dup1\n      mload\n      0x01\n      dup4\n      0x20\n      sub\n      0x0100\n      exp\n      sub\n      not\n      and\n      dup2\n      mstore\n      0x20\n      add\n      swap2\n      pop\n    tag_43:\n      pop\n      swap3\n      pop\n      pop\n      pop\n      mload(0x40)\n      dup1\n      swap2\n      sub\n      swap1\n      return\n        /* \"Contracts/BToken.sol\":3541:3725  function approve(address dst, uint amt) external returns (bool) {\r... */\n    tag_4:\n      tag_44\n      0x04\n      dup1\n      calldatasize\n      sub\n        /* \"--CODEGEN--\":13:15   */\n      0x40\n        /* \"--CODEGEN--\":8:11   */\n      dup2\n        /* \"--CODEGEN--\":5:16   */\n      lt\n        /* \"--CODEGEN--\":2:4   */\n      iszero\n      tag_45\n      jumpi\n        /* \"--CODEGEN--\":29:30   */\n      0x00\n        /* \"--CODEGEN--\":26:27   */\n      dup1\n        /* \"--CODEGEN--\":19:31   */\n      revert\n        /* \"--CODEGEN--\":2:4   */\n    tag_45:\n        /* \"Contracts/BToken.sol\":3541:3725  function approve(address dst, uint amt) external returns (bool) {\r... */\n      dup2\n      add\n      swap1\n      dup1\n      dup1\n      calldataload\n      0xffffffffffffffffffffffffffffffffffffffff\n      and\n      swap1\n      0x20\n      add\n      swap1\n      swap3\n      swap2\n      swap1\n      dup1\n      calldataload\n      swap1\n      0x20\n      add\n      swap1\n      swap3\n      swap2\n      swap1\n      pop\n      pop\n      pop\n      tag_46\n      jump\t// in\n    tag_44:\n      mload(0x40)\n      dup1\n      dup3\n      iszero\n      iszero\n      iszero\n      iszero\n      dup2\n      mstore\n      0x20\n      add\n      swap2\n      pop\n      pop\n      mload(0x40)\n      dup1\n      swap2\n      sub\n      swap1\n      return\n        /* \"Contracts/BConst.sol\":524:574  uint public constant MAX_TOTAL_WEIGHT  = BONE * 50 */\n    tag_5:\n      tag_47\n      tag_48\n      jump\t// in\n    tag_47:\n      mload(0x40)\n      dup1\n      dup3\n      dup2\n      mstore\n      0x20\n      add\n      swap2\n      pop\n      pop\n      mload(0x40)\n      dup1\n      swap2\n      sub\n      swap1\n      return\n        /* \"Contracts/BToken.sol\":3445:3533  function totalSupply() public view returns (uint) {\r... */\n    tag_6:\n      tag_49\n      tag_50\n      jump\t// in\n    tag_49:\n      mload(0x40)\n      dup1\n      dup3\n      dup2\n      mstore\n      0x20\n      add\n      swap2\n      pop\n      pop\n      mload(0x40)\n      dup1\n      swap2\n      sub\n      swap1\n      return\n        /* \"Contracts/BConst.sol\":823:877  uint public constant BPOW_PRECISION    = BONE / 10**10 */\n    tag_7:\n      tag_51\n      tag_52\n      jump\t// in\n    tag_51:\n      mload(0x40)\n      dup1\n      dup3\n      dup2\n      mstore\n      0x20\n      add\n      swap2\n      pop\n      pop\n      mload(0x40)\n      dup1\n      swap2\n      sub\n      swap1\n      return\n        /* \"Contracts/BConst.sol\":415:460  uint public constant MIN_WEIGHT        = BONE */\n    tag_8:\n      tag_53\n      tag_54\n      jump\t// in\n    tag_53:\n      mload(0x40)\n      dup1\n      dup3\n      dup2\n      mstore\n      0x20\n      add\n      swap2\n      pop\n      pop\n      mload(0x40)\n      dup1\n      swap2\n      sub\n      swap1\n      return\n        /* \"Contracts/BToken.sol\":4539:5030  function transferFrom(address src, address dst, uint amt) external returns (bool) {\r... */\n    tag_9:\n      tag_55\n      0x04\n      dup1\n      calldatasize\n      sub\n        /* \"--CODEGEN--\":13:15   */\n      0x60\n        /* \"--CODEGEN--\":8:11   */\n      dup2\n        /* \"--CODEGEN--\":5:16   */\n      lt\n        /* \"--CODEGEN--\":2:4   */\n      iszero\n      tag_56\n      jumpi\n        /* \"--CODEGEN--\":29:30   */\n      0x00\n        /* \"--CODEGEN--\":26:27   */\n      dup1\n        /* \"--CODEGEN--\":19:31   */\n      revert\n        /* \"--CODEGEN--\":2:4   */\n    tag_56:\n        /* \"Contracts/BToken.sol\":4539:5030  function transferFrom(address src, address dst, uint amt) external returns (bool) {\r... */\n      dup2\n      add\n      swap1\n      dup1\n      dup1\n      calldataload\n      0xffffffffffffffffffffffffffffffffffffffff\n      and\n      swap1\n      0x20\n      add\n      swap1\n      swap3\n      swap2\n      swap1\n      dup1\n      calldataload\n      0xffffffffffffffffffffffffffffffffffffffff\n      and\n      swap1\n      0x20\n      add\n      swap1\n      swap3\n      swap2\n      swap1\n      dup1\n      calldataload\n      swap1\n      0x20\n      add\n      swap1\n      swap3\n      swap2\n      swap1\n      pop\n      pop\n      pop\n      tag_57\n      jump\t// in\n    tag_55:\n      mload(0x40)\n      dup1\n      dup3\n      iszero\n      iszero\n      iszero\n      iszero\n      dup2\n      mstore\n      0x20\n      add\n      swap2\n      pop\n      pop\n      mload(0x40)\n      dup1\n      swap2\n      sub\n      swap1\n      return\n        /* \"Contracts/BToken.sol\":3117:3199  function decimals() public view returns(uint8) {\r... */\n    tag_10:\n      tag_58\n      tag_59\n      jump\t// in\n    tag_58:\n      mload(0x40)\n      dup1\n      dup3\n      0xff\n      and\n      0xff\n      and\n      dup2\n      mstore\n      0x20\n      add\n      swap2\n      pop\n      pop\n      mload(0x40)\n      dup1\n      swap2\n      sub\n      swap1\n      return\n        /* \"Contracts/BToken.sol\":3993:4390  function decreaseApproval(address dst, uint amt) external returns (bool) {\r... */\n    tag_11:\n      tag_60\n      0x04\n      dup1\n      calldatasize\n      sub\n        /* \"--CODEGEN--\":13:15   */\n      0x40\n        /* \"--CODEGEN--\":8:11   */\n      dup2\n        /* \"--CODEGEN--\":5:16   */\n      lt\n        /* \"--CODEGEN--\":2:4   */\n      iszero\n      tag_61\n      jumpi\n        /* \"--CODEGEN--\":29:30   */\n      0x00\n        /* \"--CODEGEN--\":26:27   */\n      dup1\n        /* \"--CODEGEN--\":19:31   */\n      revert\n        /* \"--CODEGEN--\":2:4   */\n    tag_61:\n        /* \"Contracts/BToken.sol\":3993:4390  function decreaseApproval(address dst, uint amt) external returns (bool) {\r... */\n      dup2\n      add\n      swap1\n      dup1\n      dup1\n      calldataload\n      0xffffffffffffffffffffffffffffffffffffffff\n      and\n      swap1\n      0x20\n      add\n      swap1\n      swap3\n      swap2\n      swap1\n      dup1\n      calldataload\n      swap1\n      0x20\n      add\n      swap1\n      swap3\n      swap2\n      swap1\n      pop\n      pop\n      pop\n      tag_62\n      jump\t// in\n    tag_60:\n      mload(0x40)\n      dup1\n      dup3\n      iszero\n      iszero\n      iszero\n      iszero\n      dup2\n      mstore\n      0x20\n      add\n      swap2\n      pop\n      pop\n      mload(0x40)\n      dup1\n      swap2\n      sub\n      swap1\n      return\n        /* \"Contracts/BToken.sol\":3335:3437  function balanceOf(address whom) external view returns (uint) {\r... */\n    tag_12:\n      tag_63\n      0x04\n      dup1\n      calldatasize\n      sub\n        /* \"--CODEGEN--\":13:15   */\n      0x20\n        /* \"--CODEGEN--\":8:11   */\n      dup2\n        /* \"--CODEGEN--\":5:16   */\n      lt\n        /* \"--CODEGEN--\":2:4   */\n      iszero\n      tag_64\n      jumpi\n        /* \"--CODEGEN--\":29:30   */\n      0x00\n        /* \"--CODEGEN--\":26:27   */\n      dup1\n        /* \"--CODEGEN--\":19:31   */\n      revert\n        /* \"--CODEGEN--\":2:4   */\n    tag_64:\n        /* \"Contracts/BToken.sol\":3335:3437  function balanceOf(address whom) external view returns (uint) {\r... */\n      dup2\n      add\n      swap1\n      dup1\n      dup1\n      calldataload\n      0xffffffffffffffffffffffffffffffffffffffff\n      and\n      swap1\n      0x20\n      add\n      swap1\n      swap3\n      swap2\n      swap1\n      pop\n      pop\n      pop\n      tag_65\n      jump\t// in\n    tag_63:\n      mload(0x40)\n      dup1\n      dup3\n      dup2\n      mstore\n      0x20\n      add\n      swap2\n      pop\n      pop\n      mload(0x40)\n      dup1\n      swap2\n      sub\n      swap1\n      return\n        /* \"Contracts/BConst.sol\":247:300  uint public constant MIN_FEE           = BONE / 10**6 */\n    tag_13:\n      tag_66\n      tag_67\n      jump\t// in\n    tag_66:\n      mload(0x40)\n      dup1\n      dup3\n      dup2\n      mstore\n      0x20\n      add\n      swap2\n      pop\n      pop\n      mload(0x40)\n      dup1\n      swap2\n      sub\n      swap1\n      return\n        /* \"Contracts/BConst.sol\":581:635  uint public constant MIN_BALANCE       = BONE / 10**12 */\n    tag_14:\n      tag_68\n      tag_69\n      jump\t// in\n    tag_68:\n      mload(0x40)\n      dup1\n      dup3\n      dup2\n      mstore\n      0x20\n      add\n      swap2\n      pop\n      pop\n      mload(0x40)\n      dup1\n      swap2\n      sub\n      swap1\n      return\n        /* \"Contracts/BConst.sol\":644:695  uint public constant INIT_POOL_SUPPLY  = BONE * 100 */\n    tag_15:\n      tag_70\n      tag_71\n      jump\t// in\n    tag_70:\n      mload(0x40)\n      dup1\n      dup3\n      dup2\n      mstore\n      0x20\n      add\n      swap2\n      pop\n      pop\n      mload(0x40)\n      dup1\n      swap2\n      sub\n      swap1\n      return\n        /* \"Contracts/BToken.sol\":3022:3109  function symbol() public view returns (string memory) {\r... */\n    tag_16:\n      tag_72\n      tag_73\n      jump\t// in\n    tag_72:\n      mload(0x40)\n      dup1\n      dup1\n      0x20\n      add\n      dup3\n      dup2\n      sub\n      dup3\n      mstore\n      dup4\n      dup2\n      dup2\n      mload\n      dup2\n      mstore\n      0x20\n      add\n      swap2\n      pop\n      dup1\n      mload\n      swap1\n      0x20\n      add\n      swap1\n      dup1\n      dup4\n      dup4\n        /* \"--CODEGEN--\":23:24   */\n      0x00\n        /* \"--CODEGEN--\":8:108   */\n    tag_74:\n        /* \"--CODEGEN--\":33:36   */\n      dup4\n        /* \"--CODEGEN--\":30:31   */\n      dup2\n        /* \"--CODEGEN--\":27:37   */\n      lt\n        /* \"--CODEGEN--\":8:108   */\n      iszero\n      tag_76\n      jumpi\n        /* \"--CODEGEN--\":99:100   */\n      dup1\n        /* \"--CODEGEN--\":94:97   */\n      dup3\n        /* \"--CODEGEN--\":90:101   */\n      add\n        /* \"--CODEGEN--\":84:102   */\n      mload\n        /* \"--CODEGEN--\":80:81   */\n      dup2\n        /* \"--CODEGEN--\":75:78   */\n      dup5\n        /* \"--CODEGEN--\":71:82   */\n      add\n        /* \"--CODEGEN--\":64:103   */\n      mstore\n        /* \"--CODEGEN--\":52:54   */\n      0x20\n        /* \"--CODEGEN--\":49:50   */\n      dup2\n        /* \"--CODEGEN--\":45:55   */\n      add\n        /* \"--CODEGEN--\":40:55   */\n      swap1\n      pop\n        /* \"--CODEGEN--\":8:108   */\n      jump(tag_74)\n    tag_76:\n        /* \"--CODEGEN--\":12:26   */\n      pop\n        /* \"Contracts/BToken.sol\":3022:3109  function symbol() public view returns (string memory) {\r... */\n      pop\n      pop\n      pop\n      swap1\n      pop\n      swap1\n      dup2\n      add\n      swap1\n      0x1f\n      and\n      dup1\n      iszero\n      tag_77\n      jumpi\n      dup1\n      dup3\n      sub\n      dup1\n      mload\n      0x01\n      dup4\n      0x20\n      sub\n      0x0100\n      exp\n      sub\n      not\n      and\n      dup2\n      mstore\n      0x20\n      add\n      swap2\n      pop\n    tag_77:\n      pop\n      swap3\n      pop\n      pop\n      pop\n      mload(0x40)\n      dup1\n      swap2\n      sub\n      swap1\n      return\n        /* \"Contracts/BConst.sol\":942:1001  uint public constant MAX_OUT_RATIO     = (BONE / 3) + 1 wei */\n    tag_17:\n      tag_78\n      tag_79\n      jump\t// in\n    tag_78:\n      mload(0x40)\n      dup1\n      dup3\n      dup2\n      mstore\n      0x20\n      add\n      swap2\n      pop\n      pop\n      mload(0x40)\n      dup1\n      swap2\n      sub\n      swap1\n      return\n        /* \"Contracts/BColor.sol\":163:284  function getColor()\r... */\n    tag_18:\n      tag_80\n      tag_81\n      jump\t// in\n    tag_80:\n      mload(0x40)\n      dup1\n      dup3\n      dup2\n      mstore\n      0x20\n      add\n      swap2\n      pop\n      pop\n      mload(0x40)\n      dup1\n      swap2\n      sub\n      swap1\n      return\n        /* \"Contracts/BToken.sol\":4398:4531  function transfer(address dst, uint amt) external returns (bool) {\r... */\n    tag_19:\n      tag_82\n      0x04\n      dup1\n      calldatasize\n      sub\n        /* \"--CODEGEN--\":13:15   */\n      0x40\n        /* \"--CODEGEN--\":8:11   */\n      dup2\n        /* \"--CODEGEN--\":5:16   */\n      lt\n        /* \"--CODEGEN--\":2:4   */\n      iszero\n      tag_83\n      jumpi\n        /* \"--CODEGEN--\":29:30   */\n      0x00\n        /* \"--CODEGEN--\":26:27   */\n      dup1\n        /* \"--CODEGEN--\":19:31   */\n      revert\n        /* \"--CODEGEN--\":2:4   */\n    tag_83:\n        /* \"Contracts/BToken.sol\":4398:4531  function transfer(address dst, uint amt) external returns (bool) {\r... */\n      dup2\n      add\n      swap1\n      dup1\n      dup1\n      calldataload\n      0xffffffffffffffffffffffffffffffffffffffff\n      and\n      swap1\n      0x20\n      add\n      swap1\n      swap3\n      swap2\n      swap1\n      dup1\n      calldataload\n      swap1\n      0x20\n      add\n      swap1\n      swap3\n      swap2\n      swap1\n      pop\n      pop\n      pop\n      tag_84\n      jump\t// in\n    tag_82:\n      mload(0x40)\n      dup1\n      dup3\n      iszero\n      iszero\n      iszero\n      iszero\n      dup2\n      mstore\n      0x20\n      add\n      swap2\n      pop\n      pop\n      mload(0x40)\n      dup1\n      swap2\n      sub\n      swap1\n      return\n        /* \"Contracts/BConst.sol\":196:238  uint public constant MAX_BOUND_TOKENS  = 8 */\n    tag_20:\n      tag_85\n      tag_86\n      jump\t// in\n    tag_85:\n      mload(0x40)\n      dup1\n      dup3\n      dup2\n      mstore\n      0x20\n      add\n      swap2\n      pop\n      pop\n      mload(0x40)\n      dup1\n      swap2\n      sub\n      swap1\n      return\n        /* \"Contracts/BConst.sol\":147:189  uint public constant MIN_BOUND_TOKENS  = 2 */\n    tag_21:\n      tag_87\n      tag_88\n      jump\t// in\n    tag_87:\n      mload(0x40)\n      dup1\n      dup3\n      dup2\n      mstore\n      0x20\n      add\n      swap2\n      pop\n      pop\n      mload(0x40)\n      dup1\n      swap2\n      sub\n      swap1\n      return\n        /* \"Contracts/BConst.sol\":704:750  uint public constant MIN_BPOW_BASE     = 1 wei */\n    tag_22:\n      tag_89\n      tag_90\n      jump\t// in\n    tag_89:\n      mload(0x40)\n      dup1\n      dup3\n      dup2\n      mstore\n      0x20\n      add\n      swap2\n      pop\n      pop\n      mload(0x40)\n      dup1\n      swap2\n      sub\n      swap1\n      return\n        /* \"Contracts/BConst.sol\":307:357  uint public constant MAX_FEE           = BONE / 10 */\n    tag_23:\n      tag_91\n      tag_92\n      jump\t// in\n    tag_91:\n      mload(0x40)\n      dup1\n      dup3\n      dup2\n      mstore\n      0x20\n      add\n      swap2\n      pop\n      pop\n      mload(0x40)\n      dup1\n      swap2\n      sub\n      swap1\n      return\n        /* \"Contracts/BConst.sol\":757:816  uint public constant MAX_BPOW_BASE     = (2 * BONE) - 1 wei */\n    tag_24:\n      tag_93\n      tag_94\n      jump\t// in\n    tag_93:\n      mload(0x40)\n      dup1\n      dup3\n      dup2\n      mstore\n      0x20\n      add\n      swap2\n      pop\n      pop\n      mload(0x40)\n      dup1\n      swap2\n      sub\n      swap1\n      return\n        /* \"Contracts/BConst.sol\":91:138  uint public constant BONE              = 10**18 */\n    tag_25:\n      tag_95\n      tag_96\n      jump\t// in\n    tag_95:\n      mload(0x40)\n      dup1\n      dup3\n      dup2\n      mstore\n      0x20\n      add\n      swap2\n      pop\n      pop\n      mload(0x40)\n      dup1\n      swap2\n      sub\n      swap1\n      return\n        /* \"Contracts/BConst.sol\":364:406  uint public constant EXIT_FEE          = 0 */\n    tag_26:\n      tag_97\n      tag_98\n      jump\t// in\n    tag_97:\n      mload(0x40)\n      dup1\n      dup3\n      dup2\n      mstore\n      0x20\n      add\n      swap2\n      pop\n      pop\n      mload(0x40)\n      dup1\n      swap2\n      sub\n      swap1\n      return\n        /* \"Contracts/BToken.sol\":3733:3985  function increaseApproval(address dst, uint amt) external returns (bool) {\r... */\n    tag_27:\n      tag_99\n      0x04\n      dup1\n      calldatasize\n      sub\n        /* \"--CODEGEN--\":13:15   */\n      0x40\n        /* \"--CODEGEN--\":8:11   */\n      dup2\n        /* \"--CODEGEN--\":5:16   */\n      lt\n        /* \"--CODEGEN--\":2:4   */\n      iszero\n      tag_100\n      jumpi\n        /* \"--CODEGEN--\":29:30   */\n      0x00\n        /* \"--CODEGEN--\":26:27   */\n      dup1\n        /* \"--CODEGEN--\":19:31   */\n      revert\n        /* \"--CODEGEN--\":2:4   */\n    tag_100:\n        /* \"Contracts/BToken.sol\":3733:3985  function increaseApproval(address dst, uint amt) external returns (bool) {\r... */\n      dup2\n      add\n      swap1\n      dup1\n      dup1\n      calldataload\n      0xffffffffffffffffffffffffffffffffffffffff\n      and\n      swap1\n      0x20\n      add\n      swap1\n      swap3\n      swap2\n      swap1\n      dup1\n      calldataload\n      swap1\n      0x20\n      add\n      swap1\n      swap3\n      swap2\n      swap1\n      pop\n      pop\n      pop\n      tag_101\n      jump\t// in\n    tag_99:\n      mload(0x40)\n      dup1\n      dup3\n      iszero\n      iszero\n      iszero\n      iszero\n      dup2\n      mstore\n      0x20\n      add\n      swap2\n      pop\n      pop\n      mload(0x40)\n      dup1\n      swap2\n      sub\n      swap1\n      return\n        /* \"Contracts/BToken.sol\":3207:3327  function allowance(address src, address dst) external view returns (uint) {\r... */\n    tag_28:\n      tag_102\n      0x04\n      dup1\n      calldatasize\n      sub\n        /* \"--CODEGEN--\":13:15   */\n      0x40\n        /* \"--CODEGEN--\":8:11   */\n      dup2\n        /* \"--CODEGEN--\":5:16   */\n      lt\n        /* \"--CODEGEN--\":2:4   */\n      iszero\n      tag_103\n      jumpi\n        /* \"--CODEGEN--\":29:30   */\n      0x00\n        /* \"--CODEGEN--\":26:27   */\n      dup1\n        /* \"--CODEGEN--\":19:31   */\n      revert\n        /* \"--CODEGEN--\":2:4   */\n    tag_103:\n        /* \"Contracts/BToken.sol\":3207:3327  function allowance(address src, address dst) external view returns (uint) {\r... */\n      dup2\n      add\n      swap1\n      dup1\n      dup1\n      calldataload\n      0xffffffffffffffffffffffffffffffffffffffff\n      and\n      swap1\n      0x20\n      add\n      swap1\n      swap3\n      swap2\n      swap1\n      dup1\n      calldataload\n      0xffffffffffffffffffffffffffffffffffffffff\n      and\n      swap1\n      0x20\n      add\n      swap1\n      swap3\n      swap2\n      swap1\n      pop\n      pop\n      pop\n      tag_104\n      jump\t// in\n    tag_102:\n      mload(0x40)\n      dup1\n      dup3\n      dup2\n      mstore\n      0x20\n      add\n      swap2\n      pop\n      pop\n      mload(0x40)\n      dup1\n      swap2\n      sub\n      swap1\n      return\n        /* \"Contracts/BConst.sol\":467:517  uint public constant MAX_WEIGHT        = BONE * 50 */\n    tag_29:\n      tag_105\n      tag_106\n      jump\t// in\n    tag_105:\n      mload(0x40)\n      dup1\n      dup3\n      dup2\n      mstore\n      0x20\n      add\n      swap2\n      pop\n      pop\n      mload(0x40)\n      dup1\n      swap2\n      sub\n      swap1\n      return\n        /* \"Contracts/BConst.sol\":886:935  uint public constant MAX_IN_RATIO      = BONE / 2 */\n    tag_30:\n      tag_107\n      tag_108\n      jump\t// in\n    tag_107:\n      mload(0x40)\n      dup1\n      dup3\n      dup2\n      mstore\n      0x20\n      add\n      swap2\n      pop\n      pop\n      mload(0x40)\n      dup1\n      swap2\n      sub\n      swap1\n      return\n        /* \"Contracts/BToken.sol\":2931:3014  function name() public view returns (string memory) {\r... */\n    tag_39:\n        /* \"Contracts/BToken.sol\":2968:2981  string memory */\n      0x60\n        /* \"Contracts/BToken.sol\":3001:3006  _name */\n      0x03\n        /* \"Contracts/BToken.sol\":2994:3006  return _name */\n      dup1\n      sload\n      0x01\n      dup2\n      0x01\n      and\n      iszero\n      0x0100\n      mul\n      sub\n      and\n      0x02\n      swap1\n      div\n      dup1\n      0x1f\n      add\n      0x20\n      dup1\n      swap2\n      div\n      mul\n      0x20\n      add\n      mload(0x40)\n      swap1\n      dup2\n      add\n      0x40\n      mstore\n      dup1\n      swap3\n      swap2\n      swap1\n      dup2\n      dup2\n      mstore\n      0x20\n      add\n      dup3\n      dup1\n      sload\n      0x01\n      dup2\n      0x01\n      and\n      iszero\n      0x0100\n      mul\n      sub\n      and\n      0x02\n      swap1\n      div\n      dup1\n      iszero\n      tag_110\n      jumpi\n      dup1\n      0x1f\n      lt\n      tag_111\n      jumpi\n      0x0100\n      dup1\n      dup4\n      sload\n      div\n      mul\n      dup4\n      mstore\n      swap2\n      0x20\n      add\n      swap2\n      jump(tag_110)\n    tag_111:\n      dup3\n      add\n      swap2\n      swap1\n      0x00\n      mstore\n      keccak256(0x00, 0x20)\n      swap1\n    tag_112:\n      dup2\n      sload\n      dup2\n      mstore\n      swap1\n      0x01\n      add\n      swap1\n      0x20\n      add\n      dup1\n      dup4\n      gt\n      tag_112\n      jumpi\n      dup3\n      swap1\n      sub\n      0x1f\n      and\n      dup3\n      add\n      swap2\n    tag_110:\n      pop\n      pop\n      pop\n      pop\n      pop\n      swap1\n      pop\n        /* \"Contracts/BToken.sol\":2931:3014  function name() public view returns (string memory) {\r... */\n      swap1\n      jump\t// out\n        /* \"Contracts/BToken.sol\":3541:3725  function approve(address dst, uint amt) external returns (bool) {\r... */\n    tag_46:\n        /* \"Contracts/BToken.sol\":3599:3603  bool */\n      0x00\n        /* \"Contracts/BToken.sol\":3646:3649  amt */\n      dup2\n        /* \"Contracts/BToken.sol\":3616:3626  _allowance */\n      0x01\n        /* \"Contracts/BToken.sol\":3616:3638  _allowance[msg.sender] */\n      0x00\n        /* \"Contracts/BToken.sol\":3627:3637  msg.sender */\n      caller\n        /* \"Contracts/BToken.sol\":3616:3638  _allowance[msg.sender] */\n      0xffffffffffffffffffffffffffffffffffffffff\n      and\n      0xffffffffffffffffffffffffffffffffffffffff\n      and\n      dup2\n      mstore\n      0x20\n      add\n      swap1\n      dup2\n      mstore\n      0x20\n      add\n      0x00\n      keccak256\n        /* \"Contracts/BToken.sol\":3616:3643  _allowance[msg.sender][dst] */\n      0x00\n        /* \"Contracts/BToken.sol\":3639:3642  dst */\n      dup6\n        /* \"Contracts/BToken.sol\":3616:3643  _allowance[msg.sender][dst] */\n      0xffffffffffffffffffffffffffffffffffffffff\n      and\n      0xffffffffffffffffffffffffffffffffffffffff\n      and\n      dup2\n      mstore\n      0x20\n      add\n      swap1\n      dup2\n      mstore\n      0x20\n      add\n      0x00\n      keccak256\n        /* \"Contracts/BToken.sol\":3616:3649  _allowance[msg.sender][dst] = amt */\n      dup2\n      swap1\n      sstore\n      pop\n        /* \"Contracts/BToken.sol\":3686:3689  dst */\n      dup3\n        /* \"Contracts/BToken.sol\":3665:3695  Approval(msg.sender, dst, amt) */\n      0xffffffffffffffffffffffffffffffffffffffff\n      and\n        /* \"Contracts/BToken.sol\":3674:3684  msg.sender */\n      caller\n        /* \"Contracts/BToken.sol\":3665:3695  Approval(msg.sender, dst, amt) */\n      0xffffffffffffffffffffffffffffffffffffffff\n      and\n      0x8c5be1e5ebec7d5bd14f71427d1e84f3dd0314c0f7b2291e5b200ac8c7c3b925\n        /* \"Contracts/BToken.sol\":3691:3694  amt */\n      dup5\n        /* \"Contracts/BToken.sol\":3665:3695  Approval(msg.sender, dst, amt) */\n      mload(0x40)\n      dup1\n      dup3\n      dup2\n      mstore\n      0x20\n      add\n      swap2\n      pop\n      pop\n      mload(0x40)\n      dup1\n      swap2\n      sub\n      swap1\n      log3\n        /* \"Contracts/BToken.sol\":3713:3717  true */\n      0x01\n        /* \"Contracts/BToken.sol\":3706:3717  return true */\n      swap1\n      pop\n        /* \"Contracts/BToken.sol\":3541:3725  function approve(address dst, uint amt) external returns (bool) {\r... */\n      swap3\n      swap2\n      pop\n      pop\n      jump\t// out\n        /* \"Contracts/BConst.sol\":524:574  uint public constant MAX_TOTAL_WEIGHT  = BONE * 50 */\n    tag_48:\n        /* \"Contracts/BConst.sol\":572:574  50 */\n      0x32\n        /* \"Contracts/BConst.sol\":132:138  10**18 */\n      0x0de0b6b3a7640000\n        /* \"Contracts/BConst.sol\":565:574  BONE * 50 */\n      mul\n        /* \"Contracts/BConst.sol\":524:574  uint public constant MAX_TOTAL_WEIGHT  = BONE * 50 */\n      dup2\n      jump\t// out\n        /* \"Contracts/BToken.sol\":3445:3533  function totalSupply() public view returns (uint) {\r... */\n    tag_50:\n        /* \"Contracts/BToken.sol\":3489:3493  uint */\n      0x00\n        /* \"Contracts/BToken.sol\":3513:3525  _totalSupply */\n      sload(0x02)\n        /* \"Contracts/BToken.sol\":3506:3525  return _totalSupply */\n      swap1\n      pop\n        /* \"Contracts/BToken.sol\":3445:3533  function totalSupply() public view returns (uint) {\r... */\n      swap1\n      jump\t// out\n        /* \"Contracts/BConst.sol\":823:877  uint public constant BPOW_PRECISION    = BONE / 10**10 */\n    tag_52:\n        /* \"Contracts/BConst.sol\":871:877  10**10 */\n      0x02540be400\n        /* \"Contracts/BConst.sol\":132:138  10**18 */\n      0x0de0b6b3a7640000\n        /* \"Contracts/BConst.sol\":864:877  BONE / 10**10 */\n      dup2\n      tag_115\n      jumpi\n      invalid\n    tag_115:\n      div\n        /* \"Contracts/BConst.sol\":823:877  uint public constant BPOW_PRECISION    = BONE / 10**10 */\n      dup2\n      jump\t// out\n        /* \"Contracts/BConst.sol\":415:460  uint public constant MIN_WEIGHT        = BONE */\n    tag_54:\n        /* \"Contracts/BConst.sol\":132:138  10**18 */\n      0x0de0b6b3a7640000\n        /* \"Contracts/BConst.sol\":415:460  uint public constant MIN_WEIGHT        = BONE */\n      dup2\n      jump\t// out\n        /* \"Contracts/BToken.sol\":4539:5030  function transferFrom(address src, address dst, uint amt) external returns (bool) {\r... */\n    tag_57:\n        /* \"Contracts/BToken.sol\":4615:4619  bool */\n      0x00\n        /* \"Contracts/BToken.sol\":4654:4657  src */\n      dup4\n        /* \"Contracts/BToken.sol\":4640:4657  msg.sender == src */\n      0xffffffffffffffffffffffffffffffffffffffff\n      and\n        /* \"Contracts/BToken.sol\":4640:4650  msg.sender */\n      caller\n        /* \"Contracts/BToken.sol\":4640:4657  msg.sender == src */\n      0xffffffffffffffffffffffffffffffffffffffff\n      and\n      eq\n        /* \"Contracts/BToken.sol\":4640:4695  msg.sender == src || amt <= _allowance[src][msg.sender] */\n      dup1\n      tag_117\n      jumpi\n      pop\n        /* \"Contracts/BToken.sol\":4668:4678  _allowance */\n      0x01\n        /* \"Contracts/BToken.sol\":4668:4683  _allowance[src] */\n      0x00\n        /* \"Contracts/BToken.sol\":4679:4682  src */\n      dup6\n        /* \"Contracts/BToken.sol\":4668:4683  _allowance[src] */\n      0xffffffffffffffffffffffffffffffffffffffff\n      and\n      0xffffffffffffffffffffffffffffffffffffffff\n      and\n      dup2\n      mstore\n      0x20\n      add\n      swap1\n      dup2\n      mstore\n      0x20\n      add\n      0x00\n      keccak256\n        /* \"Contracts/BToken.sol\":4668:4695  _allowance[src][msg.sender] */\n      0x00\n        /* \"Contracts/BToken.sol\":4684:4694  msg.sender */\n      caller\n        /* \"Contracts/BToken.sol\":4668:4695  _allowance[src][msg.sender] */\n      0xffffffffffffffffffffffffffffffffffffffff\n      and\n      0xffffffffffffffffffffffffffffffffffffffff\n      and\n      dup2\n      mstore\n      0x20\n      add\n      swap1\n      dup2\n      mstore\n      0x20\n      add\n      0x00\n      keccak256\n      sload\n        /* \"Contracts/BToken.sol\":4661:4664  amt */\n      dup3\n        /* \"Contracts/BToken.sol\":4661:4695  amt <= _allowance[src][msg.sender] */\n      gt\n      iszero\n        /* \"Contracts/BToken.sol\":4640:4695  msg.sender == src || amt <= _allowance[src][msg.sender] */\n    tag_117:\n        /* \"Contracts/BToken.sol\":4632:4721  require(msg.sender == src || amt <= _allowance[src][msg.sender], \"ERR_BTOKEN_BAD_CALLER\") */\n      tag_118\n      jumpi\n      mload(0x40)\n      0x08c379a000000000000000000000000000000000000000000000000000000000\n      dup2\n      mstore\n      0x04\n      add\n      dup1\n      dup1\n      0x20\n      add\n      dup3\n      dup2\n      sub\n      dup3\n      mstore\n      0x15\n      dup2\n      mstore\n      0x20\n      add\n      dup1\n      0x4552525f42544f4b454e5f4241445f43414c4c45520000000000000000000000\n      dup2\n      mstore\n      pop\n      0x20\n      add\n      swap2\n      pop\n      pop\n      mload(0x40)\n      dup1\n      swap2\n      sub\n      swap1\n      revert\n    tag_118:\n        /* \"Contracts/BToken.sol\":4732:4752  _move(src, dst, amt) */\n      tag_119\n        /* \"Contracts/BToken.sol\":4738:4741  src */\n      dup5\n        /* \"Contracts/BToken.sol\":4743:4746  dst */\n      dup5\n        /* \"Contracts/BToken.sol\":4748:4751  amt */\n      dup5\n        /* \"Contracts/BToken.sol\":4732:4737  _move */\n      tag_120\n        /* \"Contracts/BToken.sol\":4732:4752  _move(src, dst, amt) */\n      jump\t// in\n    tag_119:\n        /* \"Contracts/BToken.sol\":4781:4784  src */\n      dup4\n        /* \"Contracts/BToken.sol\":4767:4784  msg.sender != src */\n      0xffffffffffffffffffffffffffffffffffffffff\n      and\n        /* \"Contracts/BToken.sol\":4767:4777  msg.sender */\n      caller\n        /* \"Contracts/BToken.sol\":4767:4784  msg.sender != src */\n      0xffffffffffffffffffffffffffffffffffffffff\n      and\n      eq\n      iszero\n        /* \"Contracts/BToken.sol\":4767:4830  msg.sender != src && _allowance[src][msg.sender] != uint256(-1) */\n      dup1\n      iszero\n      tag_121\n      jumpi\n      pop\n        /* \"Contracts/BToken.sol\":4827:4829  -1 */\n      0xffffffffffffffffffffffffffffffffffffffffffffffffffffffffffffffff\n        /* \"Contracts/BToken.sol\":4788:4798  _allowance */\n      0x01\n        /* \"Contracts/BToken.sol\":4788:4803  _allowance[src] */\n      0x00\n        /* \"Contracts/BToken.sol\":4799:4802  src */\n      dup7\n        /* \"Contracts/BToken.sol\":4788:4803  _allowance[src] */\n      0xffffffffffffffffffffffffffffffffffffffff\n      and\n      0xffffffffffffffffffffffffffffffffffffffff\n      and\n      dup2\n      mstore\n      0x20\n      add\n      swap1\n      dup2\n      mstore\n      0x20\n      add\n      0x00\n      keccak256\n        /* \"Contracts/BToken.sol\":4788:4815  _allowance[src][msg.sender] */\n      0x00\n        /* \"Contracts/BToken.sol\":4804:4814  msg.sender */\n      caller\n        /* \"Contracts/BToken.sol\":4788:4815  _allowance[src][msg.sender] */\n      0xffffffffffffffffffffffffffffffffffffffff\n      and\n      0xffffffffffffffffffffffffffffffffffffffff\n      and\n      dup2\n      mstore\n      0x20\n      add\n      swap1\n      dup2\n      mstore\n      0x20\n      add\n      0x00\n      keccak256\n      sload\n        /* \"Contracts/BToken.sol\":4788:4830  _allowance[src][msg.sender] != uint256(-1) */\n      eq\n      iszero\n        /* \"Contracts/BToken.sol\":4767:4830  msg.sender != src && _allowance[src][msg.sender] != uint256(-1) */\n    tag_121:\n        /* \"Contracts/BToken.sol\":4763:5001  if (msg.sender != src && _allowance[src][msg.sender] != uint256(-1)) {\r... */\n      iszero\n      tag_122\n      jumpi\n        /* \"Contracts/BToken.sol\":4877:4915  bsub(_allowance[src][msg.sender], amt) */\n      tag_123\n        /* \"Contracts/BToken.sol\":4882:4892  _allowance */\n      0x01\n        /* \"Contracts/BToken.sol\":4882:4897  _allowance[src] */\n      0x00\n        /* \"Contracts/BToken.sol\":4893:4896  src */\n      dup7\n        /* \"Contracts/BToken.sol\":4882:4897  _allowance[src] */\n      0xffffffffffffffffffffffffffffffffffffffff\n      and\n      0xffffffffffffffffffffffffffffffffffffffff\n      and\n      dup2\n      mstore\n      0x20\n      add\n      swap1\n      dup2\n      mstore\n      0x20\n      add\n      0x00\n      keccak256\n        /* \"Contracts/BToken.sol\":4882:4909  _allowance[src][msg.sender] */\n      0x00\n        /* \"Contracts/BToken.sol\":4898:4908  msg.sender */\n      caller\n        /* \"Contracts/BToken.sol\":4882:4909  _allowance[src][msg.sender] */\n      0xffffffffffffffffffffffffffffffffffffffff\n      and\n      0xffffffffffffffffffffffffffffffffffffffff\n      and\n      dup2\n      mstore\n      0x20\n      add\n      swap1\n      dup2\n      mstore\n      0x20\n      add\n      0x00\n      keccak256\n      sload\n        /* \"Contracts/BToken.sol\":4911:4914  amt */\n      dup4\n        /* \"Contracts/BToken.sol\":4877:4881  bsub */\n      tag_124\n        /* \"Contracts/BToken.sol\":4877:4915  bsub(_allowance[src][msg.sender], amt) */\n      jump\t// in\n    tag_123:\n        /* \"Contracts/BToken.sol\":4847:4857  _allowance */\n      0x01\n        /* \"Contracts/BToken.sol\":4847:4862  _allowance[src] */\n      0x00\n        /* \"Contracts/BToken.sol\":4858:4861  src */\n      dup7\n        /* \"Contracts/BToken.sol\":4847:4862  _allowance[src] */\n      0xffffffffffffffffffffffffffffffffffffffff\n      and\n      0xffffffffffffffffffffffffffffffffffffffff\n      and\n      dup2\n      mstore\n      0x20\n      add\n      swap1\n      dup2\n      mstore\n      0x20\n      add\n      0x00\n      keccak256\n        /* \"Contracts/BToken.sol\":4847:4874  _allowance[src][msg.sender] */\n      0x00\n        /* \"Contracts/BToken.sol\":4863:4873  msg.sender */\n      caller\n        /* \"Contracts/BToken.sol\":4847:4874  _allowance[src][msg.sender] */\n      0xffffffffffffffffffffffffffffffffffffffff\n      and\n      0xffffffffffffffffffffffffffffffffffffffff\n      and\n      dup2\n      mstore\n      0x20\n      add\n      swap1\n      dup2\n      mstore\n      0x20\n      add\n      0x00\n      keccak256\n        /* \"Contracts/BToken.sol\":4847:4915  _allowance[src][msg.sender] = bsub(_allowance[src][msg.sender], amt) */\n      dup2\n      swap1\n      sstore\n      pop\n        /* \"Contracts/BToken.sol\":4956:4959  dst */\n      dup3\n        /* \"Contracts/BToken.sol\":4935:4989  Approval(msg.sender, dst, _allowance[src][msg.sender]) */\n      0xffffffffffffffffffffffffffffffffffffffff\n      and\n        /* \"Contracts/BToken.sol\":4944:4954  msg.sender */\n      caller\n        /* \"Contracts/BToken.sol\":4935:4989  Approval(msg.sender, dst, _allowance[src][msg.sender]) */\n      0xffffffffffffffffffffffffffffffffffffffff\n      and\n      0x8c5be1e5ebec7d5bd14f71427d1e84f3dd0314c0f7b2291e5b200ac8c7c3b925\n        /* \"Contracts/BToken.sol\":4961:4971  _allowance */\n      0x01\n        /* \"Contracts/BToken.sol\":4961:4976  _allowance[src] */\n      0x00\n        /* \"Contracts/BToken.sol\":4972:4975  src */\n      dup9\n        /* \"Contracts/BToken.sol\":4961:4976  _allowance[src] */\n      0xffffffffffffffffffffffffffffffffffffffff\n      and\n      0xffffffffffffffffffffffffffffffffffffffff\n      and\n      dup2\n      mstore\n      0x20\n      add\n      swap1\n      dup2\n      mstore\n      0x20\n      add\n      0x00\n      keccak256\n        /* \"Contracts/BToken.sol\":4961:4988  _allowance[src][msg.sender] */\n      0x00\n        /* \"Contracts/BToken.sol\":4977:4987  msg.sender */\n      caller\n        /* \"Contracts/BToken.sol\":4961:4988  _allowance[src][msg.sender] */\n      0xffffffffffffffffffffffffffffffffffffffff\n      and\n      0xffffffffffffffffffffffffffffffffffffffff\n      and\n      dup2\n      mstore\n      0x20\n      add\n      swap1\n      dup2\n      mstore\n      0x20\n      add\n      0x00\n      keccak256\n      sload\n        /* \"Contracts/BToken.sol\":4935:4989  Approval(msg.sender, dst, _allowance[src][msg.sender]) */\n      mload(0x40)\n      dup1\n      dup3\n      dup2\n      mstore\n      0x20\n      add\n      swap2\n      pop\n      pop\n      mload(0x40)\n      dup1\n      swap2\n      sub\n      swap1\n      log3\n        /* \"Contracts/BToken.sol\":4763:5001  if (msg.sender != src && _allowance[src][msg.sender] != uint256(-1)) {\r... */\n    tag_122:\n        /* \"Contracts/BToken.sol\":5018:5022  true */\n      0x01\n        /* \"Contracts/BToken.sol\":5011:5022  return true */\n      swap1\n      pop\n        /* \"Contracts/BToken.sol\":4539:5030  function transferFrom(address src, address dst, uint amt) external returns (bool) {\r... */\n      swap4\n      swap3\n      pop\n      pop\n      pop\n      jump\t// out\n        /* \"Contracts/BToken.sol\":3117:3199  function decimals() public view returns(uint8) {\r... */\n    tag_59:\n        /* \"Contracts/BToken.sol\":3157:3162  uint8 */\n      0x00\n        /* \"Contracts/BToken.sol\":3182:3191  _decimals */\n      0x05\n      0x00\n      swap1\n      sload\n      swap1\n      0x0100\n      exp\n      swap1\n      div\n      0xff\n      and\n        /* \"Contracts/BToken.sol\":3175:3191  return _decimals */\n      swap1\n      pop\n        /* \"Contracts/BToken.sol\":3117:3199  function decimals() public view returns(uint8) {\r... */\n      swap1\n      jump\t// out\n        /* \"Contracts/BToken.sol\":3993:4390  function decreaseApproval(address dst, uint amt) external returns (bool) {\r... */\n    tag_62:\n        /* \"Contracts/BToken.sol\":4060:4064  bool */\n      0x00\n        /* \"Contracts/BToken.sol\":4077:4090  uint oldValue */\n      dup1\n        /* \"Contracts/BToken.sol\":4093:4103  _allowance */\n      0x01\n        /* \"Contracts/BToken.sol\":4093:4115  _allowance[msg.sender] */\n      0x00\n        /* \"Contracts/BToken.sol\":4104:4114  msg.sender */\n      caller\n        /* \"Contracts/BToken.sol\":4093:4115  _allowance[msg.sender] */\n      0xffffffffffffffffffffffffffffffffffffffff\n      and\n      0xffffffffffffffffffffffffffffffffffffffff\n      and\n      dup2\n      mstore\n      0x20\n      add\n      swap1\n      dup2\n      mstore\n      0x20\n      add\n      0x00\n      keccak256\n        /* \"Contracts/BToken.sol\":4093:4120  _allowance[msg.sender][dst] */\n      0x00\n        /* \"Contracts/BToken.sol\":4116:4119  dst */\n      dup6\n        /* \"Contracts/BToken.sol\":4093:4120  _allowance[msg.sender][dst] */\n      0xffffffffffffffffffffffffffffffffffffffff\n      and\n      0xffffffffffffffffffffffffffffffffffffffff\n      and\n      dup2\n      mstore\n      0x20\n      add\n      swap1\n      dup2\n      mstore\n      0x20\n      add\n      0x00\n      keccak256\n      sload\n        /* \"Contracts/BToken.sol\":4077:4120  uint oldValue = _allowance[msg.sender][dst] */\n      swap1\n      pop\n        /* \"Contracts/BToken.sol\":4141:4149  oldValue */\n      dup1\n        /* \"Contracts/BToken.sol\":4135:4138  amt */\n      dup4\n        /* \"Contracts/BToken.sol\":4135:4149  amt > oldValue */\n      gt\n        /* \"Contracts/BToken.sol\":4131:4291  if (amt > oldValue) {\r... */\n      iszero\n      tag_127\n      jumpi\n        /* \"Contracts/BToken.sol\":4196:4197  0 */\n      0x00\n        /* \"Contracts/BToken.sol\":4166:4176  _allowance */\n      0x01\n        /* \"Contracts/BToken.sol\":4166:4188  _allowance[msg.sender] */\n      0x00\n        /* \"Contracts/BToken.sol\":4177:4187  msg.sender */\n      caller\n        /* \"Contracts/BToken.sol\":4166:4188  _allowance[msg.sender] */\n      0xffffffffffffffffffffffffffffffffffffffff\n      and\n      0xffffffffffffffffffffffffffffffffffffffff\n      and\n      dup2\n      mstore\n      0x20\n      add\n      swap1\n      dup2\n      mstore\n      0x20\n      add\n      0x00\n      keccak256\n        /* \"Contracts/BToken.sol\":4166:4193  _allowance[msg.sender][dst] */\n      0x00\n        /* \"Contracts/BToken.sol\":4189:4192  dst */\n      dup7\n        /* \"Contracts/BToken.sol\":4166:4193  _allowance[msg.sender][dst] */\n      0xffffffffffffffffffffffffffffffffffffffff\n      and\n      0xffffffffffffffffffffffffffffffffffffffff\n      and\n      dup2\n      mstore\n      0x20\n      add\n      swap1\n      dup2\n      mstore\n      0x20\n      add\n      0x00\n      keccak256\n        /* \"Contracts/BToken.sol\":4166:4197  _allowance[msg.sender][dst] = 0 */\n      dup2\n      swap1\n      sstore\n      pop\n        /* \"Contracts/BToken.sol\":4131:4291  if (amt > oldValue) {\r... */\n      jump(tag_128)\n    tag_127:\n        /* \"Contracts/BToken.sol\":4260:4279  bsub(oldValue, amt) */\n      tag_129\n        /* \"Contracts/BToken.sol\":4265:4273  oldValue */\n      dup2\n        /* \"Contracts/BToken.sol\":4275:4278  amt */\n      dup5\n        /* \"Contracts/BToken.sol\":4260:4264  bsub */\n      tag_124\n        /* \"Contracts/BToken.sol\":4260:4279  bsub(oldValue, amt) */\n      jump\t// in\n    tag_129:\n        /* \"Contracts/BToken.sol\":4230:4240  _allowance */\n      0x01\n        /* \"Contracts/BToken.sol\":4230:4252  _allowance[msg.sender] */\n      0x00\n        /* \"Contracts/BToken.sol\":4241:4251  msg.sender */\n      caller\n        /* \"Contracts/BToken.sol\":4230:4252  _allowance[msg.sender] */\n      0xffffffffffffffffffffffffffffffffffffffff\n      and\n      0xffffffffffffffffffffffffffffffffffffffff\n      and\n      dup2\n      mstore\n      0x20\n      add\n      swap1\n      dup2\n      mstore\n      0x20\n      add\n      0x00\n      keccak256\n        /* \"Contracts/BToken.sol\":4230:4257  _allowance[msg.sender][dst] */\n      0x00\n        /* \"Contracts/BToken.sol\":4253:4256  dst */\n      dup7\n        /* \"Contracts/BToken.sol\":4230:4257  _allowance[msg.sender][dst] */\n      0xffffffffffffffffffffffffffffffffffffffff\n      and\n      0xffffffffffffffffffffffffffffffffffffffff\n      and\n      dup2\n      mstore\n      0x20\n      add\n      swap1\n      dup2\n      mstore\n      0x20\n      add\n      0x00\n      keccak256\n        /* \"Contracts/BToken.sol\":4230:4279  _allowance[msg.sender][dst] = bsub(oldValue, amt) */\n      dup2\n      swap1\n      sstore\n      pop\n        /* \"Contracts/BToken.sol\":4131:4291  if (amt > oldValue) {\r... */\n    tag_128:\n        /* \"Contracts/BToken.sol\":4327:4330  dst */\n      dup4\n        /* \"Contracts/BToken.sol\":4306:4360  Approval(msg.sender, dst, _allowance[msg.sender][dst]) */\n      0xffffffffffffffffffffffffffffffffffffffff\n      and\n        /* \"Contracts/BToken.sol\":4315:4325  msg.sender */\n      caller\n        /* \"Contracts/BToken.sol\":4306:4360  Approval(msg.sender, dst, _allowance[msg.sender][dst]) */\n      0xffffffffffffffffffffffffffffffffffffffff\n      and\n      0x8c5be1e5ebec7d5bd14f71427d1e84f3dd0314c0f7b2291e5b200ac8c7c3b925\n        /* \"Contracts/BToken.sol\":4332:4342  _allowance */\n      0x01\n        /* \"Contracts/BToken.sol\":4332:4354  _allowance[msg.sender] */\n      0x00\n        /* \"Contracts/BToken.sol\":4343:4353  msg.sender */\n      caller\n        /* \"Contracts/BToken.sol\":4332:4354  _allowance[msg.sender] */\n      0xffffffffffffffffffffffffffffffffffffffff\n      and\n      0xffffffffffffffffffffffffffffffffffffffff\n      and\n      dup2\n      mstore\n      0x20\n      add\n      swap1\n      dup2\n      mstore\n      0x20\n      add\n      0x00\n      keccak256\n        /* \"Contracts/BToken.sol\":4332:4359  _allowance[msg.sender][dst] */\n      0x00\n        /* \"Contracts/BToken.sol\":4355:4358  dst */\n      dup9\n        /* \"Contracts/BToken.sol\":4332:4359  _allowance[msg.sender][dst] */\n      0xffffffffffffffffffffffffffffffffffffffff\n      and\n      0xffffffffffffffffffffffffffffffffffffffff\n      and\n      dup2\n      mstore\n      0x20\n      add\n      swap1\n      dup2\n      mstore\n      0x20\n      add\n      0x00\n      keccak256\n      sload\n        /* \"Contracts/BToken.sol\":4306:4360  Approval(msg.sender, dst, _allowance[msg.sender][dst]) */\n      mload(0x40)\n      dup1\n      dup3\n      dup2\n      mstore\n      0x20\n      add\n      swap2\n      pop\n      pop\n      mload(0x40)\n      dup1\n      swap2\n      sub\n      swap1\n      log3\n        /* \"Contracts/BToken.sol\":4378:4382  true */\n      0x01\n        /* \"Contracts/BToken.sol\":4371:4382  return true */\n      swap2\n      pop\n      pop\n        /* \"Contracts/BToken.sol\":3993:4390  function decreaseApproval(address dst, uint amt) external returns (bool) {\r... */\n      swap3\n      swap2\n      pop\n      pop\n      jump\t// out\n        /* \"Contracts/BToken.sol\":3335:3437  function balanceOf(address whom) external view returns (uint) {\r... */\n    tag_65:\n        /* \"Contracts/BToken.sol\":3391:3395  uint */\n      0x00\n        /* \"Contracts/BToken.sol\":3415:3423  _balance */\n      dup1\n        /* \"Contracts/BToken.sol\":3415:3429  _balance[whom] */\n      0x00\n        /* \"Contracts/BToken.sol\":3424:3428  whom */\n      dup4\n        /* \"Contracts/BToken.sol\":3415:3429  _balance[whom] */\n      0xffffffffffffffffffffffffffffffffffffffff\n      and\n      0xffffffffffffffffffffffffffffffffffffffff\n      and\n      dup2\n      mstore\n      0x20\n      add\n      swap1\n      dup2\n      mstore\n      0x20\n      add\n      0x00\n      keccak256\n      sload\n        /* \"Contracts/BToken.sol\":3408:3429  return _balance[whom] */\n      swap1\n      pop\n        /* \"Contracts/BToken.sol\":3335:3437  function balanceOf(address whom) external view returns (uint) {\r... */\n      swap2\n      swap1\n      pop\n      jump\t// out\n        /* \"Contracts/BConst.sol\":247:300  uint public constant MIN_FEE           = BONE / 10**6 */\n    tag_67:\n        /* \"Contracts/BConst.sol\":295:300  10**6 */\n      0x0f4240\n        /* \"Contracts/BConst.sol\":132:138  10**18 */\n      0x0de0b6b3a7640000\n        /* \"Contracts/BConst.sol\":288:300  BONE / 10**6 */\n      dup2\n      tag_131\n      jumpi\n      invalid\n    tag_131:\n      div\n        /* \"Contracts/BConst.sol\":247:300  uint public constant MIN_FEE           = BONE / 10**6 */\n      dup2\n      jump\t// out\n        /* \"Contracts/BConst.sol\":581:635  uint public constant MIN_BALANCE       = BONE / 10**12 */\n    tag_69:\n        /* \"Contracts/BConst.sol\":629:635  10**12 */\n      0xe8d4a51000\n        /* \"Contracts/BConst.sol\":132:138  10**18 */\n      0x0de0b6b3a7640000\n        /* \"Contracts/BConst.sol\":622:635  BONE / 10**12 */\n      dup2\n      tag_132\n      jumpi\n      invalid\n    tag_132:\n      div\n        /* \"Contracts/BConst.sol\":581:635  uint public constant MIN_BALANCE       = BONE / 10**12 */\n      dup2\n      jump\t// out\n        /* \"Contracts/BConst.sol\":644:695  uint public constant INIT_POOL_SUPPLY  = BONE * 100 */\n    tag_71:\n        /* \"Contracts/BConst.sol\":692:695  100 */\n      0x64\n        /* \"Contracts/BConst.sol\":132:138  10**18 */\n      0x0de0b6b3a7640000\n        /* \"Contracts/BConst.sol\":685:695  BONE * 100 */\n      mul\n        /* \"Contracts/BConst.sol\":644:695  uint public constant INIT_POOL_SUPPLY  = BONE * 100 */\n      dup2\n      jump\t// out\n        /* \"Contracts/BToken.sol\":3022:3109  function symbol() public view returns (string memory) {\r... */\n    tag_73:\n        /* \"Contracts/BToken.sol\":3061:3074  string memory */\n      0x60\n        /* \"Contracts/BToken.sol\":3094:3101  _symbol */\n      0x04\n        /* \"Contracts/BToken.sol\":3087:3101  return _symbol */\n      dup1\n      sload\n      0x01\n      dup2\n      0x01\n      and\n      iszero\n      0x0100\n      mul\n      sub\n      and\n      0x02\n      swap1\n      div\n      dup1\n      0x1f\n      add\n      0x20\n      dup1\n      swap2\n      div\n      mul\n      0x20\n      add\n      mload(0x40)\n      swap1\n      dup2\n      add\n      0x40\n      mstore\n      dup1\n      swap3\n      swap2\n      swap1\n      dup2\n      dup2\n      mstore\n      0x20\n      add\n      dup3\n      dup1\n      sload\n      0x01\n      dup2\n      0x01\n      and\n      iszero\n      0x0100\n      mul\n      sub\n      and\n      0x02\n      swap1\n      div\n      dup1\n      iszero\n      tag_134\n      jumpi\n      dup1\n      0x1f\n      lt\n      tag_135\n      jumpi\n      0x0100\n      dup1\n      dup4\n      sload\n      div\n      mul\n      dup4\n      mstore\n      swap2\n      0x20\n      add\n      swap2\n      jump(tag_134)\n    tag_135:\n      dup3\n      add\n      swap2\n      swap1\n      0x00\n      mstore\n      keccak256(0x00, 0x20)\n      swap1\n    tag_136:\n      dup2\n      sload\n      dup2\n      mstore\n      swap1\n      0x01\n      add\n      swap1\n      0x20\n      add\n      dup1\n      dup4\n      gt\n      tag_136\n      jumpi\n      dup3\n      swap1\n      sub\n      0x1f\n      and\n      dup3\n      add\n      swap2\n    tag_134:\n      pop\n      pop\n      pop\n      pop\n      pop\n      swap1\n      pop\n        /* \"Contracts/BToken.sol\":3022:3109  function symbol() public view returns (string memory) {\r... */\n      swap1\n      jump\t// out\n        /* \"Contracts/BConst.sol\":942:1001  uint public constant MAX_OUT_RATIO     = (BONE / 3) + 1 wei */\n    tag_79:\n        /* \"Contracts/BConst.sol\":996:1001  1 wei */\n      0x01\n        /* \"Contracts/BConst.sol\":991:992  3 */\n      0x03\n        /* \"Contracts/BConst.sol\":132:138  10**18 */\n      0x0de0b6b3a7640000\n        /* \"Contracts/BConst.sol\":984:992  BONE / 3 */\n      dup2\n      tag_137\n      jumpi\n      invalid\n    tag_137:\n      div\n        /* \"Contracts/BConst.sol\":983:1001  (BONE / 3) + 1 wei */\n      add\n        /* \"Contracts/BConst.sol\":942:1001  uint public constant MAX_OUT_RATIO     = (BONE / 3) + 1 wei */\n      dup2\n      jump\t// out\n        /* \"Contracts/BColor.sol\":163:284  function getColor()\r... */\n    tag_81:\n        /* \"Contracts/BColor.sol\":224:231  bytes32 */\n      0x00\n        /* \"Contracts/BColor.sol\":255:272  bytes32(\"BRONZE\") */\n      0x42524f4e5a450000000000000000000000000000000000000000000000000000\n        /* \"Contracts/BColor.sol\":248:272  return bytes32(\"BRONZE\") */\n      swap1\n      pop\n        /* \"Contracts/BColor.sol\":163:284  function getColor()\r... */\n      swap1\n      jump\t// out\n        /* \"Contracts/BToken.sol\":4398:4531  function transfer(address dst, uint amt) external returns (bool) {\r... */\n    tag_84:\n        /* \"Contracts/BToken.sol\":4457:4461  bool */\n      0x00\n        /* \"Contracts/BToken.sol\":4474:4501  _move(msg.sender, dst, amt) */\n      tag_140\n        /* \"Contracts/BToken.sol\":4480:4490  msg.sender */\n      caller\n        /* \"Contracts/BToken.sol\":4492:4495  dst */\n      dup5\n        /* \"Contracts/BToken.sol\":4497:4500  amt */\n      dup5\n        /* \"Contracts/BToken.sol\":4474:4479  _move */\n      tag_120\n        /* \"Contracts/BToken.sol\":4474:4501  _move(msg.sender, dst, amt) */\n      jump\t// in\n    tag_140:\n        /* \"Contracts/BToken.sol\":4519:4523  true */\n      0x01\n        /* \"Contracts/BToken.sol\":4512:4523  return true */\n      swap1\n      pop\n        /* \"Contracts/BToken.sol\":4398:4531  function transfer(address dst, uint amt) external returns (bool) {\r... */\n      swap3\n      swap2\n      pop\n      pop\n      jump\t// out\n        /* \"Contracts/BConst.sol\":196:238  uint public constant MAX_BOUND_TOKENS  = 8 */\n    tag_86:\n        /* \"Contracts/BConst.sol\":237:238  8 */\n      0x08\n        /* \"Contracts/BConst.sol\":196:238  uint public constant MAX_BOUND_TOKENS  = 8 */\n      dup2\n      jump\t// out\n        /* \"Contracts/BConst.sol\":147:189  uint public constant MIN_BOUND_TOKENS  = 2 */\n    tag_88:\n        /* \"Contracts/BConst.sol\":188:189  2 */\n      0x02\n        /* \"Contracts/BConst.sol\":147:189  uint public constant MIN_BOUND_TOKENS  = 2 */\n      dup2\n      jump\t// out\n        /* \"Contracts/BConst.sol\":704:750  uint public constant MIN_BPOW_BASE     = 1 wei */\n    tag_90:\n        /* \"Contracts/BConst.sol\":745:750  1 wei */\n      0x01\n        /* \"Contracts/BConst.sol\":704:750  uint public constant MIN_BPOW_BASE     = 1 wei */\n      dup2\n      jump\t// out\n        /* \"Contracts/BConst.sol\":307:357  uint public constant MAX_FEE           = BONE / 10 */\n    tag_92:\n        /* \"Contracts/BConst.sol\":355:357  10 */\n      0x0a\n        /* \"Contracts/BConst.sol\":132:138  10**18 */\n      0x0de0b6b3a7640000\n        /* \"Contracts/BConst.sol\":348:357  BONE / 10 */\n      dup2\n      tag_141\n      jumpi\n      invalid\n    tag_141:\n      div\n        /* \"Contracts/BConst.sol\":307:357  uint public constant MAX_FEE           = BONE / 10 */\n      dup2\n      jump\t// out\n        /* \"Contracts/BConst.sol\":757:816  uint public constant MAX_BPOW_BASE     = (2 * BONE) - 1 wei */\n    tag_94:\n        /* \"Contracts/BConst.sol\":811:816  1 wei */\n      0x01\n        /* \"Contracts/BConst.sol\":132:138  10**18 */\n      0x0de0b6b3a7640000\n        /* \"Contracts/BConst.sol\":799:800  2 */\n      0x02\n        /* \"Contracts/BConst.sol\":799:807  2 * BONE */\n      mul\n        /* \"Contracts/BConst.sol\":798:816  (2 * BONE) - 1 wei */\n      sub\n        /* \"Contracts/BConst.sol\":757:816  uint public constant MAX_BPOW_BASE     = (2 * BONE) - 1 wei */\n      dup2\n      jump\t// out\n        /* \"Contracts/BConst.sol\":91:138  uint public constant BONE              = 10**18 */\n    tag_96:\n        /* \"Contracts/BConst.sol\":132:138  10**18 */\n      0x0de0b6b3a7640000\n        /* \"Contracts/BConst.sol\":91:138  uint public constant BONE              = 10**18 */\n      dup2\n      jump\t// out\n        /* \"Contracts/BConst.sol\":364:406  uint public constant EXIT_FEE          = 0 */\n    tag_98:\n        /* \"Contracts/BConst.sol\":405:406  0 */\n      0x00\n        /* \"Contracts/BConst.sol\":364:406  uint public constant EXIT_FEE          = 0 */\n      dup2\n      jump\t// out\n        /* \"Contracts/BToken.sol\":3733:3985  function increaseApproval(address dst, uint amt) external returns (bool) {\r... */\n    tag_101:\n        /* \"Contracts/BToken.sol\":3800:3804  bool */\n      0x00\n        /* \"Contracts/BToken.sol\":3847:3885  badd(_allowance[msg.sender][dst], amt) */\n      tag_143\n        /* \"Contracts/BToken.sol\":3852:3862  _allowance */\n      0x01\n        /* \"Contracts/BToken.sol\":3852:3874  _allowance[msg.sender] */\n      0x00\n        /* \"Contracts/BToken.sol\":3863:3873  msg.sender */\n      caller\n        /* \"Contracts/BToken.sol\":3852:3874  _allowance[msg.sender] */\n      0xffffffffffffffffffffffffffffffffffffffff\n      and\n      0xffffffffffffffffffffffffffffffffffffffff\n      and\n      dup2\n      mstore\n      0x20\n      add\n      swap1\n      dup2\n      mstore\n      0x20\n      add\n      0x00\n      keccak256\n        /* \"Contracts/BToken.sol\":3852:3879  _allowance[msg.sender][dst] */\n      0x00\n        /* \"Contracts/BToken.sol\":3875:3878  dst */\n      dup6\n        /* \"Contracts/BToken.sol\":3852:3879  _allowance[msg.sender][dst] */\n      0xffffffffffffffffffffffffffffffffffffffff\n      and\n      0xffffffffffffffffffffffffffffffffffffffff\n      and\n      dup2\n      mstore\n      0x20\n      add\n      swap1\n      dup2\n      mstore\n      0x20\n      add\n      0x00\n      keccak256\n      sload\n        /* \"Contracts/BToken.sol\":3881:3884  amt */\n      dup4\n        /* \"Contracts/BToken.sol\":3847:3851  badd */\n      tag_144\n        /* \"Contracts/BToken.sol\":3847:3885  badd(_allowance[msg.sender][dst], amt) */\n      jump\t// in\n    tag_143:\n        /* \"Contracts/BToken.sol\":3817:3827  _allowance */\n      0x01\n        /* \"Contracts/BToken.sol\":3817:3839  _allowance[msg.sender] */\n      0x00\n        /* \"Contracts/BToken.sol\":3828:3838  msg.sender */\n      caller\n        /* \"Contracts/BToken.sol\":3817:3839  _allowance[msg.sender] */\n      0xffffffffffffffffffffffffffffffffffffffff\n      and\n      0xffffffffffffffffffffffffffffffffffffffff\n      and\n      dup2\n      mstore\n      0x20\n      add\n      swap1\n      dup2\n      mstore\n      0x20\n      add\n      0x00\n      keccak256\n        /* \"Contracts/BToken.sol\":3817:3844  _allowance[msg.sender][dst] */\n      0x00\n        /* \"Contracts/BToken.sol\":3840:3843  dst */\n      dup6\n        /* \"Contracts/BToken.sol\":3817:3844  _allowance[msg.sender][dst] */\n      0xffffffffffffffffffffffffffffffffffffffff\n      and\n      0xffffffffffffffffffffffffffffffffffffffff\n      and\n      dup2\n      mstore\n      0x20\n      add\n      swap1\n      dup2\n      mstore\n      0x20\n      add\n      0x00\n      keccak256\n        /* \"Contracts/BToken.sol\":3817:3885  _allowance[msg.sender][dst] = badd(_allowance[msg.sender][dst], amt) */\n      dup2\n      swap1\n      sstore\n      pop\n        /* \"Contracts/BToken.sol\":3922:3925  dst */\n      dup3\n        /* \"Contracts/BToken.sol\":3901:3955  Approval(msg.sender, dst, _allowance[msg.sender][dst]) */\n      0xffffffffffffffffffffffffffffffffffffffff\n      and\n        /* \"Contracts/BToken.sol\":3910:3920  msg.sender */\n      caller\n        /* \"Contracts/BToken.sol\":3901:3955  Approval(msg.sender, dst, _allowance[msg.sender][dst]) */\n      0xffffffffffffffffffffffffffffffffffffffff\n      and\n      0x8c5be1e5ebec7d5bd14f71427d1e84f3dd0314c0f7b2291e5b200ac8c7c3b925\n        /* \"Contracts/BToken.sol\":3927:3937  _allowance */\n      0x01\n        /* \"Contracts/BToken.sol\":3927:3949  _allowance[msg.sender] */\n      0x00\n        /* \"Contracts/BToken.sol\":3938:3948  msg.sender */\n      caller\n        /* \"Contracts/BToken.sol\":3927:3949  _allowance[msg.sender] */\n      0xffffffffffffffffffffffffffffffffffffffff\n      and\n      0xffffffffffffffffffffffffffffffffffffffff\n      and\n      dup2\n      mstore\n      0x20\n      add\n      swap1\n      dup2\n      mstore\n      0x20\n      add\n      0x00\n      keccak256\n        /* \"Contracts/BToken.sol\":3927:3954  _allowance[msg.sender][dst] */\n      0x00\n        /* \"Contracts/BToken.sol\":3950:3953  dst */\n      dup8\n        /* \"Contracts/BToken.sol\":3927:3954  _allowance[msg.sender][dst] */\n      0xffffffffffffffffffffffffffffffffffffffff\n      and\n      0xffffffffffffffffffffffffffffffffffffffff\n      and\n      dup2\n      mstore\n      0x20\n      add\n      swap1\n      dup2\n      mstore\n      0x20\n      add\n      0x00\n      keccak256\n      sload\n        /* \"Contracts/BToken.sol\":3901:3955  Approval(msg.sender, dst, _allowance[msg.sender][dst]) */\n      mload(0x40)\n      dup1\n      dup3\n      dup2\n      mstore\n      0x20\n      add\n      swap2\n      pop\n      pop\n      mload(0x40)\n      dup1\n      swap2\n      sub\n      swap1\n      log3\n        /* \"Contracts/BToken.sol\":3973:3977  true */\n      0x01\n        /* \"Contracts/BToken.sol\":3966:3977  return true */\n      swap1\n      pop\n        /* \"Contracts/BToken.sol\":3733:3985  function increaseApproval(address dst, uint amt) external returns (bool) {\r... */\n      swap3\n      swap2\n      pop\n      pop\n      jump\t// out\n        /* \"Contracts/BToken.sol\":3207:3327  function allowance(address src, address dst) external view returns (uint) {\r... */\n    tag_104:\n        /* \"Contracts/BToken.sol\":3275:3279  uint */\n      0x00\n        /* \"Contracts/BToken.sol\":3299:3309  _allowance */\n      0x01\n        /* \"Contracts/BToken.sol\":3299:3314  _allowance[src] */\n      0x00\n        /* \"Contracts/BToken.sol\":3310:3313  src */\n      dup5\n        /* \"Contracts/BToken.sol\":3299:3314  _allowance[src] */\n      0xffffffffffffffffffffffffffffffffffffffff\n      and\n      0xffffffffffffffffffffffffffffffffffffffff\n      and\n      dup2\n      mstore\n      0x20\n      add\n      swap1\n      dup2\n      mstore\n      0x20\n      add\n      0x00\n      keccak256\n        /* \"Contracts/BToken.sol\":3299:3319  _allowance[src][dst] */\n      0x00\n        /* \"Contracts/BToken.sol\":3315:3318  dst */\n      dup4\n        /* \"Contracts/BToken.sol\":3299:3319  _allowance[src][dst] */\n      0xffffffffffffffffffffffffffffffffffffffff\n      and\n      0xffffffffffffffffffffffffffffffffffffffff\n      and\n      dup2\n      mstore\n      0x20\n      add\n      swap1\n      dup2\n      mstore\n      0x20\n      add\n      0x00\n      keccak256\n      sload\n        /* \"Contracts/BToken.sol\":3292:3319  return _allowance[src][dst] */\n      swap1\n      pop\n        /* \"Contracts/BToken.sol\":3207:3327  function allowance(address src, address dst) external view returns (uint) {\r... */\n      swap3\n      swap2\n      pop\n      pop\n      jump\t// out\n        /* \"Contracts/BConst.sol\":467:517  uint public constant MAX_WEIGHT        = BONE * 50 */\n    tag_106:\n        /* \"Contracts/BConst.sol\":515:517  50 */\n      0x32\n        /* \"Contracts/BConst.sol\":132:138  10**18 */\n      0x0de0b6b3a7640000\n        /* \"Contracts/BConst.sol\":508:517  BONE * 50 */\n      mul\n        /* \"Contracts/BConst.sol\":467:517  uint public constant MAX_WEIGHT        = BONE * 50 */\n      dup2\n      jump\t// out\n        /* \"Contracts/BConst.sol\":886:935  uint public constant MAX_IN_RATIO      = BONE / 2 */\n    tag_108:\n        /* \"Contracts/BConst.sol\":934:935  2 */\n      0x02\n        /* \"Contracts/BConst.sol\":132:138  10**18 */\n      0x0de0b6b3a7640000\n        /* \"Contracts/BConst.sol\":927:935  BONE / 2 */\n      dup2\n      tag_146\n      jumpi\n      invalid\n    tag_146:\n      div\n        /* \"Contracts/BConst.sol\":886:935  uint public constant MAX_IN_RATIO      = BONE / 2 */\n      dup2\n      jump\t// out\n        /* \"Contracts/BToken.sol\":2261:2534  function _move(address src, address dst, uint amt) internal {\r... */\n    tag_120:\n        /* \"Contracts/BToken.sol\":2357:2360  amt */\n      dup1\n        /* \"Contracts/BToken.sol\":2340:2348  _balance */\n      0x00\n        /* \"Contracts/BToken.sol\":2340:2353  _balance[src] */\n      dup1\n        /* \"Contracts/BToken.sol\":2349:2352  src */\n      dup6\n        /* \"Contracts/BToken.sol\":2340:2353  _balance[src] */\n      0xffffffffffffffffffffffffffffffffffffffff\n      and\n      0xffffffffffffffffffffffffffffffffffffffff\n      and\n      dup2\n      mstore\n      0x20\n      add\n      swap1\n      dup2\n      mstore\n      0x20\n      add\n      0x00\n      keccak256\n      sload\n        /* \"Contracts/BToken.sol\":2340:2360  _balance[src] >= amt */\n      lt\n      iszero\n        /* \"Contracts/BToken.sol\":2332:2385  require(_balance[src] >= amt, \"ERR_INSUFFICIENT_BAL\") */\n      tag_148\n      jumpi\n      mload(0x40)\n      0x08c379a000000000000000000000000000000000000000000000000000000000\n      dup2\n      mstore\n      0x04\n      add\n      dup1\n      dup1\n      0x20\n      add\n      dup3\n      dup2\n      sub\n      dup3\n      mstore\n      0x14\n      dup2\n      mstore\n      0x20\n      add\n      dup1\n      0x4552525f494e53554646494349454e545f42414c000000000000000000000000\n      dup2\n      mstore\n      pop\n      0x20\n      add\n      swap2\n      pop\n      pop\n      mload(0x40)\n      dup1\n      swap2\n      sub\n      swap1\n      revert\n    tag_148:\n        /* \"Contracts/BToken.sol\":2412:2436  bsub(_balance[src], amt) */\n      tag_149\n        /* \"Contracts/BToken.sol\":2417:2425  _balance */\n      0x00\n        /* \"Contracts/BToken.sol\":2417:2430  _balance[src] */\n      dup1\n        /* \"Contracts/BToken.sol\":2426:2429  src */\n      dup6\n        /* \"Contracts/BToken.sol\":2417:2430  _balance[src] */\n      0xffffffffffffffffffffffffffffffffffffffff\n      and\n      0xffffffffffffffffffffffffffffffffffffffff\n      and\n      dup2\n      mstore\n      0x20\n      add\n      swap1\n      dup2\n      mstore\n      0x20\n      add\n      0x00\n      keccak256\n      sload\n        /* \"Contracts/BToken.sol\":2432:2435  amt */\n      dup3\n        /* \"Contracts/BToken.sol\":2412:2416  bsub */\n      tag_124\n        /* \"Contracts/BToken.sol\":2412:2436  bsub(_balance[src], amt) */\n      jump\t// in\n    tag_149:\n        /* \"Contracts/BToken.sol\":2396:2404  _balance */\n      0x00\n        /* \"Contracts/BToken.sol\":2396:2409  _balance[src] */\n      dup1\n        /* \"Contracts/BToken.sol\":2405:2408  src */\n      dup6\n        /* \"Contracts/BToken.sol\":2396:2409  _balance[src] */\n      0xffffffffffffffffffffffffffffffffffffffff\n      and\n      0xffffffffffffffffffffffffffffffffffffffff\n      and\n      dup2\n      mstore\n      0x20\n      add\n      swap1\n      dup2\n      mstore\n      0x20\n      add\n      0x00\n      keccak256\n        /* \"Contracts/BToken.sol\":2396:2436  _balance[src] = bsub(_balance[src], amt) */\n      dup2\n      swap1\n      sstore\n      pop\n        /* \"Contracts/BToken.sol\":2463:2487  badd(_balance[dst], amt) */\n      tag_150\n        /* \"Contracts/BToken.sol\":2468:2476  _balance */\n      0x00\n        /* \"Contracts/BToken.sol\":2468:2481  _balance[dst] */\n      dup1\n        /* \"Contracts/BToken.sol\":2477:2480  dst */\n      dup5\n        /* \"Contracts/BToken.sol\":2468:2481  _balance[dst] */\n      0xffffffffffffffffffffffffffffffffffffffff\n      and\n      0xffffffffffffffffffffffffffffffffffffffff\n      and\n      dup2\n      mstore\n      0x20\n      add\n      swap1\n      dup2\n      mstore\n      0x20\n      add\n      0x00\n      keccak256\n      sload\n        /* \"Contracts/BToken.sol\":2483:2486  amt */\n      dup3\n        /* \"Contracts/BToken.sol\":2463:2467  badd */\n      tag_144\n        /* \"Contracts/BToken.sol\":2463:2487  badd(_balance[dst], amt) */\n      jump\t// in\n    tag_150:\n        /* \"Contracts/BToken.sol\":2447:2455  _balance */\n      0x00\n        /* \"Contracts/BToken.sol\":2447:2460  _balance[dst] */\n      dup1\n        /* \"Contracts/BToken.sol\":2456:2459  dst */\n      dup5\n        /* \"Contracts/BToken.sol\":2447:2460  _balance[dst] */\n      0xffffffffffffffffffffffffffffffffffffffff\n      and\n      0xffffffffffffffffffffffffffffffffffffffff\n      and\n      dup2\n      mstore\n      0x20\n      add\n      swap1\n      dup2\n      mstore\n      0x20\n      add\n      0x00\n      keccak256\n        /* \"Contracts/BToken.sol\":2447:2487  _balance[dst] = badd(_balance[dst], amt) */\n      dup2\n      swap1\n      sstore\n      pop\n        /* \"Contracts/BToken.sol\":2517:2520  dst */\n      dup2\n        /* \"Contracts/BToken.sol\":2503:2526  Transfer(src, dst, amt) */\n      0xffffffffffffffffffffffffffffffffffffffff\n      and\n        /* \"Contracts/BToken.sol\":2512:2515  src */\n      dup4\n        /* \"Contracts/BToken.sol\":2503:2526  Transfer(src, dst, amt) */\n      0xffffffffffffffffffffffffffffffffffffffff\n      and\n      0xddf252ad1be2c89b69c2b068fc378daa952ba7f163c4a11628f55a4df523b3ef\n        /* \"Contracts/BToken.sol\":2522:2525  amt */\n      dup4\n        /* \"Contracts/BToken.sol\":2503:2526  Transfer(src, dst, amt) */\n      mload(0x40)\n      dup1\n      dup3\n      dup2\n      mstore\n      0x20\n      add\n      swap2\n      pop\n      pop\n      mload(0x40)\n      dup1\n      swap2\n      sub\n      swap1\n      log3\n        /* \"Contracts/BToken.sol\":2261:2534  function _move(address src, address dst, uint amt) internal {\r... */\n      pop\n      pop\n      pop\n      jump\t// out\n        /* \"Contracts/BNum.sol\":517:719  function bsub(uint a, uint b)\r... */\n    tag_124:\n        /* \"Contracts/BNum.sol\":588:592  uint */\n      0x00\n        /* \"Contracts/BNum.sol\":611:617  uint c */\n      dup1\n        /* \"Contracts/BNum.sol\":619:628  bool flag */\n      0x00\n        /* \"Contracts/BNum.sol\":632:646  bsubSign(a, b) */\n      tag_152\n        /* \"Contracts/BNum.sol\":641:642  a */\n      dup6\n        /* \"Contracts/BNum.sol\":644:645  b */\n      dup6\n        /* \"Contracts/BNum.sol\":632:640  bsubSign */\n      tag_153\n        /* \"Contracts/BNum.sol\":632:646  bsubSign(a, b) */\n      jump\t// in\n    tag_152:\n        /* \"Contracts/BNum.sol\":610:646  (uint c, bool flag) = bsubSign(a, b) */\n      swap2\n      pop\n      swap2\n      pop\n        /* \"Contracts/BNum.sol\":666:670  flag */\n      dup1\n        /* \"Contracts/BNum.sol\":665:670  !flag */\n      iszero\n        /* \"Contracts/BNum.sol\":657:692  require(!flag, \"ERR_SUB_UNDERFLOW\") */\n      tag_154\n      jumpi\n      mload(0x40)\n      0x08c379a000000000000000000000000000000000000000000000000000000000\n      dup2\n      mstore\n      0x04\n      add\n      dup1\n      dup1\n      0x20\n      add\n      dup3\n      dup2\n      sub\n      dup3\n      mstore\n      0x11\n      dup2\n      mstore\n      0x20\n      add\n      dup1\n      0x4552525f5355425f554e444552464c4f57000000000000000000000000000000\n      dup2\n      mstore\n      pop\n      0x20\n      add\n      swap2\n      pop\n      pop\n      mload(0x40)\n      dup1\n      swap2\n      sub\n      swap1\n      revert\n    tag_154:\n        /* \"Contracts/BNum.sol\":710:711  c */\n      dup2\n        /* \"Contracts/BNum.sol\":703:711  return c */\n      swap3\n      pop\n      pop\n      pop\n        /* \"Contracts/BNum.sol\":517:719  function bsub(uint a, uint b)\r... */\n      swap3\n      swap2\n      pop\n      pop\n      jump\t// out\n        /* \"Contracts/BNum.sol\":329:509  function badd(uint a, uint b)\r... */\n    tag_144:\n        /* \"Contracts/BNum.sol\":400:404  uint */\n      0x00\n        /* \"Contracts/BNum.sol\":422:428  uint c */\n      dup1\n        /* \"Contracts/BNum.sol\":435:436  b */\n      dup3\n        /* \"Contracts/BNum.sol\":431:432  a */\n      dup5\n        /* \"Contracts/BNum.sol\":431:436  a + b */\n      add\n        /* \"Contracts/BNum.sol\":422:436  uint c = a + b */\n      swap1\n      pop\n        /* \"Contracts/BNum.sol\":460:461  a */\n      dup4\n        /* \"Contracts/BNum.sol\":455:456  c */\n      dup2\n        /* \"Contracts/BNum.sol\":455:461  c >= a */\n      lt\n      iszero\n        /* \"Contracts/BNum.sol\":447:482  require(c >= a, \"ERR_ADD_OVERFLOW\") */\n      tag_156\n      jumpi\n      mload(0x40)\n      0x08c379a000000000000000000000000000000000000000000000000000000000\n      dup2\n      mstore\n      0x04\n      add\n      dup1\n      dup1\n      0x20\n      add\n      dup3\n      dup2\n      sub\n      dup3\n      mstore\n      0x10\n      dup2\n      mstore\n      0x20\n      add\n      dup1\n      0x4552525f4144445f4f564552464c4f5700000000000000000000000000000000\n      dup2\n      mstore\n      pop\n      0x20\n      add\n      swap2\n      pop\n      pop\n      mload(0x40)\n      dup1\n      swap2\n      sub\n      swap1\n      revert\n    tag_156:\n        /* \"Contracts/BNum.sol\":500:501  c */\n      dup1\n        /* \"Contracts/BNum.sol\":493:501  return c */\n      swap2\n      pop\n      pop\n        /* \"Contracts/BNum.sol\":329:509  function badd(uint a, uint b)\r... */\n      swap3\n      swap2\n      pop\n      pop\n      jump\t// out\n        /* \"Contracts/BNum.sol\":727:950  function bsubSign(uint a, uint b)\r... */\n    tag_153:\n        /* \"Contracts/BNum.sol\":802:806  uint */\n      0x00\n        /* \"Contracts/BNum.sol\":808:812  bool */\n      dup1\n        /* \"Contracts/BNum.sol\":839:840  b */\n      dup3\n        /* \"Contracts/BNum.sol\":834:835  a */\n      dup5\n        /* \"Contracts/BNum.sol\":834:840  a >= b */\n      lt\n        /* \"Contracts/BNum.sol\":830:943  if (a >= b) {\r... */\n      tag_158\n      jumpi\n        /* \"Contracts/BNum.sol\":869:870  b */\n      dup3\n        /* \"Contracts/BNum.sol\":865:866  a */\n      dup5\n        /* \"Contracts/BNum.sol\":865:870  a - b */\n      sub\n        /* \"Contracts/BNum.sol\":872:877  false */\n      0x00\n        /* \"Contracts/BNum.sol\":857:878  return (a - b, false) */\n      swap2\n      pop\n      swap2\n      pop\n      jump(tag_157)\n        /* \"Contracts/BNum.sol\":830:943  if (a >= b) {\r... */\n    tag_158:\n        /* \"Contracts/BNum.sol\":923:924  a */\n      dup4\n        /* \"Contracts/BNum.sol\":919:920  b */\n      dup4\n        /* \"Contracts/BNum.sol\":919:924  b - a */\n      sub\n        /* \"Contracts/BNum.sol\":926:930  true */\n      0x01\n        /* \"Contracts/BNum.sol\":911:931  return (b - a, true) */\n      swap2\n      pop\n      swap2\n      pop\n        /* \"Contracts/BNum.sol\":727:950  function bsubSign(uint a, uint b)\r... */\n    tag_157:\n      swap3\n      pop\n      swap3\n      swap1\n      pop\n      jump\t// out\n\n    auxdata: 0xa265627a7a7231582086e2240490723ecc576ef3a540375cfb7ee5c32392a3ecbb17f58eca3d23b58e64736f6c634300050c0032\n}\n",
				"bytecode": {
					"linkReferences": {},
					"object": "60806040526040518060400160405280601381526020017f42616c616e63657220506f6f6c20546f6b656e000000000000000000000000008152506003908051906020019062000051929190620000d0565b506040518060400160405280600381526020017f4250540000000000000000000000000000000000000000000000000000000000815250600490805190602001906200009f929190620000d0565b506012600560006101000a81548160ff021916908360ff160217905550348015620000c957600080fd5b506200017f565b828054600181600116156101000203166002900490600052602060002090601f016020900481019282601f106200011357805160ff191683800117855562000144565b8280016001018555821562000144579182015b828111156200014357825182559160200191906001019062000126565b5b50905062000153919062000157565b5090565b6200017c91905b80821115620001785760008160009055506001016200015e565b5090565b90565b611888806200018f6000396000f3fe608060405234801561001057600080fd5b50600436106101c45760003560e01c8063992e2a92116100f9578063bc694ea211610097578063d73dd62311610071578063d73dd623146106e3578063dd62ed3e14610749578063e4a28a52146107c1578063ec093021146107df576101c4565b8063bc694ea214610689578063c36596a6146106a7578063c6580d12146106c5576101c4565b8063b0e0d136116100d3578063b0e0d13614610611578063b7b800a41461062f578063ba019dab1461064d578063bc063e1a1461066b576101c4565b8063992e2a921461056f5780639a86139b1461058d578063a9059cbb146105ab576101c4565b8063313ce5671161016657806376c7a3c71161014057806376c7a3c714610492578063867378c5146104b05780639381cd2b146104ce57806395d89b41146104ec576101c4565b8063313ce567146103b057806366188463146103d457806370a082311461043a576101c4565b806318160ddd116101a257806318160ddd146102d0578063189d00ca146102ee578063218b53821461030c57806323b872dd1461032a576101c4565b806306fdde03146101c9578063095ea7b31461024c57806309a3bbe4146102b2575b600080fd5b6101d16107fd565b6040518080602001828103825283818151815260200191508051906020019080838360005b838110156102115780820151818401526020810190506101f6565b50505050905090810190601f16801561023e5780820380516001836020036101000a031916815260200191505b509250505060405180910390f35b6102986004803603604081101561026257600080fd5b81019080803573ffffffffffffffffffffffffffffffffffffffff1690602001909291908035906020019092919050505061089f565b604051808215151515815260200191505060405180910390f35b6102ba610991565b6040518082815260200191505060405180910390f35b6102d86109a0565b6040518082815260200191505060405180910390f35b6102f66109aa565b6040518082815260200191505060405180910390f35b6103146109c4565b6040518082815260200191505060405180910390f35b6103966004803603606081101561034057600080fd5b81019080803573ffffffffffffffffffffffffffffffffffffffff169060200190929190803573ffffffffffffffffffffffffffffffffffffffff169060200190929190803590602001909291905050506109d0565b604051808215151515815260200191505060405180910390f35b6103b8610dd5565b604051808260ff1660ff16815260200191505060405180910390f35b610420600480360360408110156103ea57600080fd5b81019080803573ffffffffffffffffffffffffffffffffffffffff16906020019092919080359060200190929190505050610dec565b604051808215151515815260200191505060405180910390f35b61047c6004803603602081101561045057600080fd5b81019080803573ffffffffffffffffffffffffffffffffffffffff169060200190929190505050611074565b6040518082815260200191505060405180910390f35b61049a6110bc565b6040518082815260200191505060405180910390f35b6104b86110d4565b6040518082815260200191505060405180910390f35b6104d66110ee565b6040518082815260200191505060405180910390f35b6104f46110fd565b6040518080602001828103825283818151815260200191508051906020019080838360005b83811015610534578082015181840152602081019050610519565b50505050905090810190601f1680156105615780820380516001836020036101000a031916815260200191505b509250505060405180910390f35b61057761119f565b6040518082815260200191505060405180910390f35b6105956111b8565b6040518082815260200191505060405180910390f35b6105f7600480360360408110156105c157600080fd5b81019080803573ffffffffffffffffffffffffffffffffffffffff169060200190929190803590602001909291905050506111e0565b604051808215151515815260200191505060405180910390f35b6106196111f7565b6040518082815260200191505060405180910390f35b6106376111fc565b6040518082815260200191505060405180910390f35b610655611201565b6040518082815260200191505060405180910390f35b610673611206565b6040518082815260200191505060405180910390f35b61069161121c565b6040518082815260200191505060405180910390f35b6106af61122e565b6040518082815260200191505060405180910390f35b6106cd61123a565b6040518082815260200191505060405180910390f35b61072f600480360360408110156106f957600080fd5b81019080803573ffffffffffffffffffffffffffffffffffffffff1690602001909291908035906020019092919050505061123f565b604051808215151515815260200191505060405180910390f35b6107ab6004803603604081101561075f57600080fd5b81019080803573ffffffffffffffffffffffffffffffffffffffff169060200190929190803573ffffffffffffffffffffffffffffffffffffffff169060200190929190505050611432565b6040518082815260200191505060405180910390f35b6107c96114b9565b6040518082815260200191505060405180910390f35b6107e76114c8565b6040518082815260200191505060405180910390f35b606060038054600181600116156101000203166002900480601f0160208091040260200160405190810160405280929190818152602001828054600181600116156101000203166002900480156108955780601f1061086a57610100808354040283529160200191610895565b820191906000526020600020905b81548152906001019060200180831161087857829003601f168201915b5050505050905090565b600081600160003373ffffffffffffffffffffffffffffffffffffffff1673ffffffffffffffffffffffffffffffffffffffff16815260200190815260200160002060008573ffffffffffffffffffffffffffffffffffffffff1673ffffffffffffffffffffffffffffffffffffffff168152602001908152602001600020819055508273ffffffffffffffffffffffffffffffffffffffff163373ffffffffffffffffffffffffffffffffffffffff167f8c5be1e5ebec7d5bd14f71427d1e84f3dd0314c0f7b2291e5b200ac8c7c3b925846040518082815260200191505060405180910390a36001905092915050565b6032670de0b6b3a76400000281565b6000600254905090565b6402540be400670de0b6b3a7640000816109c057fe5b0481565b670de0b6b3a764000081565b60008373ffffffffffffffffffffffffffffffffffffffff163373ffffffffffffffffffffffffffffffffffffffff161480610a885750600160008573ffffffffffffffffffffffffffffffffffffffff1673ffffffffffffffffffffffffffffffffffffffff16815260200190815260200160002060003373ffffffffffffffffffffffffffffffffffffffff1673ffffffffffffffffffffffffffffffffffffffff168152602001908152602001600020548211155b610afa576040517f08c379a00000000000000000000000000000000000000000000000000000000081526004018080602001828103825260158152602001807f4552525f42544f4b454e5f4241445f43414c4c4552000000000000000000000081525060200191505060405180910390fd5b610b058484846114de565b8373ffffffffffffffffffffffffffffffffffffffff163373ffffffffffffffffffffffffffffffffffffffff1614158015610bdd57507fffffffffffffffffffffffffffffffffffffffffffffffffffffffffffffffff600160008673ffffffffffffffffffffffffffffffffffffffff1673ffffffffffffffffffffffffffffffffffffffff16815260200190815260200160002060003373ffffffffffffffffffffffffffffffffffffffff1673ffffffffffffffffffffffffffffffffffffffff1681526020019081526020016000205414155b15610dca57610c68600160008673ffffffffffffffffffffffffffffffffffffffff1673ffffffffffffffffffffffffffffffffffffffff16815260200190815260200160002060003373ffffffffffffffffffffffffffffffffffffffff1673ffffffffffffffffffffffffffffffffffffffff1681526020019081526020016000205483611710565b600160008673ffffffffffffffffffffffffffffffffffffffff1673ffffffffffffffffffffffffffffffffffffffff16815260200190815260200160002060003373ffffffffffffffffffffffffffffffffffffffff1673ffffffffffffffffffffffffffffffffffffffff168152602001908152602001600020819055508273ffffffffffffffffffffffffffffffffffffffff163373ffffffffffffffffffffffffffffffffffffffff167f8c5be1e5ebec7d5bd14f71427d1e84f3dd0314c0f7b2291e5b200ac8c7c3b925600160008873ffffffffffffffffffffffffffffffffffffffff1673ffffffffffffffffffffffffffffffffffffffff16815260200190815260200160002060003373ffffffffffffffffffffffffffffffffffffffff1673ffffffffffffffffffffffffffffffffffffffff168152602001908152602001600020546040518082815260200191505060405180910390a35b600190509392505050565b6000600560009054906101000a900460ff16905090565b600080600160003373ffffffffffffffffffffffffffffffffffffffff1673ffffffffffffffffffffffffffffffffffffffff16815260200190815260200160002060008573ffffffffffffffffffffffffffffffffffffffff1673ffffffffffffffffffffffffffffffffffffffff16815260200190815260200160002054905080831115610efd576000600160003373ffffffffffffffffffffffffffffffffffffffff1673ffffffffffffffffffffffffffffffffffffffff16815260200190815260200160002060008673ffffffffffffffffffffffffffffffffffffffff1673ffffffffffffffffffffffffffffffffffffffff16815260200190815260200160002081905550610f88565b610f078184611710565b600160003373ffffffffffffffffffffffffffffffffffffffff1673ffffffffffffffffffffffffffffffffffffffff16815260200190815260200160002060008673ffffffffffffffffffffffffffffffffffffffff1673ffffffffffffffffffffffffffffffffffffffff168152602001908152602001600020819055505b8373ffffffffffffffffffffffffffffffffffffffff163373ffffffffffffffffffffffffffffffffffffffff167f8c5be1e5ebec7d5bd14f71427d1e84f3dd0314c0f7b2291e5b200ac8c7c3b925600160003373ffffffffffffffffffffffffffffffffffffffff1673ffffffffffffffffffffffffffffffffffffffff16815260200190815260200160002060008873ffffffffffffffffffffffffffffffffffffffff1673ffffffffffffffffffffffffffffffffffffffff168152602001908152602001600020546040518082815260200191505060405180910390a3600191505092915050565b60008060008373ffffffffffffffffffffffffffffffffffffffff1673ffffffffffffffffffffffffffffffffffffffff168152602001908152602001600020549050919050565b620f4240670de0b6b3a7640000816110d057fe5b0481565b64e8d4a51000670de0b6b3a7640000816110ea57fe5b0481565b6064670de0b6b3a76400000281565b606060048054600181600116156101000203166002900480601f0160208091040260200160405190810160405280929190818152602001828054600181600116156101000203166002900480156111955780601f1061116a57610100808354040283529160200191611195565b820191906000526020600020905b81548152906001019060200180831161117857829003601f168201915b5050505050905090565b60016003670de0b6b3a7640000816111b357fe5b040181565b60007f42524f4e5a450000000000000000000000000000000000000000000000000000905090565b60006111ed3384846114de565b6001905092915050565b600881565b600281565b600181565b600a670de0b6b3a76400008161121857fe5b0481565b6001670de0b6b3a76400006002020381565b670de0b6b3a764000081565b600081565b60006112c7600160003373ffffffffffffffffffffffffffffffffffffffff1673ffffffffffffffffffffffffffffffffffffffff16815260200190815260200160002060008573ffffffffffffffffffffffffffffffffffffffff1673ffffffffffffffffffffffffffffffffffffffff16815260200190815260200160002054836117a2565b600160003373ffffffffffffffffffffffffffffffffffffffff1673ffffffffffffffffffffffffffffffffffffffff16815260200190815260200160002060008573ffffffffffffffffffffffffffffffffffffffff1673ffffffffffffffffffffffffffffffffffffffff168152602001908152602001600020819055508273ffffffffffffffffffffffffffffffffffffffff163373ffffffffffffffffffffffffffffffffffffffff167f8c5be1e5ebec7d5bd14f71427d1e84f3dd0314c0f7b2291e5b200ac8c7c3b925600160003373ffffffffffffffffffffffffffffffffffffffff1673ffffffffffffffffffffffffffffffffffffffff16815260200190815260200160002060008773ffffffffffffffffffffffffffffffffffffffff1673ffffffffffffffffffffffffffffffffffffffff168152602001908152602001600020546040518082815260200191505060405180910390a36001905092915050565b6000600160008473ffffffffffffffffffffffffffffffffffffffff1673ffffffffffffffffffffffffffffffffffffffff16815260200190815260200160002060008373ffffffffffffffffffffffffffffffffffffffff1673ffffffffffffffffffffffffffffffffffffffff16815260200190815260200160002054905092915050565b6032670de0b6b3a76400000281565b6002670de0b6b3a7640000816114da57fe5b0481565b806000808573ffffffffffffffffffffffffffffffffffffffff1673ffffffffffffffffffffffffffffffffffffffff168152602001908152602001600020541015611592576040517f08c379a00000000000000000000000000000000000000000000000000000000081526004018080602001828103825260148152602001807f4552525f494e53554646494349454e545f42414c00000000000000000000000081525060200191505060405180910390fd5b6115da6000808573ffffffffffffffffffffffffffffffffffffffff1673ffffffffffffffffffffffffffffffffffffffff1681526020019081526020016000205482611710565b6000808573ffffffffffffffffffffffffffffffffffffffff1673ffffffffffffffffffffffffffffffffffffffff168152602001908152602001600020819055506116646000808473ffffffffffffffffffffffffffffffffffffffff1673ffffffffffffffffffffffffffffffffffffffff16815260200190815260200160002054826117a2565b6000808473ffffffffffffffffffffffffffffffffffffffff1673ffffffffffffffffffffffffffffffffffffffff168152602001908152602001600020819055508173ffffffffffffffffffffffffffffffffffffffff168373ffffffffffffffffffffffffffffffffffffffff167fddf252ad1be2c89b69c2b068fc378daa952ba7f163c4a11628f55a4df523b3ef836040518082815260200191505060405180910390a3505050565b600080600061171f858561182a565b915091508015611797576040517f08c379a00000000000000000000000000000000000000000000000000000000081526004018080602001828103825260118152602001807f4552525f5355425f554e444552464c4f5700000000000000000000000000000081525060200191505060405180910390fd5b819250505092915050565b600080828401905083811015611820576040517f08c379a00000000000000000000000000000000000000000000000000000000081526004018080602001828103825260108152602001807f4552525f4144445f4f564552464c4f570000000000000000000000000000000081525060200191505060405180910390fd5b8091505092915050565b6000808284106118425782840360009150915061184c565b8383036001915091505b925092905056fea265627a7a7231582086e2240490723ecc576ef3a540375cfb7ee5c32392a3ecbb17f58eca3d23b58e64736f6c634300050c0032",
					"opcodes": "PUSH1 0x80 PUSH1 0x40 MSTORE PUSH1 0x40 MLOAD DUP1 PUSH1 0x40 ADD PUSH1 0x40 MSTORE DUP1 PUSH1 0x13 DUP2 MSTORE PUSH1 0x20 ADD PUSH32 0x42616C616E63657220506F6F6C20546F6B656E00000000000000000000000000 DUP2 MSTORE POP PUSH1 0x3 SWAP1 DUP1 MLOAD SWAP1 PUSH1 0x20 ADD SWAP1 PUSH3 0x51 SWAP3 SWAP2 SWAP1 PUSH3 0xD0 JUMP JUMPDEST POP PUSH1 0x40 MLOAD DUP1 PUSH1 0x40 ADD PUSH1 0x40 MSTORE DUP1 PUSH1 0x3 DUP2 MSTORE PUSH1 0x20 ADD PUSH32 0x4250540000000000000000000000000000000000000000000000000000000000 DUP2 MSTORE POP PUSH1 0x4 SWAP1 DUP1 MLOAD SWAP1 PUSH1 0x20 ADD SWAP1 PUSH3 0x9F SWAP3 SWAP2 SWAP1 PUSH3 0xD0 JUMP JUMPDEST POP PUSH1 0x12 PUSH1 0x5 PUSH1 0x0 PUSH2 0x100 EXP DUP2 SLOAD DUP2 PUSH1 0xFF MUL NOT AND SWAP1 DUP4 PUSH1 0xFF AND MUL OR SWAP1 SSTORE POP CALLVALUE DUP1 ISZERO PUSH3 0xC9 JUMPI PUSH1 0x0 DUP1 REVERT JUMPDEST POP PUSH3 0x17F JUMP JUMPDEST DUP3 DUP1 SLOAD PUSH1 0x1 DUP2 PUSH1 0x1 AND ISZERO PUSH2 0x100 MUL SUB AND PUSH1 0x2 SWAP1 DIV SWAP1 PUSH1 0x0 MSTORE PUSH1 0x20 PUSH1 0x0 KECCAK256 SWAP1 PUSH1 0x1F ADD PUSH1 0x20 SWAP1 DIV DUP2 ADD SWAP3 DUP3 PUSH1 0x1F LT PUSH3 0x113 JUMPI DUP1 MLOAD PUSH1 0xFF NOT AND DUP4 DUP1 ADD OR DUP6 SSTORE PUSH3 0x144 JUMP JUMPDEST DUP3 DUP1 ADD PUSH1 0x1 ADD DUP6 SSTORE DUP3 ISZERO PUSH3 0x144 JUMPI SWAP2 DUP3 ADD JUMPDEST DUP3 DUP2 GT ISZERO PUSH3 0x143 JUMPI DUP3 MLOAD DUP3 SSTORE SWAP2 PUSH1 0x20 ADD SWAP2 SWAP1 PUSH1 0x1 ADD SWAP1 PUSH3 0x126 JUMP JUMPDEST JUMPDEST POP SWAP1 POP PUSH3 0x153 SWAP2 SWAP1 PUSH3 0x157 JUMP JUMPDEST POP SWAP1 JUMP JUMPDEST PUSH3 0x17C SWAP2 SWAP1 JUMPDEST DUP1 DUP3 GT ISZERO PUSH3 0x178 JUMPI PUSH1 0x0 DUP2 PUSH1 0x0 SWAP1 SSTORE POP PUSH1 0x1 ADD PUSH3 0x15E JUMP JUMPDEST POP SWAP1 JUMP JUMPDEST SWAP1 JUMP JUMPDEST PUSH2 0x1888 DUP1 PUSH3 0x18F PUSH1 0x0 CODECOPY PUSH1 0x0 RETURN INVALID PUSH1 0x80 PUSH1 0x40 MSTORE CALLVALUE DUP1 ISZERO PUSH2 0x10 JUMPI PUSH1 0x0 DUP1 REVERT JUMPDEST POP PUSH1 0x4 CALLDATASIZE LT PUSH2 0x1C4 JUMPI PUSH1 0x0 CALLDATALOAD PUSH1 0xE0 SHR DUP1 PUSH4 0x992E2A92 GT PUSH2 0xF9 JUMPI DUP1 PUSH4 0xBC694EA2 GT PUSH2 0x97 JUMPI DUP1 PUSH4 0xD73DD623 GT PUSH2 0x71 JUMPI DUP1 PUSH4 0xD73DD623 EQ PUSH2 0x6E3 JUMPI DUP1 PUSH4 0xDD62ED3E EQ PUSH2 0x749 JUMPI DUP1 PUSH4 0xE4A28A52 EQ PUSH2 0x7C1 JUMPI DUP1 PUSH4 0xEC093021 EQ PUSH2 0x7DF JUMPI PUSH2 0x1C4 JUMP JUMPDEST DUP1 PUSH4 0xBC694EA2 EQ PUSH2 0x689 JUMPI DUP1 PUSH4 0xC36596A6 EQ PUSH2 0x6A7 JUMPI DUP1 PUSH4 0xC6580D12 EQ PUSH2 0x6C5 JUMPI PUSH2 0x1C4 JUMP JUMPDEST DUP1 PUSH4 0xB0E0D136 GT PUSH2 0xD3 JUMPI DUP1 PUSH4 0xB0E0D136 EQ PUSH2 0x611 JUMPI DUP1 PUSH4 0xB7B800A4 EQ PUSH2 0x62F JUMPI DUP1 PUSH4 0xBA019DAB EQ PUSH2 0x64D JUMPI DUP1 PUSH4 0xBC063E1A EQ PUSH2 0x66B JUMPI PUSH2 0x1C4 JUMP JUMPDEST DUP1 PUSH4 0x992E2A92 EQ PUSH2 0x56F JUMPI DUP1 PUSH4 0x9A86139B EQ PUSH2 0x58D JUMPI DUP1 PUSH4 0xA9059CBB EQ PUSH2 0x5AB JUMPI PUSH2 0x1C4 JUMP JUMPDEST DUP1 PUSH4 0x313CE567 GT PUSH2 0x166 JUMPI DUP1 PUSH4 0x76C7A3C7 GT PUSH2 0x140 JUMPI DUP1 PUSH4 0x76C7A3C7 EQ PUSH2 0x492 JUMPI DUP1 PUSH4 0x867378C5 EQ PUSH2 0x4B0 JUMPI DUP1 PUSH4 0x9381CD2B EQ PUSH2 0x4CE JUMPI DUP1 PUSH4 0x95D89B41 EQ PUSH2 0x4EC JUMPI PUSH2 0x1C4 JUMP JUMPDEST DUP1 PUSH4 0x313CE567 EQ PUSH2 0x3B0 JUMPI DUP1 PUSH4 0x66188463 EQ PUSH2 0x3D4 JUMPI DUP1 PUSH4 0x70A08231 EQ PUSH2 0x43A JUMPI PUSH2 0x1C4 JUMP JUMPDEST DUP1 PUSH4 0x18160DDD GT PUSH2 0x1A2 JUMPI DUP1 PUSH4 0x18160DDD EQ PUSH2 0x2D0 JUMPI DUP1 PUSH4 0x189D00CA EQ PUSH2 0x2EE JUMPI DUP1 PUSH4 0x218B5382 EQ PUSH2 0x30C JUMPI DUP1 PUSH4 0x23B872DD EQ PUSH2 0x32A JUMPI PUSH2 0x1C4 JUMP JUMPDEST DUP1 PUSH4 0x6FDDE03 EQ PUSH2 0x1C9 JUMPI DUP1 PUSH4 0x95EA7B3 EQ PUSH2 0x24C JUMPI DUP1 PUSH4 0x9A3BBE4 EQ PUSH2 0x2B2 JUMPI JUMPDEST PUSH1 0x0 DUP1 REVERT JUMPDEST PUSH2 0x1D1 PUSH2 0x7FD JUMP JUMPDEST PUSH1 0x40 MLOAD DUP1 DUP1 PUSH1 0x20 ADD DUP3 DUP2 SUB DUP3 MSTORE DUP4 DUP2 DUP2 MLOAD DUP2 MSTORE PUSH1 0x20 ADD SWAP2 POP DUP1 MLOAD SWAP1 PUSH1 0x20 ADD SWAP1 DUP1 DUP4 DUP4 PUSH1 0x0 JUMPDEST DUP4 DUP2 LT ISZERO PUSH2 0x211 JUMPI DUP1 DUP3 ADD MLOAD DUP2 DUP5 ADD MSTORE PUSH1 0x20 DUP2 ADD SWAP1 POP PUSH2 0x1F6 JUMP JUMPDEST POP POP POP POP SWAP1 POP SWAP1 DUP2 ADD SWAP1 PUSH1 0x1F AND DUP1 ISZERO PUSH2 0x23E JUMPI DUP1 DUP3 SUB DUP1 MLOAD PUSH1 0x1 DUP4 PUSH1 0x20 SUB PUSH2 0x100 EXP SUB NOT AND DUP2 MSTORE PUSH1 0x20 ADD SWAP2 POP JUMPDEST POP SWAP3 POP POP POP PUSH1 0x40 MLOAD DUP1 SWAP2 SUB SWAP1 RETURN JUMPDEST PUSH2 0x298 PUSH1 0x4 DUP1 CALLDATASIZE SUB PUSH1 0x40 DUP2 LT ISZERO PUSH2 0x262 JUMPI PUSH1 0x0 DUP1 REVERT JUMPDEST DUP2 ADD SWAP1 DUP1 DUP1 CALLDATALOAD PUSH20 0xFFFFFFFFFFFFFFFFFFFFFFFFFFFFFFFFFFFFFFFF AND SWAP1 PUSH1 0x20 ADD SWAP1 SWAP3 SWAP2 SWAP1 DUP1 CALLDATALOAD SWAP1 PUSH1 0x20 ADD SWAP1 SWAP3 SWAP2 SWAP1 POP POP POP PUSH2 0x89F JUMP JUMPDEST PUSH1 0x40 MLOAD DUP1 DUP3 ISZERO ISZERO ISZERO ISZERO DUP2 MSTORE PUSH1 0x20 ADD SWAP2 POP POP PUSH1 0x40 MLOAD DUP1 SWAP2 SUB SWAP1 RETURN JUMPDEST PUSH2 0x2BA PUSH2 0x991 JUMP JUMPDEST PUSH1 0x40 MLOAD DUP1 DUP3 DUP2 MSTORE PUSH1 0x20 ADD SWAP2 POP POP PUSH1 0x40 MLOAD DUP1 SWAP2 SUB SWAP1 RETURN JUMPDEST PUSH2 0x2D8 PUSH2 0x9A0 JUMP JUMPDEST PUSH1 0x40 MLOAD DUP1 DUP3 DUP2 MSTORE PUSH1 0x20 ADD SWAP2 POP POP PUSH1 0x40 MLOAD DUP1 SWAP2 SUB SWAP1 RETURN JUMPDEST PUSH2 0x2F6 PUSH2 0x9AA JUMP JUMPDEST PUSH1 0x40 MLOAD DUP1 DUP3 DUP2 MSTORE PUSH1 0x20 ADD SWAP2 POP POP PUSH1 0x40 MLOAD DUP1 SWAP2 SUB SWAP1 RETURN JUMPDEST PUSH2 0x314 PUSH2 0x9C4 JUMP JUMPDEST PUSH1 0x40 MLOAD DUP1 DUP3 DUP2 MSTORE PUSH1 0x20 ADD SWAP2 POP POP PUSH1 0x40 MLOAD DUP1 SWAP2 SUB SWAP1 RETURN JUMPDEST PUSH2 0x396 PUSH1 0x4 DUP1 CALLDATASIZE SUB PUSH1 0x60 DUP2 LT ISZERO PUSH2 0x340 JUMPI PUSH1 0x0 DUP1 REVERT JUMPDEST DUP2 ADD SWAP1 DUP1 DUP1 CALLDATALOAD PUSH20 0xFFFFFFFFFFFFFFFFFFFFFFFFFFFFFFFFFFFFFFFF AND SWAP1 PUSH1 0x20 ADD SWAP1 SWAP3 SWAP2 SWAP1 DUP1 CALLDATALOAD PUSH20 0xFFFFFFFFFFFFFFFFFFFFFFFFFFFFFFFFFFFFFFFF AND SWAP1 PUSH1 0x20 ADD SWAP1 SWAP3 SWAP2 SWAP1 DUP1 CALLDATALOAD SWAP1 PUSH1 0x20 ADD SWAP1 SWAP3 SWAP2 SWAP1 POP POP POP PUSH2 0x9D0 JUMP JUMPDEST PUSH1 0x40 MLOAD DUP1 DUP3 ISZERO ISZERO ISZERO ISZERO DUP2 MSTORE PUSH1 0x20 ADD SWAP2 POP POP PUSH1 0x40 MLOAD DUP1 SWAP2 SUB SWAP1 RETURN JUMPDEST PUSH2 0x3B8 PUSH2 0xDD5 JUMP JUMPDEST PUSH1 0x40 MLOAD DUP1 DUP3 PUSH1 0xFF AND PUSH1 0xFF AND DUP2 MSTORE PUSH1 0x20 ADD SWAP2 POP POP PUSH1 0x40 MLOAD DUP1 SWAP2 SUB SWAP1 RETURN JUMPDEST PUSH2 0x420 PUSH1 0x4 DUP1 CALLDATASIZE SUB PUSH1 0x40 DUP2 LT ISZERO PUSH2 0x3EA JUMPI PUSH1 0x0 DUP1 REVERT JUMPDEST DUP2 ADD SWAP1 DUP1 DUP1 CALLDATALOAD PUSH20 0xFFFFFFFFFFFFFFFFFFFFFFFFFFFFFFFFFFFFFFFF AND SWAP1 PUSH1 0x20 ADD SWAP1 SWAP3 SWAP2 SWAP1 DUP1 CALLDATALOAD SWAP1 PUSH1 0x20 ADD SWAP1 SWAP3 SWAP2 SWAP1 POP POP POP PUSH2 0xDEC JUMP JUMPDEST PUSH1 0x40 MLOAD DUP1 DUP3 ISZERO ISZERO ISZERO ISZERO DUP2 MSTORE PUSH1 0x20 ADD SWAP2 POP POP PUSH1 0x40 MLOAD DUP1 SWAP2 SUB SWAP1 RETURN JUMPDEST PUSH2 0x47C PUSH1 0x4 DUP1 CALLDATASIZE SUB PUSH1 0x20 DUP2 LT ISZERO PUSH2 0x450 JUMPI PUSH1 0x0 DUP1 REVERT JUMPDEST DUP2 ADD SWAP1 DUP1 DUP1 CALLDATALOAD PUSH20 0xFFFFFFFFFFFFFFFFFFFFFFFFFFFFFFFFFFFFFFFF AND SWAP1 PUSH1 0x20 ADD SWAP1 SWAP3 SWAP2 SWAP1 POP POP POP PUSH2 0x1074 JUMP JUMPDEST PUSH1 0x40 MLOAD DUP1 DUP3 DUP2 MSTORE PUSH1 0x20 ADD SWAP2 POP POP PUSH1 0x40 MLOAD DUP1 SWAP2 SUB SWAP1 RETURN JUMPDEST PUSH2 0x49A PUSH2 0x10BC JUMP JUMPDEST PUSH1 0x40 MLOAD DUP1 DUP3 DUP2 MSTORE PUSH1 0x20 ADD SWAP2 POP POP PUSH1 0x40 MLOAD DUP1 SWAP2 SUB SWAP1 RETURN JUMPDEST PUSH2 0x4B8 PUSH2 0x10D4 JUMP JUMPDEST PUSH1 0x40 MLOAD DUP1 DUP3 DUP2 MSTORE PUSH1 0x20 ADD SWAP2 POP POP PUSH1 0x40 MLOAD DUP1 SWAP2 SUB SWAP1 RETURN JUMPDEST PUSH2 0x4D6 PUSH2 0x10EE JUMP JUMPDEST PUSH1 0x40 MLOAD DUP1 DUP3 DUP2 MSTORE PUSH1 0x20 ADD SWAP2 POP POP PUSH1 0x40 MLOAD DUP1 SWAP2 SUB SWAP1 RETURN JUMPDEST PUSH2 0x4F4 PUSH2 0x10FD JUMP JUMPDEST PUSH1 0x40 MLOAD DUP1 DUP1 PUSH1 0x20 ADD DUP3 DUP2 SUB DUP3 MSTORE DUP4 DUP2 DUP2 MLOAD DUP2 MSTORE PUSH1 0x20 ADD SWAP2 POP DUP1 MLOAD SWAP1 PUSH1 0x20 ADD SWAP1 DUP1 DUP4 DUP4 PUSH1 0x0 JUMPDEST DUP4 DUP2 LT ISZERO PUSH2 0x534 JUMPI DUP1 DUP3 ADD MLOAD DUP2 DUP5 ADD MSTORE PUSH1 0x20 DUP2 ADD SWAP1 POP PUSH2 0x519 JUMP JUMPDEST POP POP POP POP SWAP1 POP SWAP1 DUP2 ADD SWAP1 PUSH1 0x1F AND DUP1 ISZERO PUSH2 0x561 JUMPI DUP1 DUP3 SUB DUP1 MLOAD PUSH1 0x1 DUP4 PUSH1 0x20 SUB PUSH2 0x100 EXP SUB NOT AND DUP2 MSTORE PUSH1 0x20 ADD SWAP2 POP JUMPDEST POP SWAP3 POP POP POP PUSH1 0x40 MLOAD DUP1 SWAP2 SUB SWAP1 RETURN JUMPDEST PUSH2 0x577 PUSH2 0x119F JUMP JUMPDEST PUSH1 0x40 MLOAD DUP1 DUP3 DUP2 MSTORE PUSH1 0x20 ADD SWAP2 POP POP PUSH1 0x40 MLOAD DUP1 SWAP2 SUB SWAP1 RETURN JUMPDEST PUSH2 0x595 PUSH2 0x11B8 JUMP JUMPDEST PUSH1 0x40 MLOAD DUP1 DUP3 DUP2 MSTORE PUSH1 0x20 ADD SWAP2 POP POP PUSH1 0x40 MLOAD DUP1 SWAP2 SUB SWAP1 RETURN JUMPDEST PUSH2 0x5F7 PUSH1 0x4 DUP1 CALLDATASIZE SUB PUSH1 0x40 DUP2 LT ISZERO PUSH2 0x5C1 JUMPI PUSH1 0x0 DUP1 REVERT JUMPDEST DUP2 ADD SWAP1 DUP1 DUP1 CALLDATALOAD PUSH20 0xFFFFFFFFFFFFFFFFFFFFFFFFFFFFFFFFFFFFFFFF AND SWAP1 PUSH1 0x20 ADD SWAP1 SWAP3 SWAP2 SWAP1 DUP1 CALLDATALOAD SWAP1 PUSH1 0x20 ADD SWAP1 SWAP3 SWAP2 SWAP1 POP POP POP PUSH2 0x11E0 JUMP JUMPDEST PUSH1 0x40 MLOAD DUP1 DUP3 ISZERO ISZERO ISZERO ISZERO DUP2 MSTORE PUSH1 0x20 ADD SWAP2 POP POP PUSH1 0x40 MLOAD DUP1 SWAP2 SUB SWAP1 RETURN JUMPDEST PUSH2 0x619 PUSH2 0x11F7 JUMP JUMPDEST PUSH1 0x40 MLOAD DUP1 DUP3 DUP2 MSTORE PUSH1 0x20 ADD SWAP2 POP POP PUSH1 0x40 MLOAD DUP1 SWAP2 SUB SWAP1 RETURN JUMPDEST PUSH2 0x637 PUSH2 0x11FC JUMP JUMPDEST PUSH1 0x40 MLOAD DUP1 DUP3 DUP2 MSTORE PUSH1 0x20 ADD SWAP2 POP POP PUSH1 0x40 MLOAD DUP1 SWAP2 SUB SWAP1 RETURN JUMPDEST PUSH2 0x655 PUSH2 0x1201 JUMP JUMPDEST PUSH1 0x40 MLOAD DUP1 DUP3 DUP2 MSTORE PUSH1 0x20 ADD SWAP2 POP POP PUSH1 0x40 MLOAD DUP1 SWAP2 SUB SWAP1 RETURN JUMPDEST PUSH2 0x673 PUSH2 0x1206 JUMP JUMPDEST PUSH1 0x40 MLOAD DUP1 DUP3 DUP2 MSTORE PUSH1 0x20 ADD SWAP2 POP POP PUSH1 0x40 MLOAD DUP1 SWAP2 SUB SWAP1 RETURN JUMPDEST PUSH2 0x691 PUSH2 0x121C JUMP JUMPDEST PUSH1 0x40 MLOAD DUP1 DUP3 DUP2 MSTORE PUSH1 0x20 ADD SWAP2 POP POP PUSH1 0x40 MLOAD DUP1 SWAP2 SUB SWAP1 RETURN JUMPDEST PUSH2 0x6AF PUSH2 0x122E JUMP JUMPDEST PUSH1 0x40 MLOAD DUP1 DUP3 DUP2 MSTORE PUSH1 0x20 ADD SWAP2 POP POP PUSH1 0x40 MLOAD DUP1 SWAP2 SUB SWAP1 RETURN JUMPDEST PUSH2 0x6CD PUSH2 0x123A JUMP JUMPDEST PUSH1 0x40 MLOAD DUP1 DUP3 DUP2 MSTORE PUSH1 0x20 ADD SWAP2 POP POP PUSH1 0x40 MLOAD DUP1 SWAP2 SUB SWAP1 RETURN JUMPDEST PUSH2 0x72F PUSH1 0x4 DUP1 CALLDATASIZE SUB PUSH1 0x40 DUP2 LT ISZERO PUSH2 0x6F9 JUMPI PUSH1 0x0 DUP1 REVERT JUMPDEST DUP2 ADD SWAP1 DUP1 DUP1 CALLDATALOAD PUSH20 0xFFFFFFFFFFFFFFFFFFFFFFFFFFFFFFFFFFFFFFFF AND SWAP1 PUSH1 0x20 ADD SWAP1 SWAP3 SWAP2 SWAP1 DUP1 CALLDATALOAD SWAP1 PUSH1 0x20 ADD SWAP1 SWAP3 SWAP2 SWAP1 POP POP POP PUSH2 0x123F JUMP JUMPDEST PUSH1 0x40 MLOAD DUP1 DUP3 ISZERO ISZERO ISZERO ISZERO DUP2 MSTORE PUSH1 0x20 ADD SWAP2 POP POP PUSH1 0x40 MLOAD DUP1 SWAP2 SUB SWAP1 RETURN JUMPDEST PUSH2 0x7AB PUSH1 0x4 DUP1 CALLDATASIZE SUB PUSH1 0x40 DUP2 LT ISZERO PUSH2 0x75F JUMPI PUSH1 0x0 DUP1 REVERT JUMPDEST DUP2 ADD SWAP1 DUP1 DUP1 CALLDATALOAD PUSH20 0xFFFFFFFFFFFFFFFFFFFFFFFFFFFFFFFFFFFFFFFF AND SWAP1 PUSH1 0x20 ADD SWAP1 SWAP3 SWAP2 SWAP1 DUP1 CALLDATALOAD PUSH20 0xFFFFFFFFFFFFFFFFFFFFFFFFFFFFFFFFFFFFFFFF AND SWAP1 PUSH1 0x20 ADD SWAP1 SWAP3 SWAP2 SWAP1 POP POP POP PUSH2 0x1432 JUMP JUMPDEST PUSH1 0x40 MLOAD DUP1 DUP3 DUP2 MSTORE PUSH1 0x20 ADD SWAP2 POP POP PUSH1 0x40 MLOAD DUP1 SWAP2 SUB SWAP1 RETURN JUMPDEST PUSH2 0x7C9 PUSH2 0x14B9 JUMP JUMPDEST PUSH1 0x40 MLOAD DUP1 DUP3 DUP2 MSTORE PUSH1 0x20 ADD SWAP2 POP POP PUSH1 0x40 MLOAD DUP1 SWAP2 SUB SWAP1 RETURN JUMPDEST PUSH2 0x7E7 PUSH2 0x14C8 JUMP JUMPDEST PUSH1 0x40 MLOAD DUP1 DUP3 DUP2 MSTORE PUSH1 0x20 ADD SWAP2 POP POP PUSH1 0x40 MLOAD DUP1 SWAP2 SUB SWAP1 RETURN JUMPDEST PUSH1 0x60 PUSH1 0x3 DUP1 SLOAD PUSH1 0x1 DUP2 PUSH1 0x1 AND ISZERO PUSH2 0x100 MUL SUB AND PUSH1 0x2 SWAP1 DIV DUP1 PUSH1 0x1F ADD PUSH1 0x20 DUP1 SWAP2 DIV MUL PUSH1 0x20 ADD PUSH1 0x40 MLOAD SWAP1 DUP2 ADD PUSH1 0x40 MSTORE DUP1 SWAP3 SWAP2 SWAP1 DUP2 DUP2 MSTORE PUSH1 0x20 ADD DUP3 DUP1 SLOAD PUSH1 0x1 DUP2 PUSH1 0x1 AND ISZERO PUSH2 0x100 MUL SUB AND PUSH1 0x2 SWAP1 DIV DUP1 ISZERO PUSH2 0x895 JUMPI DUP1 PUSH1 0x1F LT PUSH2 0x86A JUMPI PUSH2 0x100 DUP1 DUP4 SLOAD DIV MUL DUP4 MSTORE SWAP2 PUSH1 0x20 ADD SWAP2 PUSH2 0x895 JUMP JUMPDEST DUP3 ADD SWAP2 SWAP1 PUSH1 0x0 MSTORE PUSH1 0x20 PUSH1 0x0 KECCAK256 SWAP1 JUMPDEST DUP2 SLOAD DUP2 MSTORE SWAP1 PUSH1 0x1 ADD SWAP1 PUSH1 0x20 ADD DUP1 DUP4 GT PUSH2 0x878 JUMPI DUP3 SWAP1 SUB PUSH1 0x1F AND DUP3 ADD SWAP2 JUMPDEST POP POP POP POP POP SWAP1 POP SWAP1 JUMP JUMPDEST PUSH1 0x0 DUP2 PUSH1 0x1 PUSH1 0x0 CALLER PUSH20 0xFFFFFFFFFFFFFFFFFFFFFFFFFFFFFFFFFFFFFFFF AND PUSH20 0xFFFFFFFFFFFFFFFFFFFFFFFFFFFFFFFFFFFFFFFF AND DUP2 MSTORE PUSH1 0x20 ADD SWAP1 DUP2 MSTORE PUSH1 0x20 ADD PUSH1 0x0 KECCAK256 PUSH1 0x0 DUP6 PUSH20 0xFFFFFFFFFFFFFFFFFFFFFFFFFFFFFFFFFFFFFFFF AND PUSH20 0xFFFFFFFFFFFFFFFFFFFFFFFFFFFFFFFFFFFFFFFF AND DUP2 MSTORE PUSH1 0x20 ADD SWAP1 DUP2 MSTORE PUSH1 0x20 ADD PUSH1 0x0 KECCAK256 DUP2 SWAP1 SSTORE POP DUP3 PUSH20 0xFFFFFFFFFFFFFFFFFFFFFFFFFFFFFFFFFFFFFFFF AND CALLER PUSH20 0xFFFFFFFFFFFFFFFFFFFFFFFFFFFFFFFFFFFFFFFF AND PUSH32 0x8C5BE1E5EBEC7D5BD14F71427D1E84F3DD0314C0F7B2291E5B200AC8C7C3B925 DUP5 PUSH1 0x40 MLOAD DUP1 DUP3 DUP2 MSTORE PUSH1 0x20 ADD SWAP2 POP POP PUSH1 0x40 MLOAD DUP1 SWAP2 SUB SWAP1 LOG3 PUSH1 0x1 SWAP1 POP SWAP3 SWAP2 POP POP JUMP JUMPDEST PUSH1 0x32 PUSH8 0xDE0B6B3A7640000 MUL DUP2 JUMP JUMPDEST PUSH1 0x0 PUSH1 0x2 SLOAD SWAP1 POP SWAP1 JUMP JUMPDEST PUSH5 0x2540BE400 PUSH8 0xDE0B6B3A7640000 DUP2 PUSH2 0x9C0 JUMPI INVALID JUMPDEST DIV DUP2 JUMP JUMPDEST PUSH8 0xDE0B6B3A7640000 DUP2 JUMP JUMPDEST PUSH1 0x0 DUP4 PUSH20 0xFFFFFFFFFFFFFFFFFFFFFFFFFFFFFFFFFFFFFFFF AND CALLER PUSH20 0xFFFFFFFFFFFFFFFFFFFFFFFFFFFFFFFFFFFFFFFF AND EQ DUP1 PUSH2 0xA88 JUMPI POP PUSH1 0x1 PUSH1 0x0 DUP6 PUSH20 0xFFFFFFFFFFFFFFFFFFFFFFFFFFFFFFFFFFFFFFFF AND PUSH20 0xFFFFFFFFFFFFFFFFFFFFFFFFFFFFFFFFFFFFFFFF AND DUP2 MSTORE PUSH1 0x20 ADD SWAP1 DUP2 MSTORE PUSH1 0x20 ADD PUSH1 0x0 KECCAK256 PUSH1 0x0 CALLER PUSH20 0xFFFFFFFFFFFFFFFFFFFFFFFFFFFFFFFFFFFFFFFF AND PUSH20 0xFFFFFFFFFFFFFFFFFFFFFFFFFFFFFFFFFFFFFFFF AND DUP2 MSTORE PUSH1 0x20 ADD SWAP1 DUP2 MSTORE PUSH1 0x20 ADD PUSH1 0x0 KECCAK256 SLOAD DUP3 GT ISZERO JUMPDEST PUSH2 0xAFA JUMPI PUSH1 0x40 MLOAD PUSH32 0x8C379A000000000000000000000000000000000000000000000000000000000 DUP2 MSTORE PUSH1 0x4 ADD DUP1 DUP1 PUSH1 0x20 ADD DUP3 DUP2 SUB DUP3 MSTORE PUSH1 0x15 DUP2 MSTORE PUSH1 0x20 ADD DUP1 PUSH32 0x4552525F42544F4B454E5F4241445F43414C4C45520000000000000000000000 DUP2 MSTORE POP PUSH1 0x20 ADD SWAP2 POP POP PUSH1 0x40 MLOAD DUP1 SWAP2 SUB SWAP1 REVERT JUMPDEST PUSH2 0xB05 DUP5 DUP5 DUP5 PUSH2 0x14DE JUMP JUMPDEST DUP4 PUSH20 0xFFFFFFFFFFFFFFFFFFFFFFFFFFFFFFFFFFFFFFFF AND CALLER PUSH20 0xFFFFFFFFFFFFFFFFFFFFFFFFFFFFFFFFFFFFFFFF AND EQ ISZERO DUP1 ISZERO PUSH2 0xBDD JUMPI POP PUSH32 0xFFFFFFFFFFFFFFFFFFFFFFFFFFFFFFFFFFFFFFFFFFFFFFFFFFFFFFFFFFFFFFFF PUSH1 0x1 PUSH1 0x0 DUP7 PUSH20 0xFFFFFFFFFFFFFFFFFFFFFFFFFFFFFFFFFFFFFFFF AND PUSH20 0xFFFFFFFFFFFFFFFFFFFFFFFFFFFFFFFFFFFFFFFF AND DUP2 MSTORE PUSH1 0x20 ADD SWAP1 DUP2 MSTORE PUSH1 0x20 ADD PUSH1 0x0 KECCAK256 PUSH1 0x0 CALLER PUSH20 0xFFFFFFFFFFFFFFFFFFFFFFFFFFFFFFFFFFFFFFFF AND PUSH20 0xFFFFFFFFFFFFFFFFFFFFFFFFFFFFFFFFFFFFFFFF AND DUP2 MSTORE PUSH1 0x20 ADD SWAP1 DUP2 MSTORE PUSH1 0x20 ADD PUSH1 0x0 KECCAK256 SLOAD EQ ISZERO JUMPDEST ISZERO PUSH2 0xDCA JUMPI PUSH2 0xC68 PUSH1 0x1 PUSH1 0x0 DUP7 PUSH20 0xFFFFFFFFFFFFFFFFFFFFFFFFFFFFFFFFFFFFFFFF AND PUSH20 0xFFFFFFFFFFFFFFFFFFFFFFFFFFFFFFFFFFFFFFFF AND DUP2 MSTORE PUSH1 0x20 ADD SWAP1 DUP2 MSTORE PUSH1 0x20 ADD PUSH1 0x0 KECCAK256 PUSH1 0x0 CALLER PUSH20 0xFFFFFFFFFFFFFFFFFFFFFFFFFFFFFFFFFFFFFFFF AND PUSH20 0xFFFFFFFFFFFFFFFFFFFFFFFFFFFFFFFFFFFFFFFF AND DUP2 MSTORE PUSH1 0x20 ADD SWAP1 DUP2 MSTORE PUSH1 0x20 ADD PUSH1 0x0 KECCAK256 SLOAD DUP4 PUSH2 0x1710 JUMP JUMPDEST PUSH1 0x1 PUSH1 0x0 DUP7 PUSH20 0xFFFFFFFFFFFFFFFFFFFFFFFFFFFFFFFFFFFFFFFF AND PUSH20 0xFFFFFFFFFFFFFFFFFFFFFFFFFFFFFFFFFFFFFFFF AND DUP2 MSTORE PUSH1 0x20 ADD SWAP1 DUP2 MSTORE PUSH1 0x20 ADD PUSH1 0x0 KECCAK256 PUSH1 0x0 CALLER PUSH20 0xFFFFFFFFFFFFFFFFFFFFFFFFFFFFFFFFFFFFFFFF AND PUSH20 0xFFFFFFFFFFFFFFFFFFFFFFFFFFFFFFFFFFFFFFFF AND DUP2 MSTORE PUSH1 0x20 ADD SWAP1 DUP2 MSTORE PUSH1 0x20 ADD PUSH1 0x0 KECCAK256 DUP2 SWAP1 SSTORE POP DUP3 PUSH20 0xFFFFFFFFFFFFFFFFFFFFFFFFFFFFFFFFFFFFFFFF AND CALLER PUSH20 0xFFFFFFFFFFFFFFFFFFFFFFFFFFFFFFFFFFFFFFFF AND PUSH32 0x8C5BE1E5EBEC7D5BD14F71427D1E84F3DD0314C0F7B2291E5B200AC8C7C3B925 PUSH1 0x1 PUSH1 0x0 DUP9 PUSH20 0xFFFFFFFFFFFFFFFFFFFFFFFFFFFFFFFFFFFFFFFF AND PUSH20 0xFFFFFFFFFFFFFFFFFFFFFFFFFFFFFFFFFFFFFFFF AND DUP2 MSTORE PUSH1 0x20 ADD SWAP1 DUP2 MSTORE PUSH1 0x20 ADD PUSH1 0x0 KECCAK256 PUSH1 0x0 CALLER PUSH20 0xFFFFFFFFFFFFFFFFFFFFFFFFFFFFFFFFFFFFFFFF AND PUSH20 0xFFFFFFFFFFFFFFFFFFFFFFFFFFFFFFFFFFFFFFFF AND DUP2 MSTORE PUSH1 0x20 ADD SWAP1 DUP2 MSTORE PUSH1 0x20 ADD PUSH1 0x0 KECCAK256 SLOAD PUSH1 0x40 MLOAD DUP1 DUP3 DUP2 MSTORE PUSH1 0x20 ADD SWAP2 POP POP PUSH1 0x40 MLOAD DUP1 SWAP2 SUB SWAP1 LOG3 JUMPDEST PUSH1 0x1 SWAP1 POP SWAP4 SWAP3 POP POP POP JUMP JUMPDEST PUSH1 0x0 PUSH1 0x5 PUSH1 0x0 SWAP1 SLOAD SWAP1 PUSH2 0x100 EXP SWAP1 DIV PUSH1 0xFF AND SWAP1 POP SWAP1 JUMP JUMPDEST PUSH1 0x0 DUP1 PUSH1 0x1 PUSH1 0x0 CALLER PUSH20 0xFFFFFFFFFFFFFFFFFFFFFFFFFFFFFFFFFFFFFFFF AND PUSH20 0xFFFFFFFFFFFFFFFFFFFFFFFFFFFFFFFFFFFFFFFF AND DUP2 MSTORE PUSH1 0x20 ADD SWAP1 DUP2 MSTORE PUSH1 0x20 ADD PUSH1 0x0 KECCAK256 PUSH1 0x0 DUP6 PUSH20 0xFFFFFFFFFFFFFFFFFFFFFFFFFFFFFFFFFFFFFFFF AND PUSH20 0xFFFFFFFFFFFFFFFFFFFFFFFFFFFFFFFFFFFFFFFF AND DUP2 MSTORE PUSH1 0x20 ADD SWAP1 DUP2 MSTORE PUSH1 0x20 ADD PUSH1 0x0 KECCAK256 SLOAD SWAP1 POP DUP1 DUP4 GT ISZERO PUSH2 0xEFD JUMPI PUSH1 0x0 PUSH1 0x1 PUSH1 0x0 CALLER PUSH20 0xFFFFFFFFFFFFFFFFFFFFFFFFFFFFFFFFFFFFFFFF AND PUSH20 0xFFFFFFFFFFFFFFFFFFFFFFFFFFFFFFFFFFFFFFFF AND DUP2 MSTORE PUSH1 0x20 ADD SWAP1 DUP2 MSTORE PUSH1 0x20 ADD PUSH1 0x0 KECCAK256 PUSH1 0x0 DUP7 PUSH20 0xFFFFFFFFFFFFFFFFFFFFFFFFFFFFFFFFFFFFFFFF AND PUSH20 0xFFFFFFFFFFFFFFFFFFFFFFFFFFFFFFFFFFFFFFFF AND DUP2 MSTORE PUSH1 0x20 ADD SWAP1 DUP2 MSTORE PUSH1 0x20 ADD PUSH1 0x0 KECCAK256 DUP2 SWAP1 SSTORE POP PUSH2 0xF88 JUMP JUMPDEST PUSH2 0xF07 DUP2 DUP5 PUSH2 0x1710 JUMP JUMPDEST PUSH1 0x1 PUSH1 0x0 CALLER PUSH20 0xFFFFFFFFFFFFFFFFFFFFFFFFFFFFFFFFFFFFFFFF AND PUSH20 0xFFFFFFFFFFFFFFFFFFFFFFFFFFFFFFFFFFFFFFFF AND DUP2 MSTORE PUSH1 0x20 ADD SWAP1 DUP2 MSTORE PUSH1 0x20 ADD PUSH1 0x0 KECCAK256 PUSH1 0x0 DUP7 PUSH20 0xFFFFFFFFFFFFFFFFFFFFFFFFFFFFFFFFFFFFFFFF AND PUSH20 0xFFFFFFFFFFFFFFFFFFFFFFFFFFFFFFFFFFFFFFFF AND DUP2 MSTORE PUSH1 0x20 ADD SWAP1 DUP2 MSTORE PUSH1 0x20 ADD PUSH1 0x0 KECCAK256 DUP2 SWAP1 SSTORE POP JUMPDEST DUP4 PUSH20 0xFFFFFFFFFFFFFFFFFFFFFFFFFFFFFFFFFFFFFFFF AND CALLER PUSH20 0xFFFFFFFFFFFFFFFFFFFFFFFFFFFFFFFFFFFFFFFF AND PUSH32 0x8C5BE1E5EBEC7D5BD14F71427D1E84F3DD0314C0F7B2291E5B200AC8C7C3B925 PUSH1 0x1 PUSH1 0x0 CALLER PUSH20 0xFFFFFFFFFFFFFFFFFFFFFFFFFFFFFFFFFFFFFFFF AND PUSH20 0xFFFFFFFFFFFFFFFFFFFFFFFFFFFFFFFFFFFFFFFF AND DUP2 MSTORE PUSH1 0x20 ADD SWAP1 DUP2 MSTORE PUSH1 0x20 ADD PUSH1 0x0 KECCAK256 PUSH1 0x0 DUP9 PUSH20 0xFFFFFFFFFFFFFFFFFFFFFFFFFFFFFFFFFFFFFFFF AND PUSH20 0xFFFFFFFFFFFFFFFFFFFFFFFFFFFFFFFFFFFFFFFF AND DUP2 MSTORE PUSH1 0x20 ADD SWAP1 DUP2 MSTORE PUSH1 0x20 ADD PUSH1 0x0 KECCAK256 SLOAD PUSH1 0x40 MLOAD DUP1 DUP3 DUP2 MSTORE PUSH1 0x20 ADD SWAP2 POP POP PUSH1 0x40 MLOAD DUP1 SWAP2 SUB SWAP1 LOG3 PUSH1 0x1 SWAP2 POP POP SWAP3 SWAP2 POP POP JUMP JUMPDEST PUSH1 0x0 DUP1 PUSH1 0x0 DUP4 PUSH20 0xFFFFFFFFFFFFFFFFFFFFFFFFFFFFFFFFFFFFFFFF AND PUSH20 0xFFFFFFFFFFFFFFFFFFFFFFFFFFFFFFFFFFFFFFFF AND DUP2 MSTORE PUSH1 0x20 ADD SWAP1 DUP2 MSTORE PUSH1 0x20 ADD PUSH1 0x0 KECCAK256 SLOAD SWAP1 POP SWAP2 SWAP1 POP JUMP JUMPDEST PUSH3 0xF4240 PUSH8 0xDE0B6B3A7640000 DUP2 PUSH2 0x10D0 JUMPI INVALID JUMPDEST DIV DUP2 JUMP JUMPDEST PUSH5 0xE8D4A51000 PUSH8 0xDE0B6B3A7640000 DUP2 PUSH2 0x10EA JUMPI INVALID JUMPDEST DIV DUP2 JUMP JUMPDEST PUSH1 0x64 PUSH8 0xDE0B6B3A7640000 MUL DUP2 JUMP JUMPDEST PUSH1 0x60 PUSH1 0x4 DUP1 SLOAD PUSH1 0x1 DUP2 PUSH1 0x1 AND ISZERO PUSH2 0x100 MUL SUB AND PUSH1 0x2 SWAP1 DIV DUP1 PUSH1 0x1F ADD PUSH1 0x20 DUP1 SWAP2 DIV MUL PUSH1 0x20 ADD PUSH1 0x40 MLOAD SWAP1 DUP2 ADD PUSH1 0x40 MSTORE DUP1 SWAP3 SWAP2 SWAP1 DUP2 DUP2 MSTORE PUSH1 0x20 ADD DUP3 DUP1 SLOAD PUSH1 0x1 DUP2 PUSH1 0x1 AND ISZERO PUSH2 0x100 MUL SUB AND PUSH1 0x2 SWAP1 DIV DUP1 ISZERO PUSH2 0x1195 JUMPI DUP1 PUSH1 0x1F LT PUSH2 0x116A JUMPI PUSH2 0x100 DUP1 DUP4 SLOAD DIV MUL DUP4 MSTORE SWAP2 PUSH1 0x20 ADD SWAP2 PUSH2 0x1195 JUMP JUMPDEST DUP3 ADD SWAP2 SWAP1 PUSH1 0x0 MSTORE PUSH1 0x20 PUSH1 0x0 KECCAK256 SWAP1 JUMPDEST DUP2 SLOAD DUP2 MSTORE SWAP1 PUSH1 0x1 ADD SWAP1 PUSH1 0x20 ADD DUP1 DUP4 GT PUSH2 0x1178 JUMPI DUP3 SWAP1 SUB PUSH1 0x1F AND DUP3 ADD SWAP2 JUMPDEST POP POP POP POP POP SWAP1 POP SWAP1 JUMP JUMPDEST PUSH1 0x1 PUSH1 0x3 PUSH8 0xDE0B6B3A7640000 DUP2 PUSH2 0x11B3 JUMPI INVALID JUMPDEST DIV ADD DUP2 JUMP JUMPDEST PUSH1 0x0 PUSH32 0x42524F4E5A450000000000000000000000000000000000000000000000000000 SWAP1 POP SWAP1 JUMP JUMPDEST PUSH1 0x0 PUSH2 0x11ED CALLER DUP5 DUP5 PUSH2 0x14DE JUMP JUMPDEST PUSH1 0x1 SWAP1 POP SWAP3 SWAP2 POP POP JUMP JUMPDEST PUSH1 0x8 DUP2 JUMP JUMPDEST PUSH1 0x2 DUP2 JUMP JUMPDEST PUSH1 0x1 DUP2 JUMP JUMPDEST PUSH1 0xA PUSH8 0xDE0B6B3A7640000 DUP2 PUSH2 0x1218 JUMPI INVALID JUMPDEST DIV DUP2 JUMP JUMPDEST PUSH1 0x1 PUSH8 0xDE0B6B3A7640000 PUSH1 0x2 MUL SUB DUP2 JUMP JUMPDEST PUSH8 0xDE0B6B3A7640000 DUP2 JUMP JUMPDEST PUSH1 0x0 DUP2 JUMP JUMPDEST PUSH1 0x0 PUSH2 0x12C7 PUSH1 0x1 PUSH1 0x0 CALLER PUSH20 0xFFFFFFFFFFFFFFFFFFFFFFFFFFFFFFFFFFFFFFFF AND PUSH20 0xFFFFFFFFFFFFFFFFFFFFFFFFFFFFFFFFFFFFFFFF AND DUP2 MSTORE PUSH1 0x20 ADD SWAP1 DUP2 MSTORE PUSH1 0x20 ADD PUSH1 0x0 KECCAK256 PUSH1 0x0 DUP6 PUSH20 0xFFFFFFFFFFFFFFFFFFFFFFFFFFFFFFFFFFFFFFFF AND PUSH20 0xFFFFFFFFFFFFFFFFFFFFFFFFFFFFFFFFFFFFFFFF AND DUP2 MSTORE PUSH1 0x20 ADD SWAP1 DUP2 MSTORE PUSH1 0x20 ADD PUSH1 0x0 KECCAK256 SLOAD DUP4 PUSH2 0x17A2 JUMP JUMPDEST PUSH1 0x1 PUSH1 0x0 CALLER PUSH20 0xFFFFFFFFFFFFFFFFFFFFFFFFFFFFFFFFFFFFFFFF AND PUSH20 0xFFFFFFFFFFFFFFFFFFFFFFFFFFFFFFFFFFFFFFFF AND DUP2 MSTORE PUSH1 0x20 ADD SWAP1 DUP2 MSTORE PUSH1 0x20 ADD PUSH1 0x0 KECCAK256 PUSH1 0x0 DUP6 PUSH20 0xFFFFFFFFFFFFFFFFFFFFFFFFFFFFFFFFFFFFFFFF AND PUSH20 0xFFFFFFFFFFFFFFFFFFFFFFFFFFFFFFFFFFFFFFFF AND DUP2 MSTORE PUSH1 0x20 ADD SWAP1 DUP2 MSTORE PUSH1 0x20 ADD PUSH1 0x0 KECCAK256 DUP2 SWAP1 SSTORE POP DUP3 PUSH20 0xFFFFFFFFFFFFFFFFFFFFFFFFFFFFFFFFFFFFFFFF AND CALLER PUSH20 0xFFFFFFFFFFFFFFFFFFFFFFFFFFFFFFFFFFFFFFFF AND PUSH32 0x8C5BE1E5EBEC7D5BD14F71427D1E84F3DD0314C0F7B2291E5B200AC8C7C3B925 PUSH1 0x1 PUSH1 0x0 CALLER PUSH20 0xFFFFFFFFFFFFFFFFFFFFFFFFFFFFFFFFFFFFFFFF AND PUSH20 0xFFFFFFFFFFFFFFFFFFFFFFFFFFFFFFFFFFFFFFFF AND DUP2 MSTORE PUSH1 0x20 ADD SWAP1 DUP2 MSTORE PUSH1 0x20 ADD PUSH1 0x0 KECCAK256 PUSH1 0x0 DUP8 PUSH20 0xFFFFFFFFFFFFFFFFFFFFFFFFFFFFFFFFFFFFFFFF AND PUSH20 0xFFFFFFFFFFFFFFFFFFFFFFFFFFFFFFFFFFFFFFFF AND DUP2 MSTORE PUSH1 0x20 ADD SWAP1 DUP2 MSTORE PUSH1 0x20 ADD PUSH1 0x0 KECCAK256 SLOAD PUSH1 0x40 MLOAD DUP1 DUP3 DUP2 MSTORE PUSH1 0x20 ADD SWAP2 POP POP PUSH1 0x40 MLOAD DUP1 SWAP2 SUB SWAP1 LOG3 PUSH1 0x1 SWAP1 POP SWAP3 SWAP2 POP POP JUMP JUMPDEST PUSH1 0x0 PUSH1 0x1 PUSH1 0x0 DUP5 PUSH20 0xFFFFFFFFFFFFFFFFFFFFFFFFFFFFFFFFFFFFFFFF AND PUSH20 0xFFFFFFFFFFFFFFFFFFFFFFFFFFFFFFFFFFFFFFFF AND DUP2 MSTORE PUSH1 0x20 ADD SWAP1 DUP2 MSTORE PUSH1 0x20 ADD PUSH1 0x0 KECCAK256 PUSH1 0x0 DUP4 PUSH20 0xFFFFFFFFFFFFFFFFFFFFFFFFFFFFFFFFFFFFFFFF AND PUSH20 0xFFFFFFFFFFFFFFFFFFFFFFFFFFFFFFFFFFFFFFFF AND DUP2 MSTORE PUSH1 0x20 ADD SWAP1 DUP2 MSTORE PUSH1 0x20 ADD PUSH1 0x0 KECCAK256 SLOAD SWAP1 POP SWAP3 SWAP2 POP POP JUMP JUMPDEST PUSH1 0x32 PUSH8 0xDE0B6B3A7640000 MUL DUP2 JUMP JUMPDEST PUSH1 0x2 PUSH8 0xDE0B6B3A7640000 DUP2 PUSH2 0x14DA JUMPI INVALID JUMPDEST DIV DUP2 JUMP JUMPDEST DUP1 PUSH1 0x0 DUP1 DUP6 PUSH20 0xFFFFFFFFFFFFFFFFFFFFFFFFFFFFFFFFFFFFFFFF AND PUSH20 0xFFFFFFFFFFFFFFFFFFFFFFFFFFFFFFFFFFFFFFFF AND DUP2 MSTORE PUSH1 0x20 ADD SWAP1 DUP2 MSTORE PUSH1 0x20 ADD PUSH1 0x0 KECCAK256 SLOAD LT ISZERO PUSH2 0x1592 JUMPI PUSH1 0x40 MLOAD PUSH32 0x8C379A000000000000000000000000000000000000000000000000000000000 DUP2 MSTORE PUSH1 0x4 ADD DUP1 DUP1 PUSH1 0x20 ADD DUP3 DUP2 SUB DUP3 MSTORE PUSH1 0x14 DUP2 MSTORE PUSH1 0x20 ADD DUP1 PUSH32 0x4552525F494E53554646494349454E545F42414C000000000000000000000000 DUP2 MSTORE POP PUSH1 0x20 ADD SWAP2 POP POP PUSH1 0x40 MLOAD DUP1 SWAP2 SUB SWAP1 REVERT JUMPDEST PUSH2 0x15DA PUSH1 0x0 DUP1 DUP6 PUSH20 0xFFFFFFFFFFFFFFFFFFFFFFFFFFFFFFFFFFFFFFFF AND PUSH20 0xFFFFFFFFFFFFFFFFFFFFFFFFFFFFFFFFFFFFFFFF AND DUP2 MSTORE PUSH1 0x20 ADD SWAP1 DUP2 MSTORE PUSH1 0x20 ADD PUSH1 0x0 KECCAK256 SLOAD DUP3 PUSH2 0x1710 JUMP JUMPDEST PUSH1 0x0 DUP1 DUP6 PUSH20 0xFFFFFFFFFFFFFFFFFFFFFFFFFFFFFFFFFFFFFFFF AND PUSH20 0xFFFFFFFFFFFFFFFFFFFFFFFFFFFFFFFFFFFFFFFF AND DUP2 MSTORE PUSH1 0x20 ADD SWAP1 DUP2 MSTORE PUSH1 0x20 ADD PUSH1 0x0 KECCAK256 DUP2 SWAP1 SSTORE POP PUSH2 0x1664 PUSH1 0x0 DUP1 DUP5 PUSH20 0xFFFFFFFFFFFFFFFFFFFFFFFFFFFFFFFFFFFFFFFF AND PUSH20 0xFFFFFFFFFFFFFFFFFFFFFFFFFFFFFFFFFFFFFFFF AND DUP2 MSTORE PUSH1 0x20 ADD SWAP1 DUP2 MSTORE PUSH1 0x20 ADD PUSH1 0x0 KECCAK256 SLOAD DUP3 PUSH2 0x17A2 JUMP JUMPDEST PUSH1 0x0 DUP1 DUP5 PUSH20 0xFFFFFFFFFFFFFFFFFFFFFFFFFFFFFFFFFFFFFFFF AND PUSH20 0xFFFFFFFFFFFFFFFFFFFFFFFFFFFFFFFFFFFFFFFF AND DUP2 MSTORE PUSH1 0x20 ADD SWAP1 DUP2 MSTORE PUSH1 0x20 ADD PUSH1 0x0 KECCAK256 DUP2 SWAP1 SSTORE POP DUP2 PUSH20 0xFFFFFFFFFFFFFFFFFFFFFFFFFFFFFFFFFFFFFFFF AND DUP4 PUSH20 0xFFFFFFFFFFFFFFFFFFFFFFFFFFFFFFFFFFFFFFFF AND PUSH32 0xDDF252AD1BE2C89B69C2B068FC378DAA952BA7F163C4A11628F55A4DF523B3EF DUP4 PUSH1 0x40 MLOAD DUP1 DUP3 DUP2 MSTORE PUSH1 0x20 ADD SWAP2 POP POP PUSH1 0x40 MLOAD DUP1 SWAP2 SUB SWAP1 LOG3 POP POP POP JUMP JUMPDEST PUSH1 0x0 DUP1 PUSH1 0x0 PUSH2 0x171F DUP6 DUP6 PUSH2 0x182A JUMP JUMPDEST SWAP2 POP SWAP2 POP DUP1 ISZERO PUSH2 0x1797 JUMPI PUSH1 0x40 MLOAD PUSH32 0x8C379A000000000000000000000000000000000000000000000000000000000 DUP2 MSTORE PUSH1 0x4 ADD DUP1 DUP1 PUSH1 0x20 ADD DUP3 DUP2 SUB DUP3 MSTORE PUSH1 0x11 DUP2 MSTORE PUSH1 0x20 ADD DUP1 PUSH32 0x4552525F5355425F554E444552464C4F57000000000000000000000000000000 DUP2 MSTORE POP PUSH1 0x20 ADD SWAP2 POP POP PUSH1 0x40 MLOAD DUP1 SWAP2 SUB SWAP1 REVERT JUMPDEST DUP2 SWAP3 POP POP POP SWAP3 SWAP2 POP POP JUMP JUMPDEST PUSH1 0x0 DUP1 DUP3 DUP5 ADD SWAP1 POP DUP4 DUP2 LT ISZERO PUSH2 0x1820 JUMPI PUSH1 0x40 MLOAD PUSH32 0x8C379A000000000000000000000000000000000000000000000000000000000 DUP2 MSTORE PUSH1 0x4 ADD DUP1 DUP1 PUSH1 0x20 ADD DUP3 DUP2 SUB DUP3 MSTORE PUSH1 0x10 DUP2 MSTORE PUSH1 0x20 ADD DUP1 PUSH32 0x4552525F4144445F4F564552464C4F5700000000000000000000000000000000 DUP2 MSTORE POP PUSH1 0x20 ADD SWAP2 POP POP PUSH1 0x40 MLOAD DUP1 SWAP2 SUB SWAP1 REVERT JUMPDEST DUP1 SWAP2 POP POP SWAP3 SWAP2 POP POP JUMP JUMPDEST PUSH1 0x0 DUP1 DUP3 DUP5 LT PUSH2 0x1842 JUMPI DUP3 DUP5 SUB PUSH1 0x0 SWAP2 POP SWAP2 POP PUSH2 0x184C JUMP JUMPDEST DUP4 DUP4 SUB PUSH1 0x1 SWAP2 POP SWAP2 POP JUMPDEST SWAP3 POP SWAP3 SWAP1 POP JUMP INVALID LOG2 PUSH6 0x627A7A723158 KECCAK256 DUP7 0xe2 0x24 DIV SWAP1 PUSH19 0x3ECC576EF3A540375CFB7EE5C32392A3ECBB17 CREATE2 DUP15 0xca RETURNDATASIZE 0x23 0xb5 DUP15 PUSH5 0x736F6C6343 STOP SDIV 0xc STOP ORIGIN "
				},
				"gasEstimates": {
					"creation": {
						"codeDepositCost": "1256000",
						"executionCost": "infinite",
						"totalCost": "infinite"
					},
					"external": {
						"BONE()": "272",
						"BPOW_PRECISION()": "298",
						"EXIT_FEE()": "294",
						"INIT_POOL_SUPPLY()": "302",
						"MAX_BOUND_TOKENS()": "250",
						"MAX_BPOW_BASE()": "264",
						"MAX_FEE()": "341",
						"MAX_IN_RATIO()": "340",
						"MAX_OUT_RATIO()": "282",
						"MAX_TOTAL_WEIGHT()": "304",
						"MAX_WEIGHT()": "301",
						"MIN_BALANCE()": "297",
						"MIN_BOUND_TOKENS()": "272",
						"MIN_BPOW_BASE()": "294",
						"MIN_FEE()": "275",
						"MIN_WEIGHT()": "295",
						"allowance(address,address)": "787",
						"approve(address,uint256)": "22437",
						"balanceOf(address)": "686",
						"decimals()": "507",
						"decreaseApproval(address,uint256)": "23427",
						"getColor()": "281",
						"increaseApproval(address,uint256)": "23263",
						"name()": "infinite",
						"symbol()": "infinite",
						"totalSupply()": "459",
						"transfer(address,uint256)": "43694",
						"transferFrom(address,address,uint256)": "infinite"
					}
				},
				"methodIdentifiers": {
					"BONE()": "c36596a6",
					"BPOW_PRECISION()": "189d00ca",
					"EXIT_FEE()": "c6580d12",
					"INIT_POOL_SUPPLY()": "9381cd2b",
					"MAX_BOUND_TOKENS()": "b0e0d136",
					"MAX_BPOW_BASE()": "bc694ea2",
					"MAX_FEE()": "bc063e1a",
					"MAX_IN_RATIO()": "ec093021",
					"MAX_OUT_RATIO()": "992e2a92",
					"MAX_TOTAL_WEIGHT()": "09a3bbe4",
					"MAX_WEIGHT()": "e4a28a52",
					"MIN_BALANCE()": "867378c5",
					"MIN_BOUND_TOKENS()": "b7b800a4",
					"MIN_BPOW_BASE()": "ba019dab",
					"MIN_FEE()": "76c7a3c7",
					"MIN_WEIGHT()": "218b5382",
					"allowance(address,address)": "dd62ed3e",
					"approve(address,uint256)": "095ea7b3",
					"balanceOf(address)": "70a08231",
					"decimals()": "313ce567",
					"decreaseApproval(address,uint256)": "66188463",
					"getColor()": "9a86139b",
					"increaseApproval(address,uint256)": "d73dd623",
					"name()": "06fdde03",
					"symbol()": "95d89b41",
					"totalSupply()": "18160ddd",
					"transfer(address,uint256)": "a9059cbb",
					"transferFrom(address,address,uint256)": "23b872dd"
				}
			},
			"userdoc": {
				"methods": {}
			}
		}
	}
}