{
	"Contracts/BNum.sol": {
		"BNum": {
			"abi": [
				{
					"constant": true,
					"inputs": [],
					"name": "BONE",
					"outputs": [
						{
							"internalType": "uint256",
							"name": "",
							"type": "uint256"
						}
					],
					"payable": false,
					"stateMutability": "view",
					"type": "function"
				},
				{
					"constant": true,
					"inputs": [],
					"name": "BPOW_PRECISION",
					"outputs": [
						{
							"internalType": "uint256",
							"name": "",
							"type": "uint256"
						}
					],
					"payable": false,
					"stateMutability": "view",
					"type": "function"
				},
				{
					"constant": true,
					"inputs": [],
					"name": "EXIT_FEE",
					"outputs": [
						{
							"internalType": "uint256",
							"name": "",
							"type": "uint256"
						}
					],
					"payable": false,
					"stateMutability": "view",
					"type": "function"
				},
				{
					"constant": true,
					"inputs": [],
					"name": "INIT_POOL_SUPPLY",
					"outputs": [
						{
							"internalType": "uint256",
							"name": "",
							"type": "uint256"
						}
					],
					"payable": false,
					"stateMutability": "view",
					"type": "function"
				},
				{
					"constant": true,
					"inputs": [],
					"name": "MAX_BOUND_TOKENS",
					"outputs": [
						{
							"internalType": "uint256",
							"name": "",
							"type": "uint256"
						}
					],
					"payable": false,
					"stateMutability": "view",
					"type": "function"
				},
				{
					"constant": true,
					"inputs": [],
					"name": "MAX_BPOW_BASE",
					"outputs": [
						{
							"internalType": "uint256",
							"name": "",
							"type": "uint256"
						}
					],
					"payable": false,
					"stateMutability": "view",
					"type": "function"
				},
				{
					"constant": true,
					"inputs": [],
					"name": "MAX_FEE",
					"outputs": [
						{
							"internalType": "uint256",
							"name": "",
							"type": "uint256"
						}
					],
					"payable": false,
					"stateMutability": "view",
					"type": "function"
				},
				{
					"constant": true,
					"inputs": [],
					"name": "MAX_IN_RATIO",
					"outputs": [
						{
							"internalType": "uint256",
							"name": "",
							"type": "uint256"
						}
					],
					"payable": false,
					"stateMutability": "view",
					"type": "function"
				},
				{
					"constant": true,
					"inputs": [],
					"name": "MAX_OUT_RATIO",
					"outputs": [
						{
							"internalType": "uint256",
							"name": "",
							"type": "uint256"
						}
					],
					"payable": false,
					"stateMutability": "view",
					"type": "function"
				},
				{
					"constant": true,
					"inputs": [],
					"name": "MAX_TOTAL_WEIGHT",
					"outputs": [
						{
							"internalType": "uint256",
							"name": "",
							"type": "uint256"
						}
					],
					"payable": false,
					"stateMutability": "view",
					"type": "function"
				},
				{
					"constant": true,
					"inputs": [],
					"name": "MAX_WEIGHT",
					"outputs": [
						{
							"internalType": "uint256",
							"name": "",
							"type": "uint256"
						}
					],
					"payable": false,
					"stateMutability": "view",
					"type": "function"
				},
				{
					"constant": true,
					"inputs": [],
					"name": "MIN_BALANCE",
					"outputs": [
						{
							"internalType": "uint256",
							"name": "",
							"type": "uint256"
						}
					],
					"payable": false,
					"stateMutability": "view",
					"type": "function"
				},
				{
					"constant": true,
					"inputs": [],
					"name": "MIN_BOUND_TOKENS",
					"outputs": [
						{
							"internalType": "uint256",
							"name": "",
							"type": "uint256"
						}
					],
					"payable": false,
					"stateMutability": "view",
					"type": "function"
				},
				{
					"constant": true,
					"inputs": [],
					"name": "MIN_BPOW_BASE",
					"outputs": [
						{
							"internalType": "uint256",
							"name": "",
							"type": "uint256"
						}
					],
					"payable": false,
					"stateMutability": "view",
					"type": "function"
				},
				{
					"constant": true,
					"inputs": [],
					"name": "MIN_FEE",
					"outputs": [
						{
							"internalType": "uint256",
							"name": "",
							"type": "uint256"
						}
					],
					"payable": false,
					"stateMutability": "view",
					"type": "function"
				},
				{
					"constant": true,
					"inputs": [],
					"name": "MIN_WEIGHT",
					"outputs": [
						{
							"internalType": "uint256",
							"name": "",
							"type": "uint256"
						}
					],
					"payable": false,
					"stateMutability": "view",
					"type": "function"
				},
				{
					"constant": true,
					"inputs": [],
					"name": "getColor",
					"outputs": [
						{
							"internalType": "bytes32",
							"name": "",
							"type": "bytes32"
						}
					],
					"payable": false,
					"stateMutability": "view",
					"type": "function"
				}
			],
			"devdoc": {
				"methods": {}
			},
			"evm": {
				"assembly": "    /* \"Contracts/BNum.sol\":709:4469  contract BNum is BConst {\r... */\n  mstore(0x40, 0x80)\n  callvalue\n    /* \"--CODEGEN--\":8:17   */\n  dup1\n    /* \"--CODEGEN--\":5:7   */\n  iszero\n  tag_1\n  jumpi\n    /* \"--CODEGEN--\":30:31   */\n  0x00\n    /* \"--CODEGEN--\":27:28   */\n  dup1\n    /* \"--CODEGEN--\":20:32   */\n  revert\n    /* \"--CODEGEN--\":5:7   */\ntag_1:\n    /* \"Contracts/BNum.sol\":709:4469  contract BNum is BConst {\r... */\n  pop\n  dataSize(sub_0)\n  dup1\n  dataOffset(sub_0)\n  0x00\n  codecopy\n  0x00\n  return\nstop\n\nsub_0: assembly {\n        /* \"Contracts/BNum.sol\":709:4469  contract BNum is BConst {\r... */\n      mstore(0x40, 0x80)\n      callvalue\n        /* \"--CODEGEN--\":8:17   */\n      dup1\n        /* \"--CODEGEN--\":5:7   */\n      iszero\n      tag_1\n      jumpi\n        /* \"--CODEGEN--\":30:31   */\n      0x00\n        /* \"--CODEGEN--\":27:28   */\n      dup1\n        /* \"--CODEGEN--\":20:32   */\n      revert\n        /* \"--CODEGEN--\":5:7   */\n    tag_1:\n        /* \"Contracts/BNum.sol\":709:4469  contract BNum is BConst {\r... */\n      pop\n      jumpi(tag_2, lt(calldatasize, 0x04))\n      shr(0xe0, calldataload(0x00))\n      dup1\n      0xb0e0d136\n      gt\n      tag_20\n      jumpi\n      dup1\n      0xbc694ea2\n      gt\n      tag_21\n      jumpi\n      dup1\n      0xbc694ea2\n      eq\n      tag_15\n      jumpi\n      dup1\n      0xc36596a6\n      eq\n      tag_16\n      jumpi\n      dup1\n      0xc6580d12\n      eq\n      tag_17\n      jumpi\n      dup1\n      0xe4a28a52\n      eq\n      tag_18\n      jumpi\n      dup1\n      0xec093021\n      eq\n      tag_19\n      jumpi\n      jump(tag_2)\n    tag_21:\n      dup1\n      0xb0e0d136\n      eq\n      tag_11\n      jumpi\n      dup1\n      0xb7b800a4\n      eq\n      tag_12\n      jumpi\n      dup1\n      0xba019dab\n      eq\n      tag_13\n      jumpi\n      dup1\n      0xbc063e1a\n      eq\n      tag_14\n      jumpi\n      jump(tag_2)\n    tag_20:\n      dup1\n      0x867378c5\n      gt\n      tag_22\n      jumpi\n      dup1\n      0x867378c5\n      eq\n      tag_7\n      jumpi\n      dup1\n      0x9381cd2b\n      eq\n      tag_8\n      jumpi\n      dup1\n      0x992e2a92\n      eq\n      tag_9\n      jumpi\n      dup1\n      0x9a86139b\n      eq\n      tag_10\n      jumpi\n      jump(tag_2)\n    tag_22:\n      dup1\n      0x09a3bbe4\n      eq\n      tag_3\n      jumpi\n      dup1\n      0x189d00ca\n      eq\n      tag_4\n      jumpi\n      dup1\n      0x218b5382\n      eq\n      tag_5\n      jumpi\n      dup1\n      0x76c7a3c7\n      eq\n      tag_6\n      jumpi\n    tag_2:\n      0x00\n      dup1\n      revert\n        /* \"Contracts/BConst.sol\":524:574  uint public constant MAX_TOTAL_WEIGHT  = BONE * 50 */\n    tag_3:\n      tag_23\n      tag_24\n      jump\t// in\n    tag_23:\n      mload(0x40)\n      dup1\n      dup3\n      dup2\n      mstore\n      0x20\n      add\n      swap2\n      pop\n      pop\n      mload(0x40)\n      dup1\n      swap2\n      sub\n      swap1\n      return\n        /* \"Contracts/BConst.sol\":823:877  uint public constant BPOW_PRECISION    = BONE / 10**10 */\n    tag_4:\n      tag_25\n      tag_26\n      jump\t// in\n    tag_25:\n      mload(0x40)\n      dup1\n      dup3\n      dup2\n      mstore\n      0x20\n      add\n      swap2\n      pop\n      pop\n      mload(0x40)\n      dup1\n      swap2\n      sub\n      swap1\n      return\n        /* \"Contracts/BConst.sol\":415:460  uint public constant MIN_WEIGHT        = BONE */\n    tag_5:\n      tag_27\n      tag_28\n      jump\t// in\n    tag_27:\n      mload(0x40)\n      dup1\n      dup3\n      dup2\n      mstore\n      0x20\n      add\n      swap2\n      pop\n      pop\n      mload(0x40)\n      dup1\n      swap2\n      sub\n      swap1\n      return\n        /* \"Contracts/BConst.sol\":247:300  uint public constant MIN_FEE           = BONE / 10**6 */\n    tag_6:\n      tag_29\n      tag_30\n      jump\t// in\n    tag_29:\n      mload(0x40)\n      dup1\n      dup3\n      dup2\n      mstore\n      0x20\n      add\n      swap2\n      pop\n      pop\n      mload(0x40)\n      dup1\n      swap2\n      sub\n      swap1\n      return\n        /* \"Contracts/BConst.sol\":581:635  uint public constant MIN_BALANCE       = BONE / 10**12 */\n    tag_7:\n      tag_31\n      tag_32\n      jump\t// in\n    tag_31:\n      mload(0x40)\n      dup1\n      dup3\n      dup2\n      mstore\n      0x20\n      add\n      swap2\n      pop\n      pop\n      mload(0x40)\n      dup1\n      swap2\n      sub\n      swap1\n      return\n        /* \"Contracts/BConst.sol\":644:695  uint public constant INIT_POOL_SUPPLY  = BONE * 100 */\n    tag_8:\n      tag_33\n      tag_34\n      jump\t// in\n    tag_33:\n      mload(0x40)\n      dup1\n      dup3\n      dup2\n      mstore\n      0x20\n      add\n      swap2\n      pop\n      pop\n      mload(0x40)\n      dup1\n      swap2\n      sub\n      swap1\n      return\n        /* \"Contracts/BConst.sol\":942:1001  uint public constant MAX_OUT_RATIO     = (BONE / 3) + 1 wei */\n    tag_9:\n      tag_35\n      tag_36\n      jump\t// in\n    tag_35:\n      mload(0x40)\n      dup1\n      dup3\n      dup2\n      mstore\n      0x20\n      add\n      swap2\n      pop\n      pop\n      mload(0x40)\n      dup1\n      swap2\n      sub\n      swap1\n      return\n        /* \"Contracts/BColor.sol\":163:284  function getColor()\r... */\n    tag_10:\n      tag_37\n      tag_38\n      jump\t// in\n    tag_37:\n      mload(0x40)\n      dup1\n      dup3\n      dup2\n      mstore\n      0x20\n      add\n      swap2\n      pop\n      pop\n      mload(0x40)\n      dup1\n      swap2\n      sub\n      swap1\n      return\n        /* \"Contracts/BConst.sol\":196:238  uint public constant MAX_BOUND_TOKENS  = 8 */\n    tag_11:\n      tag_39\n      tag_40\n      jump\t// in\n    tag_39:\n      mload(0x40)\n      dup1\n      dup3\n      dup2\n      mstore\n      0x20\n      add\n      swap2\n      pop\n      pop\n      mload(0x40)\n      dup1\n      swap2\n      sub\n      swap1\n      return\n        /* \"Contracts/BConst.sol\":147:189  uint public constant MIN_BOUND_TOKENS  = 2 */\n    tag_12:\n      tag_41\n      tag_42\n      jump\t// in\n    tag_41:\n      mload(0x40)\n      dup1\n      dup3\n      dup2\n      mstore\n      0x20\n      add\n      swap2\n      pop\n      pop\n      mload(0x40)\n      dup1\n      swap2\n      sub\n      swap1\n      return\n        /* \"Contracts/BConst.sol\":704:750  uint public constant MIN_BPOW_BASE     = 1 wei */\n    tag_13:\n      tag_43\n      tag_44\n      jump\t// in\n    tag_43:\n      mload(0x40)\n      dup1\n      dup3\n      dup2\n      mstore\n      0x20\n      add\n      swap2\n      pop\n      pop\n      mload(0x40)\n      dup1\n      swap2\n      sub\n      swap1\n      return\n        /* \"Contracts/BConst.sol\":307:357  uint public constant MAX_FEE           = BONE / 10 */\n    tag_14:\n      tag_45\n      tag_46\n      jump\t// in\n    tag_45:\n      mload(0x40)\n      dup1\n      dup3\n      dup2\n      mstore\n      0x20\n      add\n      swap2\n      pop\n      pop\n      mload(0x40)\n      dup1\n      swap2\n      sub\n      swap1\n      return\n        /* \"Contracts/BConst.sol\":757:816  uint public constant MAX_BPOW_BASE     = (2 * BONE) - 1 wei */\n    tag_15:\n      tag_47\n      tag_48\n      jump\t// in\n    tag_47:\n      mload(0x40)\n      dup1\n      dup3\n      dup2\n      mstore\n      0x20\n      add\n      swap2\n      pop\n      pop\n      mload(0x40)\n      dup1\n      swap2\n      sub\n      swap1\n      return\n        /* \"Contracts/BConst.sol\":91:138  uint public constant BONE              = 10**18 */\n    tag_16:\n      tag_49\n      tag_50\n      jump\t// in\n    tag_49:\n      mload(0x40)\n      dup1\n      dup3\n      dup2\n      mstore\n      0x20\n      add\n      swap2\n      pop\n      pop\n      mload(0x40)\n      dup1\n      swap2\n      sub\n      swap1\n      return\n        /* \"Contracts/BConst.sol\":364:406  uint public constant EXIT_FEE          = 0 */\n    tag_17:\n      tag_51\n      tag_52\n      jump\t// in\n    tag_51:\n      mload(0x40)\n      dup1\n      dup3\n      dup2\n      mstore\n      0x20\n      add\n      swap2\n      pop\n      pop\n      mload(0x40)\n      dup1\n      swap2\n      sub\n      swap1\n      return\n        /* \"Contracts/BConst.sol\":467:517  uint public constant MAX_WEIGHT        = BONE * 50 */\n    tag_18:\n      tag_53\n      tag_54\n      jump\t// in\n    tag_53:\n      mload(0x40)\n      dup1\n      dup3\n      dup2\n      mstore\n      0x20\n      add\n      swap2\n      pop\n      pop\n      mload(0x40)\n      dup1\n      swap2\n      sub\n      swap1\n      return\n        /* \"Contracts/BConst.sol\":886:935  uint public constant MAX_IN_RATIO      = BONE / 2 */\n    tag_19:\n      tag_55\n      tag_56\n      jump\t// in\n    tag_55:\n      mload(0x40)\n      dup1\n      dup3\n      dup2\n      mstore\n      0x20\n      add\n      swap2\n      pop\n      pop\n      mload(0x40)\n      dup1\n      swap2\n      sub\n      swap1\n      return\n        /* \"Contracts/BConst.sol\":524:574  uint public constant MAX_TOTAL_WEIGHT  = BONE * 50 */\n    tag_24:\n        /* \"Contracts/BConst.sol\":572:574  50 */\n      0x32\n        /* \"Contracts/BConst.sol\":132:138  10**18 */\n      0x0de0b6b3a7640000\n        /* \"Contracts/BConst.sol\":565:574  BONE * 50 */\n      mul\n        /* \"Contracts/BConst.sol\":524:574  uint public constant MAX_TOTAL_WEIGHT  = BONE * 50 */\n      dup2\n      jump\t// out\n        /* \"Contracts/BConst.sol\":823:877  uint public constant BPOW_PRECISION    = BONE / 10**10 */\n    tag_26:\n        /* \"Contracts/BConst.sol\":871:877  10**10 */\n      0x02540be400\n        /* \"Contracts/BConst.sol\":132:138  10**18 */\n      0x0de0b6b3a7640000\n        /* \"Contracts/BConst.sol\":864:877  BONE / 10**10 */\n      dup2\n      tag_57\n      jumpi\n      invalid\n    tag_57:\n      div\n        /* \"Contracts/BConst.sol\":823:877  uint public constant BPOW_PRECISION    = BONE / 10**10 */\n      dup2\n      jump\t// out\n        /* \"Contracts/BConst.sol\":415:460  uint public constant MIN_WEIGHT        = BONE */\n    tag_28:\n        /* \"Contracts/BConst.sol\":132:138  10**18 */\n      0x0de0b6b3a7640000\n        /* \"Contracts/BConst.sol\":415:460  uint public constant MIN_WEIGHT        = BONE */\n      dup2\n      jump\t// out\n        /* \"Contracts/BConst.sol\":247:300  uint public constant MIN_FEE           = BONE / 10**6 */\n    tag_30:\n        /* \"Contracts/BConst.sol\":295:300  10**6 */\n      0x0f4240\n        /* \"Contracts/BConst.sol\":132:138  10**18 */\n      0x0de0b6b3a7640000\n        /* \"Contracts/BConst.sol\":288:300  BONE / 10**6 */\n      dup2\n      tag_58\n      jumpi\n      invalid\n    tag_58:\n      div\n        /* \"Contracts/BConst.sol\":247:300  uint public constant MIN_FEE           = BONE / 10**6 */\n      dup2\n      jump\t// out\n        /* \"Contracts/BConst.sol\":581:635  uint public constant MIN_BALANCE       = BONE / 10**12 */\n    tag_32:\n        /* \"Contracts/BConst.sol\":629:635  10**12 */\n      0xe8d4a51000\n        /* \"Contracts/BConst.sol\":132:138  10**18 */\n      0x0de0b6b3a7640000\n        /* \"Contracts/BConst.sol\":622:635  BONE / 10**12 */\n      dup2\n      tag_59\n      jumpi\n      invalid\n    tag_59:\n      div\n        /* \"Contracts/BConst.sol\":581:635  uint public constant MIN_BALANCE       = BONE / 10**12 */\n      dup2\n      jump\t// out\n        /* \"Contracts/BConst.sol\":644:695  uint public constant INIT_POOL_SUPPLY  = BONE * 100 */\n    tag_34:\n        /* \"Contracts/BConst.sol\":692:695  100 */\n      0x64\n        /* \"Contracts/BConst.sol\":132:138  10**18 */\n      0x0de0b6b3a7640000\n        /* \"Contracts/BConst.sol\":685:695  BONE * 100 */\n      mul\n        /* \"Contracts/BConst.sol\":644:695  uint public constant INIT_POOL_SUPPLY  = BONE * 100 */\n      dup2\n      jump\t// out\n        /* \"Contracts/BConst.sol\":942:1001  uint public constant MAX_OUT_RATIO     = (BONE / 3) + 1 wei */\n    tag_36:\n        /* \"Contracts/BConst.sol\":996:1001  1 wei */\n      0x01\n        /* \"Contracts/BConst.sol\":991:992  3 */\n      0x03\n        /* \"Contracts/BConst.sol\":132:138  10**18 */\n      0x0de0b6b3a7640000\n        /* \"Contracts/BConst.sol\":984:992  BONE / 3 */\n      dup2\n      tag_60\n      jumpi\n      invalid\n    tag_60:\n      div\n        /* \"Contracts/BConst.sol\":983:1001  (BONE / 3) + 1 wei */\n      add\n        /* \"Contracts/BConst.sol\":942:1001  uint public constant MAX_OUT_RATIO     = (BONE / 3) + 1 wei */\n      dup2\n      jump\t// out\n        /* \"Contracts/BColor.sol\":163:284  function getColor()\r... */\n    tag_38:\n        /* \"Contracts/BColor.sol\":224:231  bytes32 */\n      0x00\n        /* \"Contracts/BColor.sol\":255:272  bytes32(\"BRONZE\") */\n      0x42524f4e5a450000000000000000000000000000000000000000000000000000\n        /* \"Contracts/BColor.sol\":248:272  return bytes32(\"BRONZE\") */\n      swap1\n      pop\n        /* \"Contracts/BColor.sol\":163:284  function getColor()\r... */\n      swap1\n      jump\t// out\n        /* \"Contracts/BConst.sol\":196:238  uint public constant MAX_BOUND_TOKENS  = 8 */\n    tag_40:\n        /* \"Contracts/BConst.sol\":237:238  8 */\n      0x08\n        /* \"Contracts/BConst.sol\":196:238  uint public constant MAX_BOUND_TOKENS  = 8 */\n      dup2\n      jump\t// out\n        /* \"Contracts/BConst.sol\":147:189  uint public constant MIN_BOUND_TOKENS  = 2 */\n    tag_42:\n        /* \"Contracts/BConst.sol\":188:189  2 */\n      0x02\n        /* \"Contracts/BConst.sol\":147:189  uint public constant MIN_BOUND_TOKENS  = 2 */\n      dup2\n      jump\t// out\n        /* \"Contracts/BConst.sol\":704:750  uint public constant MIN_BPOW_BASE     = 1 wei */\n    tag_44:\n        /* \"Contracts/BConst.sol\":745:750  1 wei */\n      0x01\n        /* \"Contracts/BConst.sol\":704:750  uint public constant MIN_BPOW_BASE     = 1 wei */\n      dup2\n      jump\t// out\n        /* \"Contracts/BConst.sol\":307:357  uint public constant MAX_FEE           = BONE / 10 */\n    tag_46:\n        /* \"Contracts/BConst.sol\":355:357  10 */\n      0x0a\n        /* \"Contracts/BConst.sol\":132:138  10**18 */\n      0x0de0b6b3a7640000\n        /* \"Contracts/BConst.sol\":348:357  BONE / 10 */\n      dup2\n      tag_62\n      jumpi\n      invalid\n    tag_62:\n      div\n        /* \"Contracts/BConst.sol\":307:357  uint public constant MAX_FEE           = BONE / 10 */\n      dup2\n      jump\t// out\n        /* \"Contracts/BConst.sol\":757:816  uint public constant MAX_BPOW_BASE     = (2 * BONE) - 1 wei */\n    tag_48:\n        /* \"Contracts/BConst.sol\":811:816  1 wei */\n      0x01\n        /* \"Contracts/BConst.sol\":132:138  10**18 */\n      0x0de0b6b3a7640000\n        /* \"Contracts/BConst.sol\":799:800  2 */\n      0x02\n        /* \"Contracts/BConst.sol\":799:807  2 * BONE */\n      mul\n        /* \"Contracts/BConst.sol\":798:816  (2 * BONE) - 1 wei */\n      sub\n        /* \"Contracts/BConst.sol\":757:816  uint public constant MAX_BPOW_BASE     = (2 * BONE) - 1 wei */\n      dup2\n      jump\t// out\n        /* \"Contracts/BConst.sol\":91:138  uint public constant BONE              = 10**18 */\n    tag_50:\n        /* \"Contracts/BConst.sol\":132:138  10**18 */\n      0x0de0b6b3a7640000\n        /* \"Contracts/BConst.sol\":91:138  uint public constant BONE              = 10**18 */\n      dup2\n      jump\t// out\n        /* \"Contracts/BConst.sol\":364:406  uint public constant EXIT_FEE          = 0 */\n    tag_52:\n        /* \"Contracts/BConst.sol\":405:406  0 */\n      0x00\n        /* \"Contracts/BConst.sol\":364:406  uint public constant EXIT_FEE          = 0 */\n      dup2\n      jump\t// out\n        /* \"Contracts/BConst.sol\":467:517  uint public constant MAX_WEIGHT        = BONE * 50 */\n    tag_54:\n        /* \"Contracts/BConst.sol\":515:517  50 */\n      0x32\n        /* \"Contracts/BConst.sol\":132:138  10**18 */\n      0x0de0b6b3a7640000\n        /* \"Contracts/BConst.sol\":508:517  BONE * 50 */\n      mul\n        /* \"Contracts/BConst.sol\":467:517  uint public constant MAX_WEIGHT        = BONE * 50 */\n      dup2\n      jump\t// out\n        /* \"Contracts/BConst.sol\":886:935  uint public constant MAX_IN_RATIO      = BONE / 2 */\n    tag_56:\n        /* \"Contracts/BConst.sol\":934:935  2 */\n      0x02\n        /* \"Contracts/BConst.sol\":132:138  10**18 */\n      0x0de0b6b3a7640000\n        /* \"Contracts/BConst.sol\":927:935  BONE / 2 */\n      dup2\n      tag_63\n      jumpi\n      invalid\n    tag_63:\n      div\n        /* \"Contracts/BConst.sol\":886:935  uint public constant MAX_IN_RATIO      = BONE / 2 */\n      dup2\n      jump\t// out\n\n    auxdata: 0xa265627a7a72315820a0817ced012e77d38179c88b109fba5c3e36489e61f757b5d1a2c1f9a14924cf64736f6c634300050c0032\n}\n",
				"bytecode": {
					"linkReferences": {},
					"object": "608060405234801561001057600080fd5b50610467806100206000396000f3fe608060405234801561001057600080fd5b506004361061010b5760003560e01c8063b0e0d136116100a2578063bc694ea211610071578063bc694ea214610278578063c36596a614610296578063c6580d12146102b4578063e4a28a52146102d2578063ec093021146102f05761010b565b8063b0e0d13614610200578063b7b800a41461021e578063ba019dab1461023c578063bc063e1a1461025a5761010b565b8063867378c5116100de578063867378c5146101885780639381cd2b146101a6578063992e2a92146101c45780639a86139b146101e25761010b565b806309a3bbe414610110578063189d00ca1461012e578063218b53821461014c57806376c7a3c71461016a575b600080fd5b61011861030e565b6040518082815260200191505060405180910390f35b61013661031d565b6040518082815260200191505060405180910390f35b610154610337565b6040518082815260200191505060405180910390f35b610172610343565b6040518082815260200191505060405180910390f35b61019061035b565b6040518082815260200191505060405180910390f35b6101ae610375565b6040518082815260200191505060405180910390f35b6101cc610384565b6040518082815260200191505060405180910390f35b6101ea61039d565b6040518082815260200191505060405180910390f35b6102086103c5565b6040518082815260200191505060405180910390f35b6102266103ca565b6040518082815260200191505060405180910390f35b6102446103cf565b6040518082815260200191505060405180910390f35b6102626103d4565b6040518082815260200191505060405180910390f35b6102806103ea565b6040518082815260200191505060405180910390f35b61029e6103fc565b6040518082815260200191505060405180910390f35b6102bc610408565b6040518082815260200191505060405180910390f35b6102da61040d565b6040518082815260200191505060405180910390f35b6102f861041c565b6040518082815260200191505060405180910390f35b6032670de0b6b3a76400000281565b6402540be400670de0b6b3a76400008161033357fe5b0481565b670de0b6b3a764000081565b620f4240670de0b6b3a76400008161035757fe5b0481565b64e8d4a51000670de0b6b3a76400008161037157fe5b0481565b6064670de0b6b3a76400000281565b60016003670de0b6b3a76400008161039857fe5b040181565b60007f42524f4e5a450000000000000000000000000000000000000000000000000000905090565b600881565b600281565b600181565b600a670de0b6b3a7640000816103e657fe5b0481565b6001670de0b6b3a76400006002020381565b670de0b6b3a764000081565b600081565b6032670de0b6b3a76400000281565b6002670de0b6b3a76400008161042e57fe5b048156fea265627a7a72315820a0817ced012e77d38179c88b109fba5c3e36489e61f757b5d1a2c1f9a14924cf64736f6c634300050c0032",
					"opcodes": "PUSH1 0x80 PUSH1 0x40 MSTORE CALLVALUE DUP1 ISZERO PUSH2 0x10 JUMPI PUSH1 0x0 DUP1 REVERT JUMPDEST POP PUSH2 0x467 DUP1 PUSH2 0x20 PUSH1 0x0 CODECOPY PUSH1 0x0 RETURN INVALID PUSH1 0x80 PUSH1 0x40 MSTORE CALLVALUE DUP1 ISZERO PUSH2 0x10 JUMPI PUSH1 0x0 DUP1 REVERT JUMPDEST POP PUSH1 0x4 CALLDATASIZE LT PUSH2 0x10B JUMPI PUSH1 0x0 CALLDATALOAD PUSH1 0xE0 SHR DUP1 PUSH4 0xB0E0D136 GT PUSH2 0xA2 JUMPI DUP1 PUSH4 0xBC694EA2 GT PUSH2 0x71 JUMPI DUP1 PUSH4 0xBC694EA2 EQ PUSH2 0x278 JUMPI DUP1 PUSH4 0xC36596A6 EQ PUSH2 0x296 JUMPI DUP1 PUSH4 0xC6580D12 EQ PUSH2 0x2B4 JUMPI DUP1 PUSH4 0xE4A28A52 EQ PUSH2 0x2D2 JUMPI DUP1 PUSH4 0xEC093021 EQ PUSH2 0x2F0 JUMPI PUSH2 0x10B JUMP JUMPDEST DUP1 PUSH4 0xB0E0D136 EQ PUSH2 0x200 JUMPI DUP1 PUSH4 0xB7B800A4 EQ PUSH2 0x21E JUMPI DUP1 PUSH4 0xBA019DAB EQ PUSH2 0x23C JUMPI DUP1 PUSH4 0xBC063E1A EQ PUSH2 0x25A JUMPI PUSH2 0x10B JUMP JUMPDEST DUP1 PUSH4 0x867378C5 GT PUSH2 0xDE JUMPI DUP1 PUSH4 0x867378C5 EQ PUSH2 0x188 JUMPI DUP1 PUSH4 0x9381CD2B EQ PUSH2 0x1A6 JUMPI DUP1 PUSH4 0x992E2A92 EQ PUSH2 0x1C4 JUMPI DUP1 PUSH4 0x9A86139B EQ PUSH2 0x1E2 JUMPI PUSH2 0x10B JUMP JUMPDEST DUP1 PUSH4 0x9A3BBE4 EQ PUSH2 0x110 JUMPI DUP1 PUSH4 0x189D00CA EQ PUSH2 0x12E JUMPI DUP1 PUSH4 0x218B5382 EQ PUSH2 0x14C JUMPI DUP1 PUSH4 0x76C7A3C7 EQ PUSH2 0x16A JUMPI JUMPDEST PUSH1 0x0 DUP1 REVERT JUMPDEST PUSH2 0x118 PUSH2 0x30E JUMP JUMPDEST PUSH1 0x40 MLOAD DUP1 DUP3 DUP2 MSTORE PUSH1 0x20 ADD SWAP2 POP POP PUSH1 0x40 MLOAD DUP1 SWAP2 SUB SWAP1 RETURN JUMPDEST PUSH2 0x136 PUSH2 0x31D JUMP JUMPDEST PUSH1 0x40 MLOAD DUP1 DUP3 DUP2 MSTORE PUSH1 0x20 ADD SWAP2 POP POP PUSH1 0x40 MLOAD DUP1 SWAP2 SUB SWAP1 RETURN JUMPDEST PUSH2 0x154 PUSH2 0x337 JUMP JUMPDEST PUSH1 0x40 MLOAD DUP1 DUP3 DUP2 MSTORE PUSH1 0x20 ADD SWAP2 POP POP PUSH1 0x40 MLOAD DUP1 SWAP2 SUB SWAP1 RETURN JUMPDEST PUSH2 0x172 PUSH2 0x343 JUMP JUMPDEST PUSH1 0x40 MLOAD DUP1 DUP3 DUP2 MSTORE PUSH1 0x20 ADD SWAP2 POP POP PUSH1 0x40 MLOAD DUP1 SWAP2 SUB SWAP1 RETURN JUMPDEST PUSH2 0x190 PUSH2 0x35B JUMP JUMPDEST PUSH1 0x40 MLOAD DUP1 DUP3 DUP2 MSTORE PUSH1 0x20 ADD SWAP2 POP POP PUSH1 0x40 MLOAD DUP1 SWAP2 SUB SWAP1 RETURN JUMPDEST PUSH2 0x1AE PUSH2 0x375 JUMP JUMPDEST PUSH1 0x40 MLOAD DUP1 DUP3 DUP2 MSTORE PUSH1 0x20 ADD SWAP2 POP POP PUSH1 0x40 MLOAD DUP1 SWAP2 SUB SWAP1 RETURN JUMPDEST PUSH2 0x1CC PUSH2 0x384 JUMP JUMPDEST PUSH1 0x40 MLOAD DUP1 DUP3 DUP2 MSTORE PUSH1 0x20 ADD SWAP2 POP POP PUSH1 0x40 MLOAD DUP1 SWAP2 SUB SWAP1 RETURN JUMPDEST PUSH2 0x1EA PUSH2 0x39D JUMP JUMPDEST PUSH1 0x40 MLOAD DUP1 DUP3 DUP2 MSTORE PUSH1 0x20 ADD SWAP2 POP POP PUSH1 0x40 MLOAD DUP1 SWAP2 SUB SWAP1 RETURN JUMPDEST PUSH2 0x208 PUSH2 0x3C5 JUMP JUMPDEST PUSH1 0x40 MLOAD DUP1 DUP3 DUP2 MSTORE PUSH1 0x20 ADD SWAP2 POP POP PUSH1 0x40 MLOAD DUP1 SWAP2 SUB SWAP1 RETURN JUMPDEST PUSH2 0x226 PUSH2 0x3CA JUMP JUMPDEST PUSH1 0x40 MLOAD DUP1 DUP3 DUP2 MSTORE PUSH1 0x20 ADD SWAP2 POP POP PUSH1 0x40 MLOAD DUP1 SWAP2 SUB SWAP1 RETURN JUMPDEST PUSH2 0x244 PUSH2 0x3CF JUMP JUMPDEST PUSH1 0x40 MLOAD DUP1 DUP3 DUP2 MSTORE PUSH1 0x20 ADD SWAP2 POP POP PUSH1 0x40 MLOAD DUP1 SWAP2 SUB SWAP1 RETURN JUMPDEST PUSH2 0x262 PUSH2 0x3D4 JUMP JUMPDEST PUSH1 0x40 MLOAD DUP1 DUP3 DUP2 MSTORE PUSH1 0x20 ADD SWAP2 POP POP PUSH1 0x40 MLOAD DUP1 SWAP2 SUB SWAP1 RETURN JUMPDEST PUSH2 0x280 PUSH2 0x3EA JUMP JUMPDEST PUSH1 0x40 MLOAD DUP1 DUP3 DUP2 MSTORE PUSH1 0x20 ADD SWAP2 POP POP PUSH1 0x40 MLOAD DUP1 SWAP2 SUB SWAP1 RETURN JUMPDEST PUSH2 0x29E PUSH2 0x3FC JUMP JUMPDEST PUSH1 0x40 MLOAD DUP1 DUP3 DUP2 MSTORE PUSH1 0x20 ADD SWAP2 POP POP PUSH1 0x40 MLOAD DUP1 SWAP2 SUB SWAP1 RETURN JUMPDEST PUSH2 0x2BC PUSH2 0x408 JUMP JUMPDEST PUSH1 0x40 MLOAD DUP1 DUP3 DUP2 MSTORE PUSH1 0x20 ADD SWAP2 POP POP PUSH1 0x40 MLOAD DUP1 SWAP2 SUB SWAP1 RETURN JUMPDEST PUSH2 0x2DA PUSH2 0x40D JUMP JUMPDEST PUSH1 0x40 MLOAD DUP1 DUP3 DUP2 MSTORE PUSH1 0x20 ADD SWAP2 POP POP PUSH1 0x40 MLOAD DUP1 SWAP2 SUB SWAP1 RETURN JUMPDEST PUSH2 0x2F8 PUSH2 0x41C JUMP JUMPDEST PUSH1 0x40 MLOAD DUP1 DUP3 DUP2 MSTORE PUSH1 0x20 ADD SWAP2 POP POP PUSH1 0x40 MLOAD DUP1 SWAP2 SUB SWAP1 RETURN JUMPDEST PUSH1 0x32 PUSH8 0xDE0B6B3A7640000 MUL DUP2 JUMP JUMPDEST PUSH5 0x2540BE400 PUSH8 0xDE0B6B3A7640000 DUP2 PUSH2 0x333 JUMPI INVALID JUMPDEST DIV DUP2 JUMP JUMPDEST PUSH8 0xDE0B6B3A7640000 DUP2 JUMP JUMPDEST PUSH3 0xF4240 PUSH8 0xDE0B6B3A7640000 DUP2 PUSH2 0x357 JUMPI INVALID JUMPDEST DIV DUP2 JUMP JUMPDEST PUSH5 0xE8D4A51000 PUSH8 0xDE0B6B3A7640000 DUP2 PUSH2 0x371 JUMPI INVALID JUMPDEST DIV DUP2 JUMP JUMPDEST PUSH1 0x64 PUSH8 0xDE0B6B3A7640000 MUL DUP2 JUMP JUMPDEST PUSH1 0x1 PUSH1 0x3 PUSH8 0xDE0B6B3A7640000 DUP2 PUSH2 0x398 JUMPI INVALID JUMPDEST DIV ADD DUP2 JUMP JUMPDEST PUSH1 0x0 PUSH32 0x42524F4E5A450000000000000000000000000000000000000000000000000000 SWAP1 POP SWAP1 JUMP JUMPDEST PUSH1 0x8 DUP2 JUMP JUMPDEST PUSH1 0x2 DUP2 JUMP JUMPDEST PUSH1 0x1 DUP2 JUMP JUMPDEST PUSH1 0xA PUSH8 0xDE0B6B3A7640000 DUP2 PUSH2 0x3E6 JUMPI INVALID JUMPDEST DIV DUP2 JUMP JUMPDEST PUSH1 0x1 PUSH8 0xDE0B6B3A7640000 PUSH1 0x2 MUL SUB DUP2 JUMP JUMPDEST PUSH8 0xDE0B6B3A7640000 DUP2 JUMP JUMPDEST PUSH1 0x0 DUP2 JUMP JUMPDEST PUSH1 0x32 PUSH8 0xDE0B6B3A7640000 MUL DUP2 JUMP JUMPDEST PUSH1 0x2 PUSH8 0xDE0B6B3A7640000 DUP2 PUSH2 0x42E JUMPI INVALID JUMPDEST DIV DUP2 JUMP INVALID LOG2 PUSH6 0x627A7A723158 KECCAK256 LOG0 DUP2 PUSH29 0xED012E77D38179C88B109FBA5C3E36489E61F757B5D1A2C1F9A14924CF PUSH5 0x736F6C6343 STOP SDIV 0xc STOP ORIGIN "
				},
				"gasEstimates": {
					"creation": {
						"codeDepositCost": "225400",
						"executionCost": "269",
						"totalCost": "225669"
					},
					"external": {
						"BONE()": "249",
						"BPOW_PRECISION()": "276",
						"EXIT_FEE()": "271",
						"INIT_POOL_SUPPLY()": "258",
						"MAX_BOUND_TOKENS()": "228",
						"MAX_BPOW_BASE()": "241",
						"MAX_FEE()": "319",
						"MAX_IN_RATIO()": "340",
						"MAX_OUT_RATIO()": "303",
						"MAX_TOTAL_WEIGHT()": "237",
						"MAX_WEIGHT()": "301",
						"MIN_BALANCE()": "253",
						"MIN_BOUND_TOKENS()": "250",
						"MIN_BPOW_BASE()": "272",
						"MIN_FEE()": "320",
						"MIN_WEIGHT()": "273",
						"getColor()": "302"
					},
					"internal": {
						"badd(uint256,uint256)": "infinite",
						"bdiv(uint256,uint256)": "infinite",
						"bfloor(uint256)": "infinite",
						"bmul(uint256,uint256)": "infinite",
						"bpow(uint256,uint256)": "infinite",
						"bpowApprox(uint256,uint256,uint256)": "infinite",
						"bpowi(uint256,uint256)": "infinite",
						"bsub(uint256,uint256)": "infinite",
						"bsubSign(uint256,uint256)": "infinite",
						"btoi(uint256)": "infinite"
					}
				},
				"methodIdentifiers": {
					"BONE()": "c36596a6",
					"BPOW_PRECISION()": "189d00ca",
					"EXIT_FEE()": "c6580d12",
					"INIT_POOL_SUPPLY()": "9381cd2b",
					"MAX_BOUND_TOKENS()": "b0e0d136",
					"MAX_BPOW_BASE()": "bc694ea2",
					"MAX_FEE()": "bc063e1a",
					"MAX_IN_RATIO()": "ec093021",
					"MAX_OUT_RATIO()": "992e2a92",
					"MAX_TOTAL_WEIGHT()": "09a3bbe4",
					"MAX_WEIGHT()": "e4a28a52",
					"MIN_BALANCE()": "867378c5",
					"MIN_BOUND_TOKENS()": "b7b800a4",
					"MIN_BPOW_BASE()": "ba019dab",
					"MIN_FEE()": "76c7a3c7",
					"MIN_WEIGHT()": "218b5382",
					"getColor()": "9a86139b"
				}
			},
			"userdoc": {
				"methods": {}
			}
		}
	}
}