{
	"Contracts/BMath.sol": {
		"BMath": {
			"abi": [
				{
					"constant": true,
					"inputs": [],
					"name": "BONE",
					"outputs": [
						{
							"internalType": "uint256",
							"name": "",
							"type": "uint256"
						}
					],
					"payable": false,
					"stateMutability": "view",
					"type": "function"
				},
				{
					"constant": true,
					"inputs": [],
					"name": "BPOW_PRECISION",
					"outputs": [
						{
							"internalType": "uint256",
							"name": "",
							"type": "uint256"
						}
					],
					"payable": false,
					"stateMutability": "view",
					"type": "function"
				},
				{
					"constant": true,
					"inputs": [],
					"name": "EXIT_FEE",
					"outputs": [
						{
							"internalType": "uint256",
							"name": "",
							"type": "uint256"
						}
					],
					"payable": false,
					"stateMutability": "view",
					"type": "function"
				},
				{
					"constant": true,
					"inputs": [],
					"name": "INIT_POOL_SUPPLY",
					"outputs": [
						{
							"internalType": "uint256",
							"name": "",
							"type": "uint256"
						}
					],
					"payable": false,
					"stateMutability": "view",
					"type": "function"
				},
				{
					"constant": true,
					"inputs": [],
					"name": "MAX_BOUND_TOKENS",
					"outputs": [
						{
							"internalType": "uint256",
							"name": "",
							"type": "uint256"
						}
					],
					"payable": false,
					"stateMutability": "view",
					"type": "function"
				},
				{
					"constant": true,
					"inputs": [],
					"name": "MAX_BPOW_BASE",
					"outputs": [
						{
							"internalType": "uint256",
							"name": "",
							"type": "uint256"
						}
					],
					"payable": false,
					"stateMutability": "view",
					"type": "function"
				},
				{
					"constant": true,
					"inputs": [],
					"name": "MAX_FEE",
					"outputs": [
						{
							"internalType": "uint256",
							"name": "",
							"type": "uint256"
						}
					],
					"payable": false,
					"stateMutability": "view",
					"type": "function"
				},
				{
					"constant": true,
					"inputs": [],
					"name": "MAX_IN_RATIO",
					"outputs": [
						{
							"internalType": "uint256",
							"name": "",
							"type": "uint256"
						}
					],
					"payable": false,
					"stateMutability": "view",
					"type": "function"
				},
				{
					"constant": true,
					"inputs": [],
					"name": "MAX_OUT_RATIO",
					"outputs": [
						{
							"internalType": "uint256",
							"name": "",
							"type": "uint256"
						}
					],
					"payable": false,
					"stateMutability": "view",
					"type": "function"
				},
				{
					"constant": true,
					"inputs": [],
					"name": "MAX_TOTAL_WEIGHT",
					"outputs": [
						{
							"internalType": "uint256",
							"name": "",
							"type": "uint256"
						}
					],
					"payable": false,
					"stateMutability": "view",
					"type": "function"
				},
				{
					"constant": true,
					"inputs": [],
					"name": "MAX_WEIGHT",
					"outputs": [
						{
							"internalType": "uint256",
							"name": "",
							"type": "uint256"
						}
					],
					"payable": false,
					"stateMutability": "view",
					"type": "function"
				},
				{
					"constant": true,
					"inputs": [],
					"name": "MIN_BALANCE",
					"outputs": [
						{
							"internalType": "uint256",
							"name": "",
							"type": "uint256"
						}
					],
					"payable": false,
					"stateMutability": "view",
					"type": "function"
				},
				{
					"constant": true,
					"inputs": [],
					"name": "MIN_BOUND_TOKENS",
					"outputs": [
						{
							"internalType": "uint256",
							"name": "",
							"type": "uint256"
						}
					],
					"payable": false,
					"stateMutability": "view",
					"type": "function"
				},
				{
					"constant": true,
					"inputs": [],
					"name": "MIN_BPOW_BASE",
					"outputs": [
						{
							"internalType": "uint256",
							"name": "",
							"type": "uint256"
						}
					],
					"payable": false,
					"stateMutability": "view",
					"type": "function"
				},
				{
					"constant": true,
					"inputs": [],
					"name": "MIN_FEE",
					"outputs": [
						{
							"internalType": "uint256",
							"name": "",
							"type": "uint256"
						}
					],
					"payable": false,
					"stateMutability": "view",
					"type": "function"
				},
				{
					"constant": true,
					"inputs": [],
					"name": "MIN_WEIGHT",
					"outputs": [
						{
							"internalType": "uint256",
							"name": "",
							"type": "uint256"
						}
					],
					"payable": false,
					"stateMutability": "view",
					"type": "function"
				},
				{
					"constant": true,
					"inputs": [
						{
							"internalType": "uint256",
							"name": "tokenBalanceIn",
							"type": "uint256"
						},
						{
							"internalType": "uint256",
							"name": "tokenWeightIn",
							"type": "uint256"
						},
						{
							"internalType": "uint256",
							"name": "tokenBalanceOut",
							"type": "uint256"
						},
						{
							"internalType": "uint256",
							"name": "tokenWeightOut",
							"type": "uint256"
						},
						{
							"internalType": "uint256",
							"name": "tokenAmountOut",
							"type": "uint256"
						},
						{
							"internalType": "uint256",
							"name": "swapFee",
							"type": "uint256"
						}
					],
					"name": "calcInGivenOut",
					"outputs": [
						{
							"internalType": "uint256",
							"name": "tokenAmountIn",
							"type": "uint256"
						}
					],
					"payable": false,
					"stateMutability": "view",
					"type": "function"
				},
				{
					"constant": true,
					"inputs": [
						{
							"internalType": "uint256",
							"name": "tokenBalanceIn",
							"type": "uint256"
						},
						{
							"internalType": "uint256",
							"name": "tokenWeightIn",
							"type": "uint256"
						},
						{
							"internalType": "uint256",
							"name": "tokenBalanceOut",
							"type": "uint256"
						},
						{
							"internalType": "uint256",
							"name": "tokenWeightOut",
							"type": "uint256"
						},
						{
							"internalType": "uint256",
							"name": "tokenAmountIn",
							"type": "uint256"
						},
						{
							"internalType": "uint256",
							"name": "swapFee",
							"type": "uint256"
						}
					],
					"name": "calcOutGivenIn",
					"outputs": [
						{
							"internalType": "uint256",
							"name": "tokenAmountOut",
							"type": "uint256"
						}
					],
					"payable": false,
					"stateMutability": "view",
					"type": "function"
				},
				{
					"constant": true,
					"inputs": [
						{
							"internalType": "uint256",
							"name": "tokenBalanceOut",
							"type": "uint256"
						},
						{
							"internalType": "uint256",
							"name": "tokenWeightOut",
							"type": "uint256"
						},
						{
							"internalType": "uint256",
							"name": "poolSupply",
							"type": "uint256"
						},
						{
							"internalType": "uint256",
							"name": "totalWeight",
							"type": "uint256"
						},
						{
							"internalType": "uint256",
							"name": "tokenAmountOut",
							"type": "uint256"
						},
						{
							"internalType": "uint256",
							"name": "swapFee",
							"type": "uint256"
						}
					],
					"name": "calcPoolInGivenSingleOut",
					"outputs": [
						{
							"internalType": "uint256",
							"name": "poolAmountIn",
							"type": "uint256"
						}
					],
					"payable": false,
					"stateMutability": "view",
					"type": "function"
				},
				{
					"constant": true,
					"inputs": [
						{
							"internalType": "uint256",
							"name": "tokenBalanceIn",
							"type": "uint256"
						},
						{
							"internalType": "uint256",
							"name": "tokenWeightIn",
							"type": "uint256"
						},
						{
							"internalType": "uint256",
							"name": "poolSupply",
							"type": "uint256"
						},
						{
							"internalType": "uint256",
							"name": "totalWeight",
							"type": "uint256"
						},
						{
							"internalType": "uint256",
							"name": "tokenAmountIn",
							"type": "uint256"
						},
						{
							"internalType": "uint256",
							"name": "swapFee",
							"type": "uint256"
						}
					],
					"name": "calcPoolOutGivenSingleIn",
					"outputs": [
						{
							"internalType": "uint256",
							"name": "poolAmountOut",
							"type": "uint256"
						}
					],
					"payable": false,
					"stateMutability": "view",
					"type": "function"
				},
				{
					"constant": true,
					"inputs": [
						{
							"internalType": "uint256",
							"name": "tokenBalanceIn",
							"type": "uint256"
						},
						{
							"internalType": "uint256",
							"name": "tokenWeightIn",
							"type": "uint256"
						},
						{
							"internalType": "uint256",
							"name": "poolSupply",
							"type": "uint256"
						},
						{
							"internalType": "uint256",
							"name": "totalWeight",
							"type": "uint256"
						},
						{
							"internalType": "uint256",
							"name": "poolAmountOut",
							"type": "uint256"
						},
						{
							"internalType": "uint256",
							"name": "swapFee",
							"type": "uint256"
						}
					],
					"name": "calcSingleInGivenPoolOut",
					"outputs": [
						{
							"internalType": "uint256",
							"name": "tokenAmountIn",
							"type": "uint256"
						}
					],
					"payable": false,
					"stateMutability": "view",
					"type": "function"
				},
				{
					"constant": true,
					"inputs": [
						{
							"internalType": "uint256",
							"name": "tokenBalanceOut",
							"type": "uint256"
						},
						{
							"internalType": "uint256",
							"name": "tokenWeightOut",
							"type": "uint256"
						},
						{
							"internalType": "uint256",
							"name": "poolSupply",
							"type": "uint256"
						},
						{
							"internalType": "uint256",
							"name": "totalWeight",
							"type": "uint256"
						},
						{
							"internalType": "uint256",
							"name": "poolAmountIn",
							"type": "uint256"
						},
						{
							"internalType": "uint256",
							"name": "swapFee",
							"type": "uint256"
						}
					],
					"name": "calcSingleOutGivenPoolIn",
					"outputs": [
						{
							"internalType": "uint256",
							"name": "tokenAmountOut",
							"type": "uint256"
						}
					],
					"payable": false,
					"stateMutability": "view",
					"type": "function"
				},
				{
					"constant": true,
					"inputs": [
						{
							"internalType": "uint256",
							"name": "tokenBalanceIn",
							"type": "uint256"
						},
						{
							"internalType": "uint256",
							"name": "tokenWeightIn",
							"type": "uint256"
						},
						{
							"internalType": "uint256",
							"name": "tokenBalanceOut",
							"type": "uint256"
						},
						{
							"internalType": "uint256",
							"name": "tokenWeightOut",
							"type": "uint256"
						},
						{
							"internalType": "uint256",
							"name": "swapFee",
							"type": "uint256"
						}
					],
					"name": "calcSpotPrice",
					"outputs": [
						{
							"internalType": "uint256",
							"name": "spotPrice",
							"type": "uint256"
						}
					],
					"payable": false,
					"stateMutability": "view",
					"type": "function"
				},
				{
					"constant": true,
					"inputs": [],
					"name": "getColor",
					"outputs": [
						{
							"internalType": "bytes32",
							"name": "",
							"type": "bytes32"
						}
					],
					"payable": false,
					"stateMutability": "view",
					"type": "function"
				}
			],
			"devdoc": {
				"methods": {}
			},
			"evm": {
				"assembly": "    /* \"Contracts/BMath.sol\":707:14752  contract BMath is BBronze, BConst, BNum {\r... */\n  mstore(0x40, 0x80)\n  callvalue\n    /* \"--CODEGEN--\":8:17   */\n  dup1\n    /* \"--CODEGEN--\":5:7   */\n  iszero\n  tag_1\n  jumpi\n    /* \"--CODEGEN--\":30:31   */\n  0x00\n    /* \"--CODEGEN--\":27:28   */\n  dup1\n    /* \"--CODEGEN--\":20:32   */\n  revert\n    /* \"--CODEGEN--\":5:7   */\ntag_1:\n    /* \"Contracts/BMath.sol\":707:14752  contract BMath is BBronze, BConst, BNum {\r... */\n  pop\n  dataSize(sub_0)\n  dup1\n  dataOffset(sub_0)\n  0x00\n  codecopy\n  0x00\n  return\nstop\n\nsub_0: assembly {\n        /* \"Contracts/BMath.sol\":707:14752  contract BMath is BBronze, BConst, BNum {\r... */\n      mstore(0x40, 0x80)\n      callvalue\n        /* \"--CODEGEN--\":8:17   */\n      dup1\n        /* \"--CODEGEN--\":5:7   */\n      iszero\n      tag_1\n      jumpi\n        /* \"--CODEGEN--\":30:31   */\n      0x00\n        /* \"--CODEGEN--\":27:28   */\n      dup1\n        /* \"--CODEGEN--\":20:32   */\n      revert\n        /* \"--CODEGEN--\":5:7   */\n    tag_1:\n        /* \"Contracts/BMath.sol\":707:14752  contract BMath is BBronze, BConst, BNum {\r... */\n      pop\n      jumpi(tag_2, lt(calldatasize, 0x04))\n      shr(0xe0, calldataload(0x00))\n      dup1\n      0xa221ee49\n      gt\n      tag_27\n      jumpi\n      dup1\n      0xbc694ea2\n      gt\n      tag_28\n      jumpi\n      dup1\n      0xbc694ea2\n      eq\n      tag_21\n      jumpi\n      dup1\n      0xc36596a6\n      eq\n      tag_22\n      jumpi\n      dup1\n      0xc6580d12\n      eq\n      tag_23\n      jumpi\n      dup1\n      0xe4a28a52\n      eq\n      tag_24\n      jumpi\n      dup1\n      0xec093021\n      eq\n      tag_25\n      jumpi\n      dup1\n      0xf8d6aed4\n      eq\n      tag_26\n      jumpi\n      jump(tag_2)\n    tag_28:\n      dup1\n      0xa221ee49\n      eq\n      tag_15\n      jumpi\n      dup1\n      0xb0e0d136\n      eq\n      tag_16\n      jumpi\n      dup1\n      0xb7b800a4\n      eq\n      tag_17\n      jumpi\n      dup1\n      0xba019dab\n      eq\n      tag_18\n      jumpi\n      dup1\n      0xba9530a6\n      eq\n      tag_19\n      jumpi\n      dup1\n      0xbc063e1a\n      eq\n      tag_20\n      jumpi\n      jump(tag_2)\n    tag_27:\n      dup1\n      0x8656b653\n      gt\n      tag_29\n      jumpi\n      dup1\n      0x8656b653\n      eq\n      tag_9\n      jumpi\n      dup1\n      0x867378c5\n      eq\n      tag_10\n      jumpi\n      dup1\n      0x89298012\n      eq\n      tag_11\n      jumpi\n      dup1\n      0x9381cd2b\n      eq\n      tag_12\n      jumpi\n      dup1\n      0x992e2a92\n      eq\n      tag_13\n      jumpi\n      dup1\n      0x9a86139b\n      eq\n      tag_14\n      jumpi\n      jump(tag_2)\n    tag_29:\n      dup1\n      0x09a3bbe4\n      eq\n      tag_3\n      jumpi\n      dup1\n      0x189d00ca\n      eq\n      tag_4\n      jumpi\n      dup1\n      0x218b5382\n      eq\n      tag_5\n      jumpi\n      dup1\n      0x5c1bbaf7\n      eq\n      tag_6\n      jumpi\n      dup1\n      0x76c7a3c7\n      eq\n      tag_7\n      jumpi\n      dup1\n      0x82f652ad\n      eq\n      tag_8\n      jumpi\n    tag_2:\n      0x00\n      dup1\n      revert\n        /* \"Contracts/BConst.sol\":524:574  uint public constant MAX_TOTAL_WEIGHT  = BONE * 50 */\n    tag_3:\n      tag_30\n      tag_31\n      jump\t// in\n    tag_30:\n      mload(0x40)\n      dup1\n      dup3\n      dup2\n      mstore\n      0x20\n      add\n      swap2\n      pop\n      pop\n      mload(0x40)\n      dup1\n      swap2\n      sub\n      swap1\n      return\n        /* \"Contracts/BConst.sol\":823:877  uint public constant BPOW_PRECISION    = BONE / 10**10 */\n    tag_4:\n      tag_32\n      tag_33\n      jump\t// in\n    tag_32:\n      mload(0x40)\n      dup1\n      dup3\n      dup2\n      mstore\n      0x20\n      add\n      swap2\n      pop\n      pop\n      mload(0x40)\n      dup1\n      swap2\n      sub\n      swap1\n      return\n        /* \"Contracts/BConst.sol\":415:460  uint public constant MIN_WEIGHT        = BONE */\n    tag_5:\n      tag_34\n      tag_35\n      jump\t// in\n    tag_34:\n      mload(0x40)\n      dup1\n      dup3\n      dup2\n      mstore\n      0x20\n      add\n      swap2\n      pop\n      pop\n      mload(0x40)\n      dup1\n      swap2\n      sub\n      swap1\n      return\n        /* \"Contracts/BMath.sol\":8766:9959  function calcSingleInGivenPoolOut(\r... */\n    tag_6:\n      tag_36\n      0x04\n      dup1\n      calldatasize\n      sub\n        /* \"--CODEGEN--\":13:16   */\n      0xc0\n        /* \"--CODEGEN--\":8:11   */\n      dup2\n        /* \"--CODEGEN--\":5:17   */\n      lt\n        /* \"--CODEGEN--\":2:4   */\n      iszero\n      tag_37\n      jumpi\n        /* \"--CODEGEN--\":30:31   */\n      0x00\n        /* \"--CODEGEN--\":27:28   */\n      dup1\n        /* \"--CODEGEN--\":20:32   */\n      revert\n        /* \"--CODEGEN--\":2:4   */\n    tag_37:\n        /* \"Contracts/BMath.sol\":8766:9959  function calcSingleInGivenPoolOut(\r... */\n      dup2\n      add\n      swap1\n      dup1\n      dup1\n      calldataload\n      swap1\n      0x20\n      add\n      swap1\n      swap3\n      swap2\n      swap1\n      dup1\n      calldataload\n      swap1\n      0x20\n      add\n      swap1\n      swap3\n      swap2\n      swap1\n      dup1\n      calldataload\n      swap1\n      0x20\n      add\n      swap1\n      swap3\n      swap2\n      swap1\n      dup1\n      calldataload\n      swap1\n      0x20\n      add\n      swap1\n      swap3\n      swap2\n      swap1\n      dup1\n      calldataload\n      swap1\n      0x20\n      add\n      swap1\n      swap3\n      swap2\n      swap1\n      dup1\n      calldataload\n      swap1\n      0x20\n      add\n      swap1\n      swap3\n      swap2\n      swap1\n      pop\n      pop\n      pop\n      tag_38\n      jump\t// in\n    tag_36:\n      mload(0x40)\n      dup1\n      dup3\n      dup2\n      mstore\n      0x20\n      add\n      swap2\n      pop\n      pop\n      mload(0x40)\n      dup1\n      swap2\n      sub\n      swap1\n      return\n        /* \"Contracts/BConst.sol\":247:300  uint public constant MIN_FEE           = BONE / 10**6 */\n    tag_7:\n      tag_39\n      tag_40\n      jump\t// in\n    tag_39:\n      mload(0x40)\n      dup1\n      dup3\n      dup2\n      mstore\n      0x20\n      add\n      swap2\n      pop\n      pop\n      mload(0x40)\n      dup1\n      swap2\n      sub\n      swap1\n      return\n        /* \"Contracts/BMath.sol\":13460:14745  function calcPoolInGivenSingleOut(\r... */\n    tag_8:\n      tag_41\n      0x04\n      dup1\n      calldatasize\n      sub\n        /* \"--CODEGEN--\":13:16   */\n      0xc0\n        /* \"--CODEGEN--\":8:11   */\n      dup2\n        /* \"--CODEGEN--\":5:17   */\n      lt\n        /* \"--CODEGEN--\":2:4   */\n      iszero\n      tag_42\n      jumpi\n        /* \"--CODEGEN--\":30:31   */\n      0x00\n        /* \"--CODEGEN--\":27:28   */\n      dup1\n        /* \"--CODEGEN--\":20:32   */\n      revert\n        /* \"--CODEGEN--\":2:4   */\n    tag_42:\n        /* \"Contracts/BMath.sol\":13460:14745  function calcPoolInGivenSingleOut(\r... */\n      dup2\n      add\n      swap1\n      dup1\n      dup1\n      calldataload\n      swap1\n      0x20\n      add\n      swap1\n      swap3\n      swap2\n      swap1\n      dup1\n      calldataload\n      swap1\n      0x20\n      add\n      swap1\n      swap3\n      swap2\n      swap1\n      dup1\n      calldataload\n      swap1\n      0x20\n      add\n      swap1\n      swap3\n      swap2\n      swap1\n      dup1\n      calldataload\n      swap1\n      0x20\n      add\n      swap1\n      swap3\n      swap2\n      swap1\n      dup1\n      calldataload\n      swap1\n      0x20\n      add\n      swap1\n      swap3\n      swap2\n      swap1\n      dup1\n      calldataload\n      swap1\n      0x20\n      add\n      swap1\n      swap3\n      swap2\n      swap1\n      pop\n      pop\n      pop\n      tag_43\n      jump\t// in\n    tag_41:\n      mload(0x40)\n      dup1\n      dup3\n      dup2\n      mstore\n      0x20\n      add\n      swap2\n      pop\n      pop\n      mload(0x40)\n      dup1\n      swap2\n      sub\n      swap1\n      return\n        /* \"Contracts/BMath.sol\":6581:7748  function calcPoolOutGivenSingleIn(\r... */\n    tag_9:\n      tag_44\n      0x04\n      dup1\n      calldatasize\n      sub\n        /* \"--CODEGEN--\":13:16   */\n      0xc0\n        /* \"--CODEGEN--\":8:11   */\n      dup2\n        /* \"--CODEGEN--\":5:17   */\n      lt\n        /* \"--CODEGEN--\":2:4   */\n      iszero\n      tag_45\n      jumpi\n        /* \"--CODEGEN--\":30:31   */\n      0x00\n        /* \"--CODEGEN--\":27:28   */\n      dup1\n        /* \"--CODEGEN--\":20:32   */\n      revert\n        /* \"--CODEGEN--\":2:4   */\n    tag_45:\n        /* \"Contracts/BMath.sol\":6581:7748  function calcPoolOutGivenSingleIn(\r... */\n      dup2\n      add\n      swap1\n      dup1\n      dup1\n      calldataload\n      swap1\n      0x20\n      add\n      swap1\n      swap3\n      swap2\n      swap1\n      dup1\n      calldataload\n      swap1\n      0x20\n      add\n      swap1\n      swap3\n      swap2\n      swap1\n      dup1\n      calldataload\n      swap1\n      0x20\n      add\n      swap1\n      swap3\n      swap2\n      swap1\n      dup1\n      calldataload\n      swap1\n      0x20\n      add\n      swap1\n      swap3\n      swap2\n      swap1\n      dup1\n      calldataload\n      swap1\n      0x20\n      add\n      swap1\n      swap3\n      swap2\n      swap1\n      dup1\n      calldataload\n      swap1\n      0x20\n      add\n      swap1\n      swap3\n      swap2\n      swap1\n      pop\n      pop\n      pop\n      tag_46\n      jump\t// in\n    tag_44:\n      mload(0x40)\n      dup1\n      dup3\n      dup2\n      mstore\n      0x20\n      add\n      swap2\n      pop\n      pop\n      mload(0x40)\n      dup1\n      swap2\n      sub\n      swap1\n      return\n        /* \"Contracts/BConst.sol\":581:635  uint public constant MIN_BALANCE       = BONE / 10**12 */\n    tag_10:\n      tag_47\n      tag_48\n      jump\t// in\n    tag_47:\n      mload(0x40)\n      dup1\n      dup3\n      dup2\n      mstore\n      0x20\n      add\n      swap2\n      pop\n      pop\n      mload(0x40)\n      dup1\n      swap2\n      sub\n      swap1\n      return\n        /* \"Contracts/BMath.sol\":11078:12341  function calcSingleOutGivenPoolIn(\r... */\n    tag_11:\n      tag_49\n      0x04\n      dup1\n      calldatasize\n      sub\n        /* \"--CODEGEN--\":13:16   */\n      0xc0\n        /* \"--CODEGEN--\":8:11   */\n      dup2\n        /* \"--CODEGEN--\":5:17   */\n      lt\n        /* \"--CODEGEN--\":2:4   */\n      iszero\n      tag_50\n      jumpi\n        /* \"--CODEGEN--\":30:31   */\n      0x00\n        /* \"--CODEGEN--\":27:28   */\n      dup1\n        /* \"--CODEGEN--\":20:32   */\n      revert\n        /* \"--CODEGEN--\":2:4   */\n    tag_50:\n        /* \"Contracts/BMath.sol\":11078:12341  function calcSingleOutGivenPoolIn(\r... */\n      dup2\n      add\n      swap1\n      dup1\n      dup1\n      calldataload\n      swap1\n      0x20\n      add\n      swap1\n      swap3\n      swap2\n      swap1\n      dup1\n      calldataload\n      swap1\n      0x20\n      add\n      swap1\n      swap3\n      swap2\n      swap1\n      dup1\n      calldataload\n      swap1\n      0x20\n      add\n      swap1\n      swap3\n      swap2\n      swap1\n      dup1\n      calldataload\n      swap1\n      0x20\n      add\n      swap1\n      swap3\n      swap2\n      swap1\n      dup1\n      calldataload\n      swap1\n      0x20\n      add\n      swap1\n      swap3\n      swap2\n      swap1\n      dup1\n      calldataload\n      swap1\n      0x20\n      add\n      swap1\n      swap3\n      swap2\n      swap1\n      pop\n      pop\n      pop\n      tag_51\n      jump\t// in\n    tag_49:\n      mload(0x40)\n      dup1\n      dup3\n      dup2\n      mstore\n      0x20\n      add\n      swap2\n      pop\n      pop\n      mload(0x40)\n      dup1\n      swap2\n      sub\n      swap1\n      return\n        /* \"Contracts/BConst.sol\":644:695  uint public constant INIT_POOL_SUPPLY  = BONE * 100 */\n    tag_12:\n      tag_52\n      tag_53\n      jump\t// in\n    tag_52:\n      mload(0x40)\n      dup1\n      dup3\n      dup2\n      mstore\n      0x20\n      add\n      swap2\n      pop\n      pop\n      mload(0x40)\n      dup1\n      swap2\n      sub\n      swap1\n      return\n        /* \"Contracts/BConst.sol\":942:1001  uint public constant MAX_OUT_RATIO     = (BONE / 3) + 1 wei */\n    tag_13:\n      tag_54\n      tag_55\n      jump\t// in\n    tag_54:\n      mload(0x40)\n      dup1\n      dup3\n      dup2\n      mstore\n      0x20\n      add\n      swap2\n      pop\n      pop\n      mload(0x40)\n      dup1\n      swap2\n      sub\n      swap1\n      return\n        /* \"Contracts/BColor.sol\":163:284  function getColor()\r... */\n    tag_14:\n      tag_56\n      tag_57\n      jump\t// in\n    tag_56:\n      mload(0x40)\n      dup1\n      dup3\n      dup2\n      mstore\n      0x20\n      add\n      swap2\n      pop\n      pop\n      mload(0x40)\n      dup1\n      swap2\n      sub\n      swap1\n      return\n        /* \"Contracts/BMath.sol\":1663:2172  function calcSpotPrice(\r... */\n    tag_15:\n      tag_58\n      0x04\n      dup1\n      calldatasize\n      sub\n        /* \"--CODEGEN--\":13:16   */\n      0xa0\n        /* \"--CODEGEN--\":8:11   */\n      dup2\n        /* \"--CODEGEN--\":5:17   */\n      lt\n        /* \"--CODEGEN--\":2:4   */\n      iszero\n      tag_59\n      jumpi\n        /* \"--CODEGEN--\":30:31   */\n      0x00\n        /* \"--CODEGEN--\":27:28   */\n      dup1\n        /* \"--CODEGEN--\":20:32   */\n      revert\n        /* \"--CODEGEN--\":2:4   */\n    tag_59:\n        /* \"Contracts/BMath.sol\":1663:2172  function calcSpotPrice(\r... */\n      dup2\n      add\n      swap1\n      dup1\n      dup1\n      calldataload\n      swap1\n      0x20\n      add\n      swap1\n      swap3\n      swap2\n      swap1\n      dup1\n      calldataload\n      swap1\n      0x20\n      add\n      swap1\n      swap3\n      swap2\n      swap1\n      dup1\n      calldataload\n      swap1\n      0x20\n      add\n      swap1\n      swap3\n      swap2\n      swap1\n      dup1\n      calldataload\n      swap1\n      0x20\n      add\n      swap1\n      swap3\n      swap2\n      swap1\n      dup1\n      calldataload\n      swap1\n      0x20\n      add\n      swap1\n      swap3\n      swap2\n      swap1\n      pop\n      pop\n      pop\n      tag_60\n      jump\t// in\n    tag_58:\n      mload(0x40)\n      dup1\n      dup3\n      dup2\n      mstore\n      0x20\n      add\n      swap2\n      pop\n      pop\n      mload(0x40)\n      dup1\n      swap2\n      sub\n      swap1\n      return\n        /* \"Contracts/BConst.sol\":196:238  uint public constant MAX_BOUND_TOKENS  = 8 */\n    tag_16:\n      tag_61\n      tag_62\n      jump\t// in\n    tag_61:\n      mload(0x40)\n      dup1\n      dup3\n      dup2\n      mstore\n      0x20\n      add\n      swap2\n      pop\n      pop\n      mload(0x40)\n      dup1\n      swap2\n      sub\n      swap1\n      return\n        /* \"Contracts/BConst.sol\":147:189  uint public constant MIN_BOUND_TOKENS  = 2 */\n    tag_17:\n      tag_63\n      tag_64\n      jump\t// in\n    tag_63:\n      mload(0x40)\n      dup1\n      dup3\n      dup2\n      mstore\n      0x20\n      add\n      swap2\n      pop\n      pop\n      mload(0x40)\n      dup1\n      swap2\n      sub\n      swap1\n      return\n        /* \"Contracts/BConst.sol\":704:750  uint public constant MIN_BPOW_BASE     = 1 wei */\n    tag_18:\n      tag_65\n      tag_66\n      jump\t// in\n    tag_65:\n      mload(0x40)\n      dup1\n      dup3\n      dup2\n      mstore\n      0x20\n      add\n      swap2\n      pop\n      pop\n      mload(0x40)\n      dup1\n      swap2\n      sub\n      swap1\n      return\n        /* \"Contracts/BMath.sol\":3190:3873  function calcOutGivenIn(\r... */\n    tag_19:\n      tag_67\n      0x04\n      dup1\n      calldatasize\n      sub\n        /* \"--CODEGEN--\":13:16   */\n      0xc0\n        /* \"--CODEGEN--\":8:11   */\n      dup2\n        /* \"--CODEGEN--\":5:17   */\n      lt\n        /* \"--CODEGEN--\":2:4   */\n      iszero\n      tag_68\n      jumpi\n        /* \"--CODEGEN--\":30:31   */\n      0x00\n        /* \"--CODEGEN--\":27:28   */\n      dup1\n        /* \"--CODEGEN--\":20:32   */\n      revert\n        /* \"--CODEGEN--\":2:4   */\n    tag_68:\n        /* \"Contracts/BMath.sol\":3190:3873  function calcOutGivenIn(\r... */\n      dup2\n      add\n      swap1\n      dup1\n      dup1\n      calldataload\n      swap1\n      0x20\n      add\n      swap1\n      swap3\n      swap2\n      swap1\n      dup1\n      calldataload\n      swap1\n      0x20\n      add\n      swap1\n      swap3\n      swap2\n      swap1\n      dup1\n      calldataload\n      swap1\n      0x20\n      add\n      swap1\n      swap3\n      swap2\n      swap1\n      dup1\n      calldataload\n      swap1\n      0x20\n      add\n      swap1\n      swap3\n      swap2\n      swap1\n      dup1\n      calldataload\n      swap1\n      0x20\n      add\n      swap1\n      swap3\n      swap2\n      swap1\n      dup1\n      calldataload\n      swap1\n      0x20\n      add\n      swap1\n      swap3\n      swap2\n      swap1\n      pop\n      pop\n      pop\n      tag_69\n      jump\t// in\n    tag_67:\n      mload(0x40)\n      dup1\n      dup3\n      dup2\n      mstore\n      0x20\n      add\n      swap2\n      pop\n      pop\n      mload(0x40)\n      dup1\n      swap2\n      sub\n      swap1\n      return\n        /* \"Contracts/BConst.sol\":307:357  uint public constant MAX_FEE           = BONE / 10 */\n    tag_20:\n      tag_70\n      tag_71\n      jump\t// in\n    tag_70:\n      mload(0x40)\n      dup1\n      dup3\n      dup2\n      mstore\n      0x20\n      add\n      swap2\n      pop\n      pop\n      mload(0x40)\n      dup1\n      swap2\n      sub\n      swap1\n      return\n        /* \"Contracts/BConst.sol\":757:816  uint public constant MAX_BPOW_BASE     = (2 * BONE) - 1 wei */\n    tag_21:\n      tag_72\n      tag_73\n      jump\t// in\n    tag_72:\n      mload(0x40)\n      dup1\n      dup3\n      dup2\n      mstore\n      0x20\n      add\n      swap2\n      pop\n      pop\n      mload(0x40)\n      dup1\n      swap2\n      sub\n      swap1\n      return\n        /* \"Contracts/BConst.sol\":91:138  uint public constant BONE              = 10**18 */\n    tag_22:\n      tag_74\n      tag_75\n      jump\t// in\n    tag_74:\n      mload(0x40)\n      dup1\n      dup3\n      dup2\n      mstore\n      0x20\n      add\n      swap2\n      pop\n      pop\n      mload(0x40)\n      dup1\n      swap2\n      sub\n      swap1\n      return\n        /* \"Contracts/BConst.sol\":364:406  uint public constant EXIT_FEE          = 0 */\n    tag_23:\n      tag_76\n      tag_77\n      jump\t// in\n    tag_76:\n      mload(0x40)\n      dup1\n      dup3\n      dup2\n      mstore\n      0x20\n      add\n      swap2\n      pop\n      pop\n      mload(0x40)\n      dup1\n      swap2\n      sub\n      swap1\n      return\n        /* \"Contracts/BConst.sol\":467:517  uint public constant MAX_WEIGHT        = BONE * 50 */\n    tag_24:\n      tag_78\n      tag_79\n      jump\t// in\n    tag_78:\n      mload(0x40)\n      dup1\n      dup3\n      dup2\n      mstore\n      0x20\n      add\n      swap2\n      pop\n      pop\n      mload(0x40)\n      dup1\n      swap2\n      sub\n      swap1\n      return\n        /* \"Contracts/BConst.sol\":886:935  uint public constant MAX_IN_RATIO      = BONE / 2 */\n    tag_25:\n      tag_80\n      tag_81\n      jump\t// in\n    tag_80:\n      mload(0x40)\n      dup1\n      dup3\n      dup2\n      mstore\n      0x20\n      add\n      swap2\n      pop\n      pop\n      mload(0x40)\n      dup1\n      swap2\n      sub\n      swap1\n      return\n        /* \"Contracts/BMath.sol\":4891:5563  function calcInGivenOut(\r... */\n    tag_26:\n      tag_82\n      0x04\n      dup1\n      calldatasize\n      sub\n        /* \"--CODEGEN--\":13:16   */\n      0xc0\n        /* \"--CODEGEN--\":8:11   */\n      dup2\n        /* \"--CODEGEN--\":5:17   */\n      lt\n        /* \"--CODEGEN--\":2:4   */\n      iszero\n      tag_83\n      jumpi\n        /* \"--CODEGEN--\":30:31   */\n      0x00\n        /* \"--CODEGEN--\":27:28   */\n      dup1\n        /* \"--CODEGEN--\":20:32   */\n      revert\n        /* \"--CODEGEN--\":2:4   */\n    tag_83:\n        /* \"Contracts/BMath.sol\":4891:5563  function calcInGivenOut(\r... */\n      dup2\n      add\n      swap1\n      dup1\n      dup1\n      calldataload\n      swap1\n      0x20\n      add\n      swap1\n      swap3\n      swap2\n      swap1\n      dup1\n      calldataload\n      swap1\n      0x20\n      add\n      swap1\n      swap3\n      swap2\n      swap1\n      dup1\n      calldataload\n      swap1\n      0x20\n      add\n      swap1\n      swap3\n      swap2\n      swap1\n      dup1\n      calldataload\n      swap1\n      0x20\n      add\n      swap1\n      swap3\n      swap2\n      swap1\n      dup1\n      calldataload\n      swap1\n      0x20\n      add\n      swap1\n      swap3\n      swap2\n      swap1\n      dup1\n      calldataload\n      swap1\n      0x20\n      add\n      swap1\n      swap3\n      swap2\n      swap1\n      pop\n      pop\n      pop\n      tag_84\n      jump\t// in\n    tag_82:\n      mload(0x40)\n      dup1\n      dup3\n      dup2\n      mstore\n      0x20\n      add\n      swap2\n      pop\n      pop\n      mload(0x40)\n      dup1\n      swap2\n      sub\n      swap1\n      return\n        /* \"Contracts/BConst.sol\":524:574  uint public constant MAX_TOTAL_WEIGHT  = BONE * 50 */\n    tag_31:\n        /* \"Contracts/BConst.sol\":572:574  50 */\n      0x32\n        /* \"Contracts/BConst.sol\":132:138  10**18 */\n      0x0de0b6b3a7640000\n        /* \"Contracts/BConst.sol\":565:574  BONE * 50 */\n      mul\n        /* \"Contracts/BConst.sol\":524:574  uint public constant MAX_TOTAL_WEIGHT  = BONE * 50 */\n      dup2\n      jump\t// out\n        /* \"Contracts/BConst.sol\":823:877  uint public constant BPOW_PRECISION    = BONE / 10**10 */\n    tag_33:\n        /* \"Contracts/BConst.sol\":871:877  10**10 */\n      0x02540be400\n        /* \"Contracts/BConst.sol\":132:138  10**18 */\n      0x0de0b6b3a7640000\n        /* \"Contracts/BConst.sol\":864:877  BONE / 10**10 */\n      dup2\n      tag_85\n      jumpi\n      invalid\n    tag_85:\n      div\n        /* \"Contracts/BConst.sol\":823:877  uint public constant BPOW_PRECISION    = BONE / 10**10 */\n      dup2\n      jump\t// out\n        /* \"Contracts/BConst.sol\":415:460  uint public constant MIN_WEIGHT        = BONE */\n    tag_35:\n        /* \"Contracts/BConst.sol\":132:138  10**18 */\n      0x0de0b6b3a7640000\n        /* \"Contracts/BConst.sol\":415:460  uint public constant MIN_WEIGHT        = BONE */\n      dup2\n      jump\t// out\n        /* \"Contracts/BMath.sol\":8766:9959  function calcSingleInGivenPoolOut(\r... */\n    tag_38:\n        /* \"Contracts/BMath.sol\":9010:9028  uint tokenAmountIn */\n      0x00\n        /* \"Contracts/BMath.sol\":9046:9067  uint normalizedWeight */\n      dup1\n        /* \"Contracts/BMath.sol\":9070:9102  bdiv(tokenWeightIn, totalWeight) */\n      tag_87\n        /* \"Contracts/BMath.sol\":9075:9088  tokenWeightIn */\n      dup8\n        /* \"Contracts/BMath.sol\":9090:9101  totalWeight */\n      dup7\n        /* \"Contracts/BMath.sol\":9070:9074  bdiv */\n      tag_88\n        /* \"Contracts/BMath.sol\":9070:9102  bdiv(tokenWeightIn, totalWeight) */\n      jump\t// in\n    tag_87:\n        /* \"Contracts/BMath.sol\":9046:9102  uint normalizedWeight = bdiv(tokenWeightIn, totalWeight) */\n      swap1\n      pop\n        /* \"Contracts/BMath.sol\":9113:9131  uint newPoolSupply */\n      0x00\n        /* \"Contracts/BMath.sol\":9134:9165  badd(poolSupply, poolAmountOut) */\n      tag_89\n        /* \"Contracts/BMath.sol\":9139:9149  poolSupply */\n      dup8\n        /* \"Contracts/BMath.sol\":9151:9164  poolAmountOut */\n      dup7\n        /* \"Contracts/BMath.sol\":9134:9138  badd */\n      tag_90\n        /* \"Contracts/BMath.sol\":9134:9165  badd(poolSupply, poolAmountOut) */\n      jump\t// in\n    tag_89:\n        /* \"Contracts/BMath.sol\":9113:9165  uint newPoolSupply = badd(poolSupply, poolAmountOut) */\n      swap1\n      pop\n        /* \"Contracts/BMath.sol\":9176:9190  uint poolRatio */\n      0x00\n        /* \"Contracts/BMath.sol\":9193:9224  bdiv(newPoolSupply, poolSupply) */\n      tag_91\n        /* \"Contracts/BMath.sol\":9198:9211  newPoolSupply */\n      dup3\n        /* \"Contracts/BMath.sol\":9213:9223  poolSupply */\n      dup10\n        /* \"Contracts/BMath.sol\":9193:9197  bdiv */\n      tag_88\n        /* \"Contracts/BMath.sol\":9193:9224  bdiv(newPoolSupply, poolSupply) */\n      jump\t// in\n    tag_91:\n        /* \"Contracts/BMath.sol\":9176:9224  uint poolRatio = bdiv(newPoolSupply, poolSupply) */\n      swap1\n      pop\n        /* \"Contracts/BMath.sol\":9302:9310  uint boo */\n      0x00\n        /* \"Contracts/BMath.sol\":9313:9341  bdiv(BONE, normalizedWeight) */\n      tag_92\n        /* \"Contracts/BConst.sol\":132:138  10**18 */\n      0x0de0b6b3a7640000\n        /* \"Contracts/BMath.sol\":9324:9340  normalizedWeight */\n      dup6\n        /* \"Contracts/BMath.sol\":9313:9317  bdiv */\n      tag_88\n        /* \"Contracts/BMath.sol\":9313:9341  bdiv(BONE, normalizedWeight) */\n      jump\t// in\n    tag_92:\n        /* \"Contracts/BMath.sol\":9302:9341  uint boo = bdiv(BONE, normalizedWeight) */\n      swap1\n      pop\n        /* \"Contracts/BMath.sol\":9353:9370  uint tokenInRatio */\n      0x00\n        /* \"Contracts/BMath.sol\":9373:9393  bpow(poolRatio, boo) */\n      tag_93\n        /* \"Contracts/BMath.sol\":9378:9387  poolRatio */\n      dup4\n        /* \"Contracts/BMath.sol\":9389:9392  boo */\n      dup4\n        /* \"Contracts/BMath.sol\":9373:9377  bpow */\n      tag_94\n        /* \"Contracts/BMath.sol\":9373:9393  bpow(poolRatio, boo) */\n      jump\t// in\n    tag_93:\n        /* \"Contracts/BMath.sol\":9353:9393  uint tokenInRatio = bpow(poolRatio, boo) */\n      swap1\n      pop\n        /* \"Contracts/BMath.sol\":9404:9426  uint newTokenBalanceIn */\n      0x00\n        /* \"Contracts/BMath.sol\":9429:9463  bmul(tokenInRatio, tokenBalanceIn) */\n      tag_95\n        /* \"Contracts/BMath.sol\":9434:9446  tokenInRatio */\n      dup3\n        /* \"Contracts/BMath.sol\":9448:9462  tokenBalanceIn */\n      dup15\n        /* \"Contracts/BMath.sol\":9429:9433  bmul */\n      tag_96\n        /* \"Contracts/BMath.sol\":9429:9463  bmul(tokenInRatio, tokenBalanceIn) */\n      jump\t// in\n    tag_95:\n        /* \"Contracts/BMath.sol\":9404:9463  uint newTokenBalanceIn = bmul(tokenInRatio, tokenBalanceIn) */\n      swap1\n      pop\n        /* \"Contracts/BMath.sol\":9474:9500  uint tokenAmountInAfterFee */\n      0x00\n        /* \"Contracts/BMath.sol\":9503:9542  bsub(newTokenBalanceIn, tokenBalanceIn) */\n      tag_97\n        /* \"Contracts/BMath.sol\":9508:9525  newTokenBalanceIn */\n      dup3\n        /* \"Contracts/BMath.sol\":9527:9541  tokenBalanceIn */\n      dup16\n        /* \"Contracts/BMath.sol\":9503:9507  bsub */\n      tag_98\n        /* \"Contracts/BMath.sol\":9503:9542  bsub(newTokenBalanceIn, tokenBalanceIn) */\n      jump\t// in\n    tag_97:\n        /* \"Contracts/BMath.sol\":9474:9542  uint tokenAmountInAfterFee = bsub(newTokenBalanceIn, tokenBalanceIn) */\n      swap1\n      pop\n        /* \"Contracts/BMath.sol\":9795:9803  uint zar */\n      0x00\n        /* \"Contracts/BMath.sol\":9806:9849  bmul(bsub(BONE, normalizedWeight), swapFee) */\n      tag_99\n        /* \"Contracts/BMath.sol\":9811:9839  bsub(BONE, normalizedWeight) */\n      tag_100\n        /* \"Contracts/BConst.sol\":132:138  10**18 */\n      0x0de0b6b3a7640000\n        /* \"Contracts/BMath.sol\":9822:9838  normalizedWeight */\n      dup11\n        /* \"Contracts/BMath.sol\":9811:9815  bsub */\n      tag_98\n        /* \"Contracts/BMath.sol\":9811:9839  bsub(BONE, normalizedWeight) */\n      jump\t// in\n    tag_100:\n        /* \"Contracts/BMath.sol\":9841:9848  swapFee */\n      dup12\n        /* \"Contracts/BMath.sol\":9806:9810  bmul */\n      tag_96\n        /* \"Contracts/BMath.sol\":9806:9849  bmul(bsub(BONE, normalizedWeight), swapFee) */\n      jump\t// in\n    tag_99:\n        /* \"Contracts/BMath.sol\":9795:9849  uint zar = bmul(bsub(BONE, normalizedWeight), swapFee) */\n      swap1\n      pop\n        /* \"Contracts/BMath.sol\":9876:9920  bdiv(tokenAmountInAfterFee, bsub(BONE, zar)) */\n      tag_101\n        /* \"Contracts/BMath.sol\":9881:9902  tokenAmountInAfterFee */\n      dup3\n        /* \"Contracts/BMath.sol\":9904:9919  bsub(BONE, zar) */\n      tag_102\n        /* \"Contracts/BConst.sol\":132:138  10**18 */\n      0x0de0b6b3a7640000\n        /* \"Contracts/BMath.sol\":9915:9918  zar */\n      dup5\n        /* \"Contracts/BMath.sol\":9904:9908  bsub */\n      tag_98\n        /* \"Contracts/BMath.sol\":9904:9919  bsub(BONE, zar) */\n      jump\t// in\n    tag_102:\n        /* \"Contracts/BMath.sol\":9876:9880  bdiv */\n      tag_88\n        /* \"Contracts/BMath.sol\":9876:9920  bdiv(tokenAmountInAfterFee, bsub(BONE, zar)) */\n      jump\t// in\n    tag_101:\n        /* \"Contracts/BMath.sol\":9860:9920  tokenAmountIn = bdiv(tokenAmountInAfterFee, bsub(BONE, zar)) */\n      swap9\n      pop\n        /* \"Contracts/BMath.sol\":9938:9951  tokenAmountIn */\n      dup9\n        /* \"Contracts/BMath.sol\":9931:9951  return tokenAmountIn */\n      swap9\n      pop\n      pop\n      pop\n      pop\n      pop\n      pop\n      pop\n      pop\n      pop\n        /* \"Contracts/BMath.sol\":8766:9959  function calcSingleInGivenPoolOut(\r... */\n      swap7\n      swap6\n      pop\n      pop\n      pop\n      pop\n      pop\n      pop\n      jump\t// out\n        /* \"Contracts/BConst.sol\":247:300  uint public constant MIN_FEE           = BONE / 10**6 */\n    tag_40:\n        /* \"Contracts/BConst.sol\":295:300  10**6 */\n      0x0f4240\n        /* \"Contracts/BConst.sol\":132:138  10**18 */\n      0x0de0b6b3a7640000\n        /* \"Contracts/BConst.sol\":288:300  BONE / 10**6 */\n      dup2\n      tag_103\n      jumpi\n      invalid\n    tag_103:\n      div\n        /* \"Contracts/BConst.sol\":247:300  uint public constant MIN_FEE           = BONE / 10**6 */\n      dup2\n      jump\t// out\n        /* \"Contracts/BMath.sol\":13460:14745  function calcPoolInGivenSingleOut(\r... */\n    tag_43:\n        /* \"Contracts/BMath.sol\":13707:13724  uint poolAmountIn */\n      0x00\n        /* \"Contracts/BMath.sol\":13798:13819  uint normalizedWeight */\n      dup1\n        /* \"Contracts/BMath.sol\":13822:13855  bdiv(tokenWeightOut, totalWeight) */\n      tag_105\n        /* \"Contracts/BMath.sol\":13827:13841  tokenWeightOut */\n      dup8\n        /* \"Contracts/BMath.sol\":13843:13854  totalWeight */\n      dup7\n        /* \"Contracts/BMath.sol\":13822:13826  bdiv */\n      tag_88\n        /* \"Contracts/BMath.sol\":13822:13855  bdiv(tokenWeightOut, totalWeight) */\n      jump\t// in\n    tag_105:\n        /* \"Contracts/BMath.sol\":13798:13855  uint normalizedWeight = bdiv(tokenWeightOut, totalWeight) */\n      swap1\n      pop\n        /* \"Contracts/BMath.sol\":13938:13946  uint zoo */\n      0x00\n        /* \"Contracts/BMath.sol\":13949:13977  bsub(BONE, normalizedWeight) */\n      tag_106\n        /* \"Contracts/BConst.sol\":132:138  10**18 */\n      0x0de0b6b3a7640000\n        /* \"Contracts/BMath.sol\":13960:13976  normalizedWeight */\n      dup4\n        /* \"Contracts/BMath.sol\":13949:13953  bsub */\n      tag_98\n        /* \"Contracts/BMath.sol\":13949:13977  bsub(BONE, normalizedWeight) */\n      jump\t// in\n    tag_106:\n        /* \"Contracts/BMath.sol\":13938:13977  uint zoo = bsub(BONE, normalizedWeight) */\n      swap1\n      pop\n        /* \"Contracts/BMath.sol\":13988:13996  uint zar */\n      0x00\n        /* \"Contracts/BMath.sol\":13999:14017  bmul(zoo, swapFee) */\n      tag_107\n        /* \"Contracts/BMath.sol\":14004:14007  zoo */\n      dup3\n        /* \"Contracts/BMath.sol\":14009:14016  swapFee */\n      dup7\n        /* \"Contracts/BMath.sol\":13999:14003  bmul */\n      tag_96\n        /* \"Contracts/BMath.sol\":13999:14017  bmul(zoo, swapFee) */\n      jump\t// in\n    tag_107:\n        /* \"Contracts/BMath.sol\":13988:14017  uint zar = bmul(zoo, swapFee) */\n      swap1\n      pop\n        /* \"Contracts/BMath.sol\":14029:14061  uint tokenAmountOutBeforeSwapFee */\n      0x00\n        /* \"Contracts/BMath.sol\":14064:14101  bdiv(tokenAmountOut, bsub(BONE, zar)) */\n      tag_108\n        /* \"Contracts/BMath.sol\":14069:14083  tokenAmountOut */\n      dup8\n        /* \"Contracts/BMath.sol\":14085:14100  bsub(BONE, zar) */\n      tag_109\n        /* \"Contracts/BConst.sol\":132:138  10**18 */\n      0x0de0b6b3a7640000\n        /* \"Contracts/BMath.sol\":14096:14099  zar */\n      dup6\n        /* \"Contracts/BMath.sol\":14085:14089  bsub */\n      tag_98\n        /* \"Contracts/BMath.sol\":14085:14100  bsub(BONE, zar) */\n      jump\t// in\n    tag_109:\n        /* \"Contracts/BMath.sol\":14064:14068  bdiv */\n      tag_88\n        /* \"Contracts/BMath.sol\":14064:14101  bdiv(tokenAmountOut, bsub(BONE, zar)) */\n      jump\t// in\n    tag_108:\n        /* \"Contracts/BMath.sol\":14029:14101  uint tokenAmountOutBeforeSwapFee = bdiv(tokenAmountOut, bsub(BONE, zar)) */\n      swap1\n      pop\n        /* \"Contracts/BMath.sol\":14114:14137  uint newTokenBalanceOut */\n      0x00\n        /* \"Contracts/BMath.sol\":14140:14190  bsub(tokenBalanceOut, tokenAmountOutBeforeSwapFee) */\n      tag_110\n        /* \"Contracts/BMath.sol\":14145:14160  tokenBalanceOut */\n      dup13\n        /* \"Contracts/BMath.sol\":14162:14189  tokenAmountOutBeforeSwapFee */\n      dup4\n        /* \"Contracts/BMath.sol\":14140:14144  bsub */\n      tag_98\n        /* \"Contracts/BMath.sol\":14140:14190  bsub(tokenBalanceOut, tokenAmountOutBeforeSwapFee) */\n      jump\t// in\n    tag_110:\n        /* \"Contracts/BMath.sol\":14114:14190  uint newTokenBalanceOut = bsub(tokenBalanceOut, tokenAmountOutBeforeSwapFee) */\n      swap1\n      pop\n        /* \"Contracts/BMath.sol\":14201:14219  uint tokenOutRatio */\n      0x00\n        /* \"Contracts/BMath.sol\":14222:14263  bdiv(newTokenBalanceOut, tokenBalanceOut) */\n      tag_111\n        /* \"Contracts/BMath.sol\":14227:14245  newTokenBalanceOut */\n      dup3\n        /* \"Contracts/BMath.sol\":14247:14262  tokenBalanceOut */\n      dup15\n        /* \"Contracts/BMath.sol\":14222:14226  bdiv */\n      tag_88\n        /* \"Contracts/BMath.sol\":14222:14263  bdiv(newTokenBalanceOut, tokenBalanceOut) */\n      jump\t// in\n    tag_111:\n        /* \"Contracts/BMath.sol\":14201:14263  uint tokenOutRatio = bdiv(newTokenBalanceOut, tokenBalanceOut) */\n      swap1\n      pop\n        /* \"Contracts/BMath.sol\":14343:14357  uint poolRatio */\n      0x00\n        /* \"Contracts/BMath.sol\":14360:14397  bpow(tokenOutRatio, normalizedWeight) */\n      tag_112\n        /* \"Contracts/BMath.sol\":14365:14378  tokenOutRatio */\n      dup3\n        /* \"Contracts/BMath.sol\":14380:14396  normalizedWeight */\n      dup9\n        /* \"Contracts/BMath.sol\":14360:14364  bpow */\n      tag_94\n        /* \"Contracts/BMath.sol\":14360:14397  bpow(tokenOutRatio, normalizedWeight) */\n      jump\t// in\n    tag_112:\n        /* \"Contracts/BMath.sol\":14343:14397  uint poolRatio = bpow(tokenOutRatio, normalizedWeight) */\n      swap1\n      pop\n        /* \"Contracts/BMath.sol\":14408:14426  uint newPoolSupply */\n      0x00\n        /* \"Contracts/BMath.sol\":14429:14456  bmul(poolRatio, poolSupply) */\n      tag_113\n        /* \"Contracts/BMath.sol\":14434:14443  poolRatio */\n      dup3\n        /* \"Contracts/BMath.sol\":14445:14455  poolSupply */\n      dup15\n        /* \"Contracts/BMath.sol\":14429:14433  bmul */\n      tag_96\n        /* \"Contracts/BMath.sol\":14429:14456  bmul(poolRatio, poolSupply) */\n      jump\t// in\n    tag_113:\n        /* \"Contracts/BMath.sol\":14408:14456  uint newPoolSupply = bmul(poolRatio, poolSupply) */\n      swap1\n      pop\n        /* \"Contracts/BMath.sol\":14467:14496  uint poolAmountInAfterExitFee */\n      0x00\n        /* \"Contracts/BMath.sol\":14499:14530  bsub(poolSupply, newPoolSupply) */\n      tag_114\n        /* \"Contracts/BMath.sol\":14504:14514  poolSupply */\n      dup15\n        /* \"Contracts/BMath.sol\":14516:14529  newPoolSupply */\n      dup4\n        /* \"Contracts/BMath.sol\":14499:14503  bsub */\n      tag_98\n        /* \"Contracts/BMath.sol\":14499:14530  bsub(poolSupply, newPoolSupply) */\n      jump\t// in\n    tag_114:\n        /* \"Contracts/BMath.sol\":14467:14530  uint poolAmountInAfterExitFee = bsub(poolSupply, newPoolSupply) */\n      swap1\n      pop\n        /* \"Contracts/BMath.sol\":14655:14707  bdiv(poolAmountInAfterExitFee, bsub(BONE, EXIT_FEE)) */\n      tag_115\n        /* \"Contracts/BMath.sol\":14660:14684  poolAmountInAfterExitFee */\n      dup2\n        /* \"Contracts/BMath.sol\":14686:14706  bsub(BONE, EXIT_FEE) */\n      tag_116\n        /* \"Contracts/BConst.sol\":132:138  10**18 */\n      0x0de0b6b3a7640000\n        /* \"Contracts/BConst.sol\":405:406  0 */\n      0x00\n        /* \"Contracts/BMath.sol\":14686:14690  bsub */\n      tag_98\n        /* \"Contracts/BMath.sol\":14686:14706  bsub(BONE, EXIT_FEE) */\n      jump\t// in\n    tag_116:\n        /* \"Contracts/BMath.sol\":14655:14659  bdiv */\n      tag_88\n        /* \"Contracts/BMath.sol\":14655:14707  bdiv(poolAmountInAfterExitFee, bsub(BONE, EXIT_FEE)) */\n      jump\t// in\n    tag_115:\n        /* \"Contracts/BMath.sol\":14640:14707  poolAmountIn = bdiv(poolAmountInAfterExitFee, bsub(BONE, EXIT_FEE)) */\n      swap10\n      pop\n        /* \"Contracts/BMath.sol\":14725:14737  poolAmountIn */\n      dup10\n        /* \"Contracts/BMath.sol\":14718:14737  return poolAmountIn */\n      swap10\n      pop\n      pop\n      pop\n      pop\n      pop\n      pop\n      pop\n      pop\n      pop\n      pop\n        /* \"Contracts/BMath.sol\":13460:14745  function calcPoolInGivenSingleOut(\r... */\n      swap7\n      swap6\n      pop\n      pop\n      pop\n      pop\n      pop\n      pop\n      jump\t// out\n        /* \"Contracts/BMath.sol\":6581:7748  function calcPoolOutGivenSingleIn(\r... */\n    tag_46:\n        /* \"Contracts/BMath.sol\":6825:6843  uint poolAmountOut */\n      0x00\n        /* \"Contracts/BMath.sol\":7109:7130  uint normalizedWeight */\n      dup1\n        /* \"Contracts/BMath.sol\":7133:7165  bdiv(tokenWeightIn, totalWeight) */\n      tag_118\n        /* \"Contracts/BMath.sol\":7138:7151  tokenWeightIn */\n      dup8\n        /* \"Contracts/BMath.sol\":7153:7164  totalWeight */\n      dup7\n        /* \"Contracts/BMath.sol\":7133:7137  bdiv */\n      tag_88\n        /* \"Contracts/BMath.sol\":7133:7165  bdiv(tokenWeightIn, totalWeight) */\n      jump\t// in\n    tag_118:\n        /* \"Contracts/BMath.sol\":7109:7165  uint normalizedWeight = bdiv(tokenWeightIn, totalWeight) */\n      swap1\n      pop\n        /* \"Contracts/BMath.sol\":7176:7184  uint zaz */\n      0x00\n        /* \"Contracts/BMath.sol\":7187:7230  bmul(bsub(BONE, normalizedWeight), swapFee) */\n      tag_119\n        /* \"Contracts/BMath.sol\":7192:7220  bsub(BONE, normalizedWeight) */\n      tag_120\n        /* \"Contracts/BConst.sol\":132:138  10**18 */\n      0x0de0b6b3a7640000\n        /* \"Contracts/BMath.sol\":7203:7219  normalizedWeight */\n      dup5\n        /* \"Contracts/BMath.sol\":7192:7196  bsub */\n      tag_98\n        /* \"Contracts/BMath.sol\":7192:7220  bsub(BONE, normalizedWeight) */\n      jump\t// in\n    tag_120:\n        /* \"Contracts/BMath.sol\":7222:7229  swapFee */\n      dup6\n        /* \"Contracts/BMath.sol\":7187:7191  bmul */\n      tag_96\n        /* \"Contracts/BMath.sol\":7187:7230  bmul(bsub(BONE, normalizedWeight), swapFee) */\n      jump\t// in\n    tag_119:\n        /* \"Contracts/BMath.sol\":7176:7230  uint zaz = bmul(bsub(BONE, normalizedWeight), swapFee) */\n      swap1\n      pop\n        /* \"Contracts/BMath.sol\":7242:7268  uint tokenAmountInAfterFee */\n      0x00\n        /* \"Contracts/BMath.sol\":7271:7307  bmul(tokenAmountIn, bsub(BONE, zaz)) */\n      tag_121\n        /* \"Contracts/BMath.sol\":7276:7289  tokenAmountIn */\n      dup7\n        /* \"Contracts/BMath.sol\":7291:7306  bsub(BONE, zaz) */\n      tag_122\n        /* \"Contracts/BConst.sol\":132:138  10**18 */\n      0x0de0b6b3a7640000\n        /* \"Contracts/BMath.sol\":7302:7305  zaz */\n      dup6\n        /* \"Contracts/BMath.sol\":7291:7295  bsub */\n      tag_98\n        /* \"Contracts/BMath.sol\":7291:7306  bsub(BONE, zaz) */\n      jump\t// in\n    tag_122:\n        /* \"Contracts/BMath.sol\":7271:7275  bmul */\n      tag_96\n        /* \"Contracts/BMath.sol\":7271:7307  bmul(tokenAmountIn, bsub(BONE, zaz)) */\n      jump\t// in\n    tag_121:\n        /* \"Contracts/BMath.sol\":7242:7307  uint tokenAmountInAfterFee = bmul(tokenAmountIn, bsub(BONE, zaz)) */\n      swap1\n      pop\n        /* \"Contracts/BMath.sol\":7320:7342  uint newTokenBalanceIn */\n      0x00\n        /* \"Contracts/BMath.sol\":7345:7388  badd(tokenBalanceIn, tokenAmountInAfterFee) */\n      tag_123\n        /* \"Contracts/BMath.sol\":7350:7364  tokenBalanceIn */\n      dup12\n        /* \"Contracts/BMath.sol\":7366:7387  tokenAmountInAfterFee */\n      dup4\n        /* \"Contracts/BMath.sol\":7345:7349  badd */\n      tag_90\n        /* \"Contracts/BMath.sol\":7345:7388  badd(tokenBalanceIn, tokenAmountInAfterFee) */\n      jump\t// in\n    tag_123:\n        /* \"Contracts/BMath.sol\":7320:7388  uint newTokenBalanceIn = badd(tokenBalanceIn, tokenAmountInAfterFee) */\n      swap1\n      pop\n        /* \"Contracts/BMath.sol\":7399:7416  uint tokenInRatio */\n      0x00\n        /* \"Contracts/BMath.sol\":7419:7458  bdiv(newTokenBalanceIn, tokenBalanceIn) */\n      tag_124\n        /* \"Contracts/BMath.sol\":7424:7441  newTokenBalanceIn */\n      dup3\n        /* \"Contracts/BMath.sol\":7443:7457  tokenBalanceIn */\n      dup14\n        /* \"Contracts/BMath.sol\":7419:7423  bdiv */\n      tag_88\n        /* \"Contracts/BMath.sol\":7419:7458  bdiv(newTokenBalanceIn, tokenBalanceIn) */\n      jump\t// in\n    tag_124:\n        /* \"Contracts/BMath.sol\":7399:7458  uint tokenInRatio = bdiv(newTokenBalanceIn, tokenBalanceIn) */\n      swap1\n      pop\n        /* \"Contracts/BMath.sol\":7539:7553  uint poolRatio */\n      0x00\n        /* \"Contracts/BMath.sol\":7556:7592  bpow(tokenInRatio, normalizedWeight) */\n      tag_125\n        /* \"Contracts/BMath.sol\":7561:7573  tokenInRatio */\n      dup3\n        /* \"Contracts/BMath.sol\":7575:7591  normalizedWeight */\n      dup8\n        /* \"Contracts/BMath.sol\":7556:7560  bpow */\n      tag_94\n        /* \"Contracts/BMath.sol\":7556:7592  bpow(tokenInRatio, normalizedWeight) */\n      jump\t// in\n    tag_125:\n        /* \"Contracts/BMath.sol\":7539:7592  uint poolRatio = bpow(tokenInRatio, normalizedWeight) */\n      swap1\n      pop\n        /* \"Contracts/BMath.sol\":7603:7621  uint newPoolSupply */\n      0x00\n        /* \"Contracts/BMath.sol\":7624:7651  bmul(poolRatio, poolSupply) */\n      tag_126\n        /* \"Contracts/BMath.sol\":7629:7638  poolRatio */\n      dup3\n        /* \"Contracts/BMath.sol\":7640:7650  poolSupply */\n      dup14\n        /* \"Contracts/BMath.sol\":7624:7628  bmul */\n      tag_96\n        /* \"Contracts/BMath.sol\":7624:7651  bmul(poolRatio, poolSupply) */\n      jump\t// in\n    tag_126:\n        /* \"Contracts/BMath.sol\":7603:7651  uint newPoolSupply = bmul(poolRatio, poolSupply) */\n      swap1\n      pop\n        /* \"Contracts/BMath.sol\":7678:7709  bsub(newPoolSupply, poolSupply) */\n      tag_127\n        /* \"Contracts/BMath.sol\":7683:7696  newPoolSupply */\n      dup2\n        /* \"Contracts/BMath.sol\":7698:7708  poolSupply */\n      dup14\n        /* \"Contracts/BMath.sol\":7678:7682  bsub */\n      tag_98\n        /* \"Contracts/BMath.sol\":7678:7709  bsub(newPoolSupply, poolSupply) */\n      jump\t// in\n    tag_127:\n        /* \"Contracts/BMath.sol\":7662:7709  poolAmountOut = bsub(newPoolSupply, poolSupply) */\n      swap8\n      pop\n        /* \"Contracts/BMath.sol\":7727:7740  poolAmountOut */\n      dup8\n        /* \"Contracts/BMath.sol\":7720:7740  return poolAmountOut */\n      swap8\n      pop\n      pop\n      pop\n      pop\n      pop\n      pop\n      pop\n      pop\n        /* \"Contracts/BMath.sol\":6581:7748  function calcPoolOutGivenSingleIn(\r... */\n      swap7\n      swap6\n      pop\n      pop\n      pop\n      pop\n      pop\n      pop\n      jump\t// out\n        /* \"Contracts/BConst.sol\":581:635  uint public constant MIN_BALANCE       = BONE / 10**12 */\n    tag_48:\n        /* \"Contracts/BConst.sol\":629:635  10**12 */\n      0xe8d4a51000\n        /* \"Contracts/BConst.sol\":132:138  10**18 */\n      0x0de0b6b3a7640000\n        /* \"Contracts/BConst.sol\":622:635  BONE / 10**12 */\n      dup2\n      tag_128\n      jumpi\n      invalid\n    tag_128:\n      div\n        /* \"Contracts/BConst.sol\":581:635  uint public constant MIN_BALANCE       = BONE / 10**12 */\n      dup2\n      jump\t// out\n        /* \"Contracts/BMath.sol\":11078:12341  function calcSingleOutGivenPoolIn(\r... */\n    tag_51:\n        /* \"Contracts/BMath.sol\":11323:11342  uint tokenAmountOut */\n      0x00\n        /* \"Contracts/BMath.sol\":11360:11381  uint normalizedWeight */\n      dup1\n        /* \"Contracts/BMath.sol\":11384:11417  bdiv(tokenWeightOut, totalWeight) */\n      tag_130\n        /* \"Contracts/BMath.sol\":11389:11403  tokenWeightOut */\n      dup8\n        /* \"Contracts/BMath.sol\":11405:11416  totalWeight */\n      dup7\n        /* \"Contracts/BMath.sol\":11384:11388  bdiv */\n      tag_88\n        /* \"Contracts/BMath.sol\":11384:11417  bdiv(tokenWeightOut, totalWeight) */\n      jump\t// in\n    tag_130:\n        /* \"Contracts/BMath.sol\":11360:11417  uint normalizedWeight = bdiv(tokenWeightOut, totalWeight) */\n      swap1\n      pop\n        /* \"Contracts/BMath.sol\":11525:11554  uint poolAmountInAfterExitFee */\n      0x00\n        /* \"Contracts/BMath.sol\":11557:11597  bmul(poolAmountIn, bsub(BONE, EXIT_FEE)) */\n      tag_131\n        /* \"Contracts/BMath.sol\":11562:11574  poolAmountIn */\n      dup6\n        /* \"Contracts/BMath.sol\":11576:11596  bsub(BONE, EXIT_FEE) */\n      tag_132\n        /* \"Contracts/BConst.sol\":132:138  10**18 */\n      0x0de0b6b3a7640000\n        /* \"Contracts/BConst.sol\":405:406  0 */\n      0x00\n        /* \"Contracts/BMath.sol\":11576:11580  bsub */\n      tag_98\n        /* \"Contracts/BMath.sol\":11576:11596  bsub(BONE, EXIT_FEE) */\n      jump\t// in\n    tag_132:\n        /* \"Contracts/BMath.sol\":11557:11561  bmul */\n      tag_96\n        /* \"Contracts/BMath.sol\":11557:11597  bmul(poolAmountIn, bsub(BONE, EXIT_FEE)) */\n      jump\t// in\n    tag_131:\n        /* \"Contracts/BMath.sol\":11525:11597  uint poolAmountInAfterExitFee = bmul(poolAmountIn, bsub(BONE, EXIT_FEE)) */\n      swap1\n      pop\n        /* \"Contracts/BMath.sol\":11608:11626  uint newPoolSupply */\n      0x00\n        /* \"Contracts/BMath.sol\":11629:11671  bsub(poolSupply, poolAmountInAfterExitFee) */\n      tag_133\n        /* \"Contracts/BMath.sol\":11634:11644  poolSupply */\n      dup9\n        /* \"Contracts/BMath.sol\":11646:11670  poolAmountInAfterExitFee */\n      dup4\n        /* \"Contracts/BMath.sol\":11629:11633  bsub */\n      tag_98\n        /* \"Contracts/BMath.sol\":11629:11671  bsub(poolSupply, poolAmountInAfterExitFee) */\n      jump\t// in\n    tag_133:\n        /* \"Contracts/BMath.sol\":11608:11671  uint newPoolSupply = bsub(poolSupply, poolAmountInAfterExitFee) */\n      swap1\n      pop\n        /* \"Contracts/BMath.sol\":11682:11696  uint poolRatio */\n      0x00\n        /* \"Contracts/BMath.sol\":11699:11730  bdiv(newPoolSupply, poolSupply) */\n      tag_134\n        /* \"Contracts/BMath.sol\":11704:11717  newPoolSupply */\n      dup3\n        /* \"Contracts/BMath.sol\":11719:11729  poolSupply */\n      dup11\n        /* \"Contracts/BMath.sol\":11699:11703  bdiv */\n      tag_88\n        /* \"Contracts/BMath.sol\":11699:11730  bdiv(newPoolSupply, poolSupply) */\n      jump\t// in\n    tag_134:\n        /* \"Contracts/BMath.sol\":11682:11730  uint poolRatio = bdiv(newPoolSupply, poolSupply) */\n      swap1\n      pop\n        /* \"Contracts/BMath.sol\":11803:11821  uint tokenOutRatio */\n      0x00\n        /* \"Contracts/BMath.sol\":11824:11869  bpow(poolRatio, bdiv(BONE, normalizedWeight)) */\n      tag_135\n        /* \"Contracts/BMath.sol\":11829:11838  poolRatio */\n      dup3\n        /* \"Contracts/BMath.sol\":11840:11868  bdiv(BONE, normalizedWeight) */\n      tag_136\n        /* \"Contracts/BConst.sol\":132:138  10**18 */\n      0x0de0b6b3a7640000\n        /* \"Contracts/BMath.sol\":11851:11867  normalizedWeight */\n      dup9\n        /* \"Contracts/BMath.sol\":11840:11844  bdiv */\n      tag_88\n        /* \"Contracts/BMath.sol\":11840:11868  bdiv(BONE, normalizedWeight) */\n      jump\t// in\n    tag_136:\n        /* \"Contracts/BMath.sol\":11824:11828  bpow */\n      tag_94\n        /* \"Contracts/BMath.sol\":11824:11869  bpow(poolRatio, bdiv(BONE, normalizedWeight)) */\n      jump\t// in\n    tag_135:\n        /* \"Contracts/BMath.sol\":11803:11869  uint tokenOutRatio = bpow(poolRatio, bdiv(BONE, normalizedWeight)) */\n      swap1\n      pop\n        /* \"Contracts/BMath.sol\":11880:11903  uint newTokenBalanceOut */\n      0x00\n        /* \"Contracts/BMath.sol\":11906:11942  bmul(tokenOutRatio, tokenBalanceOut) */\n      tag_137\n        /* \"Contracts/BMath.sol\":11911:11924  tokenOutRatio */\n      dup3\n        /* \"Contracts/BMath.sol\":11926:11941  tokenBalanceOut */\n      dup15\n        /* \"Contracts/BMath.sol\":11906:11910  bmul */\n      tag_96\n        /* \"Contracts/BMath.sol\":11906:11942  bmul(tokenOutRatio, tokenBalanceOut) */\n      jump\t// in\n    tag_137:\n        /* \"Contracts/BMath.sol\":11880:11942  uint newTokenBalanceOut = bmul(tokenOutRatio, tokenBalanceOut) */\n      swap1\n      pop\n        /* \"Contracts/BMath.sol\":11955:11987  uint tokenAmountOutBeforeSwapFee */\n      0x00\n        /* \"Contracts/BMath.sol\":11990:12031  bsub(tokenBalanceOut, newTokenBalanceOut) */\n      tag_138\n        /* \"Contracts/BMath.sol\":11995:12010  tokenBalanceOut */\n      dup15\n        /* \"Contracts/BMath.sol\":12012:12030  newTokenBalanceOut */\n      dup4\n        /* \"Contracts/BMath.sol\":11990:11994  bsub */\n      tag_98\n        /* \"Contracts/BMath.sol\":11990:12031  bsub(tokenBalanceOut, newTokenBalanceOut) */\n      jump\t// in\n    tag_138:\n        /* \"Contracts/BMath.sol\":11955:12031  uint tokenAmountOutBeforeSwapFee = bsub(tokenBalanceOut, newTokenBalanceOut) */\n      swap1\n      pop\n        /* \"Contracts/BMath.sol\":12168:12176  uint zaz */\n      0x00\n        /* \"Contracts/BMath.sol\":12179:12222  bmul(bsub(BONE, normalizedWeight), swapFee) */\n      tag_139\n        /* \"Contracts/BMath.sol\":12184:12212  bsub(BONE, normalizedWeight) */\n      tag_140\n        /* \"Contracts/BConst.sol\":132:138  10**18 */\n      0x0de0b6b3a7640000\n        /* \"Contracts/BMath.sol\":12195:12211  normalizedWeight */\n      dup11\n        /* \"Contracts/BMath.sol\":12184:12188  bsub */\n      tag_98\n        /* \"Contracts/BMath.sol\":12184:12212  bsub(BONE, normalizedWeight) */\n      jump\t// in\n    tag_140:\n        /* \"Contracts/BMath.sol\":12214:12221  swapFee */\n      dup12\n        /* \"Contracts/BMath.sol\":12179:12183  bmul */\n      tag_96\n        /* \"Contracts/BMath.sol\":12179:12222  bmul(bsub(BONE, normalizedWeight), swapFee) */\n      jump\t// in\n    tag_139:\n        /* \"Contracts/BMath.sol\":12168:12222  uint zaz = bmul(bsub(BONE, normalizedWeight), swapFee) */\n      swap1\n      pop\n        /* \"Contracts/BMath.sol\":12251:12301  bmul(tokenAmountOutBeforeSwapFee, bsub(BONE, zaz)) */\n      tag_141\n        /* \"Contracts/BMath.sol\":12256:12283  tokenAmountOutBeforeSwapFee */\n      dup3\n        /* \"Contracts/BMath.sol\":12285:12300  bsub(BONE, zaz) */\n      tag_142\n        /* \"Contracts/BConst.sol\":132:138  10**18 */\n      0x0de0b6b3a7640000\n        /* \"Contracts/BMath.sol\":12296:12299  zaz */\n      dup5\n        /* \"Contracts/BMath.sol\":12285:12289  bsub */\n      tag_98\n        /* \"Contracts/BMath.sol\":12285:12300  bsub(BONE, zaz) */\n      jump\t// in\n    tag_142:\n        /* \"Contracts/BMath.sol\":12251:12255  bmul */\n      tag_96\n        /* \"Contracts/BMath.sol\":12251:12301  bmul(tokenAmountOutBeforeSwapFee, bsub(BONE, zaz)) */\n      jump\t// in\n    tag_141:\n        /* \"Contracts/BMath.sol\":12234:12301  tokenAmountOut = bmul(tokenAmountOutBeforeSwapFee, bsub(BONE, zaz)) */\n      swap9\n      pop\n        /* \"Contracts/BMath.sol\":12319:12333  tokenAmountOut */\n      dup9\n        /* \"Contracts/BMath.sol\":12312:12333  return tokenAmountOut */\n      swap9\n      pop\n      pop\n      pop\n      pop\n      pop\n      pop\n      pop\n      pop\n      pop\n        /* \"Contracts/BMath.sol\":11078:12341  function calcSingleOutGivenPoolIn(\r... */\n      swap7\n      swap6\n      pop\n      pop\n      pop\n      pop\n      pop\n      pop\n      jump\t// out\n        /* \"Contracts/BConst.sol\":644:695  uint public constant INIT_POOL_SUPPLY  = BONE * 100 */\n    tag_53:\n        /* \"Contracts/BConst.sol\":692:695  100 */\n      0x64\n        /* \"Contracts/BConst.sol\":132:138  10**18 */\n      0x0de0b6b3a7640000\n        /* \"Contracts/BConst.sol\":685:695  BONE * 100 */\n      mul\n        /* \"Contracts/BConst.sol\":644:695  uint public constant INIT_POOL_SUPPLY  = BONE * 100 */\n      dup2\n      jump\t// out\n        /* \"Contracts/BConst.sol\":942:1001  uint public constant MAX_OUT_RATIO     = (BONE / 3) + 1 wei */\n    tag_55:\n        /* \"Contracts/BConst.sol\":996:1001  1 wei */\n      0x01\n        /* \"Contracts/BConst.sol\":991:992  3 */\n      0x03\n        /* \"Contracts/BConst.sol\":132:138  10**18 */\n      0x0de0b6b3a7640000\n        /* \"Contracts/BConst.sol\":984:992  BONE / 3 */\n      dup2\n      tag_143\n      jumpi\n      invalid\n    tag_143:\n      div\n        /* \"Contracts/BConst.sol\":983:1001  (BONE / 3) + 1 wei */\n      add\n        /* \"Contracts/BConst.sol\":942:1001  uint public constant MAX_OUT_RATIO     = (BONE / 3) + 1 wei */\n      dup2\n      jump\t// out\n        /* \"Contracts/BColor.sol\":163:284  function getColor()\r... */\n    tag_57:\n        /* \"Contracts/BColor.sol\":224:231  bytes32 */\n      0x00\n        /* \"Contracts/BColor.sol\":255:272  bytes32(\"BRONZE\") */\n      0x42524f4e5a450000000000000000000000000000000000000000000000000000\n        /* \"Contracts/BColor.sol\":248:272  return bytes32(\"BRONZE\") */\n      swap1\n      pop\n        /* \"Contracts/BColor.sol\":163:284  function getColor()\r... */\n      swap1\n      jump\t// out\n        /* \"Contracts/BMath.sol\":1663:2172  function calcSpotPrice(\r... */\n    tag_60:\n        /* \"Contracts/BMath.sol\":1875:1889  uint spotPrice */\n      0x00\n        /* \"Contracts/BMath.sol\":1907:1917  uint numer */\n      dup1\n        /* \"Contracts/BMath.sol\":1920:1955  bdiv(tokenBalanceIn, tokenWeightIn) */\n      tag_146\n        /* \"Contracts/BMath.sol\":1925:1939  tokenBalanceIn */\n      dup8\n        /* \"Contracts/BMath.sol\":1941:1954  tokenWeightIn */\n      dup8\n        /* \"Contracts/BMath.sol\":1920:1924  bdiv */\n      tag_88\n        /* \"Contracts/BMath.sol\":1920:1955  bdiv(tokenBalanceIn, tokenWeightIn) */\n      jump\t// in\n    tag_146:\n        /* \"Contracts/BMath.sol\":1907:1955  uint numer = bdiv(tokenBalanceIn, tokenWeightIn) */\n      swap1\n      pop\n        /* \"Contracts/BMath.sol\":1966:1976  uint denom */\n      0x00\n        /* \"Contracts/BMath.sol\":1979:2016  bdiv(tokenBalanceOut, tokenWeightOut) */\n      tag_147\n        /* \"Contracts/BMath.sol\":1984:1999  tokenBalanceOut */\n      dup7\n        /* \"Contracts/BMath.sol\":2001:2015  tokenWeightOut */\n      dup7\n        /* \"Contracts/BMath.sol\":1979:1983  bdiv */\n      tag_88\n        /* \"Contracts/BMath.sol\":1979:2016  bdiv(tokenBalanceOut, tokenWeightOut) */\n      jump\t// in\n    tag_147:\n        /* \"Contracts/BMath.sol\":1966:2016  uint denom = bdiv(tokenBalanceOut, tokenWeightOut) */\n      swap1\n      pop\n        /* \"Contracts/BMath.sol\":2027:2037  uint ratio */\n      0x00\n        /* \"Contracts/BMath.sol\":2040:2058  bdiv(numer, denom) */\n      tag_148\n        /* \"Contracts/BMath.sol\":2045:2050  numer */\n      dup4\n        /* \"Contracts/BMath.sol\":2052:2057  denom */\n      dup4\n        /* \"Contracts/BMath.sol\":2040:2044  bdiv */\n      tag_88\n        /* \"Contracts/BMath.sol\":2040:2058  bdiv(numer, denom) */\n      jump\t// in\n    tag_148:\n        /* \"Contracts/BMath.sol\":2027:2058  uint ratio = bdiv(numer, denom) */\n      swap1\n      pop\n        /* \"Contracts/BMath.sol\":2069:2079  uint scale */\n      0x00\n        /* \"Contracts/BMath.sol\":2082:2113  bdiv(BONE, bsub(BONE, swapFee)) */\n      tag_149\n        /* \"Contracts/BConst.sol\":132:138  10**18 */\n      0x0de0b6b3a7640000\n        /* \"Contracts/BMath.sol\":2093:2112  bsub(BONE, swapFee) */\n      tag_150\n        /* \"Contracts/BConst.sol\":132:138  10**18 */\n      0x0de0b6b3a7640000\n        /* \"Contracts/BMath.sol\":2104:2111  swapFee */\n      dup10\n        /* \"Contracts/BMath.sol\":2093:2097  bsub */\n      tag_98\n        /* \"Contracts/BMath.sol\":2093:2112  bsub(BONE, swapFee) */\n      jump\t// in\n    tag_150:\n        /* \"Contracts/BMath.sol\":2082:2086  bdiv */\n      tag_88\n        /* \"Contracts/BMath.sol\":2082:2113  bdiv(BONE, bsub(BONE, swapFee)) */\n      jump\t// in\n    tag_149:\n        /* \"Contracts/BMath.sol\":2069:2113  uint scale = bdiv(BONE, bsub(BONE, swapFee)) */\n      swap1\n      pop\n        /* \"Contracts/BMath.sol\":2145:2163  bmul(ratio, scale) */\n      tag_151\n        /* \"Contracts/BMath.sol\":2150:2155  ratio */\n      dup3\n        /* \"Contracts/BMath.sol\":2157:2162  scale */\n      dup3\n        /* \"Contracts/BMath.sol\":2145:2149  bmul */\n      tag_96\n        /* \"Contracts/BMath.sol\":2145:2163  bmul(ratio, scale) */\n      jump\t// in\n    tag_151:\n        /* \"Contracts/BMath.sol\":2133:2163  spotPrice = bmul(ratio, scale) */\n      swap5\n      pop\n      dup5\n        /* \"Contracts/BMath.sol\":2124:2164  return  (spotPrice = bmul(ratio, scale)) */\n      swap5\n      pop\n      pop\n      pop\n      pop\n      pop\n        /* \"Contracts/BMath.sol\":1663:2172  function calcSpotPrice(\r... */\n      swap6\n      swap5\n      pop\n      pop\n      pop\n      pop\n      pop\n      jump\t// out\n        /* \"Contracts/BConst.sol\":196:238  uint public constant MAX_BOUND_TOKENS  = 8 */\n    tag_62:\n        /* \"Contracts/BConst.sol\":237:238  8 */\n      0x08\n        /* \"Contracts/BConst.sol\":196:238  uint public constant MAX_BOUND_TOKENS  = 8 */\n      dup2\n      jump\t// out\n        /* \"Contracts/BConst.sol\":147:189  uint public constant MIN_BOUND_TOKENS  = 2 */\n    tag_64:\n        /* \"Contracts/BConst.sol\":188:189  2 */\n      0x02\n        /* \"Contracts/BConst.sol\":147:189  uint public constant MIN_BOUND_TOKENS  = 2 */\n      dup2\n      jump\t// out\n        /* \"Contracts/BConst.sol\":704:750  uint public constant MIN_BPOW_BASE     = 1 wei */\n    tag_66:\n        /* \"Contracts/BConst.sol\":745:750  1 wei */\n      0x01\n        /* \"Contracts/BConst.sol\":704:750  uint public constant MIN_BPOW_BASE     = 1 wei */\n      dup2\n      jump\t// out\n        /* \"Contracts/BMath.sol\":3190:3873  function calcOutGivenIn(\r... */\n    tag_69:\n        /* \"Contracts/BMath.sol\":3432:3451  uint tokenAmountOut */\n      0x00\n        /* \"Contracts/BMath.sol\":3469:3485  uint weightRatio */\n      dup1\n        /* \"Contracts/BMath.sol\":3488:3523  bdiv(tokenWeightIn, tokenWeightOut) */\n      tag_153\n        /* \"Contracts/BMath.sol\":3493:3506  tokenWeightIn */\n      dup8\n        /* \"Contracts/BMath.sol\":3508:3522  tokenWeightOut */\n      dup7\n        /* \"Contracts/BMath.sol\":3488:3492  bdiv */\n      tag_88\n        /* \"Contracts/BMath.sol\":3488:3523  bdiv(tokenWeightIn, tokenWeightOut) */\n      jump\t// in\n    tag_153:\n        /* \"Contracts/BMath.sol\":3469:3523  uint weightRatio = bdiv(tokenWeightIn, tokenWeightOut) */\n      swap1\n      pop\n        /* \"Contracts/BMath.sol\":3534:3549  uint adjustedIn */\n      0x00\n        /* \"Contracts/BMath.sol\":3552:3571  bsub(BONE, swapFee) */\n      tag_154\n        /* \"Contracts/BConst.sol\":132:138  10**18 */\n      0x0de0b6b3a7640000\n        /* \"Contracts/BMath.sol\":3563:3570  swapFee */\n      dup6\n        /* \"Contracts/BMath.sol\":3552:3556  bsub */\n      tag_98\n        /* \"Contracts/BMath.sol\":3552:3571  bsub(BONE, swapFee) */\n      jump\t// in\n    tag_154:\n        /* \"Contracts/BMath.sol\":3534:3571  uint adjustedIn = bsub(BONE, swapFee) */\n      swap1\n      pop\n        /* \"Contracts/BMath.sol\":3595:3626  bmul(tokenAmountIn, adjustedIn) */\n      tag_155\n        /* \"Contracts/BMath.sol\":3600:3613  tokenAmountIn */\n      dup6\n        /* \"Contracts/BMath.sol\":3615:3625  adjustedIn */\n      dup3\n        /* \"Contracts/BMath.sol\":3595:3599  bmul */\n      tag_96\n        /* \"Contracts/BMath.sol\":3595:3626  bmul(tokenAmountIn, adjustedIn) */\n      jump\t// in\n    tag_155:\n        /* \"Contracts/BMath.sol\":3582:3626  adjustedIn = bmul(tokenAmountIn, adjustedIn) */\n      swap1\n      pop\n        /* \"Contracts/BMath.sol\":3637:3643  uint y */\n      0x00\n        /* \"Contracts/BMath.sol\":3646:3700  bdiv(tokenBalanceIn, badd(tokenBalanceIn, adjustedIn)) */\n      tag_156\n        /* \"Contracts/BMath.sol\":3651:3665  tokenBalanceIn */\n      dup11\n        /* \"Contracts/BMath.sol\":3667:3699  badd(tokenBalanceIn, adjustedIn) */\n      tag_157\n        /* \"Contracts/BMath.sol\":3672:3686  tokenBalanceIn */\n      dup13\n        /* \"Contracts/BMath.sol\":3688:3698  adjustedIn */\n      dup6\n        /* \"Contracts/BMath.sol\":3667:3671  badd */\n      tag_90\n        /* \"Contracts/BMath.sol\":3667:3699  badd(tokenBalanceIn, adjustedIn) */\n      jump\t// in\n    tag_157:\n        /* \"Contracts/BMath.sol\":3646:3650  bdiv */\n      tag_88\n        /* \"Contracts/BMath.sol\":3646:3700  bdiv(tokenBalanceIn, badd(tokenBalanceIn, adjustedIn)) */\n      jump\t// in\n    tag_156:\n        /* \"Contracts/BMath.sol\":3637:3700  uint y = bdiv(tokenBalanceIn, badd(tokenBalanceIn, adjustedIn)) */\n      swap1\n      pop\n        /* \"Contracts/BMath.sol\":3711:3719  uint foo */\n      0x00\n        /* \"Contracts/BMath.sol\":3722:3742  bpow(y, weightRatio) */\n      tag_158\n        /* \"Contracts/BMath.sol\":3727:3728  y */\n      dup3\n        /* \"Contracts/BMath.sol\":3730:3741  weightRatio */\n      dup6\n        /* \"Contracts/BMath.sol\":3722:3726  bpow */\n      tag_94\n        /* \"Contracts/BMath.sol\":3722:3742  bpow(y, weightRatio) */\n      jump\t// in\n    tag_158:\n        /* \"Contracts/BMath.sol\":3711:3742  uint foo = bpow(y, weightRatio) */\n      swap1\n      pop\n        /* \"Contracts/BMath.sol\":3753:3761  uint bar */\n      0x00\n        /* \"Contracts/BMath.sol\":3764:3779  bsub(BONE, foo) */\n      tag_159\n        /* \"Contracts/BConst.sol\":132:138  10**18 */\n      0x0de0b6b3a7640000\n        /* \"Contracts/BMath.sol\":3775:3778  foo */\n      dup4\n        /* \"Contracts/BMath.sol\":3764:3768  bsub */\n      tag_98\n        /* \"Contracts/BMath.sol\":3764:3779  bsub(BONE, foo) */\n      jump\t// in\n    tag_159:\n        /* \"Contracts/BMath.sol\":3753:3779  uint bar = bsub(BONE, foo) */\n      swap1\n      pop\n        /* \"Contracts/BMath.sol\":3807:3833  bmul(tokenBalanceOut, bar) */\n      tag_160\n        /* \"Contracts/BMath.sol\":3812:3827  tokenBalanceOut */\n      dup11\n        /* \"Contracts/BMath.sol\":3829:3832  bar */\n      dup3\n        /* \"Contracts/BMath.sol\":3807:3811  bmul */\n      tag_96\n        /* \"Contracts/BMath.sol\":3807:3833  bmul(tokenBalanceOut, bar) */\n      jump\t// in\n    tag_160:\n        /* \"Contracts/BMath.sol\":3790:3833  tokenAmountOut = bmul(tokenBalanceOut, bar) */\n      swap6\n      pop\n        /* \"Contracts/BMath.sol\":3851:3865  tokenAmountOut */\n      dup6\n        /* \"Contracts/BMath.sol\":3844:3865  return tokenAmountOut */\n      swap6\n      pop\n      pop\n      pop\n      pop\n      pop\n      pop\n        /* \"Contracts/BMath.sol\":3190:3873  function calcOutGivenIn(\r... */\n      swap7\n      swap6\n      pop\n      pop\n      pop\n      pop\n      pop\n      pop\n      jump\t// out\n        /* \"Contracts/BConst.sol\":307:357  uint public constant MAX_FEE           = BONE / 10 */\n    tag_71:\n        /* \"Contracts/BConst.sol\":355:357  10 */\n      0x0a\n        /* \"Contracts/BConst.sol\":132:138  10**18 */\n      0x0de0b6b3a7640000\n        /* \"Contracts/BConst.sol\":348:357  BONE / 10 */\n      dup2\n      tag_161\n      jumpi\n      invalid\n    tag_161:\n      div\n        /* \"Contracts/BConst.sol\":307:357  uint public constant MAX_FEE           = BONE / 10 */\n      dup2\n      jump\t// out\n        /* \"Contracts/BConst.sol\":757:816  uint public constant MAX_BPOW_BASE     = (2 * BONE) - 1 wei */\n    tag_73:\n        /* \"Contracts/BConst.sol\":811:816  1 wei */\n      0x01\n        /* \"Contracts/BConst.sol\":132:138  10**18 */\n      0x0de0b6b3a7640000\n        /* \"Contracts/BConst.sol\":799:800  2 */\n      0x02\n        /* \"Contracts/BConst.sol\":799:807  2 * BONE */\n      mul\n        /* \"Contracts/BConst.sol\":798:816  (2 * BONE) - 1 wei */\n      sub\n        /* \"Contracts/BConst.sol\":757:816  uint public constant MAX_BPOW_BASE     = (2 * BONE) - 1 wei */\n      dup2\n      jump\t// out\n        /* \"Contracts/BConst.sol\":91:138  uint public constant BONE              = 10**18 */\n    tag_75:\n        /* \"Contracts/BConst.sol\":132:138  10**18 */\n      0x0de0b6b3a7640000\n        /* \"Contracts/BConst.sol\":91:138  uint public constant BONE              = 10**18 */\n      dup2\n      jump\t// out\n        /* \"Contracts/BConst.sol\":364:406  uint public constant EXIT_FEE          = 0 */\n    tag_77:\n        /* \"Contracts/BConst.sol\":405:406  0 */\n      0x00\n        /* \"Contracts/BConst.sol\":364:406  uint public constant EXIT_FEE          = 0 */\n      dup2\n      jump\t// out\n        /* \"Contracts/BConst.sol\":467:517  uint public constant MAX_WEIGHT        = BONE * 50 */\n    tag_79:\n        /* \"Contracts/BConst.sol\":515:517  50 */\n      0x32\n        /* \"Contracts/BConst.sol\":132:138  10**18 */\n      0x0de0b6b3a7640000\n        /* \"Contracts/BConst.sol\":508:517  BONE * 50 */\n      mul\n        /* \"Contracts/BConst.sol\":467:517  uint public constant MAX_WEIGHT        = BONE * 50 */\n      dup2\n      jump\t// out\n        /* \"Contracts/BConst.sol\":886:935  uint public constant MAX_IN_RATIO      = BONE / 2 */\n    tag_81:\n        /* \"Contracts/BConst.sol\":934:935  2 */\n      0x02\n        /* \"Contracts/BConst.sol\":132:138  10**18 */\n      0x0de0b6b3a7640000\n        /* \"Contracts/BConst.sol\":927:935  BONE / 2 */\n      dup2\n      tag_162\n      jumpi\n      invalid\n    tag_162:\n      div\n        /* \"Contracts/BConst.sol\":886:935  uint public constant MAX_IN_RATIO      = BONE / 2 */\n      dup2\n      jump\t// out\n        /* \"Contracts/BMath.sol\":4891:5563  function calcInGivenOut(\r... */\n    tag_84:\n        /* \"Contracts/BMath.sol\":5134:5152  uint tokenAmountIn */\n      0x00\n        /* \"Contracts/BMath.sol\":5170:5186  uint weightRatio */\n      dup1\n        /* \"Contracts/BMath.sol\":5189:5224  bdiv(tokenWeightOut, tokenWeightIn) */\n      tag_164\n        /* \"Contracts/BMath.sol\":5194:5208  tokenWeightOut */\n      dup6\n        /* \"Contracts/BMath.sol\":5210:5223  tokenWeightIn */\n      dup9\n        /* \"Contracts/BMath.sol\":5189:5193  bdiv */\n      tag_88\n        /* \"Contracts/BMath.sol\":5189:5224  bdiv(tokenWeightOut, tokenWeightIn) */\n      jump\t// in\n    tag_164:\n        /* \"Contracts/BMath.sol\":5170:5224  uint weightRatio = bdiv(tokenWeightOut, tokenWeightIn) */\n      swap1\n      pop\n        /* \"Contracts/BMath.sol\":5235:5244  uint diff */\n      0x00\n        /* \"Contracts/BMath.sol\":5247:5284  bsub(tokenBalanceOut, tokenAmountOut) */\n      tag_165\n        /* \"Contracts/BMath.sol\":5252:5267  tokenBalanceOut */\n      dup8\n        /* \"Contracts/BMath.sol\":5269:5283  tokenAmountOut */\n      dup7\n        /* \"Contracts/BMath.sol\":5247:5251  bsub */\n      tag_98\n        /* \"Contracts/BMath.sol\":5247:5284  bsub(tokenBalanceOut, tokenAmountOut) */\n      jump\t// in\n    tag_165:\n        /* \"Contracts/BMath.sol\":5235:5284  uint diff = bsub(tokenBalanceOut, tokenAmountOut) */\n      swap1\n      pop\n        /* \"Contracts/BMath.sol\":5295:5301  uint y */\n      0x00\n        /* \"Contracts/BMath.sol\":5304:5331  bdiv(tokenBalanceOut, diff) */\n      tag_166\n        /* \"Contracts/BMath.sol\":5309:5324  tokenBalanceOut */\n      dup9\n        /* \"Contracts/BMath.sol\":5326:5330  diff */\n      dup4\n        /* \"Contracts/BMath.sol\":5304:5308  bdiv */\n      tag_88\n        /* \"Contracts/BMath.sol\":5304:5331  bdiv(tokenBalanceOut, diff) */\n      jump\t// in\n    tag_166:\n        /* \"Contracts/BMath.sol\":5295:5331  uint y = bdiv(tokenBalanceOut, diff) */\n      swap1\n      pop\n        /* \"Contracts/BMath.sol\":5342:5350  uint foo */\n      0x00\n        /* \"Contracts/BMath.sol\":5353:5373  bpow(y, weightRatio) */\n      tag_167\n        /* \"Contracts/BMath.sol\":5358:5359  y */\n      dup3\n        /* \"Contracts/BMath.sol\":5361:5372  weightRatio */\n      dup6\n        /* \"Contracts/BMath.sol\":5353:5357  bpow */\n      tag_94\n        /* \"Contracts/BMath.sol\":5353:5373  bpow(y, weightRatio) */\n      jump\t// in\n    tag_167:\n        /* \"Contracts/BMath.sol\":5342:5373  uint foo = bpow(y, weightRatio) */\n      swap1\n      pop\n        /* \"Contracts/BMath.sol\":5390:5405  bsub(foo, BONE) */\n      tag_168\n        /* \"Contracts/BMath.sol\":5395:5398  foo */\n      dup2\n        /* \"Contracts/BConst.sol\":132:138  10**18 */\n      0x0de0b6b3a7640000\n        /* \"Contracts/BMath.sol\":5390:5394  bsub */\n      tag_98\n        /* \"Contracts/BMath.sol\":5390:5405  bsub(foo, BONE) */\n      jump\t// in\n    tag_168:\n        /* \"Contracts/BMath.sol\":5384:5405  foo = bsub(foo, BONE) */\n      swap1\n      pop\n        /* \"Contracts/BMath.sol\":5432:5451  bsub(BONE, swapFee) */\n      tag_169\n        /* \"Contracts/BConst.sol\":132:138  10**18 */\n      0x0de0b6b3a7640000\n        /* \"Contracts/BMath.sol\":5443:5450  swapFee */\n      dup8\n        /* \"Contracts/BMath.sol\":5432:5436  bsub */\n      tag_98\n        /* \"Contracts/BMath.sol\":5432:5451  bsub(BONE, swapFee) */\n      jump\t// in\n    tag_169:\n        /* \"Contracts/BMath.sol\":5416:5451  tokenAmountIn = bsub(BONE, swapFee) */\n      swap5\n      pop\n        /* \"Contracts/BMath.sol\":5478:5524  bdiv(bmul(tokenBalanceIn, foo), tokenAmountIn) */\n      tag_170\n        /* \"Contracts/BMath.sol\":5483:5508  bmul(tokenBalanceIn, foo) */\n      tag_171\n        /* \"Contracts/BMath.sol\":5488:5502  tokenBalanceIn */\n      dup13\n        /* \"Contracts/BMath.sol\":5504:5507  foo */\n      dup4\n        /* \"Contracts/BMath.sol\":5483:5487  bmul */\n      tag_96\n        /* \"Contracts/BMath.sol\":5483:5508  bmul(tokenBalanceIn, foo) */\n      jump\t// in\n    tag_171:\n        /* \"Contracts/BMath.sol\":5510:5523  tokenAmountIn */\n      dup7\n        /* \"Contracts/BMath.sol\":5478:5482  bdiv */\n      tag_88\n        /* \"Contracts/BMath.sol\":5478:5524  bdiv(bmul(tokenBalanceIn, foo), tokenAmountIn) */\n      jump\t// in\n    tag_170:\n        /* \"Contracts/BMath.sol\":5462:5524  tokenAmountIn = bdiv(bmul(tokenBalanceIn, foo), tokenAmountIn) */\n      swap5\n      pop\n        /* \"Contracts/BMath.sol\":5542:5555  tokenAmountIn */\n      dup5\n        /* \"Contracts/BMath.sol\":5535:5555  return tokenAmountIn */\n      swap5\n      pop\n      pop\n      pop\n      pop\n      pop\n        /* \"Contracts/BMath.sol\":4891:5563  function calcInGivenOut(\r... */\n      swap7\n      swap6\n      pop\n      pop\n      pop\n      pop\n      pop\n      pop\n      jump\t// out\n        /* \"Contracts/BNum.sol\":1277:1664  function bdiv(uint a, uint b)\r... */\n    tag_88:\n        /* \"Contracts/BNum.sol\":1348:1352  uint */\n      0x00\n        /* \"Contracts/BNum.sol\":1383:1384  0 */\n      dup1\n        /* \"Contracts/BNum.sol\":1378:1379  b */\n      dup3\n        /* \"Contracts/BNum.sol\":1378:1384  b != 0 */\n      eq\n      iszero\n        /* \"Contracts/BNum.sol\":1370:1401  require(b != 0, \"ERR_DIV_ZERO\") */\n      tag_173\n      jumpi\n      mload(0x40)\n      0x08c379a000000000000000000000000000000000000000000000000000000000\n      dup2\n      mstore\n      0x04\n      add\n      dup1\n      dup1\n      0x20\n      add\n      dup3\n      dup2\n      sub\n      dup3\n      mstore\n      0x0c\n      dup2\n      mstore\n      0x20\n      add\n      dup1\n      0x4552525f4449565f5a45524f0000000000000000000000000000000000000000\n      dup2\n      mstore\n      pop\n      0x20\n      add\n      swap2\n      pop\n      pop\n      mload(0x40)\n      dup1\n      swap2\n      sub\n      swap1\n      revert\n    tag_173:\n        /* \"Contracts/BNum.sol\":1412:1419  uint c0 */\n      0x00\n        /* \"Contracts/BConst.sol\":132:138  10**18 */\n      0x0de0b6b3a7640000\n        /* \"Contracts/BNum.sol\":1422:1423  a */\n      dup5\n        /* \"Contracts/BNum.sol\":1422:1430  a * BONE */\n      mul\n        /* \"Contracts/BNum.sol\":1412:1430  uint c0 = a * BONE */\n      swap1\n      pop\n        /* \"Contracts/BNum.sol\":1454:1455  0 */\n      0x00\n        /* \"Contracts/BNum.sol\":1449:1450  a */\n      dup5\n        /* \"Contracts/BNum.sol\":1449:1455  a == 0 */\n      eq\n        /* \"Contracts/BNum.sol\":1449:1473  a == 0 || c0 / a == BONE */\n      dup1\n      tag_174\n      jumpi\n      pop\n        /* \"Contracts/BConst.sol\":132:138  10**18 */\n      0x0de0b6b3a7640000\n        /* \"Contracts/BNum.sol\":1464:1465  a */\n      dup5\n        /* \"Contracts/BNum.sol\":1459:1461  c0 */\n      dup3\n        /* \"Contracts/BNum.sol\":1459:1465  c0 / a */\n      dup2\n      tag_175\n      jumpi\n      invalid\n    tag_175:\n      div\n        /* \"Contracts/BNum.sol\":1459:1473  c0 / a == BONE */\n      eq\n        /* \"Contracts/BNum.sol\":1449:1473  a == 0 || c0 / a == BONE */\n    tag_174:\n        /* \"Contracts/BNum.sol\":1441:1494  require(a == 0 || c0 / a == BONE, \"ERR_DIV_INTERNAL\") */\n      tag_176\n      jumpi\n      mload(0x40)\n      0x08c379a000000000000000000000000000000000000000000000000000000000\n      dup2\n      mstore\n      0x04\n      add\n      dup1\n      dup1\n      0x20\n      add\n      dup3\n      dup2\n      sub\n      dup3\n      mstore\n      0x10\n      dup2\n      mstore\n      0x20\n      add\n      dup1\n      0x4552525f4449565f494e5445524e414c00000000000000000000000000000000\n      dup2\n      mstore\n      pop\n      0x20\n      add\n      swap2\n      pop\n      pop\n      mload(0x40)\n      dup1\n      swap2\n      sub\n      swap1\n      revert\n    tag_176:\n        /* \"Contracts/BNum.sol\":1522:1529  uint c1 */\n      0x00\n        /* \"Contracts/BNum.sol\":1542:1543  2 */\n      0x02\n        /* \"Contracts/BNum.sol\":1538:1539  b */\n      dup5\n        /* \"Contracts/BNum.sol\":1538:1543  b / 2 */\n      dup2\n      tag_177\n      jumpi\n      invalid\n    tag_177:\n      div\n        /* \"Contracts/BNum.sol\":1532:1534  c0 */\n      dup3\n        /* \"Contracts/BNum.sol\":1532:1544  c0 + (b / 2) */\n      add\n        /* \"Contracts/BNum.sol\":1522:1544  uint c1 = c0 + (b / 2) */\n      swap1\n      pop\n        /* \"Contracts/BNum.sol\":1569:1571  c0 */\n      dup2\n        /* \"Contracts/BNum.sol\":1563:1565  c1 */\n      dup2\n        /* \"Contracts/BNum.sol\":1563:1571  c1 >= c0 */\n      lt\n      iszero\n        /* \"Contracts/BNum.sol\":1555:1592  require(c1 >= c0, \"ERR_DIV_INTERNAL\") */\n      tag_178\n      jumpi\n      mload(0x40)\n      0x08c379a000000000000000000000000000000000000000000000000000000000\n      dup2\n      mstore\n      0x04\n      add\n      dup1\n      dup1\n      0x20\n      add\n      dup3\n      dup2\n      sub\n      dup3\n      mstore\n      0x10\n      dup2\n      mstore\n      0x20\n      add\n      dup1\n      0x4552525f4449565f494e5445524e414c00000000000000000000000000000000\n      dup2\n      mstore\n      pop\n      0x20\n      add\n      swap2\n      pop\n      pop\n      mload(0x40)\n      dup1\n      swap2\n      sub\n      swap1\n      revert\n    tag_178:\n        /* \"Contracts/BNum.sol\":1620:1627  uint c2 */\n      0x00\n        /* \"Contracts/BNum.sol\":1635:1636  b */\n      dup5\n        /* \"Contracts/BNum.sol\":1630:1632  c1 */\n      dup3\n        /* \"Contracts/BNum.sol\":1630:1636  c1 / b */\n      dup2\n      tag_179\n      jumpi\n      invalid\n    tag_179:\n      div\n        /* \"Contracts/BNum.sol\":1620:1636  uint c2 = c1 / b */\n      swap1\n      pop\n        /* \"Contracts/BNum.sol\":1654:1656  c2 */\n      dup1\n        /* \"Contracts/BNum.sol\":1647:1656  return c2 */\n      swap4\n      pop\n      pop\n      pop\n      pop\n        /* \"Contracts/BNum.sol\":1277:1664  function bdiv(uint a, uint b)\r... */\n      swap3\n      swap2\n      pop\n      pop\n      jump\t// out\n        /* \"Contracts/BNum.sol\":329:509  function badd(uint a, uint b)\r... */\n    tag_90:\n        /* \"Contracts/BNum.sol\":400:404  uint */\n      0x00\n        /* \"Contracts/BNum.sol\":422:428  uint c */\n      dup1\n        /* \"Contracts/BNum.sol\":435:436  b */\n      dup3\n        /* \"Contracts/BNum.sol\":431:432  a */\n      dup5\n        /* \"Contracts/BNum.sol\":431:436  a + b */\n      add\n        /* \"Contracts/BNum.sol\":422:436  uint c = a + b */\n      swap1\n      pop\n        /* \"Contracts/BNum.sol\":460:461  a */\n      dup4\n        /* \"Contracts/BNum.sol\":455:456  c */\n      dup2\n        /* \"Contracts/BNum.sol\":455:461  c >= a */\n      lt\n      iszero\n        /* \"Contracts/BNum.sol\":447:482  require(c >= a, \"ERR_ADD_OVERFLOW\") */\n      tag_181\n      jumpi\n      mload(0x40)\n      0x08c379a000000000000000000000000000000000000000000000000000000000\n      dup2\n      mstore\n      0x04\n      add\n      dup1\n      dup1\n      0x20\n      add\n      dup3\n      dup2\n      sub\n      dup3\n      mstore\n      0x10\n      dup2\n      mstore\n      0x20\n      add\n      dup1\n      0x4552525f4144445f4f564552464c4f5700000000000000000000000000000000\n      dup2\n      mstore\n      pop\n      0x20\n      add\n      swap2\n      pop\n      pop\n      mload(0x40)\n      dup1\n      swap2\n      sub\n      swap1\n      revert\n    tag_181:\n        /* \"Contracts/BNum.sol\":500:501  c */\n      dup1\n        /* \"Contracts/BNum.sol\":493:501  return c */\n      swap2\n      pop\n      pop\n        /* \"Contracts/BNum.sol\":329:509  function badd(uint a, uint b)\r... */\n      swap3\n      swap2\n      pop\n      pop\n      jump\t// out\n        /* \"Contracts/BNum.sol\":2167:2722  function bpow(uint base, uint exp)\r... */\n    tag_94:\n        /* \"Contracts/BNum.sol\":2243:2247  uint */\n      0x00\n        /* \"Contracts/BConst.sol\":745:750  1 wei */\n      0x01\n        /* \"Contracts/BNum.sol\":2273:2277  base */\n      dup4\n        /* \"Contracts/BNum.sol\":2273:2294  base >= MIN_BPOW_BASE */\n      lt\n      iszero\n        /* \"Contracts/BNum.sol\":2265:2320  require(base >= MIN_BPOW_BASE, \"ERR_BPOW_BASE_TOO_LOW\") */\n      tag_183\n      jumpi\n      mload(0x40)\n      0x08c379a000000000000000000000000000000000000000000000000000000000\n      dup2\n      mstore\n      0x04\n      add\n      dup1\n      dup1\n      0x20\n      add\n      dup3\n      dup2\n      sub\n      dup3\n      mstore\n      0x15\n      dup2\n      mstore\n      0x20\n      add\n      dup1\n      0x4552525f42504f575f424153455f544f4f5f4c4f570000000000000000000000\n      dup2\n      mstore\n      pop\n      0x20\n      add\n      swap2\n      pop\n      pop\n      mload(0x40)\n      dup1\n      swap2\n      sub\n      swap1\n      revert\n    tag_183:\n        /* \"Contracts/BConst.sol\":811:816  1 wei */\n      0x01\n        /* \"Contracts/BConst.sol\":132:138  10**18 */\n      0x0de0b6b3a7640000\n        /* \"Contracts/BConst.sol\":799:800  2 */\n      0x02\n        /* \"Contracts/BConst.sol\":799:807  2 * BONE */\n      mul\n        /* \"Contracts/BConst.sol\":798:816  (2 * BONE) - 1 wei */\n      sub\n        /* \"Contracts/BNum.sol\":2339:2343  base */\n      dup4\n        /* \"Contracts/BNum.sol\":2339:2360  base <= MAX_BPOW_BASE */\n      gt\n      iszero\n        /* \"Contracts/BNum.sol\":2331:2387  require(base <= MAX_BPOW_BASE, \"ERR_BPOW_BASE_TOO_HIGH\") */\n      tag_184\n      jumpi\n      mload(0x40)\n      0x08c379a000000000000000000000000000000000000000000000000000000000\n      dup2\n      mstore\n      0x04\n      add\n      dup1\n      dup1\n      0x20\n      add\n      dup3\n      dup2\n      sub\n      dup3\n      mstore\n      0x16\n      dup2\n      mstore\n      0x20\n      add\n      dup1\n      0x4552525f42504f575f424153455f544f4f5f4849474800000000000000000000\n      dup2\n      mstore\n      pop\n      0x20\n      add\n      swap2\n      pop\n      pop\n      mload(0x40)\n      dup1\n      swap2\n      sub\n      swap1\n      revert\n    tag_184:\n        /* \"Contracts/BNum.sol\":2400:2410  uint whole */\n      0x00\n        /* \"Contracts/BNum.sol\":2414:2425  bfloor(exp) */\n      tag_185\n        /* \"Contracts/BNum.sol\":2421:2424  exp */\n      dup4\n        /* \"Contracts/BNum.sol\":2414:2420  bfloor */\n      tag_186\n        /* \"Contracts/BNum.sol\":2414:2425  bfloor(exp) */\n      jump\t// in\n    tag_185:\n        /* \"Contracts/BNum.sol\":2400:2425  uint whole  = bfloor(exp) */\n      swap1\n      pop\n        /* \"Contracts/BNum.sol\":2439:2450  uint remain */\n      0x00\n        /* \"Contracts/BNum.sol\":2453:2469  bsub(exp, whole) */\n      tag_187\n        /* \"Contracts/BNum.sol\":2458:2461  exp */\n      dup5\n        /* \"Contracts/BNum.sol\":2463:2468  whole */\n      dup4\n        /* \"Contracts/BNum.sol\":2453:2457  bsub */\n      tag_98\n        /* \"Contracts/BNum.sol\":2453:2469  bsub(exp, whole) */\n      jump\t// in\n    tag_187:\n        /* \"Contracts/BNum.sol\":2439:2469  uint remain = bsub(exp, whole) */\n      swap1\n      pop\n        /* \"Contracts/BNum.sol\":2482:2495  uint wholePow */\n      0x00\n        /* \"Contracts/BNum.sol\":2498:2522  bpowi(base, btoi(whole)) */\n      tag_188\n        /* \"Contracts/BNum.sol\":2504:2508  base */\n      dup7\n        /* \"Contracts/BNum.sol\":2510:2521  btoi(whole) */\n      tag_189\n        /* \"Contracts/BNum.sol\":2515:2520  whole */\n      dup6\n        /* \"Contracts/BNum.sol\":2510:2514  btoi */\n      tag_190\n        /* \"Contracts/BNum.sol\":2510:2521  btoi(whole) */\n      jump\t// in\n    tag_189:\n        /* \"Contracts/BNum.sol\":2498:2503  bpowi */\n      tag_191\n        /* \"Contracts/BNum.sol\":2498:2522  bpowi(base, btoi(whole)) */\n      jump\t// in\n    tag_188:\n        /* \"Contracts/BNum.sol\":2482:2522  uint wholePow = bpowi(base, btoi(whole)) */\n      swap1\n      pop\n        /* \"Contracts/BNum.sol\":2549:2550  0 */\n      0x00\n        /* \"Contracts/BNum.sol\":2539:2545  remain */\n      dup3\n        /* \"Contracts/BNum.sol\":2539:2550  remain == 0 */\n      eq\n        /* \"Contracts/BNum.sol\":2535:2594  if (remain == 0) {\r... */\n      iszero\n      tag_192\n      jumpi\n        /* \"Contracts/BNum.sol\":2574:2582  wholePow */\n      dup1\n        /* \"Contracts/BNum.sol\":2567:2582  return wholePow */\n      swap4\n      pop\n      pop\n      pop\n      pop\n      jump(tag_182)\n        /* \"Contracts/BNum.sol\":2535:2594  if (remain == 0) {\r... */\n    tag_192:\n        /* \"Contracts/BNum.sol\":2606:2624  uint partialResult */\n      0x00\n        /* \"Contracts/BNum.sol\":2627:2667  bpowApprox(base, remain, BPOW_PRECISION) */\n      tag_193\n        /* \"Contracts/BNum.sol\":2638:2642  base */\n      dup8\n        /* \"Contracts/BNum.sol\":2644:2650  remain */\n      dup5\n        /* \"Contracts/BConst.sol\":871:877  10**10 */\n      0x02540be400\n        /* \"Contracts/BConst.sol\":132:138  10**18 */\n      0x0de0b6b3a7640000\n        /* \"Contracts/BConst.sol\":864:877  BONE / 10**10 */\n      dup2\n      tag_194\n      jumpi\n      invalid\n    tag_194:\n      div\n        /* \"Contracts/BNum.sol\":2627:2637  bpowApprox */\n      tag_195\n        /* \"Contracts/BNum.sol\":2627:2667  bpowApprox(base, remain, BPOW_PRECISION) */\n      jump\t// in\n    tag_193:\n        /* \"Contracts/BNum.sol\":2606:2667  uint partialResult = bpowApprox(base, remain, BPOW_PRECISION) */\n      swap1\n      pop\n        /* \"Contracts/BNum.sol\":2685:2714  bmul(wholePow, partialResult) */\n      tag_196\n        /* \"Contracts/BNum.sol\":2690:2698  wholePow */\n      dup3\n        /* \"Contracts/BNum.sol\":2700:2713  partialResult */\n      dup3\n        /* \"Contracts/BNum.sol\":2685:2689  bmul */\n      tag_96\n        /* \"Contracts/BNum.sol\":2685:2714  bmul(wholePow, partialResult) */\n      jump\t// in\n    tag_196:\n        /* \"Contracts/BNum.sol\":2678:2714  return bmul(wholePow, partialResult) */\n      swap5\n      pop\n      pop\n      pop\n      pop\n      pop\n        /* \"Contracts/BNum.sol\":2167:2722  function bpow(uint base, uint exp)\r... */\n    tag_182:\n      swap3\n      swap2\n      pop\n      pop\n      jump\t// out\n        /* \"Contracts/BNum.sol\":958:1269  function bmul(uint a, uint b)\r... */\n    tag_96:\n        /* \"Contracts/BNum.sol\":1029:1033  uint */\n      0x00\n        /* \"Contracts/BNum.sol\":1051:1058  uint c0 */\n      dup1\n        /* \"Contracts/BNum.sol\":1065:1066  b */\n      dup3\n        /* \"Contracts/BNum.sol\":1061:1062  a */\n      dup5\n        /* \"Contracts/BNum.sol\":1061:1066  a * b */\n      mul\n        /* \"Contracts/BNum.sol\":1051:1066  uint c0 = a * b */\n      swap1\n      pop\n        /* \"Contracts/BNum.sol\":1090:1091  0 */\n      0x00\n        /* \"Contracts/BNum.sol\":1085:1086  a */\n      dup5\n        /* \"Contracts/BNum.sol\":1085:1091  a == 0 */\n      eq\n        /* \"Contracts/BNum.sol\":1085:1106  a == 0 || c0 / a == b */\n      dup1\n      tag_198\n      jumpi\n      pop\n        /* \"Contracts/BNum.sol\":1105:1106  b */\n      dup3\n        /* \"Contracts/BNum.sol\":1100:1101  a */\n      dup5\n        /* \"Contracts/BNum.sol\":1095:1097  c0 */\n      dup3\n        /* \"Contracts/BNum.sol\":1095:1101  c0 / a */\n      dup2\n      tag_199\n      jumpi\n      invalid\n    tag_199:\n      div\n        /* \"Contracts/BNum.sol\":1095:1106  c0 / a == b */\n      eq\n        /* \"Contracts/BNum.sol\":1085:1106  a == 0 || c0 / a == b */\n    tag_198:\n        /* \"Contracts/BNum.sol\":1077:1127  require(a == 0 || c0 / a == b, \"ERR_MUL_OVERFLOW\") */\n      tag_200\n      jumpi\n      mload(0x40)\n      0x08c379a000000000000000000000000000000000000000000000000000000000\n      dup2\n      mstore\n      0x04\n      add\n      dup1\n      dup1\n      0x20\n      add\n      dup3\n      dup2\n      sub\n      dup3\n      mstore\n      0x10\n      dup2\n      mstore\n      0x20\n      add\n      dup1\n      0x4552525f4d554c5f4f564552464c4f5700000000000000000000000000000000\n      dup2\n      mstore\n      pop\n      0x20\n      add\n      swap2\n      pop\n      pop\n      mload(0x40)\n      dup1\n      swap2\n      sub\n      swap1\n      revert\n    tag_200:\n        /* \"Contracts/BNum.sol\":1138:1145  uint c1 */\n      0x00\n        /* \"Contracts/BNum.sol\":1161:1162  2 */\n      0x02\n        /* \"Contracts/BConst.sol\":132:138  10**18 */\n      0x0de0b6b3a7640000\n        /* \"Contracts/BNum.sol\":1154:1162  BONE / 2 */\n      dup2\n      tag_201\n      jumpi\n      invalid\n    tag_201:\n      div\n        /* \"Contracts/BNum.sol\":1148:1150  c0 */\n      dup3\n        /* \"Contracts/BNum.sol\":1148:1163  c0 + (BONE / 2) */\n      add\n        /* \"Contracts/BNum.sol\":1138:1163  uint c1 = c0 + (BONE / 2) */\n      swap1\n      pop\n        /* \"Contracts/BNum.sol\":1188:1190  c0 */\n      dup2\n        /* \"Contracts/BNum.sol\":1182:1184  c1 */\n      dup2\n        /* \"Contracts/BNum.sol\":1182:1190  c1 >= c0 */\n      lt\n      iszero\n        /* \"Contracts/BNum.sol\":1174:1211  require(c1 >= c0, \"ERR_MUL_OVERFLOW\") */\n      tag_202\n      jumpi\n      mload(0x40)\n      0x08c379a000000000000000000000000000000000000000000000000000000000\n      dup2\n      mstore\n      0x04\n      add\n      dup1\n      dup1\n      0x20\n      add\n      dup3\n      dup2\n      sub\n      dup3\n      mstore\n      0x10\n      dup2\n      mstore\n      0x20\n      add\n      dup1\n      0x4552525f4d554c5f4f564552464c4f5700000000000000000000000000000000\n      dup2\n      mstore\n      pop\n      0x20\n      add\n      swap2\n      pop\n      pop\n      mload(0x40)\n      dup1\n      swap2\n      sub\n      swap1\n      revert\n    tag_202:\n        /* \"Contracts/BNum.sol\":1222:1229  uint c2 */\n      0x00\n        /* \"Contracts/BConst.sol\":132:138  10**18 */\n      0x0de0b6b3a7640000\n        /* \"Contracts/BNum.sol\":1232:1234  c1 */\n      dup3\n        /* \"Contracts/BNum.sol\":1232:1241  c1 / BONE */\n      dup2\n      tag_203\n      jumpi\n      invalid\n    tag_203:\n      div\n        /* \"Contracts/BNum.sol\":1222:1241  uint c2 = c1 / BONE */\n      swap1\n      pop\n        /* \"Contracts/BNum.sol\":1259:1261  c2 */\n      dup1\n        /* \"Contracts/BNum.sol\":1252:1261  return c2 */\n      swap4\n      pop\n      pop\n      pop\n      pop\n        /* \"Contracts/BNum.sol\":958:1269  function bmul(uint a, uint b)\r... */\n      swap3\n      swap2\n      pop\n      pop\n      jump\t// out\n        /* \"Contracts/BNum.sol\":517:719  function bsub(uint a, uint b)\r... */\n    tag_98:\n        /* \"Contracts/BNum.sol\":588:592  uint */\n      0x00\n        /* \"Contracts/BNum.sol\":611:617  uint c */\n      dup1\n        /* \"Contracts/BNum.sol\":619:628  bool flag */\n      0x00\n        /* \"Contracts/BNum.sol\":632:646  bsubSign(a, b) */\n      tag_205\n        /* \"Contracts/BNum.sol\":641:642  a */\n      dup6\n        /* \"Contracts/BNum.sol\":644:645  b */\n      dup6\n        /* \"Contracts/BNum.sol\":632:640  bsubSign */\n      tag_206\n        /* \"Contracts/BNum.sol\":632:646  bsubSign(a, b) */\n      jump\t// in\n    tag_205:\n        /* \"Contracts/BNum.sol\":610:646  (uint c, bool flag) = bsubSign(a, b) */\n      swap2\n      pop\n      swap2\n      pop\n        /* \"Contracts/BNum.sol\":666:670  flag */\n      dup1\n        /* \"Contracts/BNum.sol\":665:670  !flag */\n      iszero\n        /* \"Contracts/BNum.sol\":657:692  require(!flag, \"ERR_SUB_UNDERFLOW\") */\n      tag_207\n      jumpi\n      mload(0x40)\n      0x08c379a000000000000000000000000000000000000000000000000000000000\n      dup2\n      mstore\n      0x04\n      add\n      dup1\n      dup1\n      0x20\n      add\n      dup3\n      dup2\n      sub\n      dup3\n      mstore\n      0x11\n      dup2\n      mstore\n      0x20\n      add\n      dup1\n      0x4552525f5355425f554e444552464c4f57000000000000000000000000000000\n      dup2\n      mstore\n      pop\n      0x20\n      add\n      swap2\n      pop\n      pop\n      mload(0x40)\n      dup1\n      swap2\n      sub\n      swap1\n      revert\n    tag_207:\n        /* \"Contracts/BNum.sol\":710:711  c */\n      dup2\n        /* \"Contracts/BNum.sol\":703:711  return c */\n      swap3\n      pop\n      pop\n      pop\n        /* \"Contracts/BNum.sol\":517:719  function bsub(uint a, uint b)\r... */\n      swap3\n      swap2\n      pop\n      pop\n      jump\t// out\n        /* \"Contracts/BNum.sol\":205:321  function bfloor(uint a)\r... */\n    tag_186:\n        /* \"Contracts/BNum.sol\":270:274  uint */\n      0x00\n        /* \"Contracts/BConst.sol\":132:138  10**18 */\n      0x0de0b6b3a7640000\n        /* \"Contracts/BNum.sol\":299:306  btoi(a) */\n      tag_209\n        /* \"Contracts/BNum.sol\":304:305  a */\n      dup4\n        /* \"Contracts/BNum.sol\":299:303  btoi */\n      tag_190\n        /* \"Contracts/BNum.sol\":299:306  btoi(a) */\n      jump\t// in\n    tag_209:\n        /* \"Contracts/BNum.sol\":299:313  btoi(a) * BONE */\n      mul\n        /* \"Contracts/BNum.sol\":292:313  return btoi(a) * BONE */\n      swap1\n      pop\n        /* \"Contracts/BNum.sol\":205:321  function bfloor(uint a)\r... */\n      swap2\n      swap1\n      pop\n      jump\t// out\n        /* \"Contracts/BNum.sol\":88:197  function btoi(uint a)\r... */\n    tag_190:\n        /* \"Contracts/BNum.sol\":152:156  uint */\n      0x00\n        /* \"Contracts/BConst.sol\":132:138  10**18 */\n      0x0de0b6b3a7640000\n        /* \"Contracts/BNum.sol\":181:182  a */\n      dup3\n        /* \"Contracts/BNum.sol\":181:189  a / BONE */\n      dup2\n      tag_211\n      jumpi\n      invalid\n    tag_211:\n      div\n        /* \"Contracts/BNum.sol\":174:189  return a / BONE */\n      swap1\n      pop\n        /* \"Contracts/BNum.sol\":88:197  function btoi(uint a)\r... */\n      swap2\n      swap1\n      pop\n      jump\t// out\n        /* \"Contracts/BNum.sol\":1692:2006  function bpowi(uint a, uint n)\r... */\n    tag_191:\n        /* \"Contracts/BNum.sol\":1764:1768  uint */\n      0x00\n        /* \"Contracts/BNum.sol\":1786:1792  uint z */\n      dup1\n        /* \"Contracts/BNum.sol\":1804:1805  0 */\n      0x00\n        /* \"Contracts/BNum.sol\":1799:1800  2 */\n      0x02\n        /* \"Contracts/BNum.sol\":1795:1796  n */\n      dup5\n        /* \"Contracts/BNum.sol\":1795:1800  n % 2 */\n      dup2\n      tag_213\n      jumpi\n      invalid\n    tag_213:\n      mod\n        /* \"Contracts/BNum.sol\":1795:1805  n % 2 != 0 */\n      eq\n      iszero\n        /* \"Contracts/BNum.sol\":1795:1816  n % 2 != 0 ? a : BONE */\n      tag_214\n      jumpi\n        /* \"Contracts/BConst.sol\":132:138  10**18 */\n      0x0de0b6b3a7640000\n        /* \"Contracts/BNum.sol\":1795:1816  n % 2 != 0 ? a : BONE */\n      jump(tag_215)\n    tag_214:\n        /* \"Contracts/BNum.sol\":1808:1809  a */\n      dup4\n        /* \"Contracts/BNum.sol\":1795:1816  n % 2 != 0 ? a : BONE */\n    tag_215:\n        /* \"Contracts/BNum.sol\":1786:1816  uint z = n % 2 != 0 ? a : BONE */\n      swap1\n      pop\n        /* \"Contracts/BNum.sol\":1839:1840  2 */\n      0x02\n        /* \"Contracts/BNum.sol\":1834:1840  n /= 2 */\n      dup4\n      dup2\n      tag_219\n      jumpi\n      invalid\n    tag_219:\n      div\n      swap3\n      pop\n        /* \"Contracts/BNum.sol\":1829:1980  for (n /= 2; n != 0; n /= 2) {\r... */\n    tag_216:\n        /* \"Contracts/BNum.sol\":1847:1848  0 */\n      0x00\n        /* \"Contracts/BNum.sol\":1842:1843  n */\n      dup4\n        /* \"Contracts/BNum.sol\":1842:1848  n != 0 */\n      eq\n        /* \"Contracts/BNum.sol\":1829:1980  for (n /= 2; n != 0; n /= 2) {\r... */\n      tag_217\n      jumpi\n        /* \"Contracts/BNum.sol\":1877:1887  bmul(a, a) */\n      tag_220\n        /* \"Contracts/BNum.sol\":1882:1883  a */\n      dup5\n        /* \"Contracts/BNum.sol\":1885:1886  a */\n      dup6\n        /* \"Contracts/BNum.sol\":1877:1881  bmul */\n      tag_96\n        /* \"Contracts/BNum.sol\":1877:1887  bmul(a, a) */\n      jump\t// in\n    tag_220:\n        /* \"Contracts/BNum.sol\":1873:1887  a = bmul(a, a) */\n      swap4\n      pop\n        /* \"Contracts/BNum.sol\":1917:1918  0 */\n      0x00\n        /* \"Contracts/BNum.sol\":1912:1913  2 */\n      0x02\n        /* \"Contracts/BNum.sol\":1908:1909  n */\n      dup5\n        /* \"Contracts/BNum.sol\":1908:1913  n % 2 */\n      dup2\n      tag_221\n      jumpi\n      invalid\n    tag_221:\n      mod\n        /* \"Contracts/BNum.sol\":1908:1918  n % 2 != 0 */\n      eq\n        /* \"Contracts/BNum.sol\":1904:1969  if (n % 2 != 0) {\r... */\n      tag_222\n      jumpi\n        /* \"Contracts/BNum.sol\":1943:1953  bmul(z, a) */\n      tag_223\n        /* \"Contracts/BNum.sol\":1948:1949  z */\n      dup2\n        /* \"Contracts/BNum.sol\":1951:1952  a */\n      dup6\n        /* \"Contracts/BNum.sol\":1943:1947  bmul */\n      tag_96\n        /* \"Contracts/BNum.sol\":1943:1953  bmul(z, a) */\n      jump\t// in\n    tag_223:\n        /* \"Contracts/BNum.sol\":1939:1953  z = bmul(z, a) */\n      swap1\n      pop\n        /* \"Contracts/BNum.sol\":1904:1969  if (n % 2 != 0) {\r... */\n    tag_222:\n        /* \"Contracts/BNum.sol\":1855:1856  2 */\n      0x02\n        /* \"Contracts/BNum.sol\":1850:1856  n /= 2 */\n      dup4\n      dup2\n      tag_224\n      jumpi\n      invalid\n    tag_224:\n      div\n      swap3\n      pop\n        /* \"Contracts/BNum.sol\":1829:1980  for (n /= 2; n != 0; n /= 2) {\r... */\n      jump(tag_216)\n    tag_217:\n        /* \"Contracts/BNum.sol\":1997:1998  z */\n      dup1\n        /* \"Contracts/BNum.sol\":1990:1998  return z */\n      swap2\n      pop\n      pop\n        /* \"Contracts/BNum.sol\":1692:2006  function bpowi(uint a, uint n)\r... */\n      swap3\n      swap2\n      pop\n      pop\n      jump\t// out\n        /* \"Contracts/BNum.sol\":2730:3810  function bpowApprox(uint base, uint exp, uint precision)\r... */\n    tag_195:\n        /* \"Contracts/BNum.sol\":2828:2832  uint */\n      0x00\n        /* \"Contracts/BNum.sol\":2870:2876  uint a */\n      dup1\n        /* \"Contracts/BNum.sol\":2883:2886  exp */\n      dup4\n        /* \"Contracts/BNum.sol\":2870:2886  uint a     = exp */\n      swap1\n      pop\n        /* \"Contracts/BNum.sol\":2898:2904  uint x */\n      0x00\n        /* \"Contracts/BNum.sol\":2906:2915  bool xneg */\n      dup1\n        /* \"Contracts/BNum.sol\":2920:2940  bsubSign(base, BONE) */\n      tag_226\n        /* \"Contracts/BNum.sol\":2929:2933  base */\n      dup8\n        /* \"Contracts/BConst.sol\":132:138  10**18 */\n      0x0de0b6b3a7640000\n        /* \"Contracts/BNum.sol\":2920:2928  bsubSign */\n      tag_206\n        /* \"Contracts/BNum.sol\":2920:2940  bsubSign(base, BONE) */\n      jump\t// in\n    tag_226:\n        /* \"Contracts/BNum.sol\":2897:2940  (uint x, bool xneg)  = bsubSign(base, BONE) */\n      swap2\n      pop\n      swap2\n      pop\n        /* \"Contracts/BNum.sol\":2951:2960  uint term */\n      0x00\n        /* \"Contracts/BConst.sol\":132:138  10**18 */\n      0x0de0b6b3a7640000\n        /* \"Contracts/BNum.sol\":2951:2967  uint term = BONE */\n      swap1\n      pop\n        /* \"Contracts/BNum.sol\":2978:2986  uint sum */\n      0x00\n        /* \"Contracts/BNum.sol\":2991:2995  term */\n      dup2\n        /* \"Contracts/BNum.sol\":2978:2995  uint sum   = term */\n      swap1\n      pop\n        /* \"Contracts/BNum.sol\":3006:3019  bool negative */\n      0x00\n        /* \"Contracts/BNum.sol\":3022:3027  false */\n      dup1\n        /* \"Contracts/BNum.sol\":3006:3027  bool negative = false */\n      swap1\n      pop\n        /* \"Contracts/BNum.sol\":3276:3282  uint i */\n      0x00\n        /* \"Contracts/BNum.sol\":3285:3286  1 */\n      0x01\n        /* \"Contracts/BNum.sol\":3276:3286  uint i = 1 */\n      swap1\n      pop\n        /* \"Contracts/BNum.sol\":3271:3780  for (uint i = 1; term >= precision; i++) {\r... */\n    tag_227:\n        /* \"Contracts/BNum.sol\":3296:3305  precision */\n      dup9\n        /* \"Contracts/BNum.sol\":3288:3292  term */\n      dup5\n        /* \"Contracts/BNum.sol\":3288:3305  term >= precision */\n      lt\n        /* \"Contracts/BNum.sol\":3271:3780  for (uint i = 1; term >= precision; i++) {\r... */\n      tag_228\n      jumpi\n        /* \"Contracts/BNum.sol\":3327:3336  uint bigK */\n      0x00\n        /* \"Contracts/BConst.sol\":132:138  10**18 */\n      0x0de0b6b3a7640000\n        /* \"Contracts/BNum.sol\":3339:3340  i */\n      dup3\n        /* \"Contracts/BNum.sol\":3339:3347  i * BONE */\n      mul\n        /* \"Contracts/BNum.sol\":3327:3347  uint bigK = i * BONE */\n      swap1\n      pop\n        /* \"Contracts/BNum.sol\":3363:3369  uint c */\n      0x00\n        /* \"Contracts/BNum.sol\":3371:3380  bool cneg */\n      dup1\n        /* \"Contracts/BNum.sol\":3384:3413  bsubSign(a, bsub(bigK, BONE)) */\n      tag_230\n        /* \"Contracts/BNum.sol\":3393:3394  a */\n      dup11\n        /* \"Contracts/BNum.sol\":3396:3412  bsub(bigK, BONE) */\n      tag_231\n        /* \"Contracts/BNum.sol\":3401:3405  bigK */\n      dup6\n        /* \"Contracts/BConst.sol\":132:138  10**18 */\n      0x0de0b6b3a7640000\n        /* \"Contracts/BNum.sol\":3396:3400  bsub */\n      tag_98\n        /* \"Contracts/BNum.sol\":3396:3412  bsub(bigK, BONE) */\n      jump\t// in\n    tag_231:\n        /* \"Contracts/BNum.sol\":3384:3392  bsubSign */\n      tag_206\n        /* \"Contracts/BNum.sol\":3384:3413  bsubSign(a, bsub(bigK, BONE)) */\n      jump\t// in\n    tag_230:\n        /* \"Contracts/BNum.sol\":3362:3413  (uint c, bool cneg) = bsubSign(a, bsub(bigK, BONE)) */\n      swap2\n      pop\n      swap2\n      pop\n        /* \"Contracts/BNum.sol\":3435:3457  bmul(term, bmul(c, x)) */\n      tag_232\n        /* \"Contracts/BNum.sol\":3440:3444  term */\n      dup8\n        /* \"Contracts/BNum.sol\":3446:3456  bmul(c, x) */\n      tag_233\n        /* \"Contracts/BNum.sol\":3451:3452  c */\n      dup5\n        /* \"Contracts/BNum.sol\":3454:3455  x */\n      dup13\n        /* \"Contracts/BNum.sol\":3446:3450  bmul */\n      tag_96\n        /* \"Contracts/BNum.sol\":3446:3456  bmul(c, x) */\n      jump\t// in\n    tag_233:\n        /* \"Contracts/BNum.sol\":3435:3439  bmul */\n      tag_96\n        /* \"Contracts/BNum.sol\":3435:3457  bmul(term, bmul(c, x)) */\n      jump\t// in\n    tag_232:\n        /* \"Contracts/BNum.sol\":3428:3457  term = bmul(term, bmul(c, x)) */\n      swap7\n      pop\n        /* \"Contracts/BNum.sol\":3479:3495  bdiv(term, bigK) */\n      tag_234\n        /* \"Contracts/BNum.sol\":3484:3488  term */\n      dup8\n        /* \"Contracts/BNum.sol\":3490:3494  bigK */\n      dup5\n        /* \"Contracts/BNum.sol\":3479:3483  bdiv */\n      tag_88\n        /* \"Contracts/BNum.sol\":3479:3495  bdiv(term, bigK) */\n      jump\t// in\n    tag_234:\n        /* \"Contracts/BNum.sol\":3472:3495  term = bdiv(term, bigK) */\n      swap7\n      pop\n        /* \"Contracts/BNum.sol\":3522:3523  0 */\n      0x00\n        /* \"Contracts/BNum.sol\":3514:3518  term */\n      dup8\n        /* \"Contracts/BNum.sol\":3514:3523  term == 0 */\n      eq\n        /* \"Contracts/BNum.sol\":3510:3530  if (term == 0) break */\n      iszero\n      tag_235\n      jumpi\n        /* \"Contracts/BNum.sol\":3525:3530  break */\n      pop\n      pop\n      pop\n      jump(tag_228)\n        /* \"Contracts/BNum.sol\":3510:3530  if (term == 0) break */\n    tag_235:\n        /* \"Contracts/BNum.sol\":3551:3555  xneg */\n      dup8\n        /* \"Contracts/BNum.sol\":3547:3577  if (xneg) negative = !negative */\n      iszero\n      tag_236\n      jumpi\n        /* \"Contracts/BNum.sol\":3569:3577  negative */\n      dup5\n        /* \"Contracts/BNum.sol\":3568:3577  !negative */\n      iszero\n        /* \"Contracts/BNum.sol\":3557:3577  negative = !negative */\n      swap5\n      pop\n        /* \"Contracts/BNum.sol\":3547:3577  if (xneg) negative = !negative */\n    tag_236:\n        /* \"Contracts/BNum.sol\":3596:3600  cneg */\n      dup1\n        /* \"Contracts/BNum.sol\":3592:3622  if (cneg) negative = !negative */\n      iszero\n      tag_237\n      jumpi\n        /* \"Contracts/BNum.sol\":3614:3622  negative */\n      dup5\n        /* \"Contracts/BNum.sol\":3613:3622  !negative */\n      iszero\n        /* \"Contracts/BNum.sol\":3602:3622  negative = !negative */\n      swap5\n      pop\n        /* \"Contracts/BNum.sol\":3592:3622  if (cneg) negative = !negative */\n    tag_237:\n        /* \"Contracts/BNum.sol\":3641:3649  negative */\n      dup5\n        /* \"Contracts/BNum.sol\":3637:3769  if (negative) {\r... */\n      iszero\n      tag_238\n      jumpi\n        /* \"Contracts/BNum.sol\":3676:3691  bsub(sum, term) */\n      tag_239\n        /* \"Contracts/BNum.sol\":3681:3684  sum */\n      dup7\n        /* \"Contracts/BNum.sol\":3686:3690  term */\n      dup9\n        /* \"Contracts/BNum.sol\":3676:3680  bsub */\n      tag_98\n        /* \"Contracts/BNum.sol\":3676:3691  bsub(sum, term) */\n      jump\t// in\n    tag_239:\n        /* \"Contracts/BNum.sol\":3670:3691  sum = bsub(sum, term) */\n      swap6\n      pop\n        /* \"Contracts/BNum.sol\":3637:3769  if (negative) {\r... */\n      jump(tag_240)\n    tag_238:\n        /* \"Contracts/BNum.sol\":3738:3753  badd(sum, term) */\n      tag_241\n        /* \"Contracts/BNum.sol\":3743:3746  sum */\n      dup7\n        /* \"Contracts/BNum.sol\":3748:3752  term */\n      dup9\n        /* \"Contracts/BNum.sol\":3738:3742  badd */\n      tag_90\n        /* \"Contracts/BNum.sol\":3738:3753  badd(sum, term) */\n      jump\t// in\n    tag_241:\n        /* \"Contracts/BNum.sol\":3732:3753  sum = badd(sum, term) */\n      swap6\n      pop\n        /* \"Contracts/BNum.sol\":3637:3769  if (negative) {\r... */\n    tag_240:\n        /* \"Contracts/BNum.sol\":3271:3780  for (uint i = 1; term >= precision; i++) {\r... */\n      pop\n      pop\n      pop\n        /* \"Contracts/BNum.sol\":3307:3310  i++ */\n      dup1\n      dup1\n      0x01\n      add\n      swap2\n      pop\n      pop\n        /* \"Contracts/BNum.sol\":3271:3780  for (uint i = 1; term >= precision; i++) {\r... */\n      jump(tag_227)\n    tag_228:\n      pop\n        /* \"Contracts/BNum.sol\":3799:3802  sum */\n      dup2\n        /* \"Contracts/BNum.sol\":3792:3802  return sum */\n      swap7\n      pop\n      pop\n      pop\n      pop\n      pop\n      pop\n      pop\n        /* \"Contracts/BNum.sol\":2730:3810  function bpowApprox(uint base, uint exp, uint precision)\r... */\n      swap4\n      swap3\n      pop\n      pop\n      pop\n      jump\t// out\n        /* \"Contracts/BNum.sol\":727:950  function bsubSign(uint a, uint b)\r... */\n    tag_206:\n        /* \"Contracts/BNum.sol\":802:806  uint */\n      0x00\n        /* \"Contracts/BNum.sol\":808:812  bool */\n      dup1\n        /* \"Contracts/BNum.sol\":839:840  b */\n      dup3\n        /* \"Contracts/BNum.sol\":834:835  a */\n      dup5\n        /* \"Contracts/BNum.sol\":834:840  a >= b */\n      lt\n        /* \"Contracts/BNum.sol\":830:943  if (a >= b) {\r... */\n      tag_243\n      jumpi\n        /* \"Contracts/BNum.sol\":869:870  b */\n      dup3\n        /* \"Contracts/BNum.sol\":865:866  a */\n      dup5\n        /* \"Contracts/BNum.sol\":865:870  a - b */\n      sub\n        /* \"Contracts/BNum.sol\":872:877  false */\n      0x00\n        /* \"Contracts/BNum.sol\":857:878  return (a - b, false) */\n      swap2\n      pop\n      swap2\n      pop\n      jump(tag_242)\n        /* \"Contracts/BNum.sol\":830:943  if (a >= b) {\r... */\n    tag_243:\n        /* \"Contracts/BNum.sol\":923:924  a */\n      dup4\n        /* \"Contracts/BNum.sol\":919:920  b */\n      dup4\n        /* \"Contracts/BNum.sol\":919:924  b - a */\n      sub\n        /* \"Contracts/BNum.sol\":926:930  true */\n      0x01\n        /* \"Contracts/BNum.sol\":911:931  return (b - a, true) */\n      swap2\n      pop\n      swap2\n      pop\n        /* \"Contracts/BNum.sol\":727:950  function bsubSign(uint a, uint b)\r... */\n    tag_242:\n      swap3\n      pop\n      swap3\n      swap1\n      pop\n      jump\t// out\n\n    auxdata: 0xa265627a7a723158206649fd2e18f52b95a764b4c6cb742f30c7cf137372bec98fc17dc518d7a1b02764736f6c634300050c0032\n}\n",
				"bytecode": {
					"linkReferences": {},
					"object": "608060405234801561001057600080fd5b506113d3806100206000396000f3fe608060405234801561001057600080fd5b50600436106101585760003560e01c8063a221ee49116100c3578063bc694ea21161007c578063bc694ea214610573578063c36596a614610591578063c6580d12146105af578063e4a28a52146105cd578063ec093021146105eb578063f8d6aed41461060957610158565b8063a221ee491461041d578063b0e0d13614610487578063b7b800a4146104a5578063ba019dab146104c3578063ba9530a6146104e1578063bc063e1a1461055557610158565b80638656b653116101155780638656b653146102bd578063867378c514610331578063892980121461034f5780639381cd2b146103c3578063992e2a92146103e15780639a86139b146103ff57610158565b806309a3bbe41461015d578063189d00ca1461017b578063218b5382146101995780635c1bbaf7146101b757806376c7a3c71461022b57806382f652ad14610249575b600080fd5b61016561067d565b6040518082815260200191505060405180910390f35b61018361068c565b6040518082815260200191505060405180910390f35b6101a16106a6565b6040518082815260200191505060405180910390f35b610215600480360360c08110156101cd57600080fd5b810190808035906020019092919080359060200190929190803590602001909291908035906020019092919080359060200190929190803590602001909291905050506106b2565b6040518082815260200191505060405180910390f35b61023361076e565b6040518082815260200191505060405180910390f35b6102a7600480360360c081101561025f57600080fd5b81019080803590602001909291908035906020019092919080359060200190929190803590602001909291908035906020019092919080359060200190929190505050610786565b6040518082815260200191505060405180910390f35b61031b600480360360c08110156102d357600080fd5b81019080803590602001909291908035906020019092919080359060200190929190803590602001909291908035906020019092919080359060200190929190505050610852565b6040518082815260200191505060405180910390f35b6103396108f7565b6040518082815260200191505060405180910390f35b6103ad600480360360c081101561036557600080fd5b81019080803590602001909291908035906020019092919080359060200190929190803590602001909291908035906020019092919080359060200190929190505050610911565b6040518082815260200191505060405180910390f35b6103cb6109e8565b6040518082815260200191505060405180910390f35b6103e96109f7565b6040518082815260200191505060405180910390f35b610407610a10565b6040518082815260200191505060405180910390f35b610471600480360360a081101561043357600080fd5b810190808035906020019092919080359060200190929190803590602001909291908035906020019092919080359060200190929190505050610a38565b6040518082815260200191505060405180910390f35b61048f610aa6565b6040518082815260200191505060405180910390f35b6104ad610aab565b6040518082815260200191505060405180910390f35b6104cb610ab0565b6040518082815260200191505060405180910390f35b61053f600480360360c08110156104f757600080fd5b81019080803590602001909291908035906020019092919080359060200190929190803590602001909291908035906020019092919080359060200190929190505050610ab5565b6040518082815260200191505060405180910390f35b61055d610b3f565b6040518082815260200191505060405180910390f35b61057b610b55565b6040518082815260200191505060405180910390f35b610599610b67565b6040518082815260200191505060405180910390f35b6105b7610b73565b6040518082815260200191505060405180910390f35b6105d5610b78565b6040518082815260200191505060405180910390f35b6105f3610b87565b6040518082815260200191505060405180910390f35b610667600480360360c081101561061f57600080fd5b81019080803590602001909291908035906020019092919080359060200190929190803590602001909291908035906020019092919080359060200190929190505050610b9d565b6040518082815260200191505060405180910390f35b6032670de0b6b3a76400000281565b6402540be400670de0b6b3a7640000816106a257fe5b0481565b670de0b6b3a764000081565b6000806106bf8786610c24565b905060006106cd8786610ddd565b905060006106db8289610c24565b905060006106f1670de0b6b3a764000085610c24565b905060006106ff8383610e65565b9050600061070d828e610fe3565b9050600061071b828f611125565b9050600061073a610734670de0b6b3a76400008a611125565b8b610fe3565b905061075782610752670de0b6b3a764000084611125565b610c24565b985088985050505050505050509695505050505050565b620f4240670de0b6b3a76400008161078257fe5b0481565b6000806107938786610c24565b905060006107a9670de0b6b3a764000083611125565b905060006107b78286610fe3565b905060006107d6876107d1670de0b6b3a764000085611125565b610c24565b905060006107e48c83611125565b905060006107f2828e610c24565b905060006108008288610e65565b9050600061080e828e610fe3565b9050600061081c8e83611125565b905061083a81610835670de0b6b3a76400006000611125565b610c24565b99508999505050505050505050509695505050505050565b60008061085f8786610c24565b9050600061087e610878670de0b6b3a764000084611125565b85610fe3565b9050600061089d86610898670de0b6b3a764000085611125565b610fe3565b905060006108ab8b83610ddd565b905060006108b9828d610c24565b905060006108c78287610e65565b905060006108d5828d610fe3565b90506108e1818d611125565b9750879750505050505050509695505050505050565b64e8d4a51000670de0b6b3a76400008161090d57fe5b0481565b60008061091e8786610c24565b9050600061093e85610939670de0b6b3a76400006000611125565b610fe3565b9050600061094c8883611125565b9050600061095a828a610c24565b9050600061097982610974670de0b6b3a764000088610c24565b610e65565b90506000610987828e610fe3565b905060006109958e83611125565b905060006109b46109ae670de0b6b3a76400008a611125565b8b610fe3565b90506109d1826109cc670de0b6b3a764000084611125565b610fe3565b985088985050505050505050509695505050505050565b6064670de0b6b3a76400000281565b60016003670de0b6b3a764000081610a0b57fe5b040181565b60007f42524f4e5a450000000000000000000000000000000000000000000000000000905090565b600080610a458787610c24565b90506000610a538686610c24565b90506000610a618383610c24565b90506000610a88670de0b6b3a7640000610a83670de0b6b3a764000089611125565b610c24565b9050610a948282610fe3565b94508494505050505095945050505050565b600881565b600281565b600181565b600080610ac28786610c24565b90506000610ad8670de0b6b3a764000085611125565b9050610ae48582610fe3565b90506000610afb8a610af68c85610ddd565b610c24565b90506000610b098285610e65565b90506000610b1f670de0b6b3a764000083611125565b9050610b2b8a82610fe3565b955085955050505050509695505050505050565b600a670de0b6b3a764000081610b5157fe5b0481565b6001670de0b6b3a76400006002020381565b670de0b6b3a764000081565b600081565b6032670de0b6b3a76400000281565b6002670de0b6b3a764000081610b9957fe5b0481565b600080610baa8588610c24565b90506000610bb88786611125565b90506000610bc68883610c24565b90506000610bd48285610e65565b9050610be881670de0b6b3a7640000611125565b9050610bfc670de0b6b3a764000087611125565b9450610c11610c0b8c83610fe3565b86610c24565b9450849450505050509695505050505050565b600080821415610c9c576040517f08c379a000000000000000000000000000000000000000000000000000000000815260040180806020018281038252600c8152602001807f4552525f4449565f5a45524f000000000000000000000000000000000000000081525060200191505060405180910390fd5b6000670de0b6b3a7640000840290506000841480610cca5750670de0b6b3a7640000848281610cc757fe5b04145b610d3c576040517f08c379a00000000000000000000000000000000000000000000000000000000081526004018080602001828103825260108152602001807f4552525f4449565f494e5445524e414c0000000000000000000000000000000081525060200191505060405180910390fd5b600060028481610d4857fe5b048201905081811015610dc3576040517f08c379a00000000000000000000000000000000000000000000000000000000081526004018080602001828103825260108152602001807f4552525f4449565f494e5445524e414c0000000000000000000000000000000081525060200191505060405180910390fd5b6000848281610dce57fe5b04905080935050505092915050565b600080828401905083811015610e5b576040517f08c379a00000000000000000000000000000000000000000000000000000000081526004018080602001828103825260108152602001807f4552525f4144445f4f564552464c4f570000000000000000000000000000000081525060200191505060405180910390fd5b8091505092915050565b60006001831015610ede576040517f08c379a00000000000000000000000000000000000000000000000000000000081526004018080602001828103825260158152602001807f4552525f42504f575f424153455f544f4f5f4c4f57000000000000000000000081525060200191505060405180910390fd5b6001670de0b6b3a764000060020203831115610f62576040517f08c379a00000000000000000000000000000000000000000000000000000000081526004018080602001828103825260168152602001807f4552525f42504f575f424153455f544f4f5f484947480000000000000000000081525060200191505060405180910390fd5b6000610f6d836111b7565b90506000610f7b8483611125565b90506000610f9186610f8c856111d3565b6111ee565b90506000821415610fa757809350505050610fdd565b6000610fca87846402540be400670de0b6b3a764000081610fc457fe5b04611273565b9050610fd68282610fe3565b9450505050505b92915050565b60008082840290506000841480611002575082848281610fff57fe5b04145b611074576040517f08c379a00000000000000000000000000000000000000000000000000000000081526004018080602001828103825260108152602001807f4552525f4d554c5f4f564552464c4f570000000000000000000000000000000081525060200191505060405180910390fd5b60006002670de0b6b3a76400008161108857fe5b048201905081811015611103576040517f08c379a00000000000000000000000000000000000000000000000000000000081526004018080602001828103825260108152602001807f4552525f4d554c5f4f564552464c4f570000000000000000000000000000000081525060200191505060405180910390fd5b6000670de0b6b3a7640000828161111657fe5b04905080935050505092915050565b60008060006111348585611375565b9150915080156111ac576040517f08c379a00000000000000000000000000000000000000000000000000000000081526004018080602001828103825260118152602001807f4552525f5355425f554e444552464c4f5700000000000000000000000000000081525060200191505060405180910390fd5b819250505092915050565b6000670de0b6b3a76400006111cb836111d3565b029050919050565b6000670de0b6b3a764000082816111e657fe5b049050919050565b6000806000600284816111fd57fe5b06141561121257670de0b6b3a7640000611214565b835b90506002838161122057fe5b0492505b60008314611269576112368485610fe3565b935060006002848161124457fe5b0614611257576112548185610fe3565b90505b6002838161126157fe5b049250611224565b8091505092915050565b60008083905060008061128e87670de0b6b3a7640000611375565b915091506000670de0b6b3a76400009050600081905060008090506000600190505b888410611364576000670de0b6b3a7640000820290506000806112e48a6112df85670de0b6b3a7640000611125565b611375565b915091506112fb876112f6848c610fe3565b610fe3565b96506113078784610c24565b9650600087141561131a57505050611364565b871561132557841594505b801561133057841594505b8415611347576113408688611125565b9550611354565b6113518688610ddd565b95505b50505080806001019150506112b0565b508196505050505050509392505050565b60008082841061138d57828403600091509150611397565b8383036001915091505b925092905056fea265627a7a723158206649fd2e18f52b95a764b4c6cb742f30c7cf137372bec98fc17dc518d7a1b02764736f6c634300050c0032",
					"opcodes": "PUSH1 0x80 PUSH1 0x40 MSTORE CALLVALUE DUP1 ISZERO PUSH2 0x10 JUMPI PUSH1 0x0 DUP1 REVERT JUMPDEST POP PUSH2 0x13D3 DUP1 PUSH2 0x20 PUSH1 0x0 CODECOPY PUSH1 0x0 RETURN INVALID PUSH1 0x80 PUSH1 0x40 MSTORE CALLVALUE DUP1 ISZERO PUSH2 0x10 JUMPI PUSH1 0x0 DUP1 REVERT JUMPDEST POP PUSH1 0x4 CALLDATASIZE LT PUSH2 0x158 JUMPI PUSH1 0x0 CALLDATALOAD PUSH1 0xE0 SHR DUP1 PUSH4 0xA221EE49 GT PUSH2 0xC3 JUMPI DUP1 PUSH4 0xBC694EA2 GT PUSH2 0x7C JUMPI DUP1 PUSH4 0xBC694EA2 EQ PUSH2 0x573 JUMPI DUP1 PUSH4 0xC36596A6 EQ PUSH2 0x591 JUMPI DUP1 PUSH4 0xC6580D12 EQ PUSH2 0x5AF JUMPI DUP1 PUSH4 0xE4A28A52 EQ PUSH2 0x5CD JUMPI DUP1 PUSH4 0xEC093021 EQ PUSH2 0x5EB JUMPI DUP1 PUSH4 0xF8D6AED4 EQ PUSH2 0x609 JUMPI PUSH2 0x158 JUMP JUMPDEST DUP1 PUSH4 0xA221EE49 EQ PUSH2 0x41D JUMPI DUP1 PUSH4 0xB0E0D136 EQ PUSH2 0x487 JUMPI DUP1 PUSH4 0xB7B800A4 EQ PUSH2 0x4A5 JUMPI DUP1 PUSH4 0xBA019DAB EQ PUSH2 0x4C3 JUMPI DUP1 PUSH4 0xBA9530A6 EQ PUSH2 0x4E1 JUMPI DUP1 PUSH4 0xBC063E1A EQ PUSH2 0x555 JUMPI PUSH2 0x158 JUMP JUMPDEST DUP1 PUSH4 0x8656B653 GT PUSH2 0x115 JUMPI DUP1 PUSH4 0x8656B653 EQ PUSH2 0x2BD JUMPI DUP1 PUSH4 0x867378C5 EQ PUSH2 0x331 JUMPI DUP1 PUSH4 0x89298012 EQ PUSH2 0x34F JUMPI DUP1 PUSH4 0x9381CD2B EQ PUSH2 0x3C3 JUMPI DUP1 PUSH4 0x992E2A92 EQ PUSH2 0x3E1 JUMPI DUP1 PUSH4 0x9A86139B EQ PUSH2 0x3FF JUMPI PUSH2 0x158 JUMP JUMPDEST DUP1 PUSH4 0x9A3BBE4 EQ PUSH2 0x15D JUMPI DUP1 PUSH4 0x189D00CA EQ PUSH2 0x17B JUMPI DUP1 PUSH4 0x218B5382 EQ PUSH2 0x199 JUMPI DUP1 PUSH4 0x5C1BBAF7 EQ PUSH2 0x1B7 JUMPI DUP1 PUSH4 0x76C7A3C7 EQ PUSH2 0x22B JUMPI DUP1 PUSH4 0x82F652AD EQ PUSH2 0x249 JUMPI JUMPDEST PUSH1 0x0 DUP1 REVERT JUMPDEST PUSH2 0x165 PUSH2 0x67D JUMP JUMPDEST PUSH1 0x40 MLOAD DUP1 DUP3 DUP2 MSTORE PUSH1 0x20 ADD SWAP2 POP POP PUSH1 0x40 MLOAD DUP1 SWAP2 SUB SWAP1 RETURN JUMPDEST PUSH2 0x183 PUSH2 0x68C JUMP JUMPDEST PUSH1 0x40 MLOAD DUP1 DUP3 DUP2 MSTORE PUSH1 0x20 ADD SWAP2 POP POP PUSH1 0x40 MLOAD DUP1 SWAP2 SUB SWAP1 RETURN JUMPDEST PUSH2 0x1A1 PUSH2 0x6A6 JUMP JUMPDEST PUSH1 0x40 MLOAD DUP1 DUP3 DUP2 MSTORE PUSH1 0x20 ADD SWAP2 POP POP PUSH1 0x40 MLOAD DUP1 SWAP2 SUB SWAP1 RETURN JUMPDEST PUSH2 0x215 PUSH1 0x4 DUP1 CALLDATASIZE SUB PUSH1 0xC0 DUP2 LT ISZERO PUSH2 0x1CD JUMPI PUSH1 0x0 DUP1 REVERT JUMPDEST DUP2 ADD SWAP1 DUP1 DUP1 CALLDATALOAD SWAP1 PUSH1 0x20 ADD SWAP1 SWAP3 SWAP2 SWAP1 DUP1 CALLDATALOAD SWAP1 PUSH1 0x20 ADD SWAP1 SWAP3 SWAP2 SWAP1 DUP1 CALLDATALOAD SWAP1 PUSH1 0x20 ADD SWAP1 SWAP3 SWAP2 SWAP1 DUP1 CALLDATALOAD SWAP1 PUSH1 0x20 ADD SWAP1 SWAP3 SWAP2 SWAP1 DUP1 CALLDATALOAD SWAP1 PUSH1 0x20 ADD SWAP1 SWAP3 SWAP2 SWAP1 DUP1 CALLDATALOAD SWAP1 PUSH1 0x20 ADD SWAP1 SWAP3 SWAP2 SWAP1 POP POP POP PUSH2 0x6B2 JUMP JUMPDEST PUSH1 0x40 MLOAD DUP1 DUP3 DUP2 MSTORE PUSH1 0x20 ADD SWAP2 POP POP PUSH1 0x40 MLOAD DUP1 SWAP2 SUB SWAP1 RETURN JUMPDEST PUSH2 0x233 PUSH2 0x76E JUMP JUMPDEST PUSH1 0x40 MLOAD DUP1 DUP3 DUP2 MSTORE PUSH1 0x20 ADD SWAP2 POP POP PUSH1 0x40 MLOAD DUP1 SWAP2 SUB SWAP1 RETURN JUMPDEST PUSH2 0x2A7 PUSH1 0x4 DUP1 CALLDATASIZE SUB PUSH1 0xC0 DUP2 LT ISZERO PUSH2 0x25F JUMPI PUSH1 0x0 DUP1 REVERT JUMPDEST DUP2 ADD SWAP1 DUP1 DUP1 CALLDATALOAD SWAP1 PUSH1 0x20 ADD SWAP1 SWAP3 SWAP2 SWAP1 DUP1 CALLDATALOAD SWAP1 PUSH1 0x20 ADD SWAP1 SWAP3 SWAP2 SWAP1 DUP1 CALLDATALOAD SWAP1 PUSH1 0x20 ADD SWAP1 SWAP3 SWAP2 SWAP1 DUP1 CALLDATALOAD SWAP1 PUSH1 0x20 ADD SWAP1 SWAP3 SWAP2 SWAP1 DUP1 CALLDATALOAD SWAP1 PUSH1 0x20 ADD SWAP1 SWAP3 SWAP2 SWAP1 DUP1 CALLDATALOAD SWAP1 PUSH1 0x20 ADD SWAP1 SWAP3 SWAP2 SWAP1 POP POP POP PUSH2 0x786 JUMP JUMPDEST PUSH1 0x40 MLOAD DUP1 DUP3 DUP2 MSTORE PUSH1 0x20 ADD SWAP2 POP POP PUSH1 0x40 MLOAD DUP1 SWAP2 SUB SWAP1 RETURN JUMPDEST PUSH2 0x31B PUSH1 0x4 DUP1 CALLDATASIZE SUB PUSH1 0xC0 DUP2 LT ISZERO PUSH2 0x2D3 JUMPI PUSH1 0x0 DUP1 REVERT JUMPDEST DUP2 ADD SWAP1 DUP1 DUP1 CALLDATALOAD SWAP1 PUSH1 0x20 ADD SWAP1 SWAP3 SWAP2 SWAP1 DUP1 CALLDATALOAD SWAP1 PUSH1 0x20 ADD SWAP1 SWAP3 SWAP2 SWAP1 DUP1 CALLDATALOAD SWAP1 PUSH1 0x20 ADD SWAP1 SWAP3 SWAP2 SWAP1 DUP1 CALLDATALOAD SWAP1 PUSH1 0x20 ADD SWAP1 SWAP3 SWAP2 SWAP1 DUP1 CALLDATALOAD SWAP1 PUSH1 0x20 ADD SWAP1 SWAP3 SWAP2 SWAP1 DUP1 CALLDATALOAD SWAP1 PUSH1 0x20 ADD SWAP1 SWAP3 SWAP2 SWAP1 POP POP POP PUSH2 0x852 JUMP JUMPDEST PUSH1 0x40 MLOAD DUP1 DUP3 DUP2 MSTORE PUSH1 0x20 ADD SWAP2 POP POP PUSH1 0x40 MLOAD DUP1 SWAP2 SUB SWAP1 RETURN JUMPDEST PUSH2 0x339 PUSH2 0x8F7 JUMP JUMPDEST PUSH1 0x40 MLOAD DUP1 DUP3 DUP2 MSTORE PUSH1 0x20 ADD SWAP2 POP POP PUSH1 0x40 MLOAD DUP1 SWAP2 SUB SWAP1 RETURN JUMPDEST PUSH2 0x3AD PUSH1 0x4 DUP1 CALLDATASIZE SUB PUSH1 0xC0 DUP2 LT ISZERO PUSH2 0x365 JUMPI PUSH1 0x0 DUP1 REVERT JUMPDEST DUP2 ADD SWAP1 DUP1 DUP1 CALLDATALOAD SWAP1 PUSH1 0x20 ADD SWAP1 SWAP3 SWAP2 SWAP1 DUP1 CALLDATALOAD SWAP1 PUSH1 0x20 ADD SWAP1 SWAP3 SWAP2 SWAP1 DUP1 CALLDATALOAD SWAP1 PUSH1 0x20 ADD SWAP1 SWAP3 SWAP2 SWAP1 DUP1 CALLDATALOAD SWAP1 PUSH1 0x20 ADD SWAP1 SWAP3 SWAP2 SWAP1 DUP1 CALLDATALOAD SWAP1 PUSH1 0x20 ADD SWAP1 SWAP3 SWAP2 SWAP1 DUP1 CALLDATALOAD SWAP1 PUSH1 0x20 ADD SWAP1 SWAP3 SWAP2 SWAP1 POP POP POP PUSH2 0x911 JUMP JUMPDEST PUSH1 0x40 MLOAD DUP1 DUP3 DUP2 MSTORE PUSH1 0x20 ADD SWAP2 POP POP PUSH1 0x40 MLOAD DUP1 SWAP2 SUB SWAP1 RETURN JUMPDEST PUSH2 0x3CB PUSH2 0x9E8 JUMP JUMPDEST PUSH1 0x40 MLOAD DUP1 DUP3 DUP2 MSTORE PUSH1 0x20 ADD SWAP2 POP POP PUSH1 0x40 MLOAD DUP1 SWAP2 SUB SWAP1 RETURN JUMPDEST PUSH2 0x3E9 PUSH2 0x9F7 JUMP JUMPDEST PUSH1 0x40 MLOAD DUP1 DUP3 DUP2 MSTORE PUSH1 0x20 ADD SWAP2 POP POP PUSH1 0x40 MLOAD DUP1 SWAP2 SUB SWAP1 RETURN JUMPDEST PUSH2 0x407 PUSH2 0xA10 JUMP JUMPDEST PUSH1 0x40 MLOAD DUP1 DUP3 DUP2 MSTORE PUSH1 0x20 ADD SWAP2 POP POP PUSH1 0x40 MLOAD DUP1 SWAP2 SUB SWAP1 RETURN JUMPDEST PUSH2 0x471 PUSH1 0x4 DUP1 CALLDATASIZE SUB PUSH1 0xA0 DUP2 LT ISZERO PUSH2 0x433 JUMPI PUSH1 0x0 DUP1 REVERT JUMPDEST DUP2 ADD SWAP1 DUP1 DUP1 CALLDATALOAD SWAP1 PUSH1 0x20 ADD SWAP1 SWAP3 SWAP2 SWAP1 DUP1 CALLDATALOAD SWAP1 PUSH1 0x20 ADD SWAP1 SWAP3 SWAP2 SWAP1 DUP1 CALLDATALOAD SWAP1 PUSH1 0x20 ADD SWAP1 SWAP3 SWAP2 SWAP1 DUP1 CALLDATALOAD SWAP1 PUSH1 0x20 ADD SWAP1 SWAP3 SWAP2 SWAP1 DUP1 CALLDATALOAD SWAP1 PUSH1 0x20 ADD SWAP1 SWAP3 SWAP2 SWAP1 POP POP POP PUSH2 0xA38 JUMP JUMPDEST PUSH1 0x40 MLOAD DUP1 DUP3 DUP2 MSTORE PUSH1 0x20 ADD SWAP2 POP POP PUSH1 0x40 MLOAD DUP1 SWAP2 SUB SWAP1 RETURN JUMPDEST PUSH2 0x48F PUSH2 0xAA6 JUMP JUMPDEST PUSH1 0x40 MLOAD DUP1 DUP3 DUP2 MSTORE PUSH1 0x20 ADD SWAP2 POP POP PUSH1 0x40 MLOAD DUP1 SWAP2 SUB SWAP1 RETURN JUMPDEST PUSH2 0x4AD PUSH2 0xAAB JUMP JUMPDEST PUSH1 0x40 MLOAD DUP1 DUP3 DUP2 MSTORE PUSH1 0x20 ADD SWAP2 POP POP PUSH1 0x40 MLOAD DUP1 SWAP2 SUB SWAP1 RETURN JUMPDEST PUSH2 0x4CB PUSH2 0xAB0 JUMP JUMPDEST PUSH1 0x40 MLOAD DUP1 DUP3 DUP2 MSTORE PUSH1 0x20 ADD SWAP2 POP POP PUSH1 0x40 MLOAD DUP1 SWAP2 SUB SWAP1 RETURN JUMPDEST PUSH2 0x53F PUSH1 0x4 DUP1 CALLDATASIZE SUB PUSH1 0xC0 DUP2 LT ISZERO PUSH2 0x4F7 JUMPI PUSH1 0x0 DUP1 REVERT JUMPDEST DUP2 ADD SWAP1 DUP1 DUP1 CALLDATALOAD SWAP1 PUSH1 0x20 ADD SWAP1 SWAP3 SWAP2 SWAP1 DUP1 CALLDATALOAD SWAP1 PUSH1 0x20 ADD SWAP1 SWAP3 SWAP2 SWAP1 DUP1 CALLDATALOAD SWAP1 PUSH1 0x20 ADD SWAP1 SWAP3 SWAP2 SWAP1 DUP1 CALLDATALOAD SWAP1 PUSH1 0x20 ADD SWAP1 SWAP3 SWAP2 SWAP1 DUP1 CALLDATALOAD SWAP1 PUSH1 0x20 ADD SWAP1 SWAP3 SWAP2 SWAP1 DUP1 CALLDATALOAD SWAP1 PUSH1 0x20 ADD SWAP1 SWAP3 SWAP2 SWAP1 POP POP POP PUSH2 0xAB5 JUMP JUMPDEST PUSH1 0x40 MLOAD DUP1 DUP3 DUP2 MSTORE PUSH1 0x20 ADD SWAP2 POP POP PUSH1 0x40 MLOAD DUP1 SWAP2 SUB SWAP1 RETURN JUMPDEST PUSH2 0x55D PUSH2 0xB3F JUMP JUMPDEST PUSH1 0x40 MLOAD DUP1 DUP3 DUP2 MSTORE PUSH1 0x20 ADD SWAP2 POP POP PUSH1 0x40 MLOAD DUP1 SWAP2 SUB SWAP1 RETURN JUMPDEST PUSH2 0x57B PUSH2 0xB55 JUMP JUMPDEST PUSH1 0x40 MLOAD DUP1 DUP3 DUP2 MSTORE PUSH1 0x20 ADD SWAP2 POP POP PUSH1 0x40 MLOAD DUP1 SWAP2 SUB SWAP1 RETURN JUMPDEST PUSH2 0x599 PUSH2 0xB67 JUMP JUMPDEST PUSH1 0x40 MLOAD DUP1 DUP3 DUP2 MSTORE PUSH1 0x20 ADD SWAP2 POP POP PUSH1 0x40 MLOAD DUP1 SWAP2 SUB SWAP1 RETURN JUMPDEST PUSH2 0x5B7 PUSH2 0xB73 JUMP JUMPDEST PUSH1 0x40 MLOAD DUP1 DUP3 DUP2 MSTORE PUSH1 0x20 ADD SWAP2 POP POP PUSH1 0x40 MLOAD DUP1 SWAP2 SUB SWAP1 RETURN JUMPDEST PUSH2 0x5D5 PUSH2 0xB78 JUMP JUMPDEST PUSH1 0x40 MLOAD DUP1 DUP3 DUP2 MSTORE PUSH1 0x20 ADD SWAP2 POP POP PUSH1 0x40 MLOAD DUP1 SWAP2 SUB SWAP1 RETURN JUMPDEST PUSH2 0x5F3 PUSH2 0xB87 JUMP JUMPDEST PUSH1 0x40 MLOAD DUP1 DUP3 DUP2 MSTORE PUSH1 0x20 ADD SWAP2 POP POP PUSH1 0x40 MLOAD DUP1 SWAP2 SUB SWAP1 RETURN JUMPDEST PUSH2 0x667 PUSH1 0x4 DUP1 CALLDATASIZE SUB PUSH1 0xC0 DUP2 LT ISZERO PUSH2 0x61F JUMPI PUSH1 0x0 DUP1 REVERT JUMPDEST DUP2 ADD SWAP1 DUP1 DUP1 CALLDATALOAD SWAP1 PUSH1 0x20 ADD SWAP1 SWAP3 SWAP2 SWAP1 DUP1 CALLDATALOAD SWAP1 PUSH1 0x20 ADD SWAP1 SWAP3 SWAP2 SWAP1 DUP1 CALLDATALOAD SWAP1 PUSH1 0x20 ADD SWAP1 SWAP3 SWAP2 SWAP1 DUP1 CALLDATALOAD SWAP1 PUSH1 0x20 ADD SWAP1 SWAP3 SWAP2 SWAP1 DUP1 CALLDATALOAD SWAP1 PUSH1 0x20 ADD SWAP1 SWAP3 SWAP2 SWAP1 DUP1 CALLDATALOAD SWAP1 PUSH1 0x20 ADD SWAP1 SWAP3 SWAP2 SWAP1 POP POP POP PUSH2 0xB9D JUMP JUMPDEST PUSH1 0x40 MLOAD DUP1 DUP3 DUP2 MSTORE PUSH1 0x20 ADD SWAP2 POP POP PUSH1 0x40 MLOAD DUP1 SWAP2 SUB SWAP1 RETURN JUMPDEST PUSH1 0x32 PUSH8 0xDE0B6B3A7640000 MUL DUP2 JUMP JUMPDEST PUSH5 0x2540BE400 PUSH8 0xDE0B6B3A7640000 DUP2 PUSH2 0x6A2 JUMPI INVALID JUMPDEST DIV DUP2 JUMP JUMPDEST PUSH8 0xDE0B6B3A7640000 DUP2 JUMP JUMPDEST PUSH1 0x0 DUP1 PUSH2 0x6BF DUP8 DUP7 PUSH2 0xC24 JUMP JUMPDEST SWAP1 POP PUSH1 0x0 PUSH2 0x6CD DUP8 DUP7 PUSH2 0xDDD JUMP JUMPDEST SWAP1 POP PUSH1 0x0 PUSH2 0x6DB DUP3 DUP10 PUSH2 0xC24 JUMP JUMPDEST SWAP1 POP PUSH1 0x0 PUSH2 0x6F1 PUSH8 0xDE0B6B3A7640000 DUP6 PUSH2 0xC24 JUMP JUMPDEST SWAP1 POP PUSH1 0x0 PUSH2 0x6FF DUP4 DUP4 PUSH2 0xE65 JUMP JUMPDEST SWAP1 POP PUSH1 0x0 PUSH2 0x70D DUP3 DUP15 PUSH2 0xFE3 JUMP JUMPDEST SWAP1 POP PUSH1 0x0 PUSH2 0x71B DUP3 DUP16 PUSH2 0x1125 JUMP JUMPDEST SWAP1 POP PUSH1 0x0 PUSH2 0x73A PUSH2 0x734 PUSH8 0xDE0B6B3A7640000 DUP11 PUSH2 0x1125 JUMP JUMPDEST DUP12 PUSH2 0xFE3 JUMP JUMPDEST SWAP1 POP PUSH2 0x757 DUP3 PUSH2 0x752 PUSH8 0xDE0B6B3A7640000 DUP5 PUSH2 0x1125 JUMP JUMPDEST PUSH2 0xC24 JUMP JUMPDEST SWAP9 POP DUP9 SWAP9 POP POP POP POP POP POP POP POP POP SWAP7 SWAP6 POP POP POP POP POP POP JUMP JUMPDEST PUSH3 0xF4240 PUSH8 0xDE0B6B3A7640000 DUP2 PUSH2 0x782 JUMPI INVALID JUMPDEST DIV DUP2 JUMP JUMPDEST PUSH1 0x0 DUP1 PUSH2 0x793 DUP8 DUP7 PUSH2 0xC24 JUMP JUMPDEST SWAP1 POP PUSH1 0x0 PUSH2 0x7A9 PUSH8 0xDE0B6B3A7640000 DUP4 PUSH2 0x1125 JUMP JUMPDEST SWAP1 POP PUSH1 0x0 PUSH2 0x7B7 DUP3 DUP7 PUSH2 0xFE3 JUMP JUMPDEST SWAP1 POP PUSH1 0x0 PUSH2 0x7D6 DUP8 PUSH2 0x7D1 PUSH8 0xDE0B6B3A7640000 DUP6 PUSH2 0x1125 JUMP JUMPDEST PUSH2 0xC24 JUMP JUMPDEST SWAP1 POP PUSH1 0x0 PUSH2 0x7E4 DUP13 DUP4 PUSH2 0x1125 JUMP JUMPDEST SWAP1 POP PUSH1 0x0 PUSH2 0x7F2 DUP3 DUP15 PUSH2 0xC24 JUMP JUMPDEST SWAP1 POP PUSH1 0x0 PUSH2 0x800 DUP3 DUP9 PUSH2 0xE65 JUMP JUMPDEST SWAP1 POP PUSH1 0x0 PUSH2 0x80E DUP3 DUP15 PUSH2 0xFE3 JUMP JUMPDEST SWAP1 POP PUSH1 0x0 PUSH2 0x81C DUP15 DUP4 PUSH2 0x1125 JUMP JUMPDEST SWAP1 POP PUSH2 0x83A DUP2 PUSH2 0x835 PUSH8 0xDE0B6B3A7640000 PUSH1 0x0 PUSH2 0x1125 JUMP JUMPDEST PUSH2 0xC24 JUMP JUMPDEST SWAP10 POP DUP10 SWAP10 POP POP POP POP POP POP POP POP POP POP SWAP7 SWAP6 POP POP POP POP POP POP JUMP JUMPDEST PUSH1 0x0 DUP1 PUSH2 0x85F DUP8 DUP7 PUSH2 0xC24 JUMP JUMPDEST SWAP1 POP PUSH1 0x0 PUSH2 0x87E PUSH2 0x878 PUSH8 0xDE0B6B3A7640000 DUP5 PUSH2 0x1125 JUMP JUMPDEST DUP6 PUSH2 0xFE3 JUMP JUMPDEST SWAP1 POP PUSH1 0x0 PUSH2 0x89D DUP7 PUSH2 0x898 PUSH8 0xDE0B6B3A7640000 DUP6 PUSH2 0x1125 JUMP JUMPDEST PUSH2 0xFE3 JUMP JUMPDEST SWAP1 POP PUSH1 0x0 PUSH2 0x8AB DUP12 DUP4 PUSH2 0xDDD JUMP JUMPDEST SWAP1 POP PUSH1 0x0 PUSH2 0x8B9 DUP3 DUP14 PUSH2 0xC24 JUMP JUMPDEST SWAP1 POP PUSH1 0x0 PUSH2 0x8C7 DUP3 DUP8 PUSH2 0xE65 JUMP JUMPDEST SWAP1 POP PUSH1 0x0 PUSH2 0x8D5 DUP3 DUP14 PUSH2 0xFE3 JUMP JUMPDEST SWAP1 POP PUSH2 0x8E1 DUP2 DUP14 PUSH2 0x1125 JUMP JUMPDEST SWAP8 POP DUP8 SWAP8 POP POP POP POP POP POP POP POP SWAP7 SWAP6 POP POP POP POP POP POP JUMP JUMPDEST PUSH5 0xE8D4A51000 PUSH8 0xDE0B6B3A7640000 DUP2 PUSH2 0x90D JUMPI INVALID JUMPDEST DIV DUP2 JUMP JUMPDEST PUSH1 0x0 DUP1 PUSH2 0x91E DUP8 DUP7 PUSH2 0xC24 JUMP JUMPDEST SWAP1 POP PUSH1 0x0 PUSH2 0x93E DUP6 PUSH2 0x939 PUSH8 0xDE0B6B3A7640000 PUSH1 0x0 PUSH2 0x1125 JUMP JUMPDEST PUSH2 0xFE3 JUMP JUMPDEST SWAP1 POP PUSH1 0x0 PUSH2 0x94C DUP9 DUP4 PUSH2 0x1125 JUMP JUMPDEST SWAP1 POP PUSH1 0x0 PUSH2 0x95A DUP3 DUP11 PUSH2 0xC24 JUMP JUMPDEST SWAP1 POP PUSH1 0x0 PUSH2 0x979 DUP3 PUSH2 0x974 PUSH8 0xDE0B6B3A7640000 DUP9 PUSH2 0xC24 JUMP JUMPDEST PUSH2 0xE65 JUMP JUMPDEST SWAP1 POP PUSH1 0x0 PUSH2 0x987 DUP3 DUP15 PUSH2 0xFE3 JUMP JUMPDEST SWAP1 POP PUSH1 0x0 PUSH2 0x995 DUP15 DUP4 PUSH2 0x1125 JUMP JUMPDEST SWAP1 POP PUSH1 0x0 PUSH2 0x9B4 PUSH2 0x9AE PUSH8 0xDE0B6B3A7640000 DUP11 PUSH2 0x1125 JUMP JUMPDEST DUP12 PUSH2 0xFE3 JUMP JUMPDEST SWAP1 POP PUSH2 0x9D1 DUP3 PUSH2 0x9CC PUSH8 0xDE0B6B3A7640000 DUP5 PUSH2 0x1125 JUMP JUMPDEST PUSH2 0xFE3 JUMP JUMPDEST SWAP9 POP DUP9 SWAP9 POP POP POP POP POP POP POP POP POP SWAP7 SWAP6 POP POP POP POP POP POP JUMP JUMPDEST PUSH1 0x64 PUSH8 0xDE0B6B3A7640000 MUL DUP2 JUMP JUMPDEST PUSH1 0x1 PUSH1 0x3 PUSH8 0xDE0B6B3A7640000 DUP2 PUSH2 0xA0B JUMPI INVALID JUMPDEST DIV ADD DUP2 JUMP JUMPDEST PUSH1 0x0 PUSH32 0x42524F4E5A450000000000000000000000000000000000000000000000000000 SWAP1 POP SWAP1 JUMP JUMPDEST PUSH1 0x0 DUP1 PUSH2 0xA45 DUP8 DUP8 PUSH2 0xC24 JUMP JUMPDEST SWAP1 POP PUSH1 0x0 PUSH2 0xA53 DUP7 DUP7 PUSH2 0xC24 JUMP JUMPDEST SWAP1 POP PUSH1 0x0 PUSH2 0xA61 DUP4 DUP4 PUSH2 0xC24 JUMP JUMPDEST SWAP1 POP PUSH1 0x0 PUSH2 0xA88 PUSH8 0xDE0B6B3A7640000 PUSH2 0xA83 PUSH8 0xDE0B6B3A7640000 DUP10 PUSH2 0x1125 JUMP JUMPDEST PUSH2 0xC24 JUMP JUMPDEST SWAP1 POP PUSH2 0xA94 DUP3 DUP3 PUSH2 0xFE3 JUMP JUMPDEST SWAP5 POP DUP5 SWAP5 POP POP POP POP POP SWAP6 SWAP5 POP POP POP POP POP JUMP JUMPDEST PUSH1 0x8 DUP2 JUMP JUMPDEST PUSH1 0x2 DUP2 JUMP JUMPDEST PUSH1 0x1 DUP2 JUMP JUMPDEST PUSH1 0x0 DUP1 PUSH2 0xAC2 DUP8 DUP7 PUSH2 0xC24 JUMP JUMPDEST SWAP1 POP PUSH1 0x0 PUSH2 0xAD8 PUSH8 0xDE0B6B3A7640000 DUP6 PUSH2 0x1125 JUMP JUMPDEST SWAP1 POP PUSH2 0xAE4 DUP6 DUP3 PUSH2 0xFE3 JUMP JUMPDEST SWAP1 POP PUSH1 0x0 PUSH2 0xAFB DUP11 PUSH2 0xAF6 DUP13 DUP6 PUSH2 0xDDD JUMP JUMPDEST PUSH2 0xC24 JUMP JUMPDEST SWAP1 POP PUSH1 0x0 PUSH2 0xB09 DUP3 DUP6 PUSH2 0xE65 JUMP JUMPDEST SWAP1 POP PUSH1 0x0 PUSH2 0xB1F PUSH8 0xDE0B6B3A7640000 DUP4 PUSH2 0x1125 JUMP JUMPDEST SWAP1 POP PUSH2 0xB2B DUP11 DUP3 PUSH2 0xFE3 JUMP JUMPDEST SWAP6 POP DUP6 SWAP6 POP POP POP POP POP POP SWAP7 SWAP6 POP POP POP POP POP POP JUMP JUMPDEST PUSH1 0xA PUSH8 0xDE0B6B3A7640000 DUP2 PUSH2 0xB51 JUMPI INVALID JUMPDEST DIV DUP2 JUMP JUMPDEST PUSH1 0x1 PUSH8 0xDE0B6B3A7640000 PUSH1 0x2 MUL SUB DUP2 JUMP JUMPDEST PUSH8 0xDE0B6B3A7640000 DUP2 JUMP JUMPDEST PUSH1 0x0 DUP2 JUMP JUMPDEST PUSH1 0x32 PUSH8 0xDE0B6B3A7640000 MUL DUP2 JUMP JUMPDEST PUSH1 0x2 PUSH8 0xDE0B6B3A7640000 DUP2 PUSH2 0xB99 JUMPI INVALID JUMPDEST DIV DUP2 JUMP JUMPDEST PUSH1 0x0 DUP1 PUSH2 0xBAA DUP6 DUP9 PUSH2 0xC24 JUMP JUMPDEST SWAP1 POP PUSH1 0x0 PUSH2 0xBB8 DUP8 DUP7 PUSH2 0x1125 JUMP JUMPDEST SWAP1 POP PUSH1 0x0 PUSH2 0xBC6 DUP9 DUP4 PUSH2 0xC24 JUMP JUMPDEST SWAP1 POP PUSH1 0x0 PUSH2 0xBD4 DUP3 DUP6 PUSH2 0xE65 JUMP JUMPDEST SWAP1 POP PUSH2 0xBE8 DUP2 PUSH8 0xDE0B6B3A7640000 PUSH2 0x1125 JUMP JUMPDEST SWAP1 POP PUSH2 0xBFC PUSH8 0xDE0B6B3A7640000 DUP8 PUSH2 0x1125 JUMP JUMPDEST SWAP5 POP PUSH2 0xC11 PUSH2 0xC0B DUP13 DUP4 PUSH2 0xFE3 JUMP JUMPDEST DUP7 PUSH2 0xC24 JUMP JUMPDEST SWAP5 POP DUP5 SWAP5 POP POP POP POP POP SWAP7 SWAP6 POP POP POP POP POP POP JUMP JUMPDEST PUSH1 0x0 DUP1 DUP3 EQ ISZERO PUSH2 0xC9C JUMPI PUSH1 0x40 MLOAD PUSH32 0x8C379A000000000000000000000000000000000000000000000000000000000 DUP2 MSTORE PUSH1 0x4 ADD DUP1 DUP1 PUSH1 0x20 ADD DUP3 DUP2 SUB DUP3 MSTORE PUSH1 0xC DUP2 MSTORE PUSH1 0x20 ADD DUP1 PUSH32 0x4552525F4449565F5A45524F0000000000000000000000000000000000000000 DUP2 MSTORE POP PUSH1 0x20 ADD SWAP2 POP POP PUSH1 0x40 MLOAD DUP1 SWAP2 SUB SWAP1 REVERT JUMPDEST PUSH1 0x0 PUSH8 0xDE0B6B3A7640000 DUP5 MUL SWAP1 POP PUSH1 0x0 DUP5 EQ DUP1 PUSH2 0xCCA JUMPI POP PUSH8 0xDE0B6B3A7640000 DUP5 DUP3 DUP2 PUSH2 0xCC7 JUMPI INVALID JUMPDEST DIV EQ JUMPDEST PUSH2 0xD3C JUMPI PUSH1 0x40 MLOAD PUSH32 0x8C379A000000000000000000000000000000000000000000000000000000000 DUP2 MSTORE PUSH1 0x4 ADD DUP1 DUP1 PUSH1 0x20 ADD DUP3 DUP2 SUB DUP3 MSTORE PUSH1 0x10 DUP2 MSTORE PUSH1 0x20 ADD DUP1 PUSH32 0x4552525F4449565F494E5445524E414C00000000000000000000000000000000 DUP2 MSTORE POP PUSH1 0x20 ADD SWAP2 POP POP PUSH1 0x40 MLOAD DUP1 SWAP2 SUB SWAP1 REVERT JUMPDEST PUSH1 0x0 PUSH1 0x2 DUP5 DUP2 PUSH2 0xD48 JUMPI INVALID JUMPDEST DIV DUP3 ADD SWAP1 POP DUP2 DUP2 LT ISZERO PUSH2 0xDC3 JUMPI PUSH1 0x40 MLOAD PUSH32 0x8C379A000000000000000000000000000000000000000000000000000000000 DUP2 MSTORE PUSH1 0x4 ADD DUP1 DUP1 PUSH1 0x20 ADD DUP3 DUP2 SUB DUP3 MSTORE PUSH1 0x10 DUP2 MSTORE PUSH1 0x20 ADD DUP1 PUSH32 0x4552525F4449565F494E5445524E414C00000000000000000000000000000000 DUP2 MSTORE POP PUSH1 0x20 ADD SWAP2 POP POP PUSH1 0x40 MLOAD DUP1 SWAP2 SUB SWAP1 REVERT JUMPDEST PUSH1 0x0 DUP5 DUP3 DUP2 PUSH2 0xDCE JUMPI INVALID JUMPDEST DIV SWAP1 POP DUP1 SWAP4 POP POP POP POP SWAP3 SWAP2 POP POP JUMP JUMPDEST PUSH1 0x0 DUP1 DUP3 DUP5 ADD SWAP1 POP DUP4 DUP2 LT ISZERO PUSH2 0xE5B JUMPI PUSH1 0x40 MLOAD PUSH32 0x8C379A000000000000000000000000000000000000000000000000000000000 DUP2 MSTORE PUSH1 0x4 ADD DUP1 DUP1 PUSH1 0x20 ADD DUP3 DUP2 SUB DUP3 MSTORE PUSH1 0x10 DUP2 MSTORE PUSH1 0x20 ADD DUP1 PUSH32 0x4552525F4144445F4F564552464C4F5700000000000000000000000000000000 DUP2 MSTORE POP PUSH1 0x20 ADD SWAP2 POP POP PUSH1 0x40 MLOAD DUP1 SWAP2 SUB SWAP1 REVERT JUMPDEST DUP1 SWAP2 POP POP SWAP3 SWAP2 POP POP JUMP JUMPDEST PUSH1 0x0 PUSH1 0x1 DUP4 LT ISZERO PUSH2 0xEDE JUMPI PUSH1 0x40 MLOAD PUSH32 0x8C379A000000000000000000000000000000000000000000000000000000000 DUP2 MSTORE PUSH1 0x4 ADD DUP1 DUP1 PUSH1 0x20 ADD DUP3 DUP2 SUB DUP3 MSTORE PUSH1 0x15 DUP2 MSTORE PUSH1 0x20 ADD DUP1 PUSH32 0x4552525F42504F575F424153455F544F4F5F4C4F570000000000000000000000 DUP2 MSTORE POP PUSH1 0x20 ADD SWAP2 POP POP PUSH1 0x40 MLOAD DUP1 SWAP2 SUB SWAP1 REVERT JUMPDEST PUSH1 0x1 PUSH8 0xDE0B6B3A7640000 PUSH1 0x2 MUL SUB DUP4 GT ISZERO PUSH2 0xF62 JUMPI PUSH1 0x40 MLOAD PUSH32 0x8C379A000000000000000000000000000000000000000000000000000000000 DUP2 MSTORE PUSH1 0x4 ADD DUP1 DUP1 PUSH1 0x20 ADD DUP3 DUP2 SUB DUP3 MSTORE PUSH1 0x16 DUP2 MSTORE PUSH1 0x20 ADD DUP1 PUSH32 0x4552525F42504F575F424153455F544F4F5F4849474800000000000000000000 DUP2 MSTORE POP PUSH1 0x20 ADD SWAP2 POP POP PUSH1 0x40 MLOAD DUP1 SWAP2 SUB SWAP1 REVERT JUMPDEST PUSH1 0x0 PUSH2 0xF6D DUP4 PUSH2 0x11B7 JUMP JUMPDEST SWAP1 POP PUSH1 0x0 PUSH2 0xF7B DUP5 DUP4 PUSH2 0x1125 JUMP JUMPDEST SWAP1 POP PUSH1 0x0 PUSH2 0xF91 DUP7 PUSH2 0xF8C DUP6 PUSH2 0x11D3 JUMP JUMPDEST PUSH2 0x11EE JUMP JUMPDEST SWAP1 POP PUSH1 0x0 DUP3 EQ ISZERO PUSH2 0xFA7 JUMPI DUP1 SWAP4 POP POP POP POP PUSH2 0xFDD JUMP JUMPDEST PUSH1 0x0 PUSH2 0xFCA DUP8 DUP5 PUSH5 0x2540BE400 PUSH8 0xDE0B6B3A7640000 DUP2 PUSH2 0xFC4 JUMPI INVALID JUMPDEST DIV PUSH2 0x1273 JUMP JUMPDEST SWAP1 POP PUSH2 0xFD6 DUP3 DUP3 PUSH2 0xFE3 JUMP JUMPDEST SWAP5 POP POP POP POP POP JUMPDEST SWAP3 SWAP2 POP POP JUMP JUMPDEST PUSH1 0x0 DUP1 DUP3 DUP5 MUL SWAP1 POP PUSH1 0x0 DUP5 EQ DUP1 PUSH2 0x1002 JUMPI POP DUP3 DUP5 DUP3 DUP2 PUSH2 0xFFF JUMPI INVALID JUMPDEST DIV EQ JUMPDEST PUSH2 0x1074 JUMPI PUSH1 0x40 MLOAD PUSH32 0x8C379A000000000000000000000000000000000000000000000000000000000 DUP2 MSTORE PUSH1 0x4 ADD DUP1 DUP1 PUSH1 0x20 ADD DUP3 DUP2 SUB DUP3 MSTORE PUSH1 0x10 DUP2 MSTORE PUSH1 0x20 ADD DUP1 PUSH32 0x4552525F4D554C5F4F564552464C4F5700000000000000000000000000000000 DUP2 MSTORE POP PUSH1 0x20 ADD SWAP2 POP POP PUSH1 0x40 MLOAD DUP1 SWAP2 SUB SWAP1 REVERT JUMPDEST PUSH1 0x0 PUSH1 0x2 PUSH8 0xDE0B6B3A7640000 DUP2 PUSH2 0x1088 JUMPI INVALID JUMPDEST DIV DUP3 ADD SWAP1 POP DUP2 DUP2 LT ISZERO PUSH2 0x1103 JUMPI PUSH1 0x40 MLOAD PUSH32 0x8C379A000000000000000000000000000000000000000000000000000000000 DUP2 MSTORE PUSH1 0x4 ADD DUP1 DUP1 PUSH1 0x20 ADD DUP3 DUP2 SUB DUP3 MSTORE PUSH1 0x10 DUP2 MSTORE PUSH1 0x20 ADD DUP1 PUSH32 0x4552525F4D554C5F4F564552464C4F5700000000000000000000000000000000 DUP2 MSTORE POP PUSH1 0x20 ADD SWAP2 POP POP PUSH1 0x40 MLOAD DUP1 SWAP2 SUB SWAP1 REVERT JUMPDEST PUSH1 0x0 PUSH8 0xDE0B6B3A7640000 DUP3 DUP2 PUSH2 0x1116 JUMPI INVALID JUMPDEST DIV SWAP1 POP DUP1 SWAP4 POP POP POP POP SWAP3 SWAP2 POP POP JUMP JUMPDEST PUSH1 0x0 DUP1 PUSH1 0x0 PUSH2 0x1134 DUP6 DUP6 PUSH2 0x1375 JUMP JUMPDEST SWAP2 POP SWAP2 POP DUP1 ISZERO PUSH2 0x11AC JUMPI PUSH1 0x40 MLOAD PUSH32 0x8C379A000000000000000000000000000000000000000000000000000000000 DUP2 MSTORE PUSH1 0x4 ADD DUP1 DUP1 PUSH1 0x20 ADD DUP3 DUP2 SUB DUP3 MSTORE PUSH1 0x11 DUP2 MSTORE PUSH1 0x20 ADD DUP1 PUSH32 0x4552525F5355425F554E444552464C4F57000000000000000000000000000000 DUP2 MSTORE POP PUSH1 0x20 ADD SWAP2 POP POP PUSH1 0x40 MLOAD DUP1 SWAP2 SUB SWAP1 REVERT JUMPDEST DUP2 SWAP3 POP POP POP SWAP3 SWAP2 POP POP JUMP JUMPDEST PUSH1 0x0 PUSH8 0xDE0B6B3A7640000 PUSH2 0x11CB DUP4 PUSH2 0x11D3 JUMP JUMPDEST MUL SWAP1 POP SWAP2 SWAP1 POP JUMP JUMPDEST PUSH1 0x0 PUSH8 0xDE0B6B3A7640000 DUP3 DUP2 PUSH2 0x11E6 JUMPI INVALID JUMPDEST DIV SWAP1 POP SWAP2 SWAP1 POP JUMP JUMPDEST PUSH1 0x0 DUP1 PUSH1 0x0 PUSH1 0x2 DUP5 DUP2 PUSH2 0x11FD JUMPI INVALID JUMPDEST MOD EQ ISZERO PUSH2 0x1212 JUMPI PUSH8 0xDE0B6B3A7640000 PUSH2 0x1214 JUMP JUMPDEST DUP4 JUMPDEST SWAP1 POP PUSH1 0x2 DUP4 DUP2 PUSH2 0x1220 JUMPI INVALID JUMPDEST DIV SWAP3 POP JUMPDEST PUSH1 0x0 DUP4 EQ PUSH2 0x1269 JUMPI PUSH2 0x1236 DUP5 DUP6 PUSH2 0xFE3 JUMP JUMPDEST SWAP4 POP PUSH1 0x0 PUSH1 0x2 DUP5 DUP2 PUSH2 0x1244 JUMPI INVALID JUMPDEST MOD EQ PUSH2 0x1257 JUMPI PUSH2 0x1254 DUP2 DUP6 PUSH2 0xFE3 JUMP JUMPDEST SWAP1 POP JUMPDEST PUSH1 0x2 DUP4 DUP2 PUSH2 0x1261 JUMPI INVALID JUMPDEST DIV SWAP3 POP PUSH2 0x1224 JUMP JUMPDEST DUP1 SWAP2 POP POP SWAP3 SWAP2 POP POP JUMP JUMPDEST PUSH1 0x0 DUP1 DUP4 SWAP1 POP PUSH1 0x0 DUP1 PUSH2 0x128E DUP8 PUSH8 0xDE0B6B3A7640000 PUSH2 0x1375 JUMP JUMPDEST SWAP2 POP SWAP2 POP PUSH1 0x0 PUSH8 0xDE0B6B3A7640000 SWAP1 POP PUSH1 0x0 DUP2 SWAP1 POP PUSH1 0x0 DUP1 SWAP1 POP PUSH1 0x0 PUSH1 0x1 SWAP1 POP JUMPDEST DUP9 DUP5 LT PUSH2 0x1364 JUMPI PUSH1 0x0 PUSH8 0xDE0B6B3A7640000 DUP3 MUL SWAP1 POP PUSH1 0x0 DUP1 PUSH2 0x12E4 DUP11 PUSH2 0x12DF DUP6 PUSH8 0xDE0B6B3A7640000 PUSH2 0x1125 JUMP JUMPDEST PUSH2 0x1375 JUMP JUMPDEST SWAP2 POP SWAP2 POP PUSH2 0x12FB DUP8 PUSH2 0x12F6 DUP5 DUP13 PUSH2 0xFE3 JUMP JUMPDEST PUSH2 0xFE3 JUMP JUMPDEST SWAP7 POP PUSH2 0x1307 DUP8 DUP5 PUSH2 0xC24 JUMP JUMPDEST SWAP7 POP PUSH1 0x0 DUP8 EQ ISZERO PUSH2 0x131A JUMPI POP POP POP PUSH2 0x1364 JUMP JUMPDEST DUP8 ISZERO PUSH2 0x1325 JUMPI DUP5 ISZERO SWAP5 POP JUMPDEST DUP1 ISZERO PUSH2 0x1330 JUMPI DUP5 ISZERO SWAP5 POP JUMPDEST DUP5 ISZERO PUSH2 0x1347 JUMPI PUSH2 0x1340 DUP7 DUP9 PUSH2 0x1125 JUMP JUMPDEST SWAP6 POP PUSH2 0x1354 JUMP JUMPDEST PUSH2 0x1351 DUP7 DUP9 PUSH2 0xDDD JUMP JUMPDEST SWAP6 POP JUMPDEST POP POP POP DUP1 DUP1 PUSH1 0x1 ADD SWAP2 POP POP PUSH2 0x12B0 JUMP JUMPDEST POP DUP2 SWAP7 POP POP POP POP POP POP POP SWAP4 SWAP3 POP POP POP JUMP JUMPDEST PUSH1 0x0 DUP1 DUP3 DUP5 LT PUSH2 0x138D JUMPI DUP3 DUP5 SUB PUSH1 0x0 SWAP2 POP SWAP2 POP PUSH2 0x1397 JUMP JUMPDEST DUP4 DUP4 SUB PUSH1 0x1 SWAP2 POP SWAP2 POP JUMPDEST SWAP3 POP SWAP3 SWAP1 POP JUMP INVALID LOG2 PUSH6 0x627A7A723158 KECCAK256 PUSH7 0x49FD2E18F52B95 0xa7 PUSH5 0xB4C6CB742F ADDRESS 0xc7 0xcf SGT PUSH20 0x72BEC98FC17DC518D7A1B02764736F6C63430005 0xc STOP ORIGIN "
				},
				"gasEstimates": {
					"creation": {
						"codeDepositCost": "1015000",
						"executionCost": "1054",
						"totalCost": "1016054"
					},
					"external": {
						"BONE()": "249",
						"BPOW_PRECISION()": "276",
						"EXIT_FEE()": "271",
						"INIT_POOL_SUPPLY()": "302",
						"MAX_BOUND_TOKENS()": "250",
						"MAX_BPOW_BASE()": "241",
						"MAX_FEE()": "363",
						"MAX_IN_RATIO()": "340",
						"MAX_OUT_RATIO()": "347",
						"MAX_TOTAL_WEIGHT()": "237",
						"MAX_WEIGHT()": "301",
						"MIN_BALANCE()": "275",
						"MIN_BOUND_TOKENS()": "272",
						"MIN_BPOW_BASE()": "294",
						"MIN_FEE()": "342",
						"MIN_WEIGHT()": "273",
						"calcInGivenOut(uint256,uint256,uint256,uint256,uint256,uint256)": "infinite",
						"calcOutGivenIn(uint256,uint256,uint256,uint256,uint256,uint256)": "infinite",
						"calcPoolInGivenSingleOut(uint256,uint256,uint256,uint256,uint256,uint256)": "infinite",
						"calcPoolOutGivenSingleIn(uint256,uint256,uint256,uint256,uint256,uint256)": "infinite",
						"calcSingleInGivenPoolOut(uint256,uint256,uint256,uint256,uint256,uint256)": "infinite",
						"calcSingleOutGivenPoolIn(uint256,uint256,uint256,uint256,uint256,uint256)": "infinite",
						"calcSpotPrice(uint256,uint256,uint256,uint256,uint256)": "infinite",
						"getColor()": "346"
					}
				},
				"methodIdentifiers": {
					"BONE()": "c36596a6",
					"BPOW_PRECISION()": "189d00ca",
					"EXIT_FEE()": "c6580d12",
					"INIT_POOL_SUPPLY()": "9381cd2b",
					"MAX_BOUND_TOKENS()": "b0e0d136",
					"MAX_BPOW_BASE()": "bc694ea2",
					"MAX_FEE()": "bc063e1a",
					"MAX_IN_RATIO()": "ec093021",
					"MAX_OUT_RATIO()": "992e2a92",
					"MAX_TOTAL_WEIGHT()": "09a3bbe4",
					"MAX_WEIGHT()": "e4a28a52",
					"MIN_BALANCE()": "867378c5",
					"MIN_BOUND_TOKENS()": "b7b800a4",
					"MIN_BPOW_BASE()": "ba019dab",
					"MIN_FEE()": "76c7a3c7",
					"MIN_WEIGHT()": "218b5382",
					"calcInGivenOut(uint256,uint256,uint256,uint256,uint256,uint256)": "f8d6aed4",
					"calcOutGivenIn(uint256,uint256,uint256,uint256,uint256,uint256)": "ba9530a6",
					"calcPoolInGivenSingleOut(uint256,uint256,uint256,uint256,uint256,uint256)": "82f652ad",
					"calcPoolOutGivenSingleIn(uint256,uint256,uint256,uint256,uint256,uint256)": "8656b653",
					"calcSingleInGivenPoolOut(uint256,uint256,uint256,uint256,uint256,uint256)": "5c1bbaf7",
					"calcSingleOutGivenPoolIn(uint256,uint256,uint256,uint256,uint256,uint256)": "89298012",
					"calcSpotPrice(uint256,uint256,uint256,uint256,uint256)": "a221ee49",
					"getColor()": "9a86139b"
				}
			},
			"userdoc": {
				"methods": {
					"calcInGivenOut(uint256,uint256,uint256,uint256,uint256,uint256)": {
						"notice": "******************************************************************************************** // calcInGivenOut                                                                            // // aI = tokenAmountIn                                                                        // // bO = tokenBalanceOut               /  /     bO      \\    (wO / wI)      \\                 // // bI = tokenBalanceIn          bI * |  | ------------  | ^            - 1  |                // // aO = tokenAmountOut    aI =        \\  \\ ( bO - aO ) /                   /                 // // wI = tokenWeightIn           --------------------------------------------                 // // wO = tokenWeightOut                          ( 1 - sF )                                   // // sF = swapFee                                                                              //*********************************************************************************************"
					},
					"calcOutGivenIn(uint256,uint256,uint256,uint256,uint256,uint256)": {
						"notice": "******************************************************************************************** // calcOutGivenIn                                                                            // // aO = tokenAmountOut                                                                       // // bO = tokenBalanceOut                                                                      // // bI = tokenBalanceIn              /      /            bI             \\    (wI / wO) \\      // // aI = tokenAmountIn    aO = bO * |  1 - | --------------------------  | ^            |     // // wI = tokenWeightIn               \\      \\ ( bI + ( aI * ( 1 - sF )) /              /      // // wO = tokenWeightOut                                                                       // // sF = swapFee                                                                              //*********************************************************************************************"
					},
					"calcPoolInGivenSingleOut(uint256,uint256,uint256,uint256,uint256,uint256)": {
						"notice": "******************************************************************************************** // calcPoolInGivenSingleOut                                                                  // // pAi = poolAmountIn               // /               tAo             \\\\     / wO \\     \\   // // bO = tokenBalanceOut            // | bO - -------------------------- |\\   | ---- |     \\  // // tAo = tokenAmountOut      pS - ||   \\     1 - ((1 - (tO / tW)) * sF)/  | ^ \\ tW /  * pS | // // ps = poolSupply                 \\\\ -----------------------------------/                /  // // wO = tokenWeightOut  pAi =       \\\\               bO                 /                /   // // tW = totalWeight           -------------------------------------------------------------  // // sF = swapFee                                        ( 1 - eF )                            // // eF = exitFee                                                                              //*********************************************************************************************"
					},
					"calcPoolOutGivenSingleIn(uint256,uint256,uint256,uint256,uint256,uint256)": {
						"notice": "******************************************************************************************** // calcPoolOutGivenSingleIn                                                                  // // pAo = poolAmountOut         /                                              \\              // // tAi = tokenAmountIn        ///      /     //    wI \\      \\\\       \\     wI \\             // // wI = tokenWeightIn        //| tAi *| 1 - || 1 - --  | * sF || + tBi \\    --  \\            // // tW = totalWeight     pAo=||  \\      \\     \\\\    tW /      //         | ^ tW   | * pS - pS // // tBi = tokenBalanceIn      \\\\  ------------------------------------- /        /            // // pS = poolSupply            \\\\                    tBi               /        /             // // sF = swapFee                \\                                              /              //*********************************************************************************************"
					},
					"calcSingleInGivenPoolOut(uint256,uint256,uint256,uint256,uint256,uint256)": {
						"notice": "******************************************************************************************** // calcSingleInGivenPoolOut                                                                  // // tAi = tokenAmountIn              //(pS + pAo)\\     /    1    \\\\                           // // pS = poolSupply                 || ---------  | ^ | --------- || * bI - bI                // // pAo = poolAmountOut              \\\\    pS    /     \\(wI / tW)//                           // // bI = balanceIn          tAi =  --------------------------------------------               // // wI = weightIn                              /      wI  \\                                   // // tW = totalWeight                          |  1 - ----  |  * sF                            // // sF = swapFee                               \\      tW  /                                   //*********************************************************************************************"
					},
					"calcSingleOutGivenPoolIn(uint256,uint256,uint256,uint256,uint256,uint256)": {
						"notice": "******************************************************************************************** // calcSingleOutGivenPoolIn                                                                  // // tAo = tokenAmountOut            /      /                                             \\\\   // // bO = tokenBalanceOut           /      // pS - (pAi * (1 - eF)) \\     /    1    \\      \\\\  // // pAi = poolAmountIn            | bO - || ----------------------- | ^ | --------- | * b0 || // // ps = poolSupply                \\      \\\\          pS           /     \\(wO / tW)/      //  // // wI = tokenWeightIn      tAo =   \\      \\                                             //   // // tW = totalWeight                    /     /      wO \\       \\                             // // sF = swapFee                    *  | 1 - |  1 - ---- | * sF  |                            // // eF = exitFee                        \\     \\      tW /       /                             //*********************************************************************************************"
					},
					"calcSpotPrice(uint256,uint256,uint256,uint256,uint256)": {
						"notice": "******************************************************************************************** // calcSpotPrice                                                                             // // sP = spotPrice                                                                            // // bI = tokenBalanceIn                ( bI / wI )         1                                  // // bO = tokenBalanceOut         sP =  -----------  *  ----------                             // // wI = tokenWeightIn                 ( bO / wO )     ( 1 - sF )                             // // wO = tokenWeightOut                                                                       // // sF = swapFee                                                                              //*********************************************************************************************"
					}
				}
			}
		}
	}
}