{
	"Contracts/BColor.sol": {
		"BBronze": {
			"abi": [
				{
					"constant": true,
					"inputs": [],
					"name": "getColor",
					"outputs": [
						{
							"internalType": "bytes32",
							"name": "",
							"type": "bytes32"
						}
					],
					"payable": false,
					"stateMutability": "view",
					"type": "function"
				}
			],
			"devdoc": {
				"methods": {}
			},
			"evm": {
				"assembly": "    /* \"Contracts/BColor.sol\":783:941  contract BBronze is BColor {\r... */\n  mstore(0x40, 0x80)\n  callvalue\n    /* \"--CODEGEN--\":8:17   */\n  dup1\n    /* \"--CODEGEN--\":5:7   */\n  iszero\n  tag_1\n  jumpi\n    /* \"--CODEGEN--\":30:31   */\n  0x00\n    /* \"--CODEGEN--\":27:28   */\n  dup1\n    /* \"--CODEGEN--\":20:32   */\n  revert\n    /* \"--CODEGEN--\":5:7   */\ntag_1:\n    /* \"Contracts/BColor.sol\":783:941  contract BBronze is BColor {\r... */\n  pop\n  dataSize(sub_0)\n  dup1\n  dataOffset(sub_0)\n  0x00\n  codecopy\n  0x00\n  return\nstop\n\nsub_0: assembly {\n        /* \"Contracts/BColor.sol\":783:941  contract BBronze is BColor {\r... */\n      mstore(0x40, 0x80)\n      callvalue\n        /* \"--CODEGEN--\":8:17   */\n      dup1\n        /* \"--CODEGEN--\":5:7   */\n      iszero\n      tag_1\n      jumpi\n        /* \"--CODEGEN--\":30:31   */\n      0x00\n        /* \"--CODEGEN--\":27:28   */\n      dup1\n        /* \"--CODEGEN--\":20:32   */\n      revert\n        /* \"--CODEGEN--\":5:7   */\n    tag_1:\n        /* \"Contracts/BColor.sol\":783:941  contract BBronze is BColor {\r... */\n      pop\n      jumpi(tag_2, lt(calldatasize, 0x04))\n      shr(0xe0, calldataload(0x00))\n      dup1\n      0x9a86139b\n      eq\n      tag_3\n      jumpi\n    tag_2:\n      0x00\n      dup1\n      revert\n        /* \"Contracts/BColor.sol\":817:938  function getColor()\r... */\n    tag_3:\n      tag_4\n      tag_5\n      jump\t// in\n    tag_4:\n      mload(0x40)\n      dup1\n      dup3\n      dup2\n      mstore\n      0x20\n      add\n      swap2\n      pop\n      pop\n      mload(0x40)\n      dup1\n      swap2\n      sub\n      swap1\n      return\n    tag_5:\n        /* \"Contracts/BColor.sol\":878:885  bytes32 */\n      0x00\n        /* \"Contracts/BColor.sol\":909:926  bytes32(\"BRONZE\") */\n      0x42524f4e5a450000000000000000000000000000000000000000000000000000\n        /* \"Contracts/BColor.sol\":902:926  return bytes32(\"BRONZE\") */\n      swap1\n      pop\n        /* \"Contracts/BColor.sol\":817:938  function getColor()\r... */\n      swap1\n      jump\t// out\n\n    auxdata: 0xa265627a7a72315820d40ef8188bd637509c8a92c81102c388bf2901f75a641ee5ae8b9a0769c4397364736f6c634300050c0032\n}\n",
				"bytecode": {
					"linkReferences": {},
					"object": "6080604052348015600f57600080fd5b5060a68061001e6000396000f3fe6080604052348015600f57600080fd5b506004361060285760003560e01c80639a86139b14602d575b600080fd5b60336049565b6040518082815260200191505060405180910390f35b60007f42524f4e5a45000000000000000000000000000000000000000000000000000090509056fea265627a7a72315820d40ef8188bd637509c8a92c81102c388bf2901f75a641ee5ae8b9a0769c4397364736f6c634300050c0032",
					"opcodes": "PUSH1 0x80 PUSH1 0x40 MSTORE CALLVALUE DUP1 ISZERO PUSH1 0xF JUMPI PUSH1 0x0 DUP1 REVERT JUMPDEST POP PUSH1 0xA6 DUP1 PUSH2 0x1E PUSH1 0x0 CODECOPY PUSH1 0x0 RETURN INVALID PUSH1 0x80 PUSH1 0x40 MSTORE CALLVALUE DUP1 ISZERO PUSH1 0xF JUMPI PUSH1 0x0 DUP1 REVERT JUMPDEST POP PUSH1 0x4 CALLDATASIZE LT PUSH1 0x28 JUMPI PUSH1 0x0 CALLDATALOAD PUSH1 0xE0 SHR DUP1 PUSH4 0x9A86139B EQ PUSH1 0x2D JUMPI JUMPDEST PUSH1 0x0 DUP1 REVERT JUMPDEST PUSH1 0x33 PUSH1 0x49 JUMP JUMPDEST PUSH1 0x40 MLOAD DUP1 DUP3 DUP2 MSTORE PUSH1 0x20 ADD SWAP2 POP POP PUSH1 0x40 MLOAD DUP1 SWAP2 SUB SWAP1 RETURN JUMPDEST PUSH1 0x0 PUSH32 0x42524F4E5A450000000000000000000000000000000000000000000000000000 SWAP1 POP SWAP1 JUMP INVALID LOG2 PUSH6 0x627A7A723158 KECCAK256 0xd4 0xe 0xf8 XOR DUP12 0xd6 CALLDATACOPY POP SWAP13 DUP11 SWAP3 0xc8 GT MUL 0xc3 DUP9 0xbf 0x29 ADD 0xf7 GAS PUSH5 0x1EE5AE8B9A SMOD PUSH10 0xC4397364736F6C634300 SDIV 0xc STOP ORIGIN "
				},
				"gasEstimates": {
					"creation": {
						"codeDepositCost": "33200",
						"executionCost": "87",
						"totalCost": "33287"
					},
					"external": {
						"getColor()": "191"
					}
				},
				"methodIdentifiers": {
					"getColor()": "9a86139b"
				}
			},
			"userdoc": {
				"methods": {}
			}
		}
	}
}