{
	"data": {
		"bytecode": {
			"linkReferences": {},
			"object": "6080604052348015600f57600080fd5b5060a68061001e6000396000f3fe6080604052348015600f57600080fd5b506004361060285760003560e01c80639a86139b14602d575b600080fd5b60336049565b6040518082815260200191505060405180910390f35b60007f42524f4e5a45000000000000000000000000000000000000000000000000000090509056fea265627a7a72315820d1313bf9a2dcc2ad30d21fe1e9f11cb4f1a4c78330879d9ec06699197bb2cf0564736f6c634300050c0032",
			"opcodes": "PUSH1 0x80 PUSH1 0x40 MSTORE CALLVALUE DUP1 ISZERO PUSH1 0xF JUMPI PUSH1 0x0 DUP1 REVERT JUMPDEST POP PUSH1 0xA6 DUP1 PUSH2 0x1E PUSH1 0x0 CODECOPY PUSH1 0x0 RETURN INVALID PUSH1 0x80 PUSH1 0x40 MSTORE CALLVALUE DUP1 ISZERO PUSH1 0xF JUMPI PUSH1 0x0 DUP1 REVERT JUMPDEST POP PUSH1 0x4 CALLDATASIZE LT PUSH1 0x28 JUMPI PUSH1 0x0 CALLDATALOAD PUSH1 0xE0 SHR DUP1 PUSH4 0x9A86139B EQ PUSH1 0x2D JUMPI JUMPDEST PUSH1 0x0 DUP1 REVERT JUMPDEST PUSH1 0x33 PUSH1 0x49 JUMP JUMPDEST PUSH1 0x40 MLOAD DUP1 DUP3 DUP2 MSTORE PUSH1 0x20 ADD SWAP2 POP POP PUSH1 0x40 MLOAD DUP1 SWAP2 SUB SWAP1 RETURN JUMPDEST PUSH1 0x0 PUSH32 0x42524F4E5A450000000000000000000000000000000000000000000000000000 SWAP1 POP SWAP1 JUMP INVALID LOG2 PUSH6 0x627A7A723158 KECCAK256 0xd1 BALANCE EXTCODESIZE 0xf9 LOG2 0xdc 0xc2 0xad ADDRESS 0xd2 0x1f 0xe1 0xe9 CALL SHR 0xb4 CALL LOG4 0xc7 DUP4 ADDRESS DUP8 SWAP14 SWAP15 0xc0 PUSH7 0x99197BB2CF0564 PUSH20 0x6F6C634300050C00320000000000000000000000 "
		},
		"gasEstimates": {
			"creation": {
				"codeDepositCost": "33200",
				"executionCost": "87",
				"totalCost": "33287"
			},
			"external": {
				"getColor()": "191"
			}
		},
		"methodIdentifiers": {
			"getColor()": "9a86139b"
		}
	},
	"abi": [
		{
			"constant": true,
			"inputs": [],
			"name": "getColor",
			"outputs": [
				{
					"internalType": "bytes32",
					"name": "",
					"type": "bytes32"
				}
			],
			"payable": false,
			"stateMutability": "view",
			"type": "function"
		}
	]
}