{
	"data": {
		"bytecode": {
			"linkReferences": {},
			"object": "608060405234801561001057600080fd5b506113d3806100206000396000f3fe608060405234801561001057600080fd5b50600436106101585760003560e01c8063a221ee49116100c3578063bc694ea21161007c578063bc694ea214610573578063c36596a614610591578063c6580d12146105af578063e4a28a52146105cd578063ec093021146105eb578063f8d6aed41461060957610158565b8063a221ee491461041d578063b0e0d13614610487578063b7b800a4146104a5578063ba019dab146104c3578063ba9530a6146104e1578063bc063e1a1461055557610158565b80638656b653116101155780638656b653146102bd578063867378c514610331578063892980121461034f5780639381cd2b146103c3578063992e2a92146103e15780639a86139b146103ff57610158565b806309a3bbe41461015d578063189d00ca1461017b578063218b5382146101995780635c1bbaf7146101b757806376c7a3c71461022b57806382f652ad14610249575b600080fd5b61016561067d565b6040518082815260200191505060405180910390f35b61018361068c565b6040518082815260200191505060405180910390f35b6101a16106a6565b6040518082815260200191505060405180910390f35b610215600480360360c08110156101cd57600080fd5b810190808035906020019092919080359060200190929190803590602001909291908035906020019092919080359060200190929190803590602001909291905050506106b2565b6040518082815260200191505060405180910390f35b61023361076e565b6040518082815260200191505060405180910390f35b6102a7600480360360c081101561025f57600080fd5b81019080803590602001909291908035906020019092919080359060200190929190803590602001909291908035906020019092919080359060200190929190505050610786565b6040518082815260200191505060405180910390f35b61031b600480360360c08110156102d357600080fd5b81019080803590602001909291908035906020019092919080359060200190929190803590602001909291908035906020019092919080359060200190929190505050610852565b6040518082815260200191505060405180910390f35b6103396108f7565b6040518082815260200191505060405180910390f35b6103ad600480360360c081101561036557600080fd5b81019080803590602001909291908035906020019092919080359060200190929190803590602001909291908035906020019092919080359060200190929190505050610911565b6040518082815260200191505060405180910390f35b6103cb6109e8565b6040518082815260200191505060405180910390f35b6103e96109f7565b6040518082815260200191505060405180910390f35b610407610a10565b6040518082815260200191505060405180910390f35b610471600480360360a081101561043357600080fd5b810190808035906020019092919080359060200190929190803590602001909291908035906020019092919080359060200190929190505050610a38565b6040518082815260200191505060405180910390f35b61048f610aa6565b6040518082815260200191505060405180910390f35b6104ad610aab565b6040518082815260200191505060405180910390f35b6104cb610ab0565b6040518082815260200191505060405180910390f35b61053f600480360360c08110156104f757600080fd5b81019080803590602001909291908035906020019092919080359060200190929190803590602001909291908035906020019092919080359060200190929190505050610ab5565b6040518082815260200191505060405180910390f35b61055d610b3f565b6040518082815260200191505060405180910390f35b61057b610b55565b6040518082815260200191505060405180910390f35b610599610b67565b6040518082815260200191505060405180910390f35b6105b7610b73565b6040518082815260200191505060405180910390f35b6105d5610b78565b6040518082815260200191505060405180910390f35b6105f3610b87565b6040518082815260200191505060405180910390f35b610667600480360360c081101561061f57600080fd5b81019080803590602001909291908035906020019092919080359060200190929190803590602001909291908035906020019092919080359060200190929190505050610b9d565b6040518082815260200191505060405180910390f35b6032670de0b6b3a76400000281565b6402540be400670de0b6b3a7640000816106a257fe5b0481565b670de0b6b3a764000081565b6000806106bf8786610c24565b905060006106cd8786610ddd565b905060006106db8289610c24565b905060006106f1670de0b6b3a764000085610c24565b905060006106ff8383610e65565b9050600061070d828e610fe3565b9050600061071b828f611125565b9050600061073a610734670de0b6b3a76400008a611125565b8b610fe3565b905061075782610752670de0b6b3a764000084611125565b610c24565b985088985050505050505050509695505050505050565b620f4240670de0b6b3a76400008161078257fe5b0481565b6000806107938786610c24565b905060006107a9670de0b6b3a764000083611125565b905060006107b78286610fe3565b905060006107d6876107d1670de0b6b3a764000085611125565b610c24565b905060006107e48c83611125565b905060006107f2828e610c24565b905060006108008288610e65565b9050600061080e828e610fe3565b9050600061081c8e83611125565b905061083a81610835670de0b6b3a76400006000611125565b610c24565b99508999505050505050505050509695505050505050565b60008061085f8786610c24565b9050600061087e610878670de0b6b3a764000084611125565b85610fe3565b9050600061089d86610898670de0b6b3a764000085611125565b610fe3565b905060006108ab8b83610ddd565b905060006108b9828d610c24565b905060006108c78287610e65565b905060006108d5828d610fe3565b90506108e1818d611125565b9750879750505050505050509695505050505050565b64e8d4a51000670de0b6b3a76400008161090d57fe5b0481565b60008061091e8786610c24565b9050600061093e85610939670de0b6b3a76400006000611125565b610fe3565b9050600061094c8883611125565b9050600061095a828a610c24565b9050600061097982610974670de0b6b3a764000088610c24565b610e65565b90506000610987828e610fe3565b905060006109958e83611125565b905060006109b46109ae670de0b6b3a76400008a611125565b8b610fe3565b90506109d1826109cc670de0b6b3a764000084611125565b610fe3565b985088985050505050505050509695505050505050565b6064670de0b6b3a76400000281565b60016003670de0b6b3a764000081610a0b57fe5b040181565b60007f42524f4e5a450000000000000000000000000000000000000000000000000000905090565b600080610a458787610c24565b90506000610a538686610c24565b90506000610a618383610c24565b90506000610a88670de0b6b3a7640000610a83670de0b6b3a764000089611125565b610c24565b9050610a948282610fe3565b94508494505050505095945050505050565b600881565b600281565b600181565b600080610ac28786610c24565b90506000610ad8670de0b6b3a764000085611125565b9050610ae48582610fe3565b90506000610afb8a610af68c85610ddd565b610c24565b90506000610b098285610e65565b90506000610b1f670de0b6b3a764000083611125565b9050610b2b8a82610fe3565b955085955050505050509695505050505050565b600a670de0b6b3a764000081610b5157fe5b0481565b6001670de0b6b3a76400006002020381565b670de0b6b3a764000081565b600081565b6032670de0b6b3a76400000281565b6002670de0b6b3a764000081610b9957fe5b0481565b600080610baa8588610c24565b90506000610bb88786611125565b90506000610bc68883610c24565b90506000610bd48285610e65565b9050610be881670de0b6b3a7640000611125565b9050610bfc670de0b6b3a764000087611125565b9450610c11610c0b8c83610fe3565b86610c24565b9450849450505050509695505050505050565b600080821415610c9c576040517f08c379a000000000000000000000000000000000000000000000000000000000815260040180806020018281038252600c8152602001807f4552525f4449565f5a45524f000000000000000000000000000000000000000081525060200191505060405180910390fd5b6000670de0b6b3a7640000840290506000841480610cca5750670de0b6b3a7640000848281610cc757fe5b04145b610d3c576040517f08c379a00000000000000000000000000000000000000000000000000000000081526004018080602001828103825260108152602001807f4552525f4449565f494e5445524e414c0000000000000000000000000000000081525060200191505060405180910390fd5b600060028481610d4857fe5b048201905081811015610dc3576040517f08c379a00000000000000000000000000000000000000000000000000000000081526004018080602001828103825260108152602001807f4552525f4449565f494e5445524e414c0000000000000000000000000000000081525060200191505060405180910390fd5b6000848281610dce57fe5b04905080935050505092915050565b600080828401905083811015610e5b576040517f08c379a00000000000000000000000000000000000000000000000000000000081526004018080602001828103825260108152602001807f4552525f4144445f4f564552464c4f570000000000000000000000000000000081525060200191505060405180910390fd5b8091505092915050565b60006001831015610ede576040517f08c379a00000000000000000000000000000000000000000000000000000000081526004018080602001828103825260158152602001807f4552525f42504f575f424153455f544f4f5f4c4f57000000000000000000000081525060200191505060405180910390fd5b6001670de0b6b3a764000060020203831115610f62576040517f08c379a00000000000000000000000000000000000000000000000000000000081526004018080602001828103825260168152602001807f4552525f42504f575f424153455f544f4f5f484947480000000000000000000081525060200191505060405180910390fd5b6000610f6d836111b7565b90506000610f7b8483611125565b90506000610f9186610f8c856111d3565b6111ee565b90506000821415610fa757809350505050610fdd565b6000610fca87846402540be400670de0b6b3a764000081610fc457fe5b04611273565b9050610fd68282610fe3565b9450505050505b92915050565b60008082840290506000841480611002575082848281610fff57fe5b04145b611074576040517f08c379a00000000000000000000000000000000000000000000000000000000081526004018080602001828103825260108152602001807f4552525f4d554c5f4f564552464c4f570000000000000000000000000000000081525060200191505060405180910390fd5b60006002670de0b6b3a76400008161108857fe5b048201905081811015611103576040517f08c379a00000000000000000000000000000000000000000000000000000000081526004018080602001828103825260108152602001807f4552525f4d554c5f4f564552464c4f570000000000000000000000000000000081525060200191505060405180910390fd5b6000670de0b6b3a7640000828161111657fe5b04905080935050505092915050565b60008060006111348585611375565b9150915080156111ac576040517f08c379a00000000000000000000000000000000000000000000000000000000081526004018080602001828103825260118152602001807f4552525f5355425f554e444552464c4f5700000000000000000000000000000081525060200191505060405180910390fd5b819250505092915050565b6000670de0b6b3a76400006111cb836111d3565b029050919050565b6000670de0b6b3a764000082816111e657fe5b049050919050565b6000806000600284816111fd57fe5b06141561121257670de0b6b3a7640000611214565b835b90506002838161122057fe5b0492505b60008314611269576112368485610fe3565b935060006002848161124457fe5b0614611257576112548185610fe3565b90505b6002838161126157fe5b049250611224565b8091505092915050565b60008083905060008061128e87670de0b6b3a7640000611375565b915091506000670de0b6b3a76400009050600081905060008090506000600190505b888410611364576000670de0b6b3a7640000820290506000806112e48a6112df85670de0b6b3a7640000611125565b611375565b915091506112fb876112f6848c610fe3565b610fe3565b96506113078784610c24565b9650600087141561131a57505050611364565b871561132557841594505b801561133057841594505b8415611347576113408688611125565b9550611354565b6113518688610ddd565b95505b50505080806001019150506112b0565b508196505050505050509392505050565b60008082841061138d57828403600091509150611397565b8383036001915091505b925092905056fea265627a7a7231582043ee0b8b16e95ea7f0a68661ee5cb046e237a994bbf27109946e68f020a9a8b564736f6c634300050c0032",
			"opcodes": "PUSH1 0x80 PUSH1 0x40 MSTORE CALLVALUE DUP1 ISZERO PUSH2 0x10 JUMPI PUSH1 0x0 DUP1 REVERT JUMPDEST POP PUSH2 0x13D3 DUP1 PUSH2 0x20 PUSH1 0x0 CODECOPY PUSH1 0x0 RETURN INVALID PUSH1 0x80 PUSH1 0x40 MSTORE CALLVALUE DUP1 ISZERO PUSH2 0x10 JUMPI PUSH1 0x0 DUP1 REVERT JUMPDEST POP PUSH1 0x4 CALLDATASIZE LT PUSH2 0x158 JUMPI PUSH1 0x0 CALLDATALOAD PUSH1 0xE0 SHR DUP1 PUSH4 0xA221EE49 GT PUSH2 0xC3 JUMPI DUP1 PUSH4 0xBC694EA2 GT PUSH2 0x7C JUMPI DUP1 PUSH4 0xBC694EA2 EQ PUSH2 0x573 JUMPI DUP1 PUSH4 0xC36596A6 EQ PUSH2 0x591 JUMPI DUP1 PUSH4 0xC6580D12 EQ PUSH2 0x5AF JUMPI DUP1 PUSH4 0xE4A28A52 EQ PUSH2 0x5CD JUMPI DUP1 PUSH4 0xEC093021 EQ PUSH2 0x5EB JUMPI DUP1 PUSH4 0xF8D6AED4 EQ PUSH2 0x609 JUMPI PUSH2 0x158 JUMP JUMPDEST DUP1 PUSH4 0xA221EE49 EQ PUSH2 0x41D JUMPI DUP1 PUSH4 0xB0E0D136 EQ PUSH2 0x487 JUMPI DUP1 PUSH4 0xB7B800A4 EQ PUSH2 0x4A5 JUMPI DUP1 PUSH4 0xBA019DAB EQ PUSH2 0x4C3 JUMPI DUP1 PUSH4 0xBA9530A6 EQ PUSH2 0x4E1 JUMPI DUP1 PUSH4 0xBC063E1A EQ PUSH2 0x555 JUMPI PUSH2 0x158 JUMP JUMPDEST DUP1 PUSH4 0x8656B653 GT PUSH2 0x115 JUMPI DUP1 PUSH4 0x8656B653 EQ PUSH2 0x2BD JUMPI DUP1 PUSH4 0x867378C5 EQ PUSH2 0x331 JUMPI DUP1 PUSH4 0x89298012 EQ PUSH2 0x34F JUMPI DUP1 PUSH4 0x9381CD2B EQ PUSH2 0x3C3 JUMPI DUP1 PUSH4 0x992E2A92 EQ PUSH2 0x3E1 JUMPI DUP1 PUSH4 0x9A86139B EQ PUSH2 0x3FF JUMPI PUSH2 0x158 JUMP JUMPDEST DUP1 PUSH4 0x9A3BBE4 EQ PUSH2 0x15D JUMPI DUP1 PUSH4 0x189D00CA EQ PUSH2 0x17B JUMPI DUP1 PUSH4 0x218B5382 EQ PUSH2 0x199 JUMPI DUP1 PUSH4 0x5C1BBAF7 EQ PUSH2 0x1B7 JUMPI DUP1 PUSH4 0x76C7A3C7 EQ PUSH2 0x22B JUMPI DUP1 PUSH4 0x82F652AD EQ PUSH2 0x249 JUMPI JUMPDEST PUSH1 0x0 DUP1 REVERT JUMPDEST PUSH2 0x165 PUSH2 0x67D JUMP JUMPDEST PUSH1 0x40 MLOAD DUP1 DUP3 DUP2 MSTORE PUSH1 0x20 ADD SWAP2 POP POP PUSH1 0x40 MLOAD DUP1 SWAP2 SUB SWAP1 RETURN JUMPDEST PUSH2 0x183 PUSH2 0x68C JUMP JUMPDEST PUSH1 0x40 MLOAD DUP1 DUP3 DUP2 MSTORE PUSH1 0x20 ADD SWAP2 POP POP PUSH1 0x40 MLOAD DUP1 SWAP2 SUB SWAP1 RETURN JUMPDEST PUSH2 0x1A1 PUSH2 0x6A6 JUMP JUMPDEST PUSH1 0x40 MLOAD DUP1 DUP3 DUP2 MSTORE PUSH1 0x20 ADD SWAP2 POP POP PUSH1 0x40 MLOAD DUP1 SWAP2 SUB SWAP1 RETURN JUMPDEST PUSH2 0x215 PUSH1 0x4 DUP1 CALLDATASIZE SUB PUSH1 0xC0 DUP2 LT ISZERO PUSH2 0x1CD JUMPI PUSH1 0x0 DUP1 REVERT JUMPDEST DUP2 ADD SWAP1 DUP1 DUP1 CALLDATALOAD SWAP1 PUSH1 0x20 ADD SWAP1 SWAP3 SWAP2 SWAP1 DUP1 CALLDATALOAD SWAP1 PUSH1 0x20 ADD SWAP1 SWAP3 SWAP2 SWAP1 DUP1 CALLDATALOAD SWAP1 PUSH1 0x20 ADD SWAP1 SWAP3 SWAP2 SWAP1 DUP1 CALLDATALOAD SWAP1 PUSH1 0x20 ADD SWAP1 SWAP3 SWAP2 SWAP1 DUP1 CALLDATALOAD SWAP1 PUSH1 0x20 ADD SWAP1 SWAP3 SWAP2 SWAP1 DUP1 CALLDATALOAD SWAP1 PUSH1 0x20 ADD SWAP1 SWAP3 SWAP2 SWAP1 POP POP POP PUSH2 0x6B2 JUMP JUMPDEST PUSH1 0x40 MLOAD DUP1 DUP3 DUP2 MSTORE PUSH1 0x20 ADD SWAP2 POP POP PUSH1 0x40 MLOAD DUP1 SWAP2 SUB SWAP1 RETURN JUMPDEST PUSH2 0x233 PUSH2 0x76E JUMP JUMPDEST PUSH1 0x40 MLOAD DUP1 DUP3 DUP2 MSTORE PUSH1 0x20 ADD SWAP2 POP POP PUSH1 0x40 MLOAD DUP1 SWAP2 SUB SWAP1 RETURN JUMPDEST PUSH2 0x2A7 PUSH1 0x4 DUP1 CALLDATASIZE SUB PUSH1 0xC0 DUP2 LT ISZERO PUSH2 0x25F JUMPI PUSH1 0x0 DUP1 REVERT JUMPDEST DUP2 ADD SWAP1 DUP1 DUP1 CALLDATALOAD SWAP1 PUSH1 0x20 ADD SWAP1 SWAP3 SWAP2 SWAP1 DUP1 CALLDATALOAD SWAP1 PUSH1 0x20 ADD SWAP1 SWAP3 SWAP2 SWAP1 DUP1 CALLDATALOAD SWAP1 PUSH1 0x20 ADD SWAP1 SWAP3 SWAP2 SWAP1 DUP1 CALLDATALOAD SWAP1 PUSH1 0x20 ADD SWAP1 SWAP3 SWAP2 SWAP1 DUP1 CALLDATALOAD SWAP1 PUSH1 0x20 ADD SWAP1 SWAP3 SWAP2 SWAP1 DUP1 CALLDATALOAD SWAP1 PUSH1 0x20 ADD SWAP1 SWAP3 SWAP2 SWAP1 POP POP POP PUSH2 0x786 JUMP JUMPDEST PUSH1 0x40 MLOAD DUP1 DUP3 DUP2 MSTORE PUSH1 0x20 ADD SWAP2 POP POP PUSH1 0x40 MLOAD DUP1 SWAP2 SUB SWAP1 RETURN JUMPDEST PUSH2 0x31B PUSH1 0x4 DUP1 CALLDATASIZE SUB PUSH1 0xC0 DUP2 LT ISZERO PUSH2 0x2D3 JUMPI PUSH1 0x0 DUP1 REVERT JUMPDEST DUP2 ADD SWAP1 DUP1 DUP1 CALLDATALOAD SWAP1 PUSH1 0x20 ADD SWAP1 SWAP3 SWAP2 SWAP1 DUP1 CALLDATALOAD SWAP1 PUSH1 0x20 ADD SWAP1 SWAP3 SWAP2 SWAP1 DUP1 CALLDATALOAD SWAP1 PUSH1 0x20 ADD SWAP1 SWAP3 SWAP2 SWAP1 DUP1 CALLDATALOAD SWAP1 PUSH1 0x20 ADD SWAP1 SWAP3 SWAP2 SWAP1 DUP1 CALLDATALOAD SWAP1 PUSH1 0x20 ADD SWAP1 SWAP3 SWAP2 SWAP1 DUP1 CALLDATALOAD SWAP1 PUSH1 0x20 ADD SWAP1 SWAP3 SWAP2 SWAP1 POP POP POP PUSH2 0x852 JUMP JUMPDEST PUSH1 0x40 MLOAD DUP1 DUP3 DUP2 MSTORE PUSH1 0x20 ADD SWAP2 POP POP PUSH1 0x40 MLOAD DUP1 SWAP2 SUB SWAP1 RETURN JUMPDEST PUSH2 0x339 PUSH2 0x8F7 JUMP JUMPDEST PUSH1 0x40 MLOAD DUP1 DUP3 DUP2 MSTORE PUSH1 0x20 ADD SWAP2 POP POP PUSH1 0x40 MLOAD DUP1 SWAP2 SUB SWAP1 RETURN JUMPDEST PUSH2 0x3AD PUSH1 0x4 DUP1 CALLDATASIZE SUB PUSH1 0xC0 DUP2 LT ISZERO PUSH2 0x365 JUMPI PUSH1 0x0 DUP1 REVERT JUMPDEST DUP2 ADD SWAP1 DUP1 DUP1 CALLDATALOAD SWAP1 PUSH1 0x20 ADD SWAP1 SWAP3 SWAP2 SWAP1 DUP1 CALLDATALOAD SWAP1 PUSH1 0x20 ADD SWAP1 SWAP3 SWAP2 SWAP1 DUP1 CALLDATALOAD SWAP1 PUSH1 0x20 ADD SWAP1 SWAP3 SWAP2 SWAP1 DUP1 CALLDATALOAD SWAP1 PUSH1 0x20 ADD SWAP1 SWAP3 SWAP2 SWAP1 DUP1 CALLDATALOAD SWAP1 PUSH1 0x20 ADD SWAP1 SWAP3 SWAP2 SWAP1 DUP1 CALLDATALOAD SWAP1 PUSH1 0x20 ADD SWAP1 SWAP3 SWAP2 SWAP1 POP POP POP PUSH2 0x911 JUMP JUMPDEST PUSH1 0x40 MLOAD DUP1 DUP3 DUP2 MSTORE PUSH1 0x20 ADD SWAP2 POP POP PUSH1 0x40 MLOAD DUP1 SWAP2 SUB SWAP1 RETURN JUMPDEST PUSH2 0x3CB PUSH2 0x9E8 JUMP JUMPDEST PUSH1 0x40 MLOAD DUP1 DUP3 DUP2 MSTORE PUSH1 0x20 ADD SWAP2 POP POP PUSH1 0x40 MLOAD DUP1 SWAP2 SUB SWAP1 RETURN JUMPDEST PUSH2 0x3E9 PUSH2 0x9F7 JUMP JUMPDEST PUSH1 0x40 MLOAD DUP1 DUP3 DUP2 MSTORE PUSH1 0x20 ADD SWAP2 POP POP PUSH1 0x40 MLOAD DUP1 SWAP2 SUB SWAP1 RETURN JUMPDEST PUSH2 0x407 PUSH2 0xA10 JUMP JUMPDEST PUSH1 0x40 MLOAD DUP1 DUP3 DUP2 MSTORE PUSH1 0x20 ADD SWAP2 POP POP PUSH1 0x40 MLOAD DUP1 SWAP2 SUB SWAP1 RETURN JUMPDEST PUSH2 0x471 PUSH1 0x4 DUP1 CALLDATASIZE SUB PUSH1 0xA0 DUP2 LT ISZERO PUSH2 0x433 JUMPI PUSH1 0x0 DUP1 REVERT JUMPDEST DUP2 ADD SWAP1 DUP1 DUP1 CALLDATALOAD SWAP1 PUSH1 0x20 ADD SWAP1 SWAP3 SWAP2 SWAP1 DUP1 CALLDATALOAD SWAP1 PUSH1 0x20 ADD SWAP1 SWAP3 SWAP2 SWAP1 DUP1 CALLDATALOAD SWAP1 PUSH1 0x20 ADD SWAP1 SWAP3 SWAP2 SWAP1 DUP1 CALLDATALOAD SWAP1 PUSH1 0x20 ADD SWAP1 SWAP3 SWAP2 SWAP1 DUP1 CALLDATALOAD SWAP1 PUSH1 0x20 ADD SWAP1 SWAP3 SWAP2 SWAP1 POP POP POP PUSH2 0xA38 JUMP JUMPDEST PUSH1 0x40 MLOAD DUP1 DUP3 DUP2 MSTORE PUSH1 0x20 ADD SWAP2 POP POP PUSH1 0x40 MLOAD DUP1 SWAP2 SUB SWAP1 RETURN JUMPDEST PUSH2 0x48F PUSH2 0xAA6 JUMP JUMPDEST PUSH1 0x40 MLOAD DUP1 DUP3 DUP2 MSTORE PUSH1 0x20 ADD SWAP2 POP POP PUSH1 0x40 MLOAD DUP1 SWAP2 SUB SWAP1 RETURN JUMPDEST PUSH2 0x4AD PUSH2 0xAAB JUMP JUMPDEST PUSH1 0x40 MLOAD DUP1 DUP3 DUP2 MSTORE PUSH1 0x20 ADD SWAP2 POP POP PUSH1 0x40 MLOAD DUP1 SWAP2 SUB SWAP1 RETURN JUMPDEST PUSH2 0x4CB PUSH2 0xAB0 JUMP JUMPDEST PUSH1 0x40 MLOAD DUP1 DUP3 DUP2 MSTORE PUSH1 0x20 ADD SWAP2 POP POP PUSH1 0x40 MLOAD DUP1 SWAP2 SUB SWAP1 RETURN JUMPDEST PUSH2 0x53F PUSH1 0x4 DUP1 CALLDATASIZE SUB PUSH1 0xC0 DUP2 LT ISZERO PUSH2 0x4F7 JUMPI PUSH1 0x0 DUP1 REVERT JUMPDEST DUP2 ADD SWAP1 DUP1 DUP1 CALLDATALOAD SWAP1 PUSH1 0x20 ADD SWAP1 SWAP3 SWAP2 SWAP1 DUP1 CALLDATALOAD SWAP1 PUSH1 0x20 ADD SWAP1 SWAP3 SWAP2 SWAP1 DUP1 CALLDATALOAD SWAP1 PUSH1 0x20 ADD SWAP1 SWAP3 SWAP2 SWAP1 DUP1 CALLDATALOAD SWAP1 PUSH1 0x20 ADD SWAP1 SWAP3 SWAP2 SWAP1 DUP1 CALLDATALOAD SWAP1 PUSH1 0x20 ADD SWAP1 SWAP3 SWAP2 SWAP1 DUP1 CALLDATALOAD SWAP1 PUSH1 0x20 ADD SWAP1 SWAP3 SWAP2 SWAP1 POP POP POP PUSH2 0xAB5 JUMP JUMPDEST PUSH1 0x40 MLOAD DUP1 DUP3 DUP2 MSTORE PUSH1 0x20 ADD SWAP2 POP POP PUSH1 0x40 MLOAD DUP1 SWAP2 SUB SWAP1 RETURN JUMPDEST PUSH2 0x55D PUSH2 0xB3F JUMP JUMPDEST PUSH1 0x40 MLOAD DUP1 DUP3 DUP2 MSTORE PUSH1 0x20 ADD SWAP2 POP POP PUSH1 0x40 MLOAD DUP1 SWAP2 SUB SWAP1 RETURN JUMPDEST PUSH2 0x57B PUSH2 0xB55 JUMP JUMPDEST PUSH1 0x40 MLOAD DUP1 DUP3 DUP2 MSTORE PUSH1 0x20 ADD SWAP2 POP POP PUSH1 0x40 MLOAD DUP1 SWAP2 SUB SWAP1 RETURN JUMPDEST PUSH2 0x599 PUSH2 0xB67 JUMP JUMPDEST PUSH1 0x40 MLOAD DUP1 DUP3 DUP2 MSTORE PUSH1 0x20 ADD SWAP2 POP POP PUSH1 0x40 MLOAD DUP1 SWAP2 SUB SWAP1 RETURN JUMPDEST PUSH2 0x5B7 PUSH2 0xB73 JUMP JUMPDEST PUSH1 0x40 MLOAD DUP1 DUP3 DUP2 MSTORE PUSH1 0x20 ADD SWAP2 POP POP PUSH1 0x40 MLOAD DUP1 SWAP2 SUB SWAP1 RETURN JUMPDEST PUSH2 0x5D5 PUSH2 0xB78 JUMP JUMPDEST PUSH1 0x40 MLOAD DUP1 DUP3 DUP2 MSTORE PUSH1 0x20 ADD SWAP2 POP POP PUSH1 0x40 MLOAD DUP1 SWAP2 SUB SWAP1 RETURN JUMPDEST PUSH2 0x5F3 PUSH2 0xB87 JUMP JUMPDEST PUSH1 0x40 MLOAD DUP1 DUP3 DUP2 MSTORE PUSH1 0x20 ADD SWAP2 POP POP PUSH1 0x40 MLOAD DUP1 SWAP2 SUB SWAP1 RETURN JUMPDEST PUSH2 0x667 PUSH1 0x4 DUP1 CALLDATASIZE SUB PUSH1 0xC0 DUP2 LT ISZERO PUSH2 0x61F JUMPI PUSH1 0x0 DUP1 REVERT JUMPDEST DUP2 ADD SWAP1 DUP1 DUP1 CALLDATALOAD SWAP1 PUSH1 0x20 ADD SWAP1 SWAP3 SWAP2 SWAP1 DUP1 CALLDATALOAD SWAP1 PUSH1 0x20 ADD SWAP1 SWAP3 SWAP2 SWAP1 DUP1 CALLDATALOAD SWAP1 PUSH1 0x20 ADD SWAP1 SWAP3 SWAP2 SWAP1 DUP1 CALLDATALOAD SWAP1 PUSH1 0x20 ADD SWAP1 SWAP3 SWAP2 SWAP1 DUP1 CALLDATALOAD SWAP1 PUSH1 0x20 ADD SWAP1 SWAP3 SWAP2 SWAP1 DUP1 CALLDATALOAD SWAP1 PUSH1 0x20 ADD SWAP1 SWAP3 SWAP2 SWAP1 POP POP POP PUSH2 0xB9D JUMP JUMPDEST PUSH1 0x40 MLOAD DUP1 DUP3 DUP2 MSTORE PUSH1 0x20 ADD SWAP2 POP POP PUSH1 0x40 MLOAD DUP1 SWAP2 SUB SWAP1 RETURN JUMPDEST PUSH1 0x32 PUSH8 0xDE0B6B3A7640000 MUL DUP2 JUMP JUMPDEST PUSH5 0x2540BE400 PUSH8 0xDE0B6B3A7640000 DUP2 PUSH2 0x6A2 JUMPI INVALID JUMPDEST DIV DUP2 JUMP JUMPDEST PUSH8 0xDE0B6B3A7640000 DUP2 JUMP JUMPDEST PUSH1 0x0 DUP1 PUSH2 0x6BF DUP8 DUP7 PUSH2 0xC24 JUMP JUMPDEST SWAP1 POP PUSH1 0x0 PUSH2 0x6CD DUP8 DUP7 PUSH2 0xDDD JUMP JUMPDEST SWAP1 POP PUSH1 0x0 PUSH2 0x6DB DUP3 DUP10 PUSH2 0xC24 JUMP JUMPDEST SWAP1 POP PUSH1 0x0 PUSH2 0x6F1 PUSH8 0xDE0B6B3A7640000 DUP6 PUSH2 0xC24 JUMP JUMPDEST SWAP1 POP PUSH1 0x0 PUSH2 0x6FF DUP4 DUP4 PUSH2 0xE65 JUMP JUMPDEST SWAP1 POP PUSH1 0x0 PUSH2 0x70D DUP3 DUP15 PUSH2 0xFE3 JUMP JUMPDEST SWAP1 POP PUSH1 0x0 PUSH2 0x71B DUP3 DUP16 PUSH2 0x1125 JUMP JUMPDEST SWAP1 POP PUSH1 0x0 PUSH2 0x73A PUSH2 0x734 PUSH8 0xDE0B6B3A7640000 DUP11 PUSH2 0x1125 JUMP JUMPDEST DUP12 PUSH2 0xFE3 JUMP JUMPDEST SWAP1 POP PUSH2 0x757 DUP3 PUSH2 0x752 PUSH8 0xDE0B6B3A7640000 DUP5 PUSH2 0x1125 JUMP JUMPDEST PUSH2 0xC24 JUMP JUMPDEST SWAP9 POP DUP9 SWAP9 POP POP POP POP POP POP POP POP POP SWAP7 SWAP6 POP POP POP POP POP POP JUMP JUMPDEST PUSH3 0xF4240 PUSH8 0xDE0B6B3A7640000 DUP2 PUSH2 0x782 JUMPI INVALID JUMPDEST DIV DUP2 JUMP JUMPDEST PUSH1 0x0 DUP1 PUSH2 0x793 DUP8 DUP7 PUSH2 0xC24 JUMP JUMPDEST SWAP1 POP PUSH1 0x0 PUSH2 0x7A9 PUSH8 0xDE0B6B3A7640000 DUP4 PUSH2 0x1125 JUMP JUMPDEST SWAP1 POP PUSH1 0x0 PUSH2 0x7B7 DUP3 DUP7 PUSH2 0xFE3 JUMP JUMPDEST SWAP1 POP PUSH1 0x0 PUSH2 0x7D6 DUP8 PUSH2 0x7D1 PUSH8 0xDE0B6B3A7640000 DUP6 PUSH2 0x1125 JUMP JUMPDEST PUSH2 0xC24 JUMP JUMPDEST SWAP1 POP PUSH1 0x0 PUSH2 0x7E4 DUP13 DUP4 PUSH2 0x1125 JUMP JUMPDEST SWAP1 POP PUSH1 0x0 PUSH2 0x7F2 DUP3 DUP15 PUSH2 0xC24 JUMP JUMPDEST SWAP1 POP PUSH1 0x0 PUSH2 0x800 DUP3 DUP9 PUSH2 0xE65 JUMP JUMPDEST SWAP1 POP PUSH1 0x0 PUSH2 0x80E DUP3 DUP15 PUSH2 0xFE3 JUMP JUMPDEST SWAP1 POP PUSH1 0x0 PUSH2 0x81C DUP15 DUP4 PUSH2 0x1125 JUMP JUMPDEST SWAP1 POP PUSH2 0x83A DUP2 PUSH2 0x835 PUSH8 0xDE0B6B3A7640000 PUSH1 0x0 PUSH2 0x1125 JUMP JUMPDEST PUSH2 0xC24 JUMP JUMPDEST SWAP10 POP DUP10 SWAP10 POP POP POP POP POP POP POP POP POP POP SWAP7 SWAP6 POP POP POP POP POP POP JUMP JUMPDEST PUSH1 0x0 DUP1 PUSH2 0x85F DUP8 DUP7 PUSH2 0xC24 JUMP JUMPDEST SWAP1 POP PUSH1 0x0 PUSH2 0x87E PUSH2 0x878 PUSH8 0xDE0B6B3A7640000 DUP5 PUSH2 0x1125 JUMP JUMPDEST DUP6 PUSH2 0xFE3 JUMP JUMPDEST SWAP1 POP PUSH1 0x0 PUSH2 0x89D DUP7 PUSH2 0x898 PUSH8 0xDE0B6B3A7640000 DUP6 PUSH2 0x1125 JUMP JUMPDEST PUSH2 0xFE3 JUMP JUMPDEST SWAP1 POP PUSH1 0x0 PUSH2 0x8AB DUP12 DUP4 PUSH2 0xDDD JUMP JUMPDEST SWAP1 POP PUSH1 0x0 PUSH2 0x8B9 DUP3 DUP14 PUSH2 0xC24 JUMP JUMPDEST SWAP1 POP PUSH1 0x0 PUSH2 0x8C7 DUP3 DUP8 PUSH2 0xE65 JUMP JUMPDEST SWAP1 POP PUSH1 0x0 PUSH2 0x8D5 DUP3 DUP14 PUSH2 0xFE3 JUMP JUMPDEST SWAP1 POP PUSH2 0x8E1 DUP2 DUP14 PUSH2 0x1125 JUMP JUMPDEST SWAP8 POP DUP8 SWAP8 POP POP POP POP POP POP POP POP SWAP7 SWAP6 POP POP POP POP POP POP JUMP JUMPDEST PUSH5 0xE8D4A51000 PUSH8 0xDE0B6B3A7640000 DUP2 PUSH2 0x90D JUMPI INVALID JUMPDEST DIV DUP2 JUMP JUMPDEST PUSH1 0x0 DUP1 PUSH2 0x91E DUP8 DUP7 PUSH2 0xC24 JUMP JUMPDEST SWAP1 POP PUSH1 0x0 PUSH2 0x93E DUP6 PUSH2 0x939 PUSH8 0xDE0B6B3A7640000 PUSH1 0x0 PUSH2 0x1125 JUMP JUMPDEST PUSH2 0xFE3 JUMP JUMPDEST SWAP1 POP PUSH1 0x0 PUSH2 0x94C DUP9 DUP4 PUSH2 0x1125 JUMP JUMPDEST SWAP1 POP PUSH1 0x0 PUSH2 0x95A DUP3 DUP11 PUSH2 0xC24 JUMP JUMPDEST SWAP1 POP PUSH1 0x0 PUSH2 0x979 DUP3 PUSH2 0x974 PUSH8 0xDE0B6B3A7640000 DUP9 PUSH2 0xC24 JUMP JUMPDEST PUSH2 0xE65 JUMP JUMPDEST SWAP1 POP PUSH1 0x0 PUSH2 0x987 DUP3 DUP15 PUSH2 0xFE3 JUMP JUMPDEST SWAP1 POP PUSH1 0x0 PUSH2 0x995 DUP15 DUP4 PUSH2 0x1125 JUMP JUMPDEST SWAP1 POP PUSH1 0x0 PUSH2 0x9B4 PUSH2 0x9AE PUSH8 0xDE0B6B3A7640000 DUP11 PUSH2 0x1125 JUMP JUMPDEST DUP12 PUSH2 0xFE3 JUMP JUMPDEST SWAP1 POP PUSH2 0x9D1 DUP3 PUSH2 0x9CC PUSH8 0xDE0B6B3A7640000 DUP5 PUSH2 0x1125 JUMP JUMPDEST PUSH2 0xFE3 JUMP JUMPDEST SWAP9 POP DUP9 SWAP9 POP POP POP POP POP POP POP POP POP SWAP7 SWAP6 POP POP POP POP POP POP JUMP JUMPDEST PUSH1 0x64 PUSH8 0xDE0B6B3A7640000 MUL DUP2 JUMP JUMPDEST PUSH1 0x1 PUSH1 0x3 PUSH8 0xDE0B6B3A7640000 DUP2 PUSH2 0xA0B JUMPI INVALID JUMPDEST DIV ADD DUP2 JUMP JUMPDEST PUSH1 0x0 PUSH32 0x42524F4E5A450000000000000000000000000000000000000000000000000000 SWAP1 POP SWAP1 JUMP JUMPDEST PUSH1 0x0 DUP1 PUSH2 0xA45 DUP8 DUP8 PUSH2 0xC24 JUMP JUMPDEST SWAP1 POP PUSH1 0x0 PUSH2 0xA53 DUP7 DUP7 PUSH2 0xC24 JUMP JUMPDEST SWAP1 POP PUSH1 0x0 PUSH2 0xA61 DUP4 DUP4 PUSH2 0xC24 JUMP JUMPDEST SWAP1 POP PUSH1 0x0 PUSH2 0xA88 PUSH8 0xDE0B6B3A7640000 PUSH2 0xA83 PUSH8 0xDE0B6B3A7640000 DUP10 PUSH2 0x1125 JUMP JUMPDEST PUSH2 0xC24 JUMP JUMPDEST SWAP1 POP PUSH2 0xA94 DUP3 DUP3 PUSH2 0xFE3 JUMP JUMPDEST SWAP5 POP DUP5 SWAP5 POP POP POP POP POP SWAP6 SWAP5 POP POP POP POP POP JUMP JUMPDEST PUSH1 0x8 DUP2 JUMP JUMPDEST PUSH1 0x2 DUP2 JUMP JUMPDEST PUSH1 0x1 DUP2 JUMP JUMPDEST PUSH1 0x0 DUP1 PUSH2 0xAC2 DUP8 DUP7 PUSH2 0xC24 JUMP JUMPDEST SWAP1 POP PUSH1 0x0 PUSH2 0xAD8 PUSH8 0xDE0B6B3A7640000 DUP6 PUSH2 0x1125 JUMP JUMPDEST SWAP1 POP PUSH2 0xAE4 DUP6 DUP3 PUSH2 0xFE3 JUMP JUMPDEST SWAP1 POP PUSH1 0x0 PUSH2 0xAFB DUP11 PUSH2 0xAF6 DUP13 DUP6 PUSH2 0xDDD JUMP JUMPDEST PUSH2 0xC24 JUMP JUMPDEST SWAP1 POP PUSH1 0x0 PUSH2 0xB09 DUP3 DUP6 PUSH2 0xE65 JUMP JUMPDEST SWAP1 POP PUSH1 0x0 PUSH2 0xB1F PUSH8 0xDE0B6B3A7640000 DUP4 PUSH2 0x1125 JUMP JUMPDEST SWAP1 POP PUSH2 0xB2B DUP11 DUP3 PUSH2 0xFE3 JUMP JUMPDEST SWAP6 POP DUP6 SWAP6 POP POP POP POP POP POP SWAP7 SWAP6 POP POP POP POP POP POP JUMP JUMPDEST PUSH1 0xA PUSH8 0xDE0B6B3A7640000 DUP2 PUSH2 0xB51 JUMPI INVALID JUMPDEST DIV DUP2 JUMP JUMPDEST PUSH1 0x1 PUSH8 0xDE0B6B3A7640000 PUSH1 0x2 MUL SUB DUP2 JUMP JUMPDEST PUSH8 0xDE0B6B3A7640000 DUP2 JUMP JUMPDEST PUSH1 0x0 DUP2 JUMP JUMPDEST PUSH1 0x32 PUSH8 0xDE0B6B3A7640000 MUL DUP2 JUMP JUMPDEST PUSH1 0x2 PUSH8 0xDE0B6B3A7640000 DUP2 PUSH2 0xB99 JUMPI INVALID JUMPDEST DIV DUP2 JUMP JUMPDEST PUSH1 0x0 DUP1 PUSH2 0xBAA DUP6 DUP9 PUSH2 0xC24 JUMP JUMPDEST SWAP1 POP PUSH1 0x0 PUSH2 0xBB8 DUP8 DUP7 PUSH2 0x1125 JUMP JUMPDEST SWAP1 POP PUSH1 0x0 PUSH2 0xBC6 DUP9 DUP4 PUSH2 0xC24 JUMP JUMPDEST SWAP1 POP PUSH1 0x0 PUSH2 0xBD4 DUP3 DUP6 PUSH2 0xE65 JUMP JUMPDEST SWAP1 POP PUSH2 0xBE8 DUP2 PUSH8 0xDE0B6B3A7640000 PUSH2 0x1125 JUMP JUMPDEST SWAP1 POP PUSH2 0xBFC PUSH8 0xDE0B6B3A7640000 DUP8 PUSH2 0x1125 JUMP JUMPDEST SWAP5 POP PUSH2 0xC11 PUSH2 0xC0B DUP13 DUP4 PUSH2 0xFE3 JUMP JUMPDEST DUP7 PUSH2 0xC24 JUMP JUMPDEST SWAP5 POP DUP5 SWAP5 POP POP POP POP POP SWAP7 SWAP6 POP POP POP POP POP POP JUMP JUMPDEST PUSH1 0x0 DUP1 DUP3 EQ ISZERO PUSH2 0xC9C JUMPI PUSH1 0x40 MLOAD PUSH32 0x8C379A000000000000000000000000000000000000000000000000000000000 DUP2 MSTORE PUSH1 0x4 ADD DUP1 DUP1 PUSH1 0x20 ADD DUP3 DUP2 SUB DUP3 MSTORE PUSH1 0xC DUP2 MSTORE PUSH1 0x20 ADD DUP1 PUSH32 0x4552525F4449565F5A45524F0000000000000000000000000000000000000000 DUP2 MSTORE POP PUSH1 0x20 ADD SWAP2 POP POP PUSH1 0x40 MLOAD DUP1 SWAP2 SUB SWAP1 REVERT JUMPDEST PUSH1 0x0 PUSH8 0xDE0B6B3A7640000 DUP5 MUL SWAP1 POP PUSH1 0x0 DUP5 EQ DUP1 PUSH2 0xCCA JUMPI POP PUSH8 0xDE0B6B3A7640000 DUP5 DUP3 DUP2 PUSH2 0xCC7 JUMPI INVALID JUMPDEST DIV EQ JUMPDEST PUSH2 0xD3C JUMPI PUSH1 0x40 MLOAD PUSH32 0x8C379A000000000000000000000000000000000000000000000000000000000 DUP2 MSTORE PUSH1 0x4 ADD DUP1 DUP1 PUSH1 0x20 ADD DUP3 DUP2 SUB DUP3 MSTORE PUSH1 0x10 DUP2 MSTORE PUSH1 0x20 ADD DUP1 PUSH32 0x4552525F4449565F494E5445524E414C00000000000000000000000000000000 DUP2 MSTORE POP PUSH1 0x20 ADD SWAP2 POP POP PUSH1 0x40 MLOAD DUP1 SWAP2 SUB SWAP1 REVERT JUMPDEST PUSH1 0x0 PUSH1 0x2 DUP5 DUP2 PUSH2 0xD48 JUMPI INVALID JUMPDEST DIV DUP3 ADD SWAP1 POP DUP2 DUP2 LT ISZERO PUSH2 0xDC3 JUMPI PUSH1 0x40 MLOAD PUSH32 0x8C379A000000000000000000000000000000000000000000000000000000000 DUP2 MSTORE PUSH1 0x4 ADD DUP1 DUP1 PUSH1 0x20 ADD DUP3 DUP2 SUB DUP3 MSTORE PUSH1 0x10 DUP2 MSTORE PUSH1 0x20 ADD DUP1 PUSH32 0x4552525F4449565F494E5445524E414C00000000000000000000000000000000 DUP2 MSTORE POP PUSH1 0x20 ADD SWAP2 POP POP PUSH1 0x40 MLOAD DUP1 SWAP2 SUB SWAP1 REVERT JUMPDEST PUSH1 0x0 DUP5 DUP3 DUP2 PUSH2 0xDCE JUMPI INVALID JUMPDEST DIV SWAP1 POP DUP1 SWAP4 POP POP POP POP SWAP3 SWAP2 POP POP JUMP JUMPDEST PUSH1 0x0 DUP1 DUP3 DUP5 ADD SWAP1 POP DUP4 DUP2 LT ISZERO PUSH2 0xE5B JUMPI PUSH1 0x40 MLOAD PUSH32 0x8C379A000000000000000000000000000000000000000000000000000000000 DUP2 MSTORE PUSH1 0x4 ADD DUP1 DUP1 PUSH1 0x20 ADD DUP3 DUP2 SUB DUP3 MSTORE PUSH1 0x10 DUP2 MSTORE PUSH1 0x20 ADD DUP1 PUSH32 0x4552525F4144445F4F564552464C4F5700000000000000000000000000000000 DUP2 MSTORE POP PUSH1 0x20 ADD SWAP2 POP POP PUSH1 0x40 MLOAD DUP1 SWAP2 SUB SWAP1 REVERT JUMPDEST DUP1 SWAP2 POP POP SWAP3 SWAP2 POP POP JUMP JUMPDEST PUSH1 0x0 PUSH1 0x1 DUP4 LT ISZERO PUSH2 0xEDE JUMPI PUSH1 0x40 MLOAD PUSH32 0x8C379A000000000000000000000000000000000000000000000000000000000 DUP2 MSTORE PUSH1 0x4 ADD DUP1 DUP1 PUSH1 0x20 ADD DUP3 DUP2 SUB DUP3 MSTORE PUSH1 0x15 DUP2 MSTORE PUSH1 0x20 ADD DUP1 PUSH32 0x4552525F42504F575F424153455F544F4F5F4C4F570000000000000000000000 DUP2 MSTORE POP PUSH1 0x20 ADD SWAP2 POP POP PUSH1 0x40 MLOAD DUP1 SWAP2 SUB SWAP1 REVERT JUMPDEST PUSH1 0x1 PUSH8 0xDE0B6B3A7640000 PUSH1 0x2 MUL SUB DUP4 GT ISZERO PUSH2 0xF62 JUMPI PUSH1 0x40 MLOAD PUSH32 0x8C379A000000000000000000000000000000000000000000000000000000000 DUP2 MSTORE PUSH1 0x4 ADD DUP1 DUP1 PUSH1 0x20 ADD DUP3 DUP2 SUB DUP3 MSTORE PUSH1 0x16 DUP2 MSTORE PUSH1 0x20 ADD DUP1 PUSH32 0x4552525F42504F575F424153455F544F4F5F4849474800000000000000000000 DUP2 MSTORE POP PUSH1 0x20 ADD SWAP2 POP POP PUSH1 0x40 MLOAD DUP1 SWAP2 SUB SWAP1 REVERT JUMPDEST PUSH1 0x0 PUSH2 0xF6D DUP4 PUSH2 0x11B7 JUMP JUMPDEST SWAP1 POP PUSH1 0x0 PUSH2 0xF7B DUP5 DUP4 PUSH2 0x1125 JUMP JUMPDEST SWAP1 POP PUSH1 0x0 PUSH2 0xF91 DUP7 PUSH2 0xF8C DUP6 PUSH2 0x11D3 JUMP JUMPDEST PUSH2 0x11EE JUMP JUMPDEST SWAP1 POP PUSH1 0x0 DUP3 EQ ISZERO PUSH2 0xFA7 JUMPI DUP1 SWAP4 POP POP POP POP PUSH2 0xFDD JUMP JUMPDEST PUSH1 0x0 PUSH2 0xFCA DUP8 DUP5 PUSH5 0x2540BE400 PUSH8 0xDE0B6B3A7640000 DUP2 PUSH2 0xFC4 JUMPI INVALID JUMPDEST DIV PUSH2 0x1273 JUMP JUMPDEST SWAP1 POP PUSH2 0xFD6 DUP3 DUP3 PUSH2 0xFE3 JUMP JUMPDEST SWAP5 POP POP POP POP POP JUMPDEST SWAP3 SWAP2 POP POP JUMP JUMPDEST PUSH1 0x0 DUP1 DUP3 DUP5 MUL SWAP1 POP PUSH1 0x0 DUP5 EQ DUP1 PUSH2 0x1002 JUMPI POP DUP3 DUP5 DUP3 DUP2 PUSH2 0xFFF JUMPI INVALID JUMPDEST DIV EQ JUMPDEST PUSH2 0x1074 JUMPI PUSH1 0x40 MLOAD PUSH32 0x8C379A000000000000000000000000000000000000000000000000000000000 DUP2 MSTORE PUSH1 0x4 ADD DUP1 DUP1 PUSH1 0x20 ADD DUP3 DUP2 SUB DUP3 MSTORE PUSH1 0x10 DUP2 MSTORE PUSH1 0x20 ADD DUP1 PUSH32 0x4552525F4D554C5F4F564552464C4F5700000000000000000000000000000000 DUP2 MSTORE POP PUSH1 0x20 ADD SWAP2 POP POP PUSH1 0x40 MLOAD DUP1 SWAP2 SUB SWAP1 REVERT JUMPDEST PUSH1 0x0 PUSH1 0x2 PUSH8 0xDE0B6B3A7640000 DUP2 PUSH2 0x1088 JUMPI INVALID JUMPDEST DIV DUP3 ADD SWAP1 POP DUP2 DUP2 LT ISZERO PUSH2 0x1103 JUMPI PUSH1 0x40 MLOAD PUSH32 0x8C379A000000000000000000000000000000000000000000000000000000000 DUP2 MSTORE PUSH1 0x4 ADD DUP1 DUP1 PUSH1 0x20 ADD DUP3 DUP2 SUB DUP3 MSTORE PUSH1 0x10 DUP2 MSTORE PUSH1 0x20 ADD DUP1 PUSH32 0x4552525F4D554C5F4F564552464C4F5700000000000000000000000000000000 DUP2 MSTORE POP PUSH1 0x20 ADD SWAP2 POP POP PUSH1 0x40 MLOAD DUP1 SWAP2 SUB SWAP1 REVERT JUMPDEST PUSH1 0x0 PUSH8 0xDE0B6B3A7640000 DUP3 DUP2 PUSH2 0x1116 JUMPI INVALID JUMPDEST DIV SWAP1 POP DUP1 SWAP4 POP POP POP POP SWAP3 SWAP2 POP POP JUMP JUMPDEST PUSH1 0x0 DUP1 PUSH1 0x0 PUSH2 0x1134 DUP6 DUP6 PUSH2 0x1375 JUMP JUMPDEST SWAP2 POP SWAP2 POP DUP1 ISZERO PUSH2 0x11AC JUMPI PUSH1 0x40 MLOAD PUSH32 0x8C379A000000000000000000000000000000000000000000000000000000000 DUP2 MSTORE PUSH1 0x4 ADD DUP1 DUP1 PUSH1 0x20 ADD DUP3 DUP2 SUB DUP3 MSTORE PUSH1 0x11 DUP2 MSTORE PUSH1 0x20 ADD DUP1 PUSH32 0x4552525F5355425F554E444552464C4F57000000000000000000000000000000 DUP2 MSTORE POP PUSH1 0x20 ADD SWAP2 POP POP PUSH1 0x40 MLOAD DUP1 SWAP2 SUB SWAP1 REVERT JUMPDEST DUP2 SWAP3 POP POP POP SWAP3 SWAP2 POP POP JUMP JUMPDEST PUSH1 0x0 PUSH8 0xDE0B6B3A7640000 PUSH2 0x11CB DUP4 PUSH2 0x11D3 JUMP JUMPDEST MUL SWAP1 POP SWAP2 SWAP1 POP JUMP JUMPDEST PUSH1 0x0 PUSH8 0xDE0B6B3A7640000 DUP3 DUP2 PUSH2 0x11E6 JUMPI INVALID JUMPDEST DIV SWAP1 POP SWAP2 SWAP1 POP JUMP JUMPDEST PUSH1 0x0 DUP1 PUSH1 0x0 PUSH1 0x2 DUP5 DUP2 PUSH2 0x11FD JUMPI INVALID JUMPDEST MOD EQ ISZERO PUSH2 0x1212 JUMPI PUSH8 0xDE0B6B3A7640000 PUSH2 0x1214 JUMP JUMPDEST DUP4 JUMPDEST SWAP1 POP PUSH1 0x2 DUP4 DUP2 PUSH2 0x1220 JUMPI INVALID JUMPDEST DIV SWAP3 POP JUMPDEST PUSH1 0x0 DUP4 EQ PUSH2 0x1269 JUMPI PUSH2 0x1236 DUP5 DUP6 PUSH2 0xFE3 JUMP JUMPDEST SWAP4 POP PUSH1 0x0 PUSH1 0x2 DUP5 DUP2 PUSH2 0x1244 JUMPI INVALID JUMPDEST MOD EQ PUSH2 0x1257 JUMPI PUSH2 0x1254 DUP2 DUP6 PUSH2 0xFE3 JUMP JUMPDEST SWAP1 POP JUMPDEST PUSH1 0x2 DUP4 DUP2 PUSH2 0x1261 JUMPI INVALID JUMPDEST DIV SWAP3 POP PUSH2 0x1224 JUMP JUMPDEST DUP1 SWAP2 POP POP SWAP3 SWAP2 POP POP JUMP JUMPDEST PUSH1 0x0 DUP1 DUP4 SWAP1 POP PUSH1 0x0 DUP1 PUSH2 0x128E DUP8 PUSH8 0xDE0B6B3A7640000 PUSH2 0x1375 JUMP JUMPDEST SWAP2 POP SWAP2 POP PUSH1 0x0 PUSH8 0xDE0B6B3A7640000 SWAP1 POP PUSH1 0x0 DUP2 SWAP1 POP PUSH1 0x0 DUP1 SWAP1 POP PUSH1 0x0 PUSH1 0x1 SWAP1 POP JUMPDEST DUP9 DUP5 LT PUSH2 0x1364 JUMPI PUSH1 0x0 PUSH8 0xDE0B6B3A7640000 DUP3 MUL SWAP1 POP PUSH1 0x0 DUP1 PUSH2 0x12E4 DUP11 PUSH2 0x12DF DUP6 PUSH8 0xDE0B6B3A7640000 PUSH2 0x1125 JUMP JUMPDEST PUSH2 0x1375 JUMP JUMPDEST SWAP2 POP SWAP2 POP PUSH2 0x12FB DUP8 PUSH2 0x12F6 DUP5 DUP13 PUSH2 0xFE3 JUMP JUMPDEST PUSH2 0xFE3 JUMP JUMPDEST SWAP7 POP PUSH2 0x1307 DUP8 DUP5 PUSH2 0xC24 JUMP JUMPDEST SWAP7 POP PUSH1 0x0 DUP8 EQ ISZERO PUSH2 0x131A JUMPI POP POP POP PUSH2 0x1364 JUMP JUMPDEST DUP8 ISZERO PUSH2 0x1325 JUMPI DUP5 ISZERO SWAP5 POP JUMPDEST DUP1 ISZERO PUSH2 0x1330 JUMPI DUP5 ISZERO SWAP5 POP JUMPDEST DUP5 ISZERO PUSH2 0x1347 JUMPI PUSH2 0x1340 DUP7 DUP9 PUSH2 0x1125 JUMP JUMPDEST SWAP6 POP PUSH2 0x1354 JUMP JUMPDEST PUSH2 0x1351 DUP7 DUP9 PUSH2 0xDDD JUMP JUMPDEST SWAP6 POP JUMPDEST POP POP POP DUP1 DUP1 PUSH1 0x1 ADD SWAP2 POP POP PUSH2 0x12B0 JUMP JUMPDEST POP DUP2 SWAP7 POP POP POP POP POP POP POP SWAP4 SWAP3 POP POP POP JUMP JUMPDEST PUSH1 0x0 DUP1 DUP3 DUP5 LT PUSH2 0x138D JUMPI DUP3 DUP5 SUB PUSH1 0x0 SWAP2 POP SWAP2 POP PUSH2 0x1397 JUMP JUMPDEST DUP4 DUP4 SUB PUSH1 0x1 SWAP2 POP SWAP2 POP JUMPDEST SWAP3 POP SWAP3 SWAP1 POP JUMP INVALID LOG2 PUSH6 0x627A7A723158 KECCAK256 NUMBER 0xee SIGNEXTEND DUP12 AND 0xe9 0x5e 0xa7 CREATE 0xa6 DUP7 PUSH2 0xEE5C 0xb0 CHAINID 0xe2 CALLDATACOPY 0xa9 SWAP5 0xbb CALLCODE PUSH18 0x9946E68F020A9A8B564736F6C634300050C STOP ORIGIN "
		},
		"gasEstimates": {
			"creation": {
				"codeDepositCost": "1015000",
				"executionCost": "1054",
				"totalCost": "1016054"
			},
			"external": {
				"BONE()": "249",
				"BPOW_PRECISION()": "276",
				"EXIT_FEE()": "271",
				"INIT_POOL_SUPPLY()": "302",
				"MAX_BOUND_TOKENS()": "250",
				"MAX_BPOW_BASE()": "241",
				"MAX_FEE()": "363",
				"MAX_IN_RATIO()": "340",
				"MAX_OUT_RATIO()": "347",
				"MAX_TOTAL_WEIGHT()": "237",
				"MAX_WEIGHT()": "301",
				"MIN_BALANCE()": "275",
				"MIN_BOUND_TOKENS()": "272",
				"MIN_BPOW_BASE()": "294",
				"MIN_FEE()": "342",
				"MIN_WEIGHT()": "273",
				"calcInGivenOut(uint256,uint256,uint256,uint256,uint256,uint256)": "infinite",
				"calcOutGivenIn(uint256,uint256,uint256,uint256,uint256,uint256)": "infinite",
				"calcPoolInGivenSingleOut(uint256,uint256,uint256,uint256,uint256,uint256)": "infinite",
				"calcPoolOutGivenSingleIn(uint256,uint256,uint256,uint256,uint256,uint256)": "infinite",
				"calcSingleInGivenPoolOut(uint256,uint256,uint256,uint256,uint256,uint256)": "infinite",
				"calcSingleOutGivenPoolIn(uint256,uint256,uint256,uint256,uint256,uint256)": "infinite",
				"calcSpotPrice(uint256,uint256,uint256,uint256,uint256)": "infinite",
				"getColor()": "346"
			}
		},
		"methodIdentifiers": {
			"BONE()": "c36596a6",
			"BPOW_PRECISION()": "189d00ca",
			"EXIT_FEE()": "c6580d12",
			"INIT_POOL_SUPPLY()": "9381cd2b",
			"MAX_BOUND_TOKENS()": "b0e0d136",
			"MAX_BPOW_BASE()": "bc694ea2",
			"MAX_FEE()": "bc063e1a",
			"MAX_IN_RATIO()": "ec093021",
			"MAX_OUT_RATIO()": "992e2a92",
			"MAX_TOTAL_WEIGHT()": "09a3bbe4",
			"MAX_WEIGHT()": "e4a28a52",
			"MIN_BALANCE()": "867378c5",
			"MIN_BOUND_TOKENS()": "b7b800a4",
			"MIN_BPOW_BASE()": "ba019dab",
			"MIN_FEE()": "76c7a3c7",
			"MIN_WEIGHT()": "218b5382",
			"calcInGivenOut(uint256,uint256,uint256,uint256,uint256,uint256)": "f8d6aed4",
			"calcOutGivenIn(uint256,uint256,uint256,uint256,uint256,uint256)": "ba9530a6",
			"calcPoolInGivenSingleOut(uint256,uint256,uint256,uint256,uint256,uint256)": "82f652ad",
			"calcPoolOutGivenSingleIn(uint256,uint256,uint256,uint256,uint256,uint256)": "8656b653",
			"calcSingleInGivenPoolOut(uint256,uint256,uint256,uint256,uint256,uint256)": "5c1bbaf7",
			"calcSingleOutGivenPoolIn(uint256,uint256,uint256,uint256,uint256,uint256)": "89298012",
			"calcSpotPrice(uint256,uint256,uint256,uint256,uint256)": "a221ee49",
			"getColor()": "9a86139b"
		}
	},
	"abi": [
		{
			"constant": true,
			"inputs": [],
			"name": "BONE",
			"outputs": [
				{
					"internalType": "uint256",
					"name": "",
					"type": "uint256"
				}
			],
			"payable": false,
			"stateMutability": "view",
			"type": "function"
		},
		{
			"constant": true,
			"inputs": [],
			"name": "BPOW_PRECISION",
			"outputs": [
				{
					"internalType": "uint256",
					"name": "",
					"type": "uint256"
				}
			],
			"payable": false,
			"stateMutability": "view",
			"type": "function"
		},
		{
			"constant": true,
			"inputs": [],
			"name": "EXIT_FEE",
			"outputs": [
				{
					"internalType": "uint256",
					"name": "",
					"type": "uint256"
				}
			],
			"payable": false,
			"stateMutability": "view",
			"type": "function"
		},
		{
			"constant": true,
			"inputs": [],
			"name": "INIT_POOL_SUPPLY",
			"outputs": [
				{
					"internalType": "uint256",
					"name": "",
					"type": "uint256"
				}
			],
			"payable": false,
			"stateMutability": "view",
			"type": "function"
		},
		{
			"constant": true,
			"inputs": [],
			"name": "MAX_BOUND_TOKENS",
			"outputs": [
				{
					"internalType": "uint256",
					"name": "",
					"type": "uint256"
				}
			],
			"payable": false,
			"stateMutability": "view",
			"type": "function"
		},
		{
			"constant": true,
			"inputs": [],
			"name": "MAX_BPOW_BASE",
			"outputs": [
				{
					"internalType": "uint256",
					"name": "",
					"type": "uint256"
				}
			],
			"payable": false,
			"stateMutability": "view",
			"type": "function"
		},
		{
			"constant": true,
			"inputs": [],
			"name": "MAX_FEE",
			"outputs": [
				{
					"internalType": "uint256",
					"name": "",
					"type": "uint256"
				}
			],
			"payable": false,
			"stateMutability": "view",
			"type": "function"
		},
		{
			"constant": true,
			"inputs": [],
			"name": "MAX_IN_RATIO",
			"outputs": [
				{
					"internalType": "uint256",
					"name": "",
					"type": "uint256"
				}
			],
			"payable": false,
			"stateMutability": "view",
			"type": "function"
		},
		{
			"constant": true,
			"inputs": [],
			"name": "MAX_OUT_RATIO",
			"outputs": [
				{
					"internalType": "uint256",
					"name": "",
					"type": "uint256"
				}
			],
			"payable": false,
			"stateMutability": "view",
			"type": "function"
		},
		{
			"constant": true,
			"inputs": [],
			"name": "MAX_TOTAL_WEIGHT",
			"outputs": [
				{
					"internalType": "uint256",
					"name": "",
					"type": "uint256"
				}
			],
			"payable": false,
			"stateMutability": "view",
			"type": "function"
		},
		{
			"constant": true,
			"inputs": [],
			"name": "MAX_WEIGHT",
			"outputs": [
				{
					"internalType": "uint256",
					"name": "",
					"type": "uint256"
				}
			],
			"payable": false,
			"stateMutability": "view",
			"type": "function"
		},
		{
			"constant": true,
			"inputs": [],
			"name": "MIN_BALANCE",
			"outputs": [
				{
					"internalType": "uint256",
					"name": "",
					"type": "uint256"
				}
			],
			"payable": false,
			"stateMutability": "view",
			"type": "function"
		},
		{
			"constant": true,
			"inputs": [],
			"name": "MIN_BOUND_TOKENS",
			"outputs": [
				{
					"internalType": "uint256",
					"name": "",
					"type": "uint256"
				}
			],
			"payable": false,
			"stateMutability": "view",
			"type": "function"
		},
		{
			"constant": true,
			"inputs": [],
			"name": "MIN_BPOW_BASE",
			"outputs": [
				{
					"internalType": "uint256",
					"name": "",
					"type": "uint256"
				}
			],
			"payable": false,
			"stateMutability": "view",
			"type": "function"
		},
		{
			"constant": true,
			"inputs": [],
			"name": "MIN_FEE",
			"outputs": [
				{
					"internalType": "uint256",
					"name": "",
					"type": "uint256"
				}
			],
			"payable": false,
			"stateMutability": "view",
			"type": "function"
		},
		{
			"constant": true,
			"inputs": [],
			"name": "MIN_WEIGHT",
			"outputs": [
				{
					"internalType": "uint256",
					"name": "",
					"type": "uint256"
				}
			],
			"payable": false,
			"stateMutability": "view",
			"type": "function"
		},
		{
			"constant": true,
			"inputs": [
				{
					"internalType": "uint256",
					"name": "tokenBalanceIn",
					"type": "uint256"
				},
				{
					"internalType": "uint256",
					"name": "tokenWeightIn",
					"type": "uint256"
				},
				{
					"internalType": "uint256",
					"name": "tokenBalanceOut",
					"type": "uint256"
				},
				{
					"internalType": "uint256",
					"name": "tokenWeightOut",
					"type": "uint256"
				},
				{
					"internalType": "uint256",
					"name": "tokenAmountOut",
					"type": "uint256"
				},
				{
					"internalType": "uint256",
					"name": "swapFee",
					"type": "uint256"
				}
			],
			"name": "calcInGivenOut",
			"outputs": [
				{
					"internalType": "uint256",
					"name": "tokenAmountIn",
					"type": "uint256"
				}
			],
			"payable": false,
			"stateMutability": "view",
			"type": "function"
		},
		{
			"constant": true,
			"inputs": [
				{
					"internalType": "uint256",
					"name": "tokenBalanceIn",
					"type": "uint256"
				},
				{
					"internalType": "uint256",
					"name": "tokenWeightIn",
					"type": "uint256"
				},
				{
					"internalType": "uint256",
					"name": "tokenBalanceOut",
					"type": "uint256"
				},
				{
					"internalType": "uint256",
					"name": "tokenWeightOut",
					"type": "uint256"
				},
				{
					"internalType": "uint256",
					"name": "tokenAmountIn",
					"type": "uint256"
				},
				{
					"internalType": "uint256",
					"name": "swapFee",
					"type": "uint256"
				}
			],
			"name": "calcOutGivenIn",
			"outputs": [
				{
					"internalType": "uint256",
					"name": "tokenAmountOut",
					"type": "uint256"
				}
			],
			"payable": false,
			"stateMutability": "view",
			"type": "function"
		},
		{
			"constant": true,
			"inputs": [
				{
					"internalType": "uint256",
					"name": "tokenBalanceOut",
					"type": "uint256"
				},
				{
					"internalType": "uint256",
					"name": "tokenWeightOut",
					"type": "uint256"
				},
				{
					"internalType": "uint256",
					"name": "poolSupply",
					"type": "uint256"
				},
				{
					"internalType": "uint256",
					"name": "totalWeight",
					"type": "uint256"
				},
				{
					"internalType": "uint256",
					"name": "tokenAmountOut",
					"type": "uint256"
				},
				{
					"internalType": "uint256",
					"name": "swapFee",
					"type": "uint256"
				}
			],
			"name": "calcPoolInGivenSingleOut",
			"outputs": [
				{
					"internalType": "uint256",
					"name": "poolAmountIn",
					"type": "uint256"
				}
			],
			"payable": false,
			"stateMutability": "view",
			"type": "function"
		},
		{
			"constant": true,
			"inputs": [
				{
					"internalType": "uint256",
					"name": "tokenBalanceIn",
					"type": "uint256"
				},
				{
					"internalType": "uint256",
					"name": "tokenWeightIn",
					"type": "uint256"
				},
				{
					"internalType": "uint256",
					"name": "poolSupply",
					"type": "uint256"
				},
				{
					"internalType": "uint256",
					"name": "totalWeight",
					"type": "uint256"
				},
				{
					"internalType": "uint256",
					"name": "tokenAmountIn",
					"type": "uint256"
				},
				{
					"internalType": "uint256",
					"name": "swapFee",
					"type": "uint256"
				}
			],
			"name": "calcPoolOutGivenSingleIn",
			"outputs": [
				{
					"internalType": "uint256",
					"name": "poolAmountOut",
					"type": "uint256"
				}
			],
			"payable": false,
			"stateMutability": "view",
			"type": "function"
		},
		{
			"constant": true,
			"inputs": [
				{
					"internalType": "uint256",
					"name": "tokenBalanceIn",
					"type": "uint256"
				},
				{
					"internalType": "uint256",
					"name": "tokenWeightIn",
					"type": "uint256"
				},
				{
					"internalType": "uint256",
					"name": "poolSupply",
					"type": "uint256"
				},
				{
					"internalType": "uint256",
					"name": "totalWeight",
					"type": "uint256"
				},
				{
					"internalType": "uint256",
					"name": "poolAmountOut",
					"type": "uint256"
				},
				{
					"internalType": "uint256",
					"name": "swapFee",
					"type": "uint256"
				}
			],
			"name": "calcSingleInGivenPoolOut",
			"outputs": [
				{
					"internalType": "uint256",
					"name": "tokenAmountIn",
					"type": "uint256"
				}
			],
			"payable": false,
			"stateMutability": "view",
			"type": "function"
		},
		{
			"constant": true,
			"inputs": [
				{
					"internalType": "uint256",
					"name": "tokenBalanceOut",
					"type": "uint256"
				},
				{
					"internalType": "uint256",
					"name": "tokenWeightOut",
					"type": "uint256"
				},
				{
					"internalType": "uint256",
					"name": "poolSupply",
					"type": "uint256"
				},
				{
					"internalType": "uint256",
					"name": "totalWeight",
					"type": "uint256"
				},
				{
					"internalType": "uint256",
					"name": "poolAmountIn",
					"type": "uint256"
				},
				{
					"internalType": "uint256",
					"name": "swapFee",
					"type": "uint256"
				}
			],
			"name": "calcSingleOutGivenPoolIn",
			"outputs": [
				{
					"internalType": "uint256",
					"name": "tokenAmountOut",
					"type": "uint256"
				}
			],
			"payable": false,
			"stateMutability": "view",
			"type": "function"
		},
		{
			"constant": true,
			"inputs": [
				{
					"internalType": "uint256",
					"name": "tokenBalanceIn",
					"type": "uint256"
				},
				{
					"internalType": "uint256",
					"name": "tokenWeightIn",
					"type": "uint256"
				},
				{
					"internalType": "uint256",
					"name": "tokenBalanceOut",
					"type": "uint256"
				},
				{
					"internalType": "uint256",
					"name": "tokenWeightOut",
					"type": "uint256"
				},
				{
					"internalType": "uint256",
					"name": "swapFee",
					"type": "uint256"
				}
			],
			"name": "calcSpotPrice",
			"outputs": [
				{
					"internalType": "uint256",
					"name": "spotPrice",
					"type": "uint256"
				}
			],
			"payable": false,
			"stateMutability": "view",
			"type": "function"
		},
		{
			"constant": true,
			"inputs": [],
			"name": "getColor",
			"outputs": [
				{
					"internalType": "bytes32",
					"name": "",
					"type": "bytes32"
				}
			],
			"payable": false,
			"stateMutability": "view",
			"type": "function"
		}
	]
}