{
	"data": {
		"bytecode": {
			"linkReferences": {},
			"object": "608060405234801561001057600080fd5b50610467806100206000396000f3fe608060405234801561001057600080fd5b506004361061010b5760003560e01c8063b0e0d136116100a2578063bc694ea211610071578063bc694ea214610278578063c36596a614610296578063c6580d12146102b4578063e4a28a52146102d2578063ec093021146102f05761010b565b8063b0e0d13614610200578063b7b800a41461021e578063ba019dab1461023c578063bc063e1a1461025a5761010b565b8063867378c5116100de578063867378c5146101885780639381cd2b146101a6578063992e2a92146101c45780639a86139b146101e25761010b565b806309a3bbe414610110578063189d00ca1461012e578063218b53821461014c57806376c7a3c71461016a575b600080fd5b61011861030e565b6040518082815260200191505060405180910390f35b61013661031d565b6040518082815260200191505060405180910390f35b610154610337565b6040518082815260200191505060405180910390f35b610172610343565b6040518082815260200191505060405180910390f35b61019061035b565b6040518082815260200191505060405180910390f35b6101ae610375565b6040518082815260200191505060405180910390f35b6101cc610384565b6040518082815260200191505060405180910390f35b6101ea61039d565b6040518082815260200191505060405180910390f35b6102086103c5565b6040518082815260200191505060405180910390f35b6102266103ca565b6040518082815260200191505060405180910390f35b6102446103cf565b6040518082815260200191505060405180910390f35b6102626103d4565b6040518082815260200191505060405180910390f35b6102806103ea565b6040518082815260200191505060405180910390f35b61029e6103fc565b6040518082815260200191505060405180910390f35b6102bc610408565b6040518082815260200191505060405180910390f35b6102da61040d565b6040518082815260200191505060405180910390f35b6102f861041c565b6040518082815260200191505060405180910390f35b6032670de0b6b3a76400000281565b6402540be400670de0b6b3a76400008161033357fe5b0481565b670de0b6b3a764000081565b620f4240670de0b6b3a76400008161035757fe5b0481565b64e8d4a51000670de0b6b3a76400008161037157fe5b0481565b6064670de0b6b3a76400000281565b60016003670de0b6b3a76400008161039857fe5b040181565b60007f42524f4e5a450000000000000000000000000000000000000000000000000000905090565b600881565b600281565b600181565b600a670de0b6b3a7640000816103e657fe5b0481565b6001670de0b6b3a76400006002020381565b670de0b6b3a764000081565b600081565b6032670de0b6b3a76400000281565b6002670de0b6b3a76400008161042e57fe5b048156fea265627a7a72315820782047db1c59460c66a1c580988e0da3d4e9dbe9c9d51263130ac46ed8a6eb1264736f6c634300050c0032",
			"opcodes": "PUSH1 0x80 PUSH1 0x40 MSTORE CALLVALUE DUP1 ISZERO PUSH2 0x10 JUMPI PUSH1 0x0 DUP1 REVERT JUMPDEST POP PUSH2 0x467 DUP1 PUSH2 0x20 PUSH1 0x0 CODECOPY PUSH1 0x0 RETURN INVALID PUSH1 0x80 PUSH1 0x40 MSTORE CALLVALUE DUP1 ISZERO PUSH2 0x10 JUMPI PUSH1 0x0 DUP1 REVERT JUMPDEST POP PUSH1 0x4 CALLDATASIZE LT PUSH2 0x10B JUMPI PUSH1 0x0 CALLDATALOAD PUSH1 0xE0 SHR DUP1 PUSH4 0xB0E0D136 GT PUSH2 0xA2 JUMPI DUP1 PUSH4 0xBC694EA2 GT PUSH2 0x71 JUMPI DUP1 PUSH4 0xBC694EA2 EQ PUSH2 0x278 JUMPI DUP1 PUSH4 0xC36596A6 EQ PUSH2 0x296 JUMPI DUP1 PUSH4 0xC6580D12 EQ PUSH2 0x2B4 JUMPI DUP1 PUSH4 0xE4A28A52 EQ PUSH2 0x2D2 JUMPI DUP1 PUSH4 0xEC093021 EQ PUSH2 0x2F0 JUMPI PUSH2 0x10B JUMP JUMPDEST DUP1 PUSH4 0xB0E0D136 EQ PUSH2 0x200 JUMPI DUP1 PUSH4 0xB7B800A4 EQ PUSH2 0x21E JUMPI DUP1 PUSH4 0xBA019DAB EQ PUSH2 0x23C JUMPI DUP1 PUSH4 0xBC063E1A EQ PUSH2 0x25A JUMPI PUSH2 0x10B JUMP JUMPDEST DUP1 PUSH4 0x867378C5 GT PUSH2 0xDE JUMPI DUP1 PUSH4 0x867378C5 EQ PUSH2 0x188 JUMPI DUP1 PUSH4 0x9381CD2B EQ PUSH2 0x1A6 JUMPI DUP1 PUSH4 0x992E2A92 EQ PUSH2 0x1C4 JUMPI DUP1 PUSH4 0x9A86139B EQ PUSH2 0x1E2 JUMPI PUSH2 0x10B JUMP JUMPDEST DUP1 PUSH4 0x9A3BBE4 EQ PUSH2 0x110 JUMPI DUP1 PUSH4 0x189D00CA EQ PUSH2 0x12E JUMPI DUP1 PUSH4 0x218B5382 EQ PUSH2 0x14C JUMPI DUP1 PUSH4 0x76C7A3C7 EQ PUSH2 0x16A JUMPI JUMPDEST PUSH1 0x0 DUP1 REVERT JUMPDEST PUSH2 0x118 PUSH2 0x30E JUMP JUMPDEST PUSH1 0x40 MLOAD DUP1 DUP3 DUP2 MSTORE PUSH1 0x20 ADD SWAP2 POP POP PUSH1 0x40 MLOAD DUP1 SWAP2 SUB SWAP1 RETURN JUMPDEST PUSH2 0x136 PUSH2 0x31D JUMP JUMPDEST PUSH1 0x40 MLOAD DUP1 DUP3 DUP2 MSTORE PUSH1 0x20 ADD SWAP2 POP POP PUSH1 0x40 MLOAD DUP1 SWAP2 SUB SWAP1 RETURN JUMPDEST PUSH2 0x154 PUSH2 0x337 JUMP JUMPDEST PUSH1 0x40 MLOAD DUP1 DUP3 DUP2 MSTORE PUSH1 0x20 ADD SWAP2 POP POP PUSH1 0x40 MLOAD DUP1 SWAP2 SUB SWAP1 RETURN JUMPDEST PUSH2 0x172 PUSH2 0x343 JUMP JUMPDEST PUSH1 0x40 MLOAD DUP1 DUP3 DUP2 MSTORE PUSH1 0x20 ADD SWAP2 POP POP PUSH1 0x40 MLOAD DUP1 SWAP2 SUB SWAP1 RETURN JUMPDEST PUSH2 0x190 PUSH2 0x35B JUMP JUMPDEST PUSH1 0x40 MLOAD DUP1 DUP3 DUP2 MSTORE PUSH1 0x20 ADD SWAP2 POP POP PUSH1 0x40 MLOAD DUP1 SWAP2 SUB SWAP1 RETURN JUMPDEST PUSH2 0x1AE PUSH2 0x375 JUMP JUMPDEST PUSH1 0x40 MLOAD DUP1 DUP3 DUP2 MSTORE PUSH1 0x20 ADD SWAP2 POP POP PUSH1 0x40 MLOAD DUP1 SWAP2 SUB SWAP1 RETURN JUMPDEST PUSH2 0x1CC PUSH2 0x384 JUMP JUMPDEST PUSH1 0x40 MLOAD DUP1 DUP3 DUP2 MSTORE PUSH1 0x20 ADD SWAP2 POP POP PUSH1 0x40 MLOAD DUP1 SWAP2 SUB SWAP1 RETURN JUMPDEST PUSH2 0x1EA PUSH2 0x39D JUMP JUMPDEST PUSH1 0x40 MLOAD DUP1 DUP3 DUP2 MSTORE PUSH1 0x20 ADD SWAP2 POP POP PUSH1 0x40 MLOAD DUP1 SWAP2 SUB SWAP1 RETURN JUMPDEST PUSH2 0x208 PUSH2 0x3C5 JUMP JUMPDEST PUSH1 0x40 MLOAD DUP1 DUP3 DUP2 MSTORE PUSH1 0x20 ADD SWAP2 POP POP PUSH1 0x40 MLOAD DUP1 SWAP2 SUB SWAP1 RETURN JUMPDEST PUSH2 0x226 PUSH2 0x3CA JUMP JUMPDEST PUSH1 0x40 MLOAD DUP1 DUP3 DUP2 MSTORE PUSH1 0x20 ADD SWAP2 POP POP PUSH1 0x40 MLOAD DUP1 SWAP2 SUB SWAP1 RETURN JUMPDEST PUSH2 0x244 PUSH2 0x3CF JUMP JUMPDEST PUSH1 0x40 MLOAD DUP1 DUP3 DUP2 MSTORE PUSH1 0x20 ADD SWAP2 POP POP PUSH1 0x40 MLOAD DUP1 SWAP2 SUB SWAP1 RETURN JUMPDEST PUSH2 0x262 PUSH2 0x3D4 JUMP JUMPDEST PUSH1 0x40 MLOAD DUP1 DUP3 DUP2 MSTORE PUSH1 0x20 ADD SWAP2 POP POP PUSH1 0x40 MLOAD DUP1 SWAP2 SUB SWAP1 RETURN JUMPDEST PUSH2 0x280 PUSH2 0x3EA JUMP JUMPDEST PUSH1 0x40 MLOAD DUP1 DUP3 DUP2 MSTORE PUSH1 0x20 ADD SWAP2 POP POP PUSH1 0x40 MLOAD DUP1 SWAP2 SUB SWAP1 RETURN JUMPDEST PUSH2 0x29E PUSH2 0x3FC JUMP JUMPDEST PUSH1 0x40 MLOAD DUP1 DUP3 DUP2 MSTORE PUSH1 0x20 ADD SWAP2 POP POP PUSH1 0x40 MLOAD DUP1 SWAP2 SUB SWAP1 RETURN JUMPDEST PUSH2 0x2BC PUSH2 0x408 JUMP JUMPDEST PUSH1 0x40 MLOAD DUP1 DUP3 DUP2 MSTORE PUSH1 0x20 ADD SWAP2 POP POP PUSH1 0x40 MLOAD DUP1 SWAP2 SUB SWAP1 RETURN JUMPDEST PUSH2 0x2DA PUSH2 0x40D JUMP JUMPDEST PUSH1 0x40 MLOAD DUP1 DUP3 DUP2 MSTORE PUSH1 0x20 ADD SWAP2 POP POP PUSH1 0x40 MLOAD DUP1 SWAP2 SUB SWAP1 RETURN JUMPDEST PUSH2 0x2F8 PUSH2 0x41C JUMP JUMPDEST PUSH1 0x40 MLOAD DUP1 DUP3 DUP2 MSTORE PUSH1 0x20 ADD SWAP2 POP POP PUSH1 0x40 MLOAD DUP1 SWAP2 SUB SWAP1 RETURN JUMPDEST PUSH1 0x32 PUSH8 0xDE0B6B3A7640000 MUL DUP2 JUMP JUMPDEST PUSH5 0x2540BE400 PUSH8 0xDE0B6B3A7640000 DUP2 PUSH2 0x333 JUMPI INVALID JUMPDEST DIV DUP2 JUMP JUMPDEST PUSH8 0xDE0B6B3A7640000 DUP2 JUMP JUMPDEST PUSH3 0xF4240 PUSH8 0xDE0B6B3A7640000 DUP2 PUSH2 0x357 JUMPI INVALID JUMPDEST DIV DUP2 JUMP JUMPDEST PUSH5 0xE8D4A51000 PUSH8 0xDE0B6B3A7640000 DUP2 PUSH2 0x371 JUMPI INVALID JUMPDEST DIV DUP2 JUMP JUMPDEST PUSH1 0x64 PUSH8 0xDE0B6B3A7640000 MUL DUP2 JUMP JUMPDEST PUSH1 0x1 PUSH1 0x3 PUSH8 0xDE0B6B3A7640000 DUP2 PUSH2 0x398 JUMPI INVALID JUMPDEST DIV ADD DUP2 JUMP JUMPDEST PUSH1 0x0 PUSH32 0x42524F4E5A450000000000000000000000000000000000000000000000000000 SWAP1 POP SWAP1 JUMP JUMPDEST PUSH1 0x8 DUP2 JUMP JUMPDEST PUSH1 0x2 DUP2 JUMP JUMPDEST PUSH1 0x1 DUP2 JUMP JUMPDEST PUSH1 0xA PUSH8 0xDE0B6B3A7640000 DUP2 PUSH2 0x3E6 JUMPI INVALID JUMPDEST DIV DUP2 JUMP JUMPDEST PUSH1 0x1 PUSH8 0xDE0B6B3A7640000 PUSH1 0x2 MUL SUB DUP2 JUMP JUMPDEST PUSH8 0xDE0B6B3A7640000 DUP2 JUMP JUMPDEST PUSH1 0x0 DUP2 JUMP JUMPDEST PUSH1 0x32 PUSH8 0xDE0B6B3A7640000 MUL DUP2 JUMP JUMPDEST PUSH1 0x2 PUSH8 0xDE0B6B3A7640000 DUP2 PUSH2 0x42E JUMPI INVALID JUMPDEST DIV DUP2 JUMP INVALID LOG2 PUSH6 0x627A7A723158 KECCAK256 PUSH25 0x2047DB1C59460C66A1C580988E0DA3D4E9DBE9C9D51263130A 0xc4 PUSH15 0xD8A6EB1264736F6C634300050C0032 "
		},
		"gasEstimates": {
			"creation": {
				"codeDepositCost": "225400",
				"executionCost": "269",
				"totalCost": "225669"
			},
			"external": {
				"BONE()": "249",
				"BPOW_PRECISION()": "276",
				"EXIT_FEE()": "271",
				"INIT_POOL_SUPPLY()": "258",
				"MAX_BOUND_TOKENS()": "228",
				"MAX_BPOW_BASE()": "241",
				"MAX_FEE()": "319",
				"MAX_IN_RATIO()": "340",
				"MAX_OUT_RATIO()": "303",
				"MAX_TOTAL_WEIGHT()": "237",
				"MAX_WEIGHT()": "301",
				"MIN_BALANCE()": "253",
				"MIN_BOUND_TOKENS()": "250",
				"MIN_BPOW_BASE()": "272",
				"MIN_FEE()": "320",
				"MIN_WEIGHT()": "273",
				"getColor()": "302"
			},
			"internal": {
				"_burn(uint256)": "infinite",
				"_mint(uint256)": "infinite",
				"_move(address,address,uint256)": "infinite",
				"_pull(address,uint256)": "infinite",
				"_push(address,uint256)": "infinite"
			}
		},
		"methodIdentifiers": {
			"BONE()": "c36596a6",
			"BPOW_PRECISION()": "189d00ca",
			"EXIT_FEE()": "c6580d12",
			"INIT_POOL_SUPPLY()": "9381cd2b",
			"MAX_BOUND_TOKENS()": "b0e0d136",
			"MAX_BPOW_BASE()": "bc694ea2",
			"MAX_FEE()": "bc063e1a",
			"MAX_IN_RATIO()": "ec093021",
			"MAX_OUT_RATIO()": "992e2a92",
			"MAX_TOTAL_WEIGHT()": "09a3bbe4",
			"MAX_WEIGHT()": "e4a28a52",
			"MIN_BALANCE()": "867378c5",
			"MIN_BOUND_TOKENS()": "b7b800a4",
			"MIN_BPOW_BASE()": "ba019dab",
			"MIN_FEE()": "76c7a3c7",
			"MIN_WEIGHT()": "218b5382",
			"getColor()": "9a86139b"
		}
	},
	"abi": [
		{
			"anonymous": false,
			"inputs": [
				{
					"indexed": true,
					"internalType": "address",
					"name": "src",
					"type": "address"
				},
				{
					"indexed": true,
					"internalType": "address",
					"name": "dst",
					"type": "address"
				},
				{
					"indexed": false,
					"internalType": "uint256",
					"name": "amt",
					"type": "uint256"
				}
			],
			"name": "Approval",
			"type": "event"
		},
		{
			"anonymous": false,
			"inputs": [
				{
					"indexed": true,
					"internalType": "address",
					"name": "src",
					"type": "address"
				},
				{
					"indexed": true,
					"internalType": "address",
					"name": "dst",
					"type": "address"
				},
				{
					"indexed": false,
					"internalType": "uint256",
					"name": "amt",
					"type": "uint256"
				}
			],
			"name": "Transfer",
			"type": "event"
		},
		{
			"constant": true,
			"inputs": [],
			"name": "BONE",
			"outputs": [
				{
					"internalType": "uint256",
					"name": "",
					"type": "uint256"
				}
			],
			"payable": false,
			"stateMutability": "view",
			"type": "function"
		},
		{
			"constant": true,
			"inputs": [],
			"name": "BPOW_PRECISION",
			"outputs": [
				{
					"internalType": "uint256",
					"name": "",
					"type": "uint256"
				}
			],
			"payable": false,
			"stateMutability": "view",
			"type": "function"
		},
		{
			"constant": true,
			"inputs": [],
			"name": "EXIT_FEE",
			"outputs": [
				{
					"internalType": "uint256",
					"name": "",
					"type": "uint256"
				}
			],
			"payable": false,
			"stateMutability": "view",
			"type": "function"
		},
		{
			"constant": true,
			"inputs": [],
			"name": "INIT_POOL_SUPPLY",
			"outputs": [
				{
					"internalType": "uint256",
					"name": "",
					"type": "uint256"
				}
			],
			"payable": false,
			"stateMutability": "view",
			"type": "function"
		},
		{
			"constant": true,
			"inputs": [],
			"name": "MAX_BOUND_TOKENS",
			"outputs": [
				{
					"internalType": "uint256",
					"name": "",
					"type": "uint256"
				}
			],
			"payable": false,
			"stateMutability": "view",
			"type": "function"
		},
		{
			"constant": true,
			"inputs": [],
			"name": "MAX_BPOW_BASE",
			"outputs": [
				{
					"internalType": "uint256",
					"name": "",
					"type": "uint256"
				}
			],
			"payable": false,
			"stateMutability": "view",
			"type": "function"
		},
		{
			"constant": true,
			"inputs": [],
			"name": "MAX_FEE",
			"outputs": [
				{
					"internalType": "uint256",
					"name": "",
					"type": "uint256"
				}
			],
			"payable": false,
			"stateMutability": "view",
			"type": "function"
		},
		{
			"constant": true,
			"inputs": [],
			"name": "MAX_IN_RATIO",
			"outputs": [
				{
					"internalType": "uint256",
					"name": "",
					"type": "uint256"
				}
			],
			"payable": false,
			"stateMutability": "view",
			"type": "function"
		},
		{
			"constant": true,
			"inputs": [],
			"name": "MAX_OUT_RATIO",
			"outputs": [
				{
					"internalType": "uint256",
					"name": "",
					"type": "uint256"
				}
			],
			"payable": false,
			"stateMutability": "view",
			"type": "function"
		},
		{
			"constant": true,
			"inputs": [],
			"name": "MAX_TOTAL_WEIGHT",
			"outputs": [
				{
					"internalType": "uint256",
					"name": "",
					"type": "uint256"
				}
			],
			"payable": false,
			"stateMutability": "view",
			"type": "function"
		},
		{
			"constant": true,
			"inputs": [],
			"name": "MAX_WEIGHT",
			"outputs": [
				{
					"internalType": "uint256",
					"name": "",
					"type": "uint256"
				}
			],
			"payable": false,
			"stateMutability": "view",
			"type": "function"
		},
		{
			"constant": true,
			"inputs": [],
			"name": "MIN_BALANCE",
			"outputs": [
				{
					"internalType": "uint256",
					"name": "",
					"type": "uint256"
				}
			],
			"payable": false,
			"stateMutability": "view",
			"type": "function"
		},
		{
			"constant": true,
			"inputs": [],
			"name": "MIN_BOUND_TOKENS",
			"outputs": [
				{
					"internalType": "uint256",
					"name": "",
					"type": "uint256"
				}
			],
			"payable": false,
			"stateMutability": "view",
			"type": "function"
		},
		{
			"constant": true,
			"inputs": [],
			"name": "MIN_BPOW_BASE",
			"outputs": [
				{
					"internalType": "uint256",
					"name": "",
					"type": "uint256"
				}
			],
			"payable": false,
			"stateMutability": "view",
			"type": "function"
		},
		{
			"constant": true,
			"inputs": [],
			"name": "MIN_FEE",
			"outputs": [
				{
					"internalType": "uint256",
					"name": "",
					"type": "uint256"
				}
			],
			"payable": false,
			"stateMutability": "view",
			"type": "function"
		},
		{
			"constant": true,
			"inputs": [],
			"name": "MIN_WEIGHT",
			"outputs": [
				{
					"internalType": "uint256",
					"name": "",
					"type": "uint256"
				}
			],
			"payable": false,
			"stateMutability": "view",
			"type": "function"
		},
		{
			"constant": true,
			"inputs": [],
			"name": "getColor",
			"outputs": [
				{
					"internalType": "bytes32",
					"name": "",
					"type": "bytes32"
				}
			],
			"payable": false,
			"stateMutability": "view",
			"type": "function"
		}
	]
}